:100000000C9455020C94F71C0C9472020C9472021E
:100010000C9472020C9472020C9472020C94611C87
:100020000C9472020C9472020C9472020C94720280
:100030000C9472020C9472020C94E9040C947202F7
:100040000C9472020C9472020C9472020C94720260
:100050000C9472020C9472020C9472020C94720250
:100060000C9472020C94720207634236B79BD8A7B5
:100070001A39685618AEBAAB558C1D3CB7CC5763CD
:10008000BD6DEDFD753EF6177231BF000000803F7B
:1000900008000000BE922449123EABAAAA2ABECD97
:1000A000CCCC4C3E00000080BEABAAAAAA3E000009
:1000B0000000BF000000803F000000000008417801
:1000C000D3BB4387D1133D190E3CC3BD4282AD2B38
:1000D0003E68EC8276BED98FE1A93E4C80EFFFBE30
:1000E00001C4FF7F3F00000000004669726D776128
:1000F00072652076302E340025312E306620572050
:100100002020002D2D2D205700506F77657220453F
:100110007374696D6174650025312E306620572037
:100120002020002D2D2D205700506F77657200255F
:10013000312E3366206B672A6D5E32004D2D496E7D
:10014000657274696120284A290025312E346600C1
:100150002D2D2D2D2D2D004B5F44616D702045738D
:10016000742E0025312E3466004B5F44616D7000A3
:1001700025312E3266207320202020002D2D2D2D9C
:1001800020730054696D652F5374726F6B65002581
:10019000312E3266206D20202020002D2D2D2D2087
:1001A0006D00446973742F5374726F6B6500253151
:1001B0002E3366206D00446973742F5265760020DB
:1001C0006B63616C73200025332E3066002532642A
:1001D0003A25303264002D2D3A2D2D002057202055
:1001E000200025332E3066002D2D2D002053504D3C
:1001F00020200025332E3066002D2D2D0025326461
:100200003A25303264002532643A253032640025C4
:10021000332E306600206D200025342E30660025F8
:1002200032643A2530326400202A20002020200049
:100230002D2D3A2D2D00206D20002D2D2D2D002D42
:100240002D3A2D2D20002D2D2D002D2D3A2D2D0058
:100250002532643A25303264002D2D3A2D2D0025AB
:10026000312E30662057202020002D2D2D205700C4
:1002700025312E32662020005323202564202020A3
:1002800020006176672025322E3066006176672077
:100290002D2D0053504D2025322E30662020005346
:1002A000504D202D2D20200025312E3066206D65EB
:1002B0007465727320202020002532643A25303284
:1002C0006400204C7563612773204572676F2000BE
:1002D000204C7563612773204572676F20002F2FB4
:1002E0000048656170004461746100496E666F008A
:1002F0002F2F004275726E005061636500442F54C9
:100300000050726F6700496E666F0050726F670031
:10031000526F7721004572676F00202573003E25DC
:100320007300257300486561703A2025642F2564A9
:100330002000486561703A2025642F256420005410
:10034000686425643A2025642F256420005468647D
:1003500025643A2025642F256420006E616E0069B3
:100360006E66006364696E6F70737578585B65665E
:100370006745464700616E006E66696E6974790074
:10038000CDCCCC3D0AD7233C17B7D13877CC2B3214
:100390009595E6241FB14F0A000020410000C84295
:1003A00000401C4620BCBE4CCA1B0E5AAEC59D74F4
:1003B00000407A10F35A00A0724E18090010A5D41C
:1003C000E80000E87648170000E40B54020000CA79
:1003D0009A3B000000E1F5050000809698000000BF
:1003E00040420F000000A08601000000102700001E
:1003F0000000E803000000006400000000000A00A4
:10040000000000000100000000002C76D888DC67A6
:100410004F0823DFC1DFAE59E1B1B796E5E3E453FE
:10042000C63AE651997696E8E6C28426EB898C9B1B
:1004300062ED407C6FFCEFBC9C9F40F2BAA56FA5BB
:10044000F490055A2AF75C936B6CF9676DC11BFC3D
:10045000E0E40D47FEF520E6B500D0ED902E030058
:10046000943577050080841E080000204E0A0000A5
:1004700000C80C333333330F986E12831141EF8D64
:100480002114893BE65516CFFEE6DB18D1844B38A4
:100490001BF77C1D901DA4BBE424203284725E22D5
:1004A0008100C9F124ECA1E53D2711241FBECFEF47
:1004B000D8E0DEBFCDBF11E0A0E0B1E0EAE5FFE5A6
:1004C00002C005900D92AE38B107D9F717E0AEE83B
:1004D000B1E001C01D92A53AB107E1F70E94BE0646
:1004E0000C94AB2F0C940000F894FFCFCF93DF93C4
:1004F0008091120390911303A0911403B0911503FE
:100500000196A11DB11D8093120390931303A09334
:100510001403B0931503C6E1D3E02FEF3FEF8D81B5
:100520009E81AF81B8850097A105B10551F18D81FC
:100530009E81AF81B8850197A109B1098D839E8302
:10054000AF83B8878D819E81AF81B8850097A10563
:10055000B105B9F48A818330E1F0823001F13C8346
:100560002B831A821D821E821F821886809110039F
:1005700090911103C817D90720F4D0931103C093A9
:1005800010032A9683E0C636D80749F6DF91CF914B
:100590000895EB81FC8180818F5F8083E0CFEB81C8
:1005A000FC8111821082DBCF08957894089580E059
:1005B00008950895FC017483638312821582168264
:1005C000178210868091100390911103E817F907A4
:1005D00020F4F0931103E0931003CF010895DC01A0
:1005E000ED91FC9111973097A1F01D921C927483AC
:1005F00063831282158216821782108680911003FF
:1006000090911103E817F90720F4F0931103E09398
:1006100010030895DC018C918F5F8C938C911816D8
:100620000CF408958091190390911A038A179B077F
:10063000D9F0E6E1F3E03A96838194818A179B072B
:10064000D1F71482138212821582168217821086C5
:100650008091100390911103E817F90710F7F093B8
:100660001103E09310030895E6E1F3E0EACFDC0123
:100670002C916C9327FF23C04091100350911103DC
:10068000E6E1F3E06EEF7FEF03C027FF14C03A9678
:10069000838194818A179B07C1F72F5F74836383DB
:1006A00012821582168217821086E417F50768F702
:1006B000AF0127FDECCF5093110340931003089531
:1006C000FC018185682B61878281843009F008955F
:1006D00083816823E1F314821382128215821682C9
:1006E000178210868091100390911103E817F90783
:1006F00070F7F0931103E09310030895A0910E0397
:10070000B0910F0312968C93129715964D935D93AB
:100710006D937C931897809118038823C9F0E6E1C4
:10072000F3E03A9682818823E1F7F0931103E09396
:100730001003F0930F03E0930E03CF01BD010E945D
:10074000A604E0910E03F0910F0383819481089534
:10075000E6E1F3E0EACF0F931F93CF93DF93082FE7
:10076000C0910E03D0910F039985182F192389F496
:100770004F3F8FEF58078FEF68078FEF780799F09B
:100780000B8384E00E947E0397FD0DC09985102F96
:100790001923812F809589238987812FDF91CF911C
:1007A0001F910F9108957894812FDF91CF911F9120
:1007B0000F910895F8940E94AB0378940895DC019A
:1007C0008C91181634F481508C9320E030E0C901EC
:1007D00008954F3F9FEF59079FEF69079FEF7907F4
:1007E00019F42FEF3FEFF3CF81508C93E0910E037C
:1007F000F0910F03B483A38383E00E947E039C01E6
:10080000E6CFF8940E94DF0378940895AB01BC0111
:10081000F8948091120390911303A0911403B09166
:100820001503481B590B6A0B7B0B81E00E947E036A
:1008300078940895AB01BC01F89481E00E947E0396
:1008400078940895DC0180910E0390910F03119626
:100850009C938E93E0910E03F0910F03B483A383D6
:1008600082E00E947E03089560910E0370910F0351
:1008700080911003909111036817790731F09093DC
:100880000F0380930E030E94A6040895F8940E941B
:1008900060030E94340478940895F8940E9437030A
:1008A0000E94340478940895F8940E940A030E94E8
:1008B000340478940895CF93DF9325ED34E0832FAB
:1008C000992787FD9A95682F46E153E0DA01C1E147
:1008D000D1E0EA81FB8175971196FC93EE938E81AE
:1008E000828BED91FC9111978E819F81892F990FB9
:1008F000990B818BED91FC9111978885808BED91FF
:10090000FC91119788859985892F990F990B878775
:10091000ED91FC911197638BED91FC911197248BD4
:100920001A962A9683E0A636B80799F650931103D3
:100930004093100350930F0340930E03CA01BD016F
:100940000E94A6047894DF91CF9108952F923F9250
:100950004F925F926F927F928F929F92AF92BF92CF
:10096000CF92DF92EF92FF920F931F93CF93DF937B
:10097000FB010DB600820EB60182FC0100800DBEA7
:1009800001800EBEDF91CF911F910F91FF90EF90EC
:10099000DF90CF90BF90AF909F908F907F906F909F
:1009A0005F904F903F902F9008957894C201F1018D
:1009B000099580E090E00E947402089582E084BD71
:1009C00093E095BD9DE397BD16BC85BB80936E00FB
:1009D00008951F920F920FB60F9211242F933F93F9
:1009E0004F935F936F937F938F939F93AF93BF9337
:1009F000EF93FF930E9476020E943404FF91EF91DF
:100A0000BF91AF919F918F917F916F915F914F9126
:100A10003F912F910F900FBE0F901F90189510923D
:100A20009401109295011092960110929701809175
:100A3000120390911303A0911403B09115038093B6
:100A4000980190939901A0939A01B0939B01089506
:100A5000FC01F89480919201909193019583848395
:100A600080918E0190918F01A0919001B0919101A0
:100A700080839183A283B38378940895CF92DF9289
:100A8000EF92FF920F931F936C01F894E090920104
:100A9000F090930160918E0170918F01809190018F
:100AA000909191017894F6012081318142815381A6
:100AB000621B730B840B950B28EE33E040E050E093
:100AC0000E94D32B9B01AC01F60184819581A0E0AB
:100AD000B0E0281B390B4A0B5B0B00E010E02E0D39
:100AE0003F1D401F511FB901CA011F910F91FF9077
:100AF000EF90DF90CF900895FC01F89480919201DF
:100B00009091930120918E0130918F01409190013D
:100B100050919101789480819181A281B381281BA9
:100B2000390B4A0B5B0BB901CA010895F894209167
:100B30008E0130918F0140919001509191017894F4
:100B4000B901CA010895F89410928E0110928F0194
:100B5000109290011092910178940895109294014E
:100B600010929501109296011092970180911203B4
:100B700090911303A0911403B091150380939801F1
:100B800090939901A0939A01B0939B01F8942091BE
:100B90001203309113034091140350911503809177
:100BA000980190919901A0919A01B0919B017901CE
:100BB0008A01E81AF90A0A0B1B0BE0929C01F092D9
:100BC0009D0100939E0110939F0120939801309303
:100BD000990140939A0150939B01789460919C01F4
:100BE00070919D0180919E0190919F0100919201D1
:100BF0001091930128EE33E040E050E00E94D32BA7
:100C000020EA3FE040E050E00E94122C020F131F48
:100C1000109393010093920180919201909193011E
:100C2000875E934008F442C080918E0190918F01BD
:100C3000A0919001B09191010196A11DB11D8093E9
:100C40008E0190938F01A0939001B09391018091B8
:100C5000940190919501A0919601B0919701019610
:100C6000A11DB11D8093940190939501A0939601CD
:100C7000B0939701109293011092920160918E01AE
:100C800070918F0180919001909191010E9455295E
:100C900020E030E040E752E40E94C128609346041F
:100CA00070934704809348049093490460E570E092
:100CB00080E090E00E941A0469CF6F927F928F9239
:100CC0009F92AF92BF92CF92DF92EF92FF920F93DB
:100CD0001F936B017C015A014901380120E030E08B
:100CE00040E752E40E94C1280E942929F50160834F
:100CF00070E0882777FD8095982F0E94572920E083
:100D000030E040E752EC0E940B2AA70196010E94B6
:100D100059285B016C010E942929E62EF4016083A9
:100D2000C601B50120E030E040E752E40E940B2A02
:100D30005B016C01FF2400E010E0C801B7010E94D4
:100D4000552920E030E040E752EC0E940B2A9B013D
:100D5000AC01C601B5010E9459280E942929F3015E
:100D600060831F910F91FF90EF90DF90CF90BF9025
:100D7000AF909F908F907F906F9008950E94651F15
:100D800081E080935C050E94DE040E945B04FFCF3B
:100D90004F925F926F927F928F929F92AF92BF928B
:100DA000CF92DF92EF92FF920F931F93CF93DF9337
:100DB0002C010F2EF0E06F2EF0E07F2EF0E08F2E52
:100DC000F0E09F2EF02D64015301C4E0D0E0BE019D
:100DD000882777FD8095982F0E9457299B01AC01A9
:100DE00060E070E080E090E40E946E2A7B018C015C
:100DF000C401B301A80197010E9459283B014C018D
:100E0000C801B701F20121913191419151912F0116
:100E10000E940B2A9B01AC01C601B5010E94592812
:100E20005B016C012197FFEFCF3FDF0781F6A40143
:100E300093010E94C128DF91CF911F910F91FF90E4
:100E4000EF90DF90CF90BF90AF909F908F907F906A
:100E50006F905F904F900895DF93CF9300D000D0B4
:100E6000CDB7DEB752985A9A1092800084E08093F2
:100E7000810083E08093690011E01DBB1092850022
:100E8000109284008FEF95E0A2E0BAE38093A20174
:100E90009093A301A093A401B093A5018CE09CEAD8
:100EA000A4EBBEE38093A6019093A701A093A801B1
:100EB000B093A90160EE7EE280E090E00E941A0407
:100EC000109279021092780210927B0210927A02AC
:100ED00080E090E0A0E0B0E08093EC029093ED021F
:100EE000A093EE02B093EF028093F0029093F10290
:100EF000A093F202B093F3028093F4029093F50270
:100F0000A093F602B093F7028093F8029093F9024F
:100F1000A093FA02B093FB021093FC021092FD0220
:100F20008093AA019093AB01A093AC01B093AD0163
:100F3000E0E080E020E030E040E050E0F0E0EE0F64
:100F4000FF1FEE0FFF1FDF01AC56BD4F2D933D93EA
:100F50004D935C931397DF01A852BD4F2D933D93A2
:100F60004D935C931397DF01A455BD4F2D933D9393
:100F70004D935C931397DF01A054BD4F2D933D9388
:100F80004D935C931397E458FD4F20833183428344
:100F90005383E82FEF5F8E2FE53080F2E093AE01B0
:100FA0001092AF011092B0012093B1013093B201C1
:100FB0004093B3015093B4012093B5013093B6012F
:100FC0004093B7015093B8012093B9013093BA010F
:100FD0004093BB015093BC012093BD013093BE01EF
:100FE0004093BF015093C0018EEF92E00E9428050C
:100FF00084E093E00E9428051092C2011092C10182
:10100000F89483EC91E040E050E060E070E00E94F2
:1010100022047894609178027091790280E090E0E7
:101020000E9455292DEB37E346E857E30E940B2A2F
:101030001B012C016093C5017093C6018093C70109
:101040009093C8018091EC029091ED02A091EE0284
:10105000B091EF0289839A83AB83BC838093F002C3
:101060009093F102A093F202B093F30260917802A0
:1010700070917902E0907A02F0907B0280E090E03B
:101080000E9455295B016C0100E010E0C801B70126
:101090000E9455299B01AC01C601B5010E94592847
:1010A0002DEB37E346E057E30E940B2A9B01AC018E
:1010B0006AED7FE089EC90E40E94C1287B018C01FD
:1010C0006093EC027093ED028093EE029093EF0236
:1010D0006090F4027090F5028090F6029090F70212
:1010E0006092F8027092F9028092FA029092FB02EA
:1010F000C201B10127E137EB41ED58E30E945928C5
:101100005B016C01C801B70129813A814B815C8187
:101110000E945828A60195010E94C1281B012C019C
:101120006093F4027093F5028093F6029093F702B5
:10113000A40193010E945828A60195010E94C1288C
:101140007B018C016093C9017093CA018093CB012C
:101150009093CC0120E030E040E252EC0E94072A5C
:1011600018160CF098C0C801B70120E030E040E24A
:1011700052E40E94BD2888230CF08DC01092B0016B
:10118000C201B10120E030E040E751E40E94072AAB
:1011900018160CF084C0A1E0A093AF019091B001AB
:1011A000913009F483C08091AF01813009F4B9C155
:1011B0008091FC028093FD021092FC028091FD025E
:1011C000813009F4B8C18091FC02813009F435C145
:1011D000882309F015CF8091FD02882309F010CFF4
:1011E000A090EC02B090ED02C090EE02D090EF0221
:1011F000C601B50127E137EB41ED58E30E945928BC
:101200009B01AC01E090C501F090C6010091C701BF
:101210001091C8010E940B2A9B01AC016091F4025D
:101220007091F5028091F6029091F7020E94C12818
:10123000A80197010E940B2A9B01AC016091CD018E
:101240007091CE018091CF019091D0010E945928D8
:101250006093CD017093CE018093CF019093D00124
:10126000C601B501A80197010E940B2A9B01AC01A0
:101270006091D1017091D2018091D3019091D401FC
:101280000E9459286093D1017093D2018093D301B9
:101290009093D401B5CE91E09093B00171CF1092AC
:1012A000AF019091B001913009F07DCF8091FC02A7
:1012B0008093FD029093FC02882309F084CF84E0A0
:1012C00093E00E94280580E090E0A0E0B0E08093E9
:1012D000B5019093B601A093B701B093B801809384
:1012E000B1019093B201A093B301B093B401809186
:1012F000CC029091CD02A091CE02B091CF0280930A
:10130000D0029093D102A093D202B093D3028091E5
:10131000C8029091C902A091CA02B091CB028093F9
:10132000CC029093CD02A093CE02B093CF028091D5
:10133000C4029091C502A091C602B091C7028093E9
:10134000C8029093C902A093CA02B093CB028091C5
:10135000C0029091C102A091C202B091C3028093D9
:10136000C4029093C502A093C602B093C7026091D5
:10137000B9017091BA018091BB019091BC0120919B
:10138000BD013091BE014091BF015091C0010E944A
:1013900058282DEB37E346E855E30E9459289B0176
:1013A000AC016091CD017091CE018091CF019091FF
:1013B000D0010E94C1286093C0027093C102809343
:1013C000C2029093C30280EC92E00E94C806609330
:1013D000D4027093D5028093D6029093D702609185
:1013E000EC027091ED028091EE029091EF0220915B
:1013F000C5013091C6014091C7015091C8010E94BA
:101400000B2A9B01AC016091D1017091D2018091B6
:10141000D3019091D4010E9459286093D101709317
:10142000D2018093D3019093D4018091FC02882350
:1014300009F4C4CE813009F0CBCE8091FD02813019
:1014400009F0DECDE090EC02F090ED020091EE02AA
:101450001091EF02A090C501B090C601C090C701E5
:10146000D090C801C801B7012AE037ED43E25EE33E
:101470000E940B2A2091F4023091F5024091F6026D
:101480005091F7020E940B2AA60195010E940B2A97
:101490009B01AC016091B5017091B6018091B701DB
:1014A0009091B8010E9459286093B5017093B601DC
:1014B0008093B7019093B801C801B701A8019701C3
:1014C0000E940B2A9B01AC01C801B7010E940B2AA4
:1014D0002091A2013091A3014091A4015091A50156
:1014E0000E940B2A9B01AC01C601B5010E940B2A88
:1014F0009B01AC016091B1017091B2018091B30187
:101500009091B4010E9459286093B1017093B20187
:101510008093B3019093B401C801B701A60195016E
:10152000A3CE8091FC02813009F044CE8093FD026D
:101530008093FC0248CE8091C1019091C201019636
:101540009093C2018093C10180E090E0A0E0B0E000
:101550008093CD019093CE01A093CF01B093D001A1
:1015600084E093E00E943E050E94552920E030E08F
:101570004AE754E40E94C1286093BD017093BE0104
:101580008093BF019093C0018EEF92E00E943E05D0
:101590000E94552920E030E04AE754E40E94C12827
:1015A0006093B9017093BA018093BB019093BC0121
:1015B0008EEF92E00E9428056091B9017091BA0106
:1015C0008091BB019091BC0127E137EB41ED58E3DD
:1015D0000E9459287B018C016091D1017091D20148
:1015E0008091D3019091D401A80197010E94C12854
:1015F0006093D5017093D6018093D7019093D80161
:1016000080E090E0A0E0B0E08093D1019093D2011F
:10161000A093D301B093D4016091D9017091DA0104
:101620008091DB019091DC012091DD013091DE01A0
:101630004091DF015091E0010E9458286093E10140
:101640007093E2018093E3019093E4012091D9012A
:101650003091DA014091DB015091DC012093DD01F2
:101660003093DE014093DF015093E0012091E402CA
:101670003091E5024091E6025091E7022093E802A2
:101680003093E9024093EA025093EB022091E0028A
:101690003091E1024091E2025091E3022093E40292
:1016A0003093E5024093E6025093E7022091DC027A
:1016B0003091DD024091DE025091DF022093E00282
:1016C0003093E1024093E2025093E3022091D8026A
:1016D0003091D9024091DA025091DB022093DC0272
:1016E0003093DD024093DE025093DF02A8019701A0
:1016F0000E94C1286093D8027093D9028093DA02C5
:101700009093DB0288ED92E00E94C8066093E501A9
:101710007093E6018093E7019093E80127E137EBAE
:1017200041ED58E30E9459289B01AC0160E070E054
:101730008AEF93E40E94C1286093E9017093EA0163
:101740008093EB019093EC0120E030E040E752E41D
:101750000E94C1284DEE51E02EEE31E00FEE11E077
:101760000E945D068091B8029091B902A091BA02E0
:10177000B091BB028093BC029093BD02A093BE02C5
:10178000B093BF028091B4029091B502A091B602CD
:10179000B091B7028093B8029093B902A093BA02B5
:1017A000B093BB028091B0029091B102A091B202BD
:1017B000B091B3028093B4029093B502A093B602A5
:1017C000B093B7028091AC029091AD02A091AE02AD
:1017D000B091AF028093B0029093B102A093B20295
:1017E000B093B3026091B9017091BA018091BB01CD
:1017F0009091BC0127E137EB41ED58E30E94592855
:101800009B01AC016091BD017091BE018091BF014F
:101810009091C0010E94C1286093AC027093AD0208
:101820008093AE029093AF028CEA92E00E94C806C9
:101830006093F0017093F1018093F2019093F301B2
:101840008091A0029091A102A091A202B091A30266
:101850008093A4029093A502A093A602B093A7023E
:1018600080919C0290919D02A0919E02B0919F0256
:101870008093A0029093A102A093A202B093A3022E
:101880008091980290919902A0919A02B0919B0246
:1018900080939C0290939D02A0939E02B0939F021E
:1018A0008091940290919502A0919602B091970236
:1018B0008093980290939902A0939A02B0939B020E
:1018C0006091B5017091B6018091B7019091B80116
:1018D0002091B1013091B2014091B3015091B40116
:1018E0000E9459287B018C016091B9017091BA0165
:1018F0008091BB019091BC0127E137EB41ED58E3AA
:101900000E9459289B01AC01C801B7010E94C1285F
:10191000609394027093950280939602909397023D
:1019200084E992E00E94C8067B018C016093A802C2
:101930007093A9028093AA029093AB0220E030E05A
:1019400040E251E40E94072A181694F5C801B70135
:1019500020E030E040E850E40E940B2A20E030E034
:101960004FEA53E40E9459282091B9013091BA01FD
:101970004091BB015091BC010E940B2A26E636ED36
:1019800042E855E40E94C1289B01AC016091AA0184
:101990007091AB018091AC019091AD010E945928EA
:1019A0006093AA017093AB018093AC019093AD0159
:1019B0008091880290918902A0918A02B0918B0255
:1019C00080938C0290938D02A0938E02B0938F022D
:1019D0008091840290918502A0918602B091870245
:1019E0008093880290938902A0938A02B0938B021D
:1019F0008091800290918102A0918202B091830235
:101A00008093840290938502A0938602B09387020C
:101A100080917C0290917D02A0917E02B0917F0224
:101A20008093800290938102A0938202B0938302FC
:101A30008091B9019091BA01A091BB01B091BC0114
:101A400080937C0290937D02A0937E02B0937F02EC
:101A50008CE792E00E94C806609390027093910216
:101A60008093920290939302AECB80910E0390915B
:101A70000F039093FB018093FA0110E006E01AC077
:101A800082E04FEF5FEF6FEF7FEF0E94DA0382306B
:101A900081F184E04FEF5FEF6FEF7FEF0E94DA0399
:101AA000843021F11130E9F068EE73E080E090E0DD
:101AB0000E941A0481E04FEF5FEF6FEF7FEF0E940B
:101AC000DA038130E9F68CE595E040E050E060E033
:101AD00070E00E9401040093A0010E94C51D11E066
:101AE000CFCF809105010E94AF1FDECF0E94C51DA0
:101AF000D9CF8CE595E00E94540410E0CACF8091C4
:101B00000E0390910F039093F9018093F801CBE6B7
:101B1000D1E033E8432E31E0532E2AEE222E20E08E
:101B2000322ECE01FC2EE92E0F2EFFE5AF2EF9E26C
:101B3000BF2EFBE4CF2EFBE3DF2EF02D0F2EFAE0BD
:101B40006F2EF7ED7F2EF3E28F2EFEE39F2EF02D0A
:101B500081E040E050E060E070E00E94DA038CE554
:101B600095E040E050E060E070E00E94010485E014
:101B70008093A0010E94C51D01E01AC084E04FEFD0
:101B80005FEF6FEF7FEF0E94DA038430E9F080911E
:101B900004018230F9F0833009F474C1813009F412
:101BA000C1C068EE73E080E090E00E941A0400E09B
:101BB00082E04FEF5FEF6FEF7FEF0E94DA0382303A
:101BC00009F4DCC20130D1F60E94C51D80910401E8
:101BD000823009F781E061E00E945B1D00D000D0F7
:101BE000EDB7FEB7D283C18389E691E09483838306
:101BF0000E94BB2E0F900F900F900F9081E062E03B
:101C00000E945B1DADB7BEB718970FB6F894BEBF64
:101C10000FBEADBFEDB7FEB731961296DC93CE93F3
:101C2000119783E691E093838283A482B582C68272
:101C3000D7820E94BB2EADB7BEB718960FB6F894E8
:101C4000BEBF0FBEADBF81E063E00E945B1D00D050
:101C500000D0EDB7FEB7D283C18387E591E09483CE
:101C600083830E94BB2E0F900F900F900F9081E006
:101C700064E00E945B1D8091C1019091C2010597B3
:101C800008F04EC200D000D0ADB7BEB71196FC929E
:101C900011971296EC921297E0E5F1E01496FC93FE
:101CA000EE9313970E94BB2E0F900F900F900F9002
:101CB00081E065E00E945B1D00D000D0EDB7FEB76B
:101CC000D283C1838CE391E0948383830E94BB2EF3
:101CD0000F900F900F900F9081E066E00E945B1DC7
:101CE000ADB7BEB718970FB6F894BEBF0FBEADBF65
:101CF000EDB7FEB731961296DC93CE9311978FE233
:101D000091E09383828364827582868297820E94A7
:101D1000BB2EADB7BEB718960FB6F894BEBF0FBEB8
:101D2000ADBF3FCF81E061E00E945B1D00D000D0DD
:101D3000ADB7BEB71296DC93CE931197E6EBF1E008
:101D40001496FC93EE9313970E94BB2E0F900F9066
:101D50000F900F9081E062E00E945B1D8DB79EB7EF
:101D600008970FB6F8949EBF0FBE8DBFEDB7FEB7B4
:101D70003196ADB7BEB71296DC93CE9311978EEA2B
:101D800091E0938382838091A6019091A701A09115
:101D9000A801B091A90184839583A683B7830E948B
:101DA000BB2EADB7BEB718960FB6F894BEBF0FBE28
:101DB000ADBF81E063E00E945B1D00D000D0EDB7B5
:101DC000FEB7D283C18382EA91E0948383830E9429
:101DD000BB2E0F900F900F900F9081E064E00E9457
:101DE0005B1D8091C1019091C201059708F06BC104
:101DF00000D000D0ADB7BEB71196FC9211971296E5
:101E0000EC921297EBE9F1E01496FC93EE931397A2
:101E10000E94BB2E0F900F900F900F9081E065E015
:101E20000E945B1D00D000D0EDB7FEB7D283C18306
:101E3000548243820E94BB2E0F900F900F900F9000
:101E400081E066E00E945B1D8091C1019091C2011A
:101E5000059708F098C000D000D0ADB7BEB7119676
:101E6000FC9211971296EC921297ECE7F1E014961F
:101E7000FC93EE9313970E94BB2E0F900F900F9040
:101E80000F908FCE81E061E00E945B1D00D000D0FA
:101E9000EDB7FEB7D283C18389E291E09483838357
:101EA0000E94BB2E0F900F900F900F9081E062E088
:101EB0000E945B1D8091C1019091C201059708F0BD
:101EC000D5C000D000D0ADB7BEB71196FC92119727
:101ED0001296EC921297E3E2F1E01496FC93EE93E3
:101EE00013970E94BB2E0F900F900F900F9081E0E0
:101EF00063E00E945B1D00D000D0EDB7FEB7D28337
:101F0000C18389E091E0948383830E94BB2E0F906C
:101F10000F900F900F9081E064E00E945B1D809114
:101F2000C1019091C201059708F05AC000D000D0BD
:101F3000ADB7BEB71196FC9211971296EC9212971C
:101F4000E3E0F1E01496FC93EE9313970E94BB2E0E
:101F50000F900F900F900F9081E065E00E945B1D45
:101F600000D000D0ADB7BEB71296DC93CE931197D8
:101F700014963C922E9213970E94BB2E0F900F90B6
:101F80000F900F900ECE8DB79EB708970FB6F894AE
:101F90009EBF0FBE8DBFEDB7FEB73196ADB7BEB7D2
:101FA0001196FC9211971296EC9280E791E0938340
:101FB00082838091900290919102A0919202B091BF
:101FC000930284839583A683B7830E94BB2EADB70B
:101FD000BEB718960FB6F894BEBF0FBEADBFE1CD29
:101FE0006091D5017091D6018091D7019091D8016F
:101FF00020E030E040E450E40E946E2A9B01AC01F6
:102000008DB79EB708970FB6F8949EBF0FBE8DBFD1
:102010000DB71EB70F5F1F4FADB7BEB71196FC923D
:1020200011971296EC9288EF90E0F80193838283E7
:10203000CA01B9012091A2013091A3014091A401EC
:102040005091A5010E940B2AD80114966D937D939F
:102050008D939C9317970E94BB2EEDB7FEB73896D1
:102060000FB6F894FEBF0FBEEDBF76CF8DB79EB70B
:1020700008970FB6F8949EBF0FBE8DBFEDB7FEB7A1
:102080003196ADB7BEB71196FC9211971296EC92AD
:1020900088E191E0938382838091A8029091A902C4
:1020A000A091AA02B091AB0284839583A683B783E3
:1020B0000E94BB2EADB7BEB718960FB6F894BEBF40
:1020C0000FBEADBF14CF8DB79EB708970FB6F8946B
:1020D0009EBF0FBE8DBFEDB7FEB73196ADB7BEB791
:1020E0001196FC9211971296EC928FE891E09383EF
:1020F00082838091E1019091E201A091E301B0918E
:10210000E40184839583A683B7830E94BB2EADB779
:10211000BEB718960FB6F894BEBF0FBEADBF7ECE49
:102120008DB79EB708970FB6F8949EBF0FBE8DBFB0
:10213000EDB7FEB73196ADB7BEB71196FC921197C9
:102140001296EC928AE491E0938382838091C0029C
:102150009091C102A091C202B091C302B058848391
:102160009583A683B7830E94BB2EADB7BEB71896E2
:102170000FB6F894BEBF0FBEADBF9ACD8CE595E00B
:102180000E945404E5CC80910E0390910F0390932C
:10219000F5018093F401CBE6D1E058E7452E52E0FB
:1021A000552E40E7242E42E0342E3E0181E040E0EF
:1021B00050E060E070E00E94DA038CE595E040E0DA
:1021C00050E060E070E00E94010423E02093A00151
:1021D0000E94C51D81E061E00E945B1D81E080934B
:1021E0000A0300D000D0ADB7BEB71296DC93CE93F1
:1021F0001197E2ECF2E01496FC93EE9313970E9491
:10220000BB2E10920A030F900F900F900F902EC1CB
:1022100000D000D0ADB7BEB711966C921197129650
:102220007C921297EFE9F2E01496FC93EE931397E9
:102230000E94BB2E0F900F900F900F9089E062E0EC
:102240000E945B1D6091C1017091C20162307105F5
:1022500008F420C21091FC01112309F030C29090C3
:10226000FD01992009F410C28090FE0180E090E009
:102270000E9455295B016C01612F70E080E090E0C5
:102280000E94552920E030E040E752E40E940B2AEA
:102290007B018C01692D70E080E090E00E9455295F
:1022A0009B01AC01C801B7010E9459287B018C0138
:1022B000682D70E080E090E00E94552920E030E039
:1022C00040E752E40E94C1289B01AC01C801B7015C
:1022D0000E9459289B01AC01C601B5010E94C1288A
:1022E0009B01AC012093FF01309300024093010257
:1022F000509302022DB73EB7285030400FB6F894E5
:102300003EBF0FBE2DBFEDB7FEB73196ADB7BEB71E
:102310001296DC93CE93119722E832E03383228326
:10232000CB01DA0184839583A683B7830E94BB2EF9
:102330008DB79EB708960FB6F8949EBF0FBE8DBF9F
:1023400081E063E00E945B1D00D000D000D0EDB7BB
:10235000FEB73196ADB7BEB71296DC93CE93119708
:10236000538242828091C1019091C20195838483FE
:102370000E94BB2EEDB7FEB736960FB6F894FEBF9F
:102380000FBEEDBF8BE063E00E945B1D2DB73EB733
:10239000285030400FB6F8943EBF0FBE2DBFEDB7AA
:1023A000FEB73196ADB7BEB71296DC93CE931197B8
:1023B000338222828091F0019091F101A091F2018B
:1023C000B091F30184839583A683B7830E94BB2ECB
:1023D000EDB7FEB738960FB6F894FEBF0FBEEDBF4F
:1023E00084E064E00E945B1D8091C1019091C20174
:1023F000059708F01BC100D000D0ADB7BEB711964D
:102400006C92119712967C921297EAE6F2E014967B
:10241000FC93EE9313970E94BB2E0F900F900F909A
:102420000F908AE066E00E945B1D8091C10190914F
:10243000C2010A9708F0D1C000D000D0ADB7BEB736
:102440001296DC93CE931197E9E5F2E01496FC9393
:10245000EE9313970E94BB2E0F900F900F900F904A
:1024600068E775E080E090E00E941A0482E04FEF98
:102470005FEF6FEF7FEF0E94DA03823009F424C12F
:1024800083E066E00E945B1D609146047091470402
:1024900080914804909149044CEF51E02DEF31E0D8
:1024A0000EEF11E00E945D062DB73EB72850304078
:1024B0000FB6F8943EBF0FBE2DBFEDB7FEB73196F5
:1024C000ADB7BEB71296DC93CE93119729EB32E0ED
:1024D000338322838091FD01848315828091FE01E4
:1024E000868317820E94BB2E8DB79EB708960FB6C3
:1024F000F8949EBF0FBE8DBF83E065E00E945B1D18
:102500004091D9015091DA016091DB017091DC01B9
:10251000ADB7BEB718970FB6F894BEBF0FBEADBF2C
:10252000EDB7FEB731961296DC93CE93119728EA59
:1025300032E03383228344835583668377830E940A
:10254000BB2E8DB79EB708960FB6F8949EBF0FBEF0
:102550008DBF81E062E00E945B1D8091C10190917E
:10256000C201059708F454CE2DB73EB7285030402D
:102570000FB6F8943EBF0FBE2DBF0DB71EB70F5F4D
:102580001F4FADB7BEB711966C92119712967C9201
:1025900023E932E0F8013383228360E070E080E7D2
:1025A00092E42091900230919102409192025091D8
:1025B00093020E94C128D80114966D937D938D9348
:1025C0009C9317970E94BB2EEDB7FEB738960FB6B7
:1025D000F894FEBF0FBEEDBF31CE2DB73EB72850E9
:1025E00030400FB6F8943EBF0FBE2DBFEDB7FEB71B
:1025F0003196ADB7BEB71296DC93CE93119720E516
:1026000032E0338322838091EE01848315828091AE
:10261000EF01868317820E94BB2E8DB79EB7089666
:102620000FB6F8949EBF0FBE8DBF1ACF2DB73EB721
:10263000285030400FB6F8943EBF0FBE2DBFEDB707
:10264000FEB73196ADB7BEB711966C921197129640
:102650007C922FE532E0338322838091A80290910F
:10266000A902A091AA02B091AB0284839583A683AC
:10267000B7830E94BB2E8DB79EB708960FB6F8940D
:102680009EBF0FBE8DBFCDCE8090FE01FDE1F8153F
:1026900008F4ECCD00D000D0ADB7BEB71296DC93F5
:1026A000CE931197ECE8F2E01496FC93EE93139717
:1026B0000E94BB2E0F900F900F900F9041CE9090E4
:1026C000FD018090FE01D2CD8CE595E00E9454047E
:1026D0006DCDDF93CF93CDB7DEB7A5970FB6F89446
:1026E000DEBF0FBECDBF19821A821B8280910E03FE
:1026F00090910F039093F7018093F60180E090E0B2
:10270000A0E0B0E08A8F9B8FAC8FBD8F8E8B9F8BAC
:10271000A88FB98F3C014D011AA21BA21CA21DA2B9
:102720008A8B9B8BAC8BBD8B8E879F87A88BB98B3D
:102730001C861B861A866BE6462E61E0562E7201B9
:102740002224239481E040E050E060E070E00E94A9
:10275000DA038CE595E040E050E060E070E00E9434
:10276000010494E09093A0010E94C51D3324A1E0D0
:10277000AD8710C0133009F483C2113009F4B0C022
:102780006401530168EE73E080E090E00E941A0457
:102790003501460182E04FEF5FEF6FEF7FEF0E9460
:1027A000DA03823009F404C410910301123011F7E6
:1027B00083E062E00E945B1D20920B038091C101C7
:1027C0009091C201059708F0FDC200D000D0EDB78E
:1027D000FEB75282418229EF31E0348323830E9485
:1027E000BB2E0F900F900F900F9010920B030E9432
:1027F0006C1D00D000D0ADB7BEB712965C924E9261
:102800001197ECEEF1E01496FC93EE9313970E946F
:10281000BB2E0F900F900F900F9083E064E00E940A
:102820005B1D20920B038091C1019091C20105971D
:1028300008F09AC200D000D0ADB7BEB71196EC92A6
:1028400011971296FC921297E8EEF1E01496FC9321
:10285000EE9313970E94BB2E0F900F900F900F9046
:1028600010920B030E946C1D00D000D0ADB7BEB714
:1028700012965C924E921197ECEDF1E01496FC9357
:10288000EE9313970E94BB2E0F900F900F900F9016
:1028900081E066E00E945B1D20920B038091C101E4
:1028A0009091C2010A9708F035C200D000D0ADB7B0
:1028B000BEB71196EC9211971296FC921297E6ED24
:1028C000F1E01496FC93EE9313970E94BB2E0F90A9
:1028D0000F900F900F9010920B036401530152CF91
:1028E000332009F4CEC284E04FEF5FEF6FEF7FEF4C
:1028F0000E94DA03843009F4A0C288E04FEF5FEF52
:102900006FEF7FEF0E94DA03883009F492C2F1E0A2
:102910003F1609F035CF81E066E00E945B1D2D85F2
:10292000222309F093C300D000D0ADB7BEB71296F2
:102930005C924E921197ECE2F2E01496FC93EE93C7
:1029400013970E94BB2E0F900F900F900F9081E075
:1029500061E00E945B1DCE0104960E947C050E94EE
:1029600055292A893B894C895D890E9459286A8F9B
:102970007B8F8C8F9D8F20E030E040E752E40E94F7
:10298000C1284CEF51E02DEF31E00EEF11E00E9435
:102990005D062DB73EB7285030400FB6F8943EBFC5
:1029A0000FBE2DBFEDB7FEB73196ADB7BEB71296CD
:1029B0005C924E9211972FE132E033832283809113
:1029C000FD01848315828091FE01868317820E9417
:1029D000BB2EA090D901B090DA01C090DB01D0905D
:1029E000DC01C601B501A40193010E9458289B0196
:1029F000AC016E897F89888D998D0E9459286E8BD4
:102A00007F8B888F998F8DB79EB708960FB6F894F5
:102A10009EBF0FBE8DBF81E065E00E945B1D3092BE
:102A20000B03ADB7BEB718970FB6F894BEBF0FBE75
:102A3000ADBFEDB7FEB7319612965C924E921197EC
:102A400029E132E0338322838E899F89A88DB98D55
:102A500084839583A683B7830E94BB2E10920B03B9
:102A6000ADB7BEB718960FB6F894BEBF0FBEADBFD8
:102A70000E946C1D00D000D0EDB7FEB7528241829B
:102A800025E132E0348323830E94BB2E8091C10173
:102A90009091C201AA85BB858A1B9B0B0F900F905A
:102AA0000F900F90079708F46DCE8BE061E00E94C5
:102AB0005B1DADB7BEB718970FB6F894BEBF0FBE7B
:102AC000ADBF0DB71EB70F5F1F4F1196EC92119758
:102AD0001296FC922FE032E0F8013383228360E00B
:102AE00070E080E792E42091900230919102409151
:102AF0009202509193020E94C128D80114966D93BE
:102B00007D938D939C9317970E94BB2EEDB7FEB7D4
:102B100038960FB6F894FEBF0FBEEDBF83E063E0BA
:102B20000E945B1D30920B032DB73EB728503040FA
:102B30000FB6F8943EBF0FBE2DBFEDB7FEB731966E
:102B4000ADB7BEB712965C924E92119726E032E076
:102B5000338322838091EE01848315828091EF017B
:102B6000868317820E94BB2E10920B033C853F5F29
:102B70003C876A8D7B8D8C8D9D8D20E030E04AEF07
:102B800053E40E940B2A6E8F7F8F88A399A36E89CE
:102B90007F89888D998D27E137EB41ED58E30E94BD
:102BA00059289B01AC016E8D7F8D88A199A10E944F
:102BB000C1289B01AC016E857F85888999890E9417
:102BC00059286E877F87888B998B8C8562E30E945A
:102BD000F22BADB7BEB718960FB6F894BEBF0FBEB6
:102BE000ADBF992309F0CECD8AE066E00E945B1D5F
:102BF0006E857F858889998920E030E048E452E439
:102C00000E94C12820E030E040E752E40E94C12841
:102C1000AE014F5F5F4F9E012E5F3F4F8E010D5FF4
:102C20001F4F0E945D06EDB7FEB738970FB6F894B8
:102C3000FEBF0FBEEDBF3196ADB7BEB712965C9228
:102C40004E9211972DEF31E0338322838A81848362
:102C500015828B81868317820E94BB2E80E090E0D4
:102C6000A0E0B0E08E879F87A88BB98B1C86ADB79C
:102C7000BEB718960FB6F894BEBF0FBEADBF82CDDB
:102C800020920B0381E062E00E945B1DADB7BEB7EE
:102C900018970FB6F894BEBF0FBEADBFEDB7FEB725
:102CA000319612965C924E92119727EC31E0338365
:102CB00022838091AA019091AB01A091AC01B091C7
:102CC000AD0184839583A683B7830E94BB2E1092A7
:102CD0000B038DB79EB708960FB6F8949EBF0FBE34
:102CE0008DBF0E946C1D00D000D0ADB7BEB712964C
:102CF0005C924E921197EFEBF1E01496FC93EE93F9
:102D000013970E94BB2E640153010F900F900F90F8
:102D10000F9038CD2DB73EB7285030400FB6F894FD
:102D20003EBF0FBE2DBFEDB7FEB73196ADB7BEB7F4
:102D30001196EC9211971296FC922DEC31E03383B0
:102D400022838091EE01848315828091EF01868336
:102D500017820E94BB2E8DB79EB708960FB6F894C7
:102D60009EBF0FBE8DBFB7CD2DB73EB728503040A8
:102D70000FB6F8943EBF0FBE2DBFEDB7FEB731962C
:102D8000ADB7BEB71196EC9211971296FC9222EE57
:102D900031E0338322838091A8029091A902A0910F
:102DA000AA02B091AB0284839583A683B7830E9465
:102DB000BB2E8DB79EB708960FB6F8949EBF0FBE78
:102DC0008DBF4ECD8DB79EB708970FB6F8949EBFB6
:102DD0000FBE8DBF0DB71EB70F5F1F4FADB7BEB78C
:102DE00012965C924E92119723EF31E0F8013383F3
:102DF000228360E070E080E792E4209190023091BD
:102E0000910240919202509193020E94C128D801F0
:102E100014966D937D938D939C9317970E94BB2E70
:102E2000EDB7FEB738960FB6F894FEBF0FBEEDBFF4
:102E3000DCCC640153013324A5CC332009F4DAC07F
:102E400080E091E0391609F4FFC0AD85AA2309F0AE
:102E5000B4C0882309F4B1C0BE89BAA3EF89EBA33B
:102E6000F88DFCA3298D2DA38A8D9B8DAC8DBD8DF6
:102E70008A8B9B8BAC8BBD8B3324339491E09D87E5
:102E80003CCD81E061E00E945B1D00D000D0EDB739
:102E9000FEB7528241822AE432E0348323830E94C7
:102EA000BB2E0F900F900F900F908BE061E00E946F
:102EB0005B1D00D000D0ADB7BEB712965C924E92AB
:102EC0001197E6E4F2E01496FC93EE9313970E94B8
:102ED000BB2E0F900F900F900F9083E063E00E9445
:102EE0005B1D10930B0300D000D0ADB7BEB7129698
:102EF0005C924E921197EFE3F2E01496FC93EE93FE
:102F000013970E94BB2E0F900F900F900F9081E0AF
:102F100065E00E945B1D00D000D0ADB7BEB7129631
:102F20005C924E921197EAE3F2E01496FC93EE93D2
:102F300013970E94BB2E10920B030F900F900F90CF
:102F40000F900E946C1D00D000D0ADB7BEB7129696
:102F50005C924E921197E6E3F2E01496FC93EE93A6
:102F600013970E94BB2E0F900F900F900F908AE046
:102F700066E00E945B1D00D000D0ADB7BEB71296D0
:102F80005C924E921197E0E3F2E01496FC93EE937C
:102F900013970E94BB2E80E090E0A0E0B0E08E8B03
:102FA0009F8BA88FB98F0F900F900F900F909BCC95
:102FB0008CE595E00E945404C5CB882309F49DCC90
:102FC000AD85A13009F099CCCE0104960E94280568
:102FD0006090D9017090DA018090DB019090DC0163
:102FE000E091C101F091C201FB87EA873324339459
:102FF0001D8683CCCE0104960E9428056090D901DD
:103000007090DA018090DB019090DC01A091C10109
:10301000B091C201BB87AA8780E090E0A0E0B0E059
:103020008A8F9B8FAC8FBD8F8E8B9F8BA88FB98F14
:103030001AA21BA21CA21DA28A8B9B8BAC8BBD8BE0
:10304000332433941D8659CC81E0FFCE30920A039D
:1030500000D000D0EDB7FEB75282418228E232E0C4
:10306000348323830E94BB2E10920A030F900F908B
:103070000F900F9081E061E00E945B1D6A897B895F
:103080008C899D8920E030E040E752E40E94C1280D
:103090004CEF51E02DEF31E00EEF11E00E945D06A4
:1030A0008DB79EB708970FB6F8949EBF0FBE8DBF21
:1030B000EDB7FEB73196ADB7BEB712965C924E92A1
:1030C00011972FE132E0338322838091FD018483C5
:1030D00015828091FE01868317820E94BB2E8DB7D8
:1030E0009EB708960FB6F8949EBF0FBE8DBF81E0C5
:1030F00065E00E945B1D30920B03ADB7BEB7189719
:103100000FB6F894BEBF0FBEADBFEDB7FEB7319698
:1031100012965C924E92119729E132E0338322831A
:103120002AA13BA14CA15DA1C901DA018483958349
:10313000A683B7830E94BB2E10920B038DB79EB758
:1031400008960FB6F8949EBF0FBE8DBF0E946C1DEF
:1031500000D000D0ADB7BEB712965C924E921197D8
:10316000E5E1F2E01496FC93EE9313970E94BB2ED8
:103170008A899B89AC89BD898A8F9B8FAC8FBD8FD3
:103180002AA13BA14CA15DA1C901DA018E8B9F8BC5
:10319000A88FB98F640153010F900F900F900F907B
:1031A000F1CA42E1E42E42E0F42E00D000D0ADB7E7
:1031B000BEB71296FC92EE92119785E193E01496B9
:1031C0009C938E9313970E94042F01E212E0EDB7B7
:1031D000FEB71283018380E193E0948383830E948E
:1031E000042F10925D02DD24D394D09269020B5F0C
:1031F0001F4FADB7BEB712961C930E9311978BE07D
:1032000093E014969C938E9313970E94042FD09270
:103210005E0210926A020B5F1F4FEDB7FEB712837A
:10322000018386E093E0948383830E94042F32E03D
:10323000D32ED0925F0210926B0285E090E0E80EF0
:10324000F91EADB7BEB71296FC92EE92119781E0CF
:1032500093E014969C938E9313970E94042F065F1D
:103260001F4FEDB7FEB7128301838DEF92E0948379
:1032700083830E94042F10926102D0926D020B5F33
:103280001F4FADB7BEB712961C930E93119788EFE0
:1032900092E014969C938E9313970E94042F1092A1
:1032A000620223E0D22ED0926E020B5F1F4FEDB769
:1032B000FEB71283018383EF92E0948383830E949D
:1032C000042F1092630294E0C92EC0926F020B5F2C
:1032D0001F4FADB7BEB712961C930E93119780EF98
:1032E00092E014969C938E9313970E94042F109251
:1032F000640283E6B82EB0927002E5E0F0E0EE0ED4
:10330000FF1EADB7BEB71296FC92EE9211978BEEF0
:1033100092E014969C938E9313970E94042F0B5F58
:103320001F4FEDB7FEB71283018386EE92E09483C0
:1033300083830E94042F1092650285E080937102BE
:103340000B5F1F4FADB7BEB712961C930E9311972C
:1033500081EE92E014969C938E9313970E94042F13
:103360001092660286E0809372020B5F1F4FEDB7EA
:10337000FEB7128301838EED92E0948383830E94D3
:10338000042F10926702B0927302D0927502C0921D
:103390007602D09277020F900F900F900F908CE5ED
:1033A00095E040E050E060E070E00E9401040E947F
:1033B000D31E81E40E94DD1D0E94C51D81E061E0F5
:1033C0000E945B1D00D000D0CBE6D1E0ADB7BEB708
:1033D0001296DC93CE93119780ED92E014969C9315
:1033E0008E9313970E94BB2E0F900F900F900F900B
:1033F00083E065E00E945B1D0E94EE1D8CE595E078
:103400000E94540460E971E080E090E00E941A0498
:10341000F89483E092E040E050E060E070E00E94C9
:1034200022047894B2E2AB2EB3E0BB2EAEE1EA2EDA
:10343000A3E0FA2EFAE1CF2EF3E0DF2E05E014E14F
:10344000E3E09E2E8CE595E040E050E060E070E027
:103450000E9401040E94C51D81E061E00E945B1D85
:1034600081E080930A0300D000D000D0EDB7FEB712
:103470003196ADB7BEB71296DC93CE931197B38257
:10348000A28280910702809FC00111248E5E9D4F11
:10349000958384830E94BB2E10920A0360910902D7
:1034A000E0910702F0E0EB58FD4F8DB79EB706960E
:1034B0000FB6F8949EBF0FBE8DBF80816817A0F134
:1034C0004FC000D000D000D0EDB7FEB73196ADB7F9
:1034D000BEB71296DC93CE931197D382C282809F9F
:1034E0009001112480910702819FC0011124280FAF
:1034F000391F2F5D3D4F358324830E94BB2EEDB7CE
:10350000FEB736960FB6F894FEBF0FBEEDBF6091C2
:1035100009026F5F60930902E0910702F0E0EB5847
:10352000FD4F80816817E0F46E5F81E00E945B1DB3
:103530009091080280910902981719F600D000D0E6
:1035400000D0EDB7FEB73196ADB7BEB71296DC939B
:10355000CE931197F382E282909F90011124C2CF03
:103560008CE595E00E945404F89485E092E040E0F8
:1035700050E060E070E00E94220478948091A10104
:103580009091A1018823B1F19330A1F18091A10123
:10359000813009F43FC09091A101923009F052CFDF
:1035A00020910702A22FB0E080910802AA0FBB1F52
:1035B000AA0FBB1FA80FB11DFD01E759FD4FE08108
:1035C000EE23F1F1E43009F478C0E53008F040C0B2
:1035D000E23009F45DC0E33008F065C0E13039F451
:1035E0008091F4019091F50161E00E9460031092D6
:1035F000090228CFE0910702F0E0EB58FD4F9081DF
:10360000809108029817B1F0109209028091A101EF
:10361000813009F6809108028F5F80930802E09163
:103620000702F0E0EB58FD4F9081891731F01092BE
:103630000902B1CF10920802E7CF10920802F7CF2B
:10364000A35ABD4F8C918093070210920802CFCFEE
:10365000E630B1F0E63060F0E33649F620930A0236
:10366000A35ABD4F8C918093070220930802BFCFCD
:103670008091F8019091F90161E00E946003B7CF59
:103680008091FA019091FB0161E00E946003AFCF4D
:1036900081E0809303018091F6019091F70161E050
:1036A0000E946003A4CF909303018091F601909152
:1036B000F70161E00E9460039ACF9092030180912C
:1036C000F6019091F70161E00E94600390CF8AB10A
:1036D0008F718AB98BB1806E8BB91092B20092E073
:1036E0009093B00087E08093B1008DE98093B300A0
:1036F0009093700060E971E080E090E00E941A040D
:1037000011E0F8948BE092E040E050E060E070E07F
:103710000E94220478948091A001833009F46EC045
:10372000843088F4882309F05CC0F8941092A101D9
:103730001093A0016091A10183E092E070E00E94EB
:10374000EF027894DECF853081F18530F0F086305D
:10375000C1F6F8948091A101813009F481C0809173
:1037600005018F5F809305019091050180910B0108
:10377000891710F4109305018091FA019091FB01D3
:1037800064E00E9460037894BCCFF8948091A1011A
:10379000813009F479C08091A101823009F488C098
:1037A0008091A101833009F43EC0F8948091A10179
:1037B000813009F441C0809104018F5F809304013E
:1037C0009091040180910A01891710F4109304016B
:1037D0008091F8019091F90164E00E94600378946F
:1037E00090CF813009F08DCFF8946091A10185E0F0
:1037F00092E070E00E94EF02789483CFF8941093E7
:10380000A0011092A1016091A10185E092E070E019
:103810000E94EF028091F4019091F50162E00E9414
:10382000600378946ECF8091F6019091F70168E083
:103830000E946003789465CF8093A0011092A1014B
:103840006091A10185E092E070E00E94EF0280911A
:10385000F8019091F90162E00E946003789451CFE1
:103860008093A0011092A1016091A10185E092E0F6
:1038700070E00E94EF028091FA019091FB0162E0FA
:103880000E94600378943DCF8093A0011092A10123
:103890006091A10185E092E070E00E94EF028091CA
:1038A000F6019091F70162E00E946003789429CFBD
:1038B0008091F6019091F70164E00E946003789492
:1038C00020CF1F920F920FB60F9211242F933F9388
:1038D0004F935F936F937F938F939F93AF93BF9318
:1038E000EF93FF93E0910D02E13009F467C029B135
:1038F00089B149B130E036952795329522952F70E0
:1039000023273F70232761E070E02627372790E0C8
:103910000024880F991F001C880F991F001C892FF5
:10392000902D86279727822B817090E0552747FDA1
:103930005095409550954427550F441F5527842B8B
:10394000952B20E030E0EE2311F421E030E08223DB
:103950009323892B39F580911002863080F01092E4
:10396000100281E080930D024D9922C08093A10145
:103970006091A1018BE092E070E00E94EF020E9452
:103980003404FF91EF91BF91AF919F918F917F91FF
:103990006F915F914F913F912F910F900FBE0F90BC
:1039A0001F901895809110028F5F80931002D5CFE1
:1039B0004E9B19C04F99DCCF83E0D8CF80910E0287
:1039C00090910F028832910530F4019690930F0286
:1039D00080930E028CCF10920F0210920E02109262
:1039E0000D02E0E084CF82E08093A101C1CF1F925D
:1039F0000F920FB60F9211242F933F934F935F9323
:103A00006F937F938F939F93AF93BF93EF93FF93A6
:103A1000809111028F5F8093110290E08770907007
:103A2000892BB1F510921102809178029091790260
:103A300090937B0280937A0280918400909185001C
:103A400090937902809378021092850010928400FE
:103A50006091D9017091DA018091DB019091DC01D4
:103A60002091A6013091A7014091A8015091A90190
:103A70000E9459286093D9017093DA018093DB0189
:103A80009093DC0183EC91E065E570E00E94EF0229
:103A90000E943404FF91EF91BF91AF919F918F915C
:103AA0007F916F915F914F913F912F910F900FBE3A
:103AB0000F901F90189596E0899FC00111248A5598
:103AC000904024E5629FB0011124860F971F9093C8
:103AD0000D0380930C03089580910C0390910D03C6
:103AE0008455904090930D0380930C030895982F74
:103AF00087B18C6087B94198613049F14298492F6C
:103B000050E027E030E009C0439A449A449821509D
:103B100030408FEF2F3F380791F0CA01022E02C0CC
:103B2000959587950A94E2F780FDEECF4398449AE5
:103B30004498215030408FEF2F3F380771F7419A5A
:103B400087B1837F87B988B18C6088B908958091E7
:103B50000A0381119095429AD2CF0F931F938C0143
:103B600064E570E00E94FE2B806860E00E94771D93
:103B7000C80164E570E00E94FE2B862F806460E03F
:103B80000E94771D1F910F910895CF93DF9310929C
:103B90000D0310920C0380E090E00E94AD1DC0E088
:103BA000D0E080E061E00E94771D219681E0C83F6F
:103BB000D807B9F7DF91CF9108951F93182F81E2AD
:103BC00060E00E94771D812F806860E00E94771D71
:103BD00080E260E00E94771D1F9108950F931F936C
:103BE000CF93DF9300910C0310910D03C8010E9445
:103BF000AD1DC0EAD3E0CE010E94A02F61E00E947B
:103C0000771D219683E0CC3DD807A9F704551040D5
:103C100010930D0300930C03C8010E94AD1DC4E670
:103C2000D3E0CE010E94A02F61E00E94771D219673
:103C300083E0C03AD807A9F7C80184559040909313
:103C40000D0380930C030E94AD1DC8E2D3E0CE01AA
:103C50000E94A02F61E00E94771D219683E0C43668
:103C6000D807A9F7DF91CF911F910F910895AF92D7
:103C7000BF92DF92EF92FF920F931F93CF93DF9348
:103C8000D82EE0900C03F0900D03C7010E94AD1DEB
:103C900080910B03882341F52D2D30E0C901880F59
:103CA000991F880F991F820F931FEC01CF59D040A5
:103CB0008C010A591040CE010E94A02F880F61E0AC
:103CC0000E94771D2196C017D107A9F780E061E017
:103CD0000E94771D86E090E0E80EF91EF0920D0339
:103CE000E0920C0380910B03813051F0DF91CF9172
:103CF0001F910F91FF90EF90DF90BF90AF900895CC
:103D00008BE0D89E50011124850101511040C8EC70
:103D1000D1E00DC0C8010E94A02F61E00E94771D74
:103D200021960F5F1F4F81E0C33DD80729F090E235
:103D3000D91681F7CE01EFCFE0900C03F0900D0380
:103D4000C7018455904090930D0380930C030E940B
:103D5000AD1D850101561F4FC8E7D2E00DC0C80157
:103D60000E94A02F61E00E94771D21960F5F1F4FD8
:103D700082E0C338D80729F090E2D91681F7CE0146
:103D8000EFCF80E061E00E94771D8CE090E0E80ECC
:103D9000F91EF0920D03E0920C03A8CF0E94371E8B
:103DA00080E090E00895409A87B18F6187B96CE315
:103DB00070E080E090E00E941A0440986CE370E0AC
:103DC00080E090E00E941A04409A419A81E260E00B
:103DD0000E94771D88EC60E00E94771D86E060E01D
:103DE0000E94771D83E160E00E94771D80E260E021
:103DF0000E94771D8CE060E00E94771D0E94C51D27
:103E00000895DC018617970788F48C91853571F445
:103E1000FD0103C08081853521F43196E617F7074F
:103E2000C8F39F012A1B3B0BC901089520E030E035
:103E3000FBCF8091130190911401892B39F0E1E1BE
:103E4000F1E03A9682819381892BD9F70895809188
:103E5000130190911401892B39F0E1E1F1E03A96D8
:103E600082819381892BD9F70895FC0186179707E2
:103E700028F485E58193E617F707E0F30895FC0140
:103E8000F8948081789408959AE0899FF001112434
:103E9000EF5EFE4F62817381808191810E94011FDC
:103EA00008958091A1079091A207009729F06FEFE4
:103EB00078E00E94011F08958091890190918A0104
:103EC0006FEF78E00E94011F0895DF93CF9300D039
:103ED000CDB7DEB781E191E09A83898360911301C8
:103EE000709114016115710579F0FC018081918157
:103EF0000E94351FE981FA813A96FA83E98362814B
:103F000073816115710591F78091A1079091A207C6
:103F1000009751F0BE016F5070400E94351F0F9006
:103F20000F90CF91DF9108958091890190918A013E
:103F3000F1CF611571058105910509F40895FFCF51
:103F400020911203309113034091140350911503F3
:103F5000261737074807590709F40895FFCF6F92CE
:103F60007F928F929F92AF92BF92CF92DF92EF9209
:103F7000FF920F931F93CF93DF93182FC0911301DC
:103F8000D0911401209709F476C031E1E32E31E09D
:103F9000F32E01E029E7A22E21E0B22E9FE3692E45
:103FA00093E0792E8DE4882E83E0982E10C0123095
:103FB00009F440C02AE030E0E20EF31E0F5FD701A3
:103FC0001296CD91DC911397209709F455C01130CA
:103FD00071F7073078F781E0602F0E945B1DD701F1
:103FE000CD90DC90C601BE010E94011FEDB7FEB767
:103FF0003A970FB6F894FEBF0FBEEDBF3196ADB73E
:10400000BEB71296BC92AE921197938282820483BD
:10401000158297838683CC19DD09D187C0870E94DA
:10402000BB2EEDB7FEB73A960FB6F894FEBF0FBEA3
:10403000EDBFC0CF073008F4BDCF602F665081E0E0
:104040000E945B1DD701CD90DC90C601BE010E948D
:10405000011FEDB7FEB73A970FB6F894FEBF0FBE3B
:10406000EDBF3196ADB7BEB71296BC92AE92119726
:1040700073826282CCCF01E0113009F452C0123059
:1040800079F0DF91CF911F910F91FF90EF90DF902A
:10409000CF90BF90AF909F908F907F906F9008953A
:1040A000073078F3065081E0602F0E945B1D8091FD
:1040B000A1079091A207009709F458C06FEF78E02C
:1040C0000E94011F2DB73EB7285030400FB6F8941C
:1040D0003EBF0FBE2DBFEDB7FEB7319629E731E0E9
:1040E000ADB7BEB712963C932E93119725E233E0FD
:1040F000338322839583848380E099E02091890132
:1041000030918A01821B930B978386830E94BB2E7A
:10411000EDB7FEB738960FB6F894FEBF0FBEEDBFF1
:10412000B0CF073008F0ADCF81E0602F0E945B1D5B
:104130008091A1079091A2070097E9F06FEF78E0D6
:104140000E94011FEDB7FEB738970FB6F894FEBF77
:104150000FBEEDBF319629E731E0ADB7BEB712967D
:104160003C932E93119722E333E0C2CF80918901D3
:1041700090918A01A3CF8091890190918A01DECF2D
:10418000A1E1B0E0E6ECF0E20C94342C3C017F8736
:104190006E876A01FC0117821682838181FD03C04C
:1041A0006FEF7FEF6FC39E012F5F3F4F398B288BDF
:1041B000F3012381EE85FF8523FD859123FF819106
:1041C000FF87EE87882309F45AC3853251F4EE85C0
:1041D000FF8523FD859123FF8191FF87EE8785323F
:1041E00029F490E0B3010E94D82EE2CF982F10E07E
:1041F000882499241032B0F49B3269F09C3228F460
:10420000903251F0933271F40BC09D3239F09033FB
:1042100049F4116028C01260146025C0186023C0E2
:10422000106121C017FD2AC0892F80538A3078F48D
:1042300016FF06C0FAE09F9E902C1124980E13C022
:104240003AE0839E802C1124880E10620CC09E32AE
:1042500021F416FD14C3106406C09C3611F41068D6
:1042600002C0983659F4EE85FF8523FD959123FF12
:104270009191FF87EE87992309F0BCCF892F855450
:10428000833020F4812F8061905E07C0892F85568E
:10429000833008F09FC1812F8F7E86FD02C076E0BB
:1042A000972E6FE3F62EF822953619F4F0E4FF2AE4
:1042B00007C0963619F420E8F22A02C091109A94A9
:1042C000F7FE0AC03BE3391518F45CE3B52E02C0D3
:1042D000B92CB39427E009C047E0491520F4BB246A
:1042E00047E0942EF7CF292DBB24C60104969D8765
:1042F0008C87F6016081718182819381AE014F5F6D
:104300005F4F0B2D0E94702D6C010981202E3324EC
:1043100000FF04C003FD02C01DE209C0F1FE02C09F
:104320001BE205C0F2FC02C010E001C010E2C101B6
:104330008C709070892BB9F1112311F483E001C0C6
:1043400084E0881510F088240AC0881AF3FC07C09E
:1043500080E290E0B3010E94D82E8A94C9F711231D
:1043600029F0812F90E0B3010E94D82E23FE03C0D4
:104370000BE513E00EC00FE513E00BC0E114F104F0
:1043800009F0805290E0B3010E94D82E0F5F1F4FBA
:1043900005C0EF2CFF24F0E1EF22FF24F801849107
:1043A000882361F714C1F7FE12C0BC0C24FE04C0C0
:1043B0008A81813309F4BA941B141CF0BB24B39492
:1043C0002DC0F8E0FB1550F538E0B32E27C0F6FC01
:1043D00025C0892D90E08C159D054CF02CEFC21660
:1043E0002FEFD20624F030E8F32A01C09A949920E6
:1043F00049F0E2E0F0E0EC0FFD1FE90DF11D8081D6
:104400008033A1F3F7FE0AC0B92CB394892D90E054
:10441000C816D90614F0992401C09C18F7FC03C0F3
:1044200025E030E009C01C141D041CF021E030E040
:1044300003C096012F5F3F4F112311F02F5F3F4FB5
:10444000992029F0892D90E00196280F391F882D99
:1044500090E02817390714F0882401C0821A4F2CE5
:104460005524C20189709070892B39F008C080E210
:1044700090E0B3010E94D82E8A948820C1F71123BE
:1044800029F0812F90E0B3010E94D82E43FE07C08F
:1044900008C080E390E0B3010E94D82E8A9488205F
:1044A000C1F7F7FE46C08601D7FE02C000E010E06B
:1044B00076010894E11CF11CE01AF10A41E050E099
:1044C0004C0F5D1FE40EF51E26014B185108892D77
:1044D00090E0AA24BB24A81AB90A5FEF0F3F150782
:1044E00029F48EE290E0B3010E94D82EC016D106C6
:1044F00034F0401651061CF4F701808101C080E3BE
:10450000015010400894E11CF11C0A151B052CF009
:1045100090E0B3010E94D82EE0CF0C151D0539F4B0
:104520009A81963318F4953311F424FE81E390E0D8
:104530004BC08A81813309F00F7E90E0B3010E9465
:10454000D82E9920A1F08EE290E0B3010E94D82EDF
:1045500012E0E1E0F0E0EC0FFD1FE10FF11D1F5F45
:10456000808190E0B3010E94D82E9A9491F744FC88
:1045700003C085E690E002C085E490E0B3010E94AC
:10458000D82ED7FC05C0C114D10441F404FF06C0E5
:10459000D094C194D108D3948DE201C08BE290E015
:1045A000B3010E94D82E80E305C08F5F26EF3FEF56
:1045B000C20ED31E3AE0C316D104BCF790E0B3019B
:1045C0000E94D82EC601C096B3010E94D82ECC847A
:1045D000DD8452C1933631F0933799F0933509F069
:1045E00059C023C0F601808189835E010894A11C13
:1045F000B11C22E030E0C20ED31E21E0E22EF12CED
:1046000012C0F601A080B18016FD03C06FEF7FEFEE
:1046100002C0692D70E022E030E0C20ED31EC50159
:104620000E946E2E7C011F7713C0F601A080B1801E
:1046300016FD03C06FEF7FEF02C0692D70E022E02E
:1046400030E0C20ED31EC5010E94632E7C011068AB
:1046500013FF07C01BC080E290E0B3010E94D82E78
:104660008A94882D90E0E816F906A8F30FC0F501AA
:1046700017FD859117FF81915F0190E0B3010E94C2
:10468000D82E81108A940894E108F108E114F1040D
:1046900071F7F2C0943611F0993689F517FF08C00A
:1046A000F601208131814281538184E090E00AC08B
:1046B000F601808191819C01442737FD4095542F5C
:1046C00082E090E0C80ED91E9FE6F92EF12257FF36
:1046D00009C050954095309521953F4F4F4F5F4F02
:1046E00090E8F92ACA01B901AE014F5F5F4F2AE095
:1046F00030E00E94422FE82EE889EE1A41C095373B
:1047000021F41F7E2AE030E01CC0197F9F3661F043
:10471000903720F4983509F0B2C00FC0903739F0C7
:10472000983709F0ACC004C028E030E00AC010613E
:1047300014FD146020E130E004C014FD166020E197
:1047400032E017FF08C0F601608171818281938198
:1047500044E050E008C0F60180819181BC0180E016
:1047600090E042E050E0C40ED51EAE014F5F5F4FB7
:104770000E94422FE82E5889E51A8FE7F82EF12281
:10478000F6FE0BC08EEFF822E91438F4F4FE07C0F1
:10479000F2FC05C09FEEF92202C01E2D01C0192DAA
:1047A000F4FE0DC0FE01EE0DF11D8081803319F481
:1047B000E9EEFE2208C01F5FF2FE05C003C08F2D88
:1047C000867809F01F5F0F2DF3FC14C0F0FE0FC0B8
:1047D000181510F09E2C0BC09E2C980C911A182DB9
:1047E00006C080E290E0B3010E94D82E1F5F18152A
:1047F000C0F304C0181510F4811A01C0882404FF06
:104800000FC080E390E0B3010E94D82E02FF1DC0CC
:1048100001FD03C088E790E00EC088E590E00BC082
:10482000802F867891F001FF02C08BE201C080E208
:10483000F7FC8DE290E0B3010E94D82E06C080E321
:1048400090E0B3010E94D82E9A94E914C0F3EA9440
:10485000E1E0F0E0EC0FFD1FEE0DF11D808190E036
:10486000B3010E94D82EEE2091F706C080E290E0BE
:10487000B3010E94D82E8A948820C1F799CCF30105
:1048800066817781CB016196E2E10C94502CFC01AA
:1048900020FD08C023FD05C022FF02C07383628390
:1048A000518340830895EF92FF920F931F9344FF2B
:1048B00002C033E011C046FF02C034E00DC0DB018E
:1048C000FC01AA0FBB1FEE1FFF1F1094D1F76A0F48
:1048D0007B1F8E1F9F1F31E0660F771F881F991F58
:1048E0003150D1F77B018C01E20EF11C011D111D2D
:1048F000A8019701B701CA011F910F91FF90EF9096
:1049000008950F931F93CF93DF938C01C8010E94EA
:10491000792EEC0197FD08C00E94482E892BB1F733
:10492000CE01B8010E94282FCE01DF91CF911F91B7
:104930000F9108958F929F92AF92BF92DF92EF9264
:10494000FF920F931F93CF93DF935C01EB014A011A
:10495000122F0E94792EAC018B3219F08D3251F456
:104960001068219709F46DC0C5010E94792EAC0131
:1049700097FD67C06DEFD62ED1228D2D807301F586
:104980004033F1F4219709F447C0C5010E94792E04
:10499000AC0197FD41C082E0D82A483711F0483574
:1049A00059F480E4D82A2197B9F1C5010E94792EE3
:1049B000AC0199232CF430C0D6FC02C080E1D82A87
:1049C000EE24FF248701242F2053283088F0D4FCC4
:1049D00009C02A3068F0D6FE05C02F7D822F815194
:1049E000863028F0CA01B5010E94282F12C0275036
:1049F000C801B7014D2D0E9453247B018C0182E038
:104A0000D82A219761F0C5010E94792EAC0197FF49
:104A1000DACFD1FC04C015C0EE24FF248701D7FEF5
:104A200008C010950095F094E094E11CF11C011D64
:104A3000111DC401B801A7012D2D0E94472481E05A
:104A400001C080E0DF91CF911F910F91FF90EF9017
:104A5000DF90BF90AF909F908F900895A0E2B0E05C
:104A6000E4E3F5E20C94382C5C016B018A017901D6
:104A7000FE01319680E2DF011D928A95E9F770E030
:104A800030E060E040E050E03F01A1E0B0E0F5013F
:104A90008381F70183FD259183FF21917F012223EB
:104AA00009F481C02E3519F44115510569F1872F9C
:104AB00090E08417950744F42D3551F12D3221F4FF
:104AC000332329F431E021C0332309F4622F322F3C
:104AD000832F869586958695F301E80FF11D832F28
:104AE00087704D0102C0880C991C8A95E2F72081DD
:104AF00028292083361711F430E007C0361710F448
:104B00003F5FE6CF3150E4CF71E04F5F5F4FBFCFE3
:104B1000332319F08E8180628E83772359F0FE0152
:104B200031969E012F5D3F4F808180958193E217E2
:104B3000F307D1F7992493943E010894611C711CEA
:104B4000C5010E94792EAC0197FD25C086958695FA
:104B50008695F301E80FF11D808190E09A0127709E
:104B6000307002C0959587952A95E2F780FD05C0C3
:104B7000CA01B5010E94282F0EC00115110519F0B8
:104B8000D8014D938D010894C108D1089924C1140E
:104B9000D104B1F602C0992031F40115110529F0B4
:104BA000F801108202C0EE24FF24C701A096EEE0B7
:104BB0000C94542C2F923F925F926F927F928F921F
:104BC0009F92AF92BF92CF92DF92EF92FF920F939C
:104BD0001F93CF93DF933C017B011A010E94792E32
:104BE000EC018B3239F08D3211F0552411C0B0E850
:104BF0005B2E01C055240894E108F108E114F1048A
:104C000009F418C1C3010E94792EEC0197FD12C16D
:104C1000CE010E94502E8936910521F08E369105E5
:104C200099F51DC008E713E01CC00894E108F108DD
:104C3000E114F10471F0C3010E94792EEC0197FD9B
:104C400008C00E94502ED81661F0CE01B3010E9418
:104C5000282F23E00B37120709F0ECC008C005E746
:104C600013E0F8010F5F1F4FD490DD20F1F60857D5
:104C7000134029F080E090E0A0E8BFE7CFC080E0DB
:104C800090E0A0ECBFE7CAC0CC24DD24882499249E
:104C90005401AE014053242F4A3038F552E0552AD2
:104CA000852D90E0AC014870507052FE06C0452B37
:104CB00011F50894C11CD11C1EC0452B19F0089495
:104CC000C108D108C501B40140E20E9453244B0140
:104CD0005C0188E9881689E9980689E9A80689E1CE
:104CE000B80648F094E0592A06C04E3F81F453FCC0
:104CF0000EC0E8E05E2A0894E108F108E114F1042E
:104D000031F0C3010E94792EEC0197FFC2CF51FE12
:104D100091C0C53619F0C53409F046C00894E108C1
:104D2000F108E114F10409F485C0C3010E94792E51
:104D3000EC0197FD7FC08B3221F08D3269F4F0E1F8
:104D40005F2A0894E108F108E114F10409F472C043
:104D5000C3010E94792EEC01CE01C0970A9708F09A
:104D600069C000E010E0B801882777FD8095982F92
:104D7000AE014053242F40E20E9453248B0108943B
:104D8000E108F108E114F10439F0C3010E94792E21
:104D9000EC01C0970A9738F3B80154FE03C0709530
:104DA00061957F4FC60ED71EEF2831F0D7FD04C0A6
:104DB000CE01B3010E94282FC501B4010E945529DC
:104DC000D7FE0DC0A4E9EA2EA3E0FA2ED094C19438
:104DD000D108D394C0E2D0E000E010E00EC0FCEABD
:104DE000EF2EF3E0FF2EF6CFF70125913591459197
:104DF00054910E940B2ACC1ADD0ACC16DD06A0F7CE
:104E0000D695C7950F5F1F4F0630110529F0ECEFBF
:104E1000FFEFEE0EFF1EF1CFDC01CB0157FCB058C7
:104E20002114310429F0F10180839183A283B3839B
:104E300081E001C080E0DF91CF911F910F91FF9041
:104E4000EF90DF90CF90BF90AF909F908F907F902A
:104E50006F905F903F902F900895A0E0B0E0E3E363
:104E6000F7E20C94372C4C015B013A01FC011782EC
:104E70001682552404C1812F90E00E94482E892B70
:104E800021F0C4010E948124FAC0153249F4F501D1
:104E9000F3FC6591F3FE61915F01653269F415E2FF
:104EA000C4010E94792E97FDF6C0181709F4E7C0D7
:104EB000B4010E94282FF4C06A3219F0162F00E0C6
:104EC00006C0F3FC1591F3FE11915F0101E0CC24C3
:104ED000DD240EC00260B60180E090E040E20E9456
:104EE00053246B01F501F3FC1591F3FE11915F0161
:104EF000212F20532A3070F301FD04C0CC24CA9422
:104F0000DC2C04C0C114D10409F4CAC0183621F045
:104F10001C3699F4F5010BC0F501F3FC6591F3FE25
:104F20006191683619F05F01162F07C008600460B0
:104F3000F3FC1591F3FE11915F01112309F4B0C048
:104F400083E693E0612F70E00E94582E892B09F4CC
:104F5000A7C0802F00FF03C0EE24FF2407C0F30189
:104F6000E080F18022E030E0620E731E1E3651F4C4
:104F7000F4014681578160E070E0C701202F0E9454
:104F800047247DC01336B9F481FD03C081E0C82EEB
:104F9000D12CC4010E94792E97FD7DC0E114F1044B
:104FA00019F0F70181937F010894C108D108C11459
:104FB000D10479F762C01B3559F4C401B601A701C9
:104FC00095010E942E255C01009709F056C050C043
:104FD000C4010E94812497FD5EC01F36D1F11037B5
:104FE00038F41436A1F11936A9F11835D1F52DC0D0
:104FF000133751F0143718F4103799F526C01537C8
:1050000031F1183771F521C0C4010E94792EEC01ED
:1050100097FD15C00E94482E892B29F0CE01B401BE
:105020000E94282F0CC0E114F10419F0F701C1937C
:105030007F010894C108D108C114D10429F7E114F3
:10504000F104D9F0F701108218C0006403C00062B7
:1050500001C00061C401B601A701202F0E949A245B
:1050600005C0C401B601A7010E94DA25882329F4EE
:10507000F4018381807379F413C000FF5394F40129
:10508000F380F501F3FC1591F3FE11915F011123FB
:1050900009F0F1CE05C0552019F42FEF3FEF02C003
:1050A000252D30E0C901CDB7DEB7EFE00C94532CCD
:1050B0005058BB27AA270ED070C161D130F066D1FD
:1050C00020F031F49F3F11F41EF456C10EF4E09528
:1050D000E7FB4CC1E92F72D180F3BA17620773075F
:1050E0008407950718F071F49EF58AC10EF4E095D7
:1050F0000B2EBA2FA02D0B01B90190010C01CA0192
:10510000A0011124FF27591B99F0593F50F4503E3C
:1051100068F11A16F040A22F232F342F4427585F2E
:10512000F3CF469537952795A795F0405395C9F746
:105130007EF41F16BA0B620B730B840BBAF09150FE
:10514000A1F0FF0FBB1F661F771F881FC2F70EC09D
:10515000BA0F621F731F841F48F487957795679570
:10516000B795F7959E3F08F0B3CF9395880F08F059
:105170009927EE0F979587950895D4D008F481E08C
:1051800008950CD00AC102D140F0F9D030F021F4DA
:105190005F3F19F0EBC0511134C1EEC00FD198F34D
:1051A0009923C9F35523B1F3951B550BBB27AA27A8
:1051B00062177307840738F09F5F5F4F220F331F1A
:1051C000441FAA1FA9F333D00E2E3AF0E0E830D0E6
:1051D00091505040E695001CCAF729D0FE2F27D0E9
:1051E000660F771F881FBB1F261737074807AB07B7
:1051F000B0E809F0BB0B802DBF01FF2793585F4F2C
:105200002AF09E3F510568F0B1C0FBC05F3FECF350
:10521000983EDCF3869577956795B795F7959F5FF0
:10522000C9F7880F911D9695879597F90895E1E044
:10523000660F771F881FBB1F621773078407BA07A3
:1052400020F0621B730B840BBA0BEE1F88F7E095FE
:105250000895BCD088F09F5790F0B92F9927B75187
:10526000A0F0D1F0660F771F881F991F1AF0BA952A
:10527000C9F712C0B13081F0C3D0B1E00895C0C009
:10528000672F782F8827B85F39F0B93FCCF3869520
:1052900077956795B395D9F73EF49095809570957D
:1052A00061957F4F8F4F9F4F0895E89409C097FBFA
:1052B0003EF490958095709561957F4F8F4F9F4FED
:1052C0009923A9F0F92F96E9BB279395F695879531
:1052D00077956795B795F111F8CFFAF4BB0F11F4F4
:1052E00060FF1BC06F5F7F4F8F4F9F4F16C088239B
:1052F00011F096E911C0772321F09EE8872F762FD1
:1053000005C0662371F096E8862F70E060E02AF011
:105310009A95660F771F881FDAF7880F96958795FD
:1053200097F90895990F0008550FAA0BE0E8FEEFD2
:1053300016161706E807F907C0F012161306E40759
:10534000F50798F0621B730B840B950B39F40A2652
:1053500061F0232B242B252B21F408950A2609F430
:10536000A140A6958FEF811D811D089597F99F6734
:1053700080E870E060E008959FEF80EC08950024DD
:105380000A941616170618060906089500240A94AA
:1053900012161306140605060895092E0394000C30
:1053A00011F4882352F0BB0F40F4BF2B11F460FFBF
:1053B00004C06F5F7F4F8F4F9F4F089557FD9058E8
:1053C000440F551F59F05F3F71F04795880F97FBC9
:1053D000991F61F09F3F79F0879508951216130683
:1053E0001406551FF2CF4695F1DF08C016161706B2
:1053F0001806991FF1CF86957105610508940895E7
:10540000E894BB2766277727CB0197F908958ADFB1
:1054100008F48FEF08950BD0C0CFB1DF28F0B6DFCE
:1054200018F0952309F0A2CFA7CF1124EACFC6DF49
:10543000A0F3959FD1F3950F50E0551F629FF001A7
:10544000729FBB27F00DB11D639FAA27F00DB11D00
:10545000AA1F649F6627B00DA11D661F829F222789
:10546000B00DA11D621F739FB00DA11D621F839F10
:10547000A00D611D221F749F3327A00D611D231FE6
:10548000849F600D211D822F762F6A2F11249F5734
:1054900050408AF0E1F088234AF0EE0FFF1FBB1F57
:1054A000661F771F881F91505040A9F79E3F5105F6
:1054B00070F05CCFA6CF5F3FECF3983EDCF38695AF
:1054C00077956795B795F795E7959F5FC1F7FE2BA1
:1054D000880F911D9695879597F90895FA01EE0F1B
:1054E000FF1F30962105310599F16115710561F4B1
:1054F0008038BFE39B0749F168949038810561F0DB
:105500008038BFEF9B0741F0992342F5FF3FE1054B
:105510003105210511F1E8940894E795D901AA23F2
:1055200029F4AB2FBE2FF85FD0F310C0FF5F70F4EB
:10553000A695E0F7F73950F019F0FF3A38F49F7765
:105540009F930CD00F9007FC905808953EF014CF15
:1055500060E070E080E89FE308954FE79F775F93F6
:105560004F933F932F939ED02F913F914F915F91F7
:1055700052DF05C019F40EF0F9CE42CFFDCE26DF82
:10558000C8F39638C0F707F80F92E8942BE33AEA8D
:1055900048EB5FE74EDF0F920F920F924DB75EB769
:1055A0000F92C0D0E8E6F0E016D04F915F91EF91F6
:1055B000FF91E595EE1FFF1F49F0FE57E068442775
:1055C000EE0F441FFA95E1F74195550B32D00F903D
:1055D00007FE26C00895DF93CF931F930F93FF928A
:1055E000EF92DF927B018C01689405C0DA2EEF0107
:1055F0001EDFFE01E894A5912591359145915591C5
:10560000AEF3EF0167DDFE019701A801DA9479F7A7
:10561000DF90EF90FF900F911F91CF91DF91089550
:105620009B01AC0160E070E080E89FE3AACD9ECED4
:10563000ACC0CCDEE8F39923D9F3940F511DBBF332
:105640009150504094F059F0882332F0660F771F44
:10565000881F91505040C1F79E3F510544F7880F75
:10566000911D9695879597F908955F3FACF0983E08
:105670009CF0BB27869577956795B79508F4B16040
:105680009395C1F7BB0F58F711F460FFE8CF6F5F38
:105690007F4F8F4F9F4FE3CFB4CE0EF076C06CCECE
:1056A000689464CE93DEC8F39923D1F3C6F3DF93F5
:1056B000CF931F930F93FF92C92FDD2788232AF0E2
:1056C0002197660F771F881FDAF720E030E040E867
:1056D0005FEB9FE3883920F0803E30F021968F7792
:1056E000E8DCE0E9F0E003C0E4DCEDEBF0E073DFE0
:1056F0008B01BE01EC01FB2E6F5771097595771F69
:10570000880B990BD4DD28E132E741E35FE38FDEBC
:10571000AF2D9801AE01FF900F911F91CF91DF91B6
:10572000D9DC3BCEFA01DC01AA0FBB1F9B01AC0107
:10573000BF5728F422273327442750781FC0B7517A
:1057400088F4AB2F0024469537952795011CA39527
:10575000D2F3002069F0220F331F441FB395DAF310
:105760000DD0A6CC61307105A0E88A07B94630F4A7
:105770009B01AC016627772788279078309621F027
:10578000208331834283538308959F3F31F09150AA
:1057900020F4879577956795B795880F911D969515
:1057A000879597F90895629FD001739FF001829FBA
:1057B000E00DF11D649FE00DF11D929FF00D839FA0
:1057C000F00D749FF00D659FF00D9927729FB00D3D
:1057D000E11DF91F639FB00DE11DF91FBD01CF0150
:1057E00011240895991B79E004C0991F961708F0B9
:1057F000961B881F7A95C9F780950895AA1BBB1B35
:1058000051E107C0AA1FBB1FA617B70710F0A61BC0
:10581000B70B881F991F5A95A9F780959095BC01E1
:10582000CD010895A1E21A2EAA1BBB1BFD010DC0DC
:10583000AA1FBB1FEE1FFF1FA217B307E407F50740
:1058400020F0A21BB30BE40BF50B661F771F881F1C
:10585000991F1A9469F760957095809590959B01B2
:10586000AC01BD01CF0108952F923F924F925F92FC
:105870006F927F928F929F92AF92BF92CF92DF9260
:10588000EF92FF920F931F93CF93DF93CDB7DEB7C5
:10589000CA1BDB0B0FB6F894DEBF0FBECDBF099459
:1058A0002A88398848885F846E847D848C849B84B0
:1058B000AA84B984C884DF80EE80FD800C811B81BE
:1058C000AA81B981CE0FD11D0FB6F894DEBF0FBEED
:1058D000CDBFED010895CF93DF93BC0182309105D8
:1058E00010F462E070E0A091A307B091A407ED016D
:1058F000E0E0F0E040E050E021C088819981861727
:10590000970769F48A819B81309719F0938382838A
:1059100004C09093A4078093A307FE0134C06817C6
:10592000790738F44115510519F08417950708F4E3
:10593000AC01FE018A819B819C01E9012097E9F677
:1059400041155105A9F1CA01861B970B049708F46C
:10595000BA01E0E0F0E02AC08D919C911197841784
:105960009507F9F46417750781F412968D919C914F
:105970001397309719F09383828304C09093A40700
:105980008093A307FD0132964FC0CA01861B970B77
:10599000FD01E80FF91F6193719302978D939C931A
:1059A00043C0FD01828193819C01D9011097A1F62A
:1059B0008091A1079091A207892B41F480918901E0
:1059C00090918A019093A2078093A10740918B0147
:1059D00050918C014115510541F44DB75EB780914E
:1059E000870190918801481B590B2091A1073091A4
:1059F000A20724173507B0F4CA01821B930B861740
:105A0000970780F0AB014E5F5F4F8417950750F00A
:105A1000420F531F5093A2074093A107F9016193CE
:105A2000719302C0E0E0F0E0CF01DF91CF910895E3
:105A3000CF93DF93009709F450C0EC0122971B82AB
:105A40001A82A091A307B091A407109709F140E032
:105A500050E0AC17BD0708F1BB83AA83FE0121917A
:105A60003191E20FF31FAE17BF0779F48D919C912E
:105A70001197280F391F2E5F3F4F398328831296C5
:105A80008D919C9113979B838A834115510571F4E5
:105A9000D093A407C093A30720C012968D919C9128
:105AA0001397AD01009711F0DC01D3CFFA01D38336
:105AB000C28321913191E20FF31FCE17DF0769F402
:105AC00088819981280F391F2E5F3F4FFA0131835A
:105AD00020838A819B8193838283DF91CF91089574
