:10000000DCC1000080C20000F4C10000F2C10000A9
:10001000F0C10000EEC10000ECC10000FCC2000015
:10002000E8C10000E6C10000E4C10000E2C1000038
:10003000E0C10000DEC100000C949508DAC10000A8
:10004000D8C10000D6C10000D4C10000D2C1000058
:10005000D0C10000CEC10000CCC10000CAC1000068
:10006000C8C10000C6C1000025312E326620200024
:100070005323202564202020006176672025322E1E
:10008000306600617667202D2D0053504D202532BB
:100090002E306620200053504D202D2D202000258D
:1000A000312E3066206D6574657273202020002526
:1000B0003032643A253032643A25303264002A0006
:1000C0002564002053617261682773204572676F51
:1000D0002000000000000000002F000000070007C3
:1000E00000147F147F14242A7F2A12323408162623
:1000F00036495522500005030000001C2241000033
:1001000041221C0014083E081408083E080800009C
:100110005030001010101010006060000020100817
:1001200004023E5149453E00427F40004261514930
:10013000462141454B311814127F1027454545395A
:100140003C4A494930017109050336494949360697
:100150004949291E003636000000563600000814B2
:1001600022410014141414140041221408020151F5
:100170000906324959513E7E1111117E7F49494984
:10018000363E414141227F4141221C7F494949413C
:100190007F090909013E4149497A7F0808087F0023
:1001A000417F41002040413F017F081422417F40B0
:1001B0004040407F020C027F7F0408107F3E414197
:1001C000413E7F090909063E4151215E7F091929F7
:1001D00046464949493101017F01013F4040403FC6
:1001E0001F2040201F3F4038403F6314081463071E
:1001F000087008076151494543007F414100552A75
:10020000552A550041417F0004020102044040404C
:100210004040000102040020545454787F48444474
:10022000383844444420384444487F38545454189F
:10023000087E0901020C5252523E7F0804047800E5
:10024000447D40002040443D007F10284400004190
:100250007F40007C041804787C0804047838444407
:1002600044387C14141408081414187C7C08040402
:10027000084854545420043F4440203C4040207CD3
:100280001C2040201C3C4030403C44281028440C9A
:100290005050503C4464544C44007F3E1C08081CA1
:1002A0003E7F00087C7E7C08103E7E3E103E3E3E37
:1002B0003E3E007F3E1C086E616E00696E66000067
:1002C000407A10F35A00A0724E18090010A5D4E825
:1002D0000000E87648170000E40B54020000CA9AB8
:1002E0003B000000E1F5050000809698000000400A
:1002F000420F000000A0860100000010270000004F
:1003000000E803000000006400000000000A000094
:100310000000000100000000002C76D888DC674F48
:100320000823DFC1DFAE59E1B1B796E5E3E453C678
:100330003AE651997696E8E6C28426EB898C9B6270
:10034000ED407C6FFCEFBC9C9F40F2BAA56FA5F41A
:1003500090055A2AF75C936B6CF9676DC11BFCE042
:10036000E40D47FEF520E6B500D0ED902E03009495
:100370003577050080841E080000204E0A0000002A
:10038000C80C333333330F986E12831141EF8D2134
:1003900014893BE65516CFFEE6DB18D1844B381B9B
:1003A000F77C1D901DA4BBE424203284725E228160
:1003B00000C9F124ECA1E53D270011241FBECFEFB9
:1003C000D8E0DEBFCDBF11E0A0E0B1E0E0EBF1E2AC
:1003D00002C005900D92A231B107D9F711E0A2E158
:1003E000B1E001C01D92AA36B107E1F760D10C94CB
:1003F000D61006CE6F927F928F929F92AF92BF924D
:10040000CF92DF92EF92FF920F931F936B017C01CB
:100410005A014901380120E030E040E752E40E94EF
:10042000230D0E948B0DF50171836083882777FD72
:100430008095982F0E94BE0D20E030E040E752ECFE
:100440000E944A0E9B01AC01C701B6010E94BF0C7D
:100450005B016C010E948B0D7B01F4017183608351
:10046000C601B50120E030E040E752E40E944A0EA8
:100470005B016C010027F7FC0095102FC801B70144
:100480000E94BE0D20E030E040E752EC0E944A0E90
:100490009B01AC01C601B5010E94BF0C0E948B0DEF
:1004A000F301718360831F910F91FF90EF90DF90B4
:1004B000CF90BF90AF909F908F907F906F90089556
:1004C0008AB18F718AB98BB1806E8BB992E09093AB
:1004D000B00087E08093B1008DE98093B3009093E2
:1004E00070001092B20052985A9A93E0909369006B
:1004F00081E08DBB10928000909381001092850066
:100500001092840008951F920F920FB60F9211243B
:10051000EF92FF920F931F932F933F934F935F930D
:100520006F937F938F939F93AF93BF93EF93FF93BB
:10053000F894809119018F5F8093190190E0837086
:100540009070892B09F051C01092190180914601D9
:100550009091470190934901809348018091440113
:1005600090914501909347018093460180918400CA
:1005700090918500909345018093440110928500ED
:1005800010928400E0902601F0902701009128014C
:100590001091290160910001709101018091020187
:1005A0009091030120E030E040E05FE30E944A0EBA
:1005B0009B01AC01C801B7010E94BF0C60932601EA
:1005C00070932701809328019093290180912A013B
:1005D000813011F410922A0180912B0190912C010D
:1005E000019690932C0180932B017894FF91EF91C9
:1005F000BF91AF919F918F917F916F915F914F913B
:100600003F912F911F910F91FF90EF900F900FBE90
:100610000F901F9018951F920F920FB60F921124F2
:100620008F939F9380913401813099F480913101AF
:10063000909132018832910530F401969093320105
:100640008093310106C01092320110923101109254
:1006500034014D9B04C04E9B02C04F9909C080914C
:100660003401882329F4809133018F5F8093330113
:10067000809133018630A0F04D9903C081E08093D2
:1006800018014E9903C082E0809318014F9903C06E
:1006900083E0809318011092330181E0809334014C
:1006A0009F918F910F900FBE0F901F901895A0E013
:1006B000B0E0EDE5F3E00C94FF0E03D586E3F3D450
:1006C00025D5FEDE789410924501109244011092D7
:1006D000470110924601109249011092480180E0B2
:1006E00090E0A0E0B0E08093540190935501A09376
:1006F0005601B09357018093580190935901A093EC
:100700005A01B0935B0180935C0190935D01A093CB
:100710005E01B0935F018093600190936101A093AB
:100720006201B09363018093640190936501A0938B
:100730006601B0936701A1D481E061E01CD481E03F
:100740008093350100D000D004E011E0ADB7BEB712
:1007500012961C930E93119783EC90E014969C9341
:100760008E9313970E942410109235010F900F90D2
:100770000F900F908EE391E01DD5109253011092CF
:100780004A0110924B0110924C0110922C011092D0
:100790002B0110922E0110922D0110923001109217
:1007A0002F0148010F2EF0E04F2EF0E05F2EF0E019
:1007B0006F2EF0E07F2EF02DC3E8D0E089E7282EE1
:1007C00080E0382E80914C018F5F80934C0164E66D
:1007D0000E94CC0E992309F05AC0809118018130F3
:1007E00061F410921801F89450D578941092520147
:1007F000109251018EE391E0DDD480911801823096
:10080000A1F41092180140922601509227016092A3
:10081000280170922901F89438D5789410925201E9
:10082000109251018EE391E0C5D48091180183307C
:1008300051F41092180140922601509227016092C3
:100840002801709229018AE064E095D380912B0100
:1008500090912C0100D000D000D0EDB7FEB73196BA
:10086000ADB7BEB711968C92119712969C9220EC60
:1008700030E033832283958384830E9424108DB7D4
:100880009EB706960FB6F8949EBF0FBE8DBF80919F
:100890002B0190912C01885E9340B0F520912B01A3
:1008A00030912C0180912D0190912E018217930798
:1008B00058F5209144013091450180912F0190918C
:1008C0003001632F0E94C81080912F019091300158
:1008D00001969093300180932F01609144017091B3
:1008E00045010E94C81080912F019091300101961E
:1008F0009093300180932F0180912B0190912C01D6
:1009000090932E0180932D0180914C0190E064EF33
:1009100071E00E94EC0E892B09F04BC280912B01F3
:1009200090912C01895E9340C0F08EE064E023D367
:1009300081E08093350100D000D0EDB7FEB7818211
:1009400092822EEB30E0348323830E942410109295
:1009500035010F900F900F900F9084D40E94BC0D22
:1009600020E030E040E752E40E94230D6093220132
:1009700070932301809324019093250181E066E028
:10098000FAD260912201709123018091240190910B
:10099000250142E151E024E131E006E111E02ADDE8
:1009A0008DB79EB70A970FB6F8949EBF0FBE8DBF46
:1009B000EDB7FEB73196ADB7BEB711968C921197D1
:1009C00012969C922FEA30E03383228380911201A9
:1009D0009091130195838483809114019091150166
:1009E0009783868380911601909117019187808764
:1009F0000E9424108DB79EB70A960FB6F8949EBF3A
:100A00000FBE8DBF81E065E0B6D2409126015091C6
:100A100027016091280170912901ADB7BEB71897E1
:100A20000FB6F894BEBF0FBEADBFEDB7FEB731969F
:100A300011968C92119712969C922FE930E0338395
:100A4000228344835583668377830E9424102091F8
:100A50006001309161014091620150916301CA01CE
:100A6000B9018DD7209164013091650140916601F3
:100A70005091670184D77B018C0160915C0170917A
:100A80005D0180915E0190915F0120E030E040E8DF
:100A900050E40E944A0E9B01AC01C801B7016FD718
:100AA0007B018C01609158017091590180915A012C
:100AB00090915B0120E030E040E051E40E944A0E5A
:100AC0009B01AC01C801B7015AD77B018C01609131
:100AD000540170915501809156019091570120E089
:100AE00030E040E851E40E944A0E9B01AC01C8018D
:100AF000B70145D720E030E048EF51E4A4D7609338
:100B00004D0170934E0180934F01909350018DB72A
:100B10009EB708960FB6F8949EBF0FBE8DBF81E0BA
:100B200062E029D280915101909152010597B8F469
:100B300000D000D0ADB7BEB711968C921197129627
:100B40009C921297E6E9F0E01496FC93EE931397CB
:100B50000E9424100F900F900F900F9037C02DB768
:100B60003EB7285030400FB6F8943EBF0FBE2DBFA1
:100B70000DB71EB70F5F1F4FADB7BEB711968C9262
:100B8000119712969C922AE830E0F8013383228371
:100B900060E070E080E792E420914D0130914E01D9
:100BA00040914F01509150014ED7D80114966D934A
:100BB0007D938D939C9317970E942410EDB7FEB7F9
:100BC00038960FB6F894FEBF0FBEEDBF89E062E025
:100BD000D2D160915101709152016230710598F04B
:100BE00000911201109113010115110509F5809171
:100BF000140190911501892BD9F4809116019091DF
:100C000017014E97ACF400D000D0ADB7BEB7119627
:100C10008C92119712969C9212971496DC93CE9315
:100C200013970E9424100F900F900F900F906CC09C
:100C300080E090E0A1D75B016C01B801882777FDC7
:100C40008095982F9BD720E030E040E752E40E9447
:100C50004A0E7B018C016091140170911501882767
:100C600077FD8095982F8AD79B01AC01C801B70109
:100C700086D67B018C01609116017091170188273F
:100C800077FD8095982F7AD720E030E040E752E456
:100C9000DAD69B01AC01C801B70171D62AE037ED65
:100CA00043E25CE36CD69B01AC01C601B501CBD637
:100CB0009B01AC0120931E0130931F014093200142
:100CC00050932101EDB7FEB738970FB6F894FEBFE9
:100CD0000FBEEDBF3196ADB7BEB711968C9211978E
:100CE00012969C9233822282CB01DA01848395830F
:100CF000A683B7830E942410EDB7FEB738960FB6CF
:100D0000F894FEBF0FBEEDBF10924C0181E063E08E
:100D100032D100D000D000D0EDB7FEB73196ADB7DC
:100D2000BEB711968C92119712969C9220E730E0F4
:100D30003383228380915101909152019583848362
:100D40000E9424108DB79EB706960FB6F8949EBFEA
:100D50000FBE8DBF8BE063E00ED1ADB7BEB7189765
:100D60000FB6F894BEBF0FBEADBFEDB7FEB731965C
:100D700011968C92119712969C9228E630E033835C
:100D8000228380911A0190911B01A0911C01B091C6
:100D90001D0184839583A683B7830E94241010923B
:100DA0004C018DB79EB708960FB6F8949EBF0FBE44
:100DB0008DBF80912A018823D9F480914A0188232C
:100DC000B9F42091440130914501809148019091FE
:100DD00049012817390760F491E090932A01809126
:100DE00053018F5F80935301833010F090934A0139
:100DF00080912A018823A1F480914A01882381F4FB
:100E00002091440130914501809148019091490120
:100E10008217930728F481E080932A0110925301EE
:100E200080912A01882399F440914A01413079F454
:100E300020914401309145018091480190914901F0
:100E40002817390720F440932A0110924B01809112
:100E50002A01882309F0B6CC40914A01413009F0BB
:100E6000B1CC20914401309145018091480190918D
:100E700049018217930708F0A5CC40932A0180917D
:100E80004B018F5F80934B01853008F49BCC10920F
:100E90004B011092530110924A018091510190919F
:100EA0005201019690935201809351018EE391E09B
:100EB000A6D162D620E030E04AE754E4C4D560937E
:100EC0001A0170931B0180931C0190931D018EE306
:100ED00091E070D18091600190916101A0916201D7
:100EE000B09163018093640190936501A0936601C2
:100EF000B093670180915C0190915D01A0915E01CA
:100F0000B0915F018093600190936101A0936201B1
:100F1000B09363018091580190915901A0915A01B9
:100F2000B0915B0180935C0190935D01A0935E01A1
:100F3000B0935F018091540190915501A0915601A9
:100F4000B09157018093580190935901A0935A0191
:100F5000B0935B0180911A0190911B01A0911C013B
:100F6000B0911D018093540190935501A0935601B7
:100F7000B093570127CC96E0899FC00111248A5570
:100F8000904024E5629FB0011124860F971F909333
:100F90006901809368010895982F87B18C6087B9A3
:100FA0004198613031F48091350181119095429AD8
:100FB00001C0429827E030E0492F50E0CA01022EDC
:100FC00002C0959587950A94E2F780FF02C0439A84
:100FD00001C04398449A4498215030408FEF2F3FEE
:100FE000380761F7419A87B1837F87B988B18C60F0
:100FF00088B908950F931F938C0164E570E0D8D6EB
:10100000806860E0C9DFC80164E570E0D1D6862F52
:10101000806460E0C1DF1F910F9108950F931F93CB
:10102000CF93DF93082F8091680190916901E2DFEF
:1010300085E0089F80011124E801CE5CDF4F0B5949
:1010400010400E521F4FFE018491880F61E0A4DF13
:101050002196C017D107B9F780E061E09DDF80914C
:1010600068019091690106969093690180936801E7
:10107000DF91CF911F910F910895CF93DF9310923D
:1010800069011092680180E090E0B4DFC0E0D0E038
:1010900080E061E081DF219681E0C83FD807C1F799
:1010A000DF91CF9108951F93182F81E260E074DFE4
:1010B000812F806860E070DF80E260E06DDF1F916B
:1010C0000895409A87B18F6187B986EA9EE0FC0156
:1010D0003197F1F740980197F1F7409A419A81E2F0
:1010E00060E05ADF88EC60E057DF86E060E054DFC4
:1010F00083E160E051DF80E260E04EDF8CE060E0A1
:101100004BDFBBCF8BDF80E090E0089584E085BDAE
:1011100084B5806884BD84B584BD8DE787BD82E0D9
:1011200080936E0016BC80E008951F920F920FB658
:101130000F9211242F938F939F93AF93BF9316BC5D
:1011400080913A0190913B01029690933B018093EC
:101150003A0180913A0190913B01885E934000F101
:101160008091360190913701A0913801B0913901F9
:101170000196A11DB11D8093360190933701A09374
:101180003801B093390180913C0190913D01019665
:1011900090933D0180933C0110923B0110923A01E3
:1011A000BF91AF919F918F912F910F900FBE0F9094
:1011B0001F901895CF93DF939C01EEE6F0E08081BD
:1011C0008D7F808380913A0190913B01D9011596E2
:1011D0009C938E9314978091360190913701A09142
:1011E0003801B0913901E90188839983AA83BB83CF
:1011F00080818260808380E0DF91CF910895A6E0B6
:10120000B0E0E4E0F9E009C68C01CE010196D2DF3E
:1012100069817A818B819C81F801208131814281B1
:101220005381621B730B840B950B28EE33E040E077
:1012300050E093D59B01AC01F80184819581A0E039
:10124000B0E0281B390B4A0B5B0B8D819E81A0E01F
:10125000B0E0280F391F4A1F5B1FB901CA0126964B
:10126000E4E0F7C5EEE6F0E080818D7F8083209199
:101270003601309137014091380150913901808118
:1012800082608083B901CA010895EEE6F0E08081B2
:101290008D7F8083109236011092370110923801B1
:1012A000109239018081826080830895A1E1B0E0CD
:1012B000EBE5F9E0A4C53C017F876E876A01FC017C
:1012C00017821682838181FD03C06FEF7FEF52C3C7
:1012D0009E012F5F3F4F398B288BF3012381EE85D1
:1012E000FF8523FD859123FF8191FF87EE8788236A
:1012F00009F43DC3853251F4EE85FF8523FD8591C8
:1013000023FF8191FF87EE87853221F490E0B301BE
:10131000B5D6E3CF982F10E0882499241032B0F48A
:101320009B3269F09C3228F4903251F0933271F480
:101330000BC09D3239F0903349F4116028C012601F
:10134000146025C0186023C0106121C017FD2AC099
:10135000892F80538A3078F416FF06C0FAE09F9EEA
:10136000902C1124980E13C03AE0839E802C1124F7
:10137000880E10620CC09E3221F416FDF8C2106473
:1013800006C09C3611F4106802C0983659F4EE85F8
:10139000FF8523FD959123FF9191FF87EE87992388
:1013A00009F0BCCF892F8554833020F4812F8061D0
:1013B000905E07C0892F8556833008F08FC1812F3A
:1013C0008F7E86FD02C076E0972E6FE3F62EF82220
:1013D000953619F4F0E4FF2A07C0963619F420E890
:1013E000F22A02C091109A94F7FE0AC03BE3391525
:1013F00018F45CE3B52E02C0B92CB39427E009C001
:1014000047E0491520F4BB2447E0942EF7CF292D5F
:10141000BB24C60104969D878C87F601608171818B
:1014200082819381AE014F5F5F4F0B2D1FD56C0101
:101430000981202E332400FF04C003FD02C01DE2F9
:1014400009C0F1FE02C01BE205C0F2FC02C010E0C0
:1014500001C010E2C1018C709070892BA1F11123A1
:1014600011F483E001C084E0881510F0882409C0DD
:10147000881AF3FC06C080E290E0B301FFD58A949D
:10148000D1F7112321F0812F90E0B301F7D523FE8E
:1014900003C007EB12E00DC00BEB12E00AC0E11431
:1014A000F10409F0805290E0B301E8D50F5F1F4FBF
:1014B00005C0EF2CFF24F0E1EF22FF24F801849116
:1014C000882369F708C1F7FE12C0BC0C24FE04C0D3
:1014D0008A81813309F4BA941B141CF0BB24B394A1
:1014E0002DC0F8E0FB1550F538E0B32E27C0F6FC10
:1014F00025C0892D90E08C159D054CF02CEFC2166F
:101500002FEFD20624F030E8F32A01C09A949920F4
:1015100049F0E2E0F0E0EC0FFD1FE90DF11D8081E4
:101520008033A1F3F7FE0AC0B92CB394892D90E063
:10153000C816D90614F0992401C09C18F7FC03C002
:1015400025E030E009C01C141D041CF021E030E04F
:1015500003C096012F5F3F4F112311F02F5F3F4FC4
:10156000992029F0892D90E00196280F391F882DA8
:1015700090E02817390714F0882401C0821A4F2CF4
:101580005524C20189709070892B31F007C080E228
:1015900090E0B30173D58A948820C9F7112321F014
:1015A000812F90E0B3016AD543FE06C007C080E3F7
:1015B00090E0B30163D58A948820C9F7F7FE44C050
:1015C0008601D7FE02C000E010E076010894E11C1D
:1015D000F11CE01AF10A41E050E04C0F5D1FE40EEF
:1015E000F51E26014B185108892D90E0AA24BB2432
:1015F000A81AB90A5FEF0F3F150721F48EE290E0B9
:10160000B3013CD5C016D10634F0401651061CF487
:10161000F701808101C080E3015010400894E11C73
:10162000F11C0A151B0524F090E0B30127D5E2CF89
:101630000C151D0539F49A81963318F4953311F47D
:1016400024FE81E390E045C08A81813309F00F7E5A
:1016500090E0B30113D5992091F08EE290E0B301B0
:101660000DD512E0E1E0F0E0EC0FFD1FE10FF11D00
:101670001F5F808190E0B30101D59A9499F744FCF3
:1016800003C085E690E002C085E490E0B301F6D4A3
:10169000D7FC05C0C114D10441F404FF06C0D094A6
:1016A000C194D108D3948DE201C08BE290E0B301E4
:1016B000E5D480E305C08F5F26EF3FEFC20ED31E57
:1016C0003AE0C316D104BCF790E0B301D7D4C60109
:1016D000C096B301D3D4CC84DD8446C1933631F0B7
:1016E000933799F0933509F055C022C0F6018081F7
:1016F00089835E010894A11CB11C22E030E0C20E77
:10170000D31E21E0E22EF12C11C0F601A080B180A1
:1017100016FD03C06FEF7FEF02C0692D70E022E07D
:1017200030E0C20ED31EC50184D47C011F7712C0E5
:10173000F601A080B18016FD03C06FEF7FEF02C0FD
:10174000692D70E022E030E0C20ED31EC50166D4E0
:101750007C01106813FF06C019C080E290E0B3015D
:101760008DD48A94882D90E0E816F906B0F30EC067
:10177000F50117FD859117FF81915F0190E0B3019D
:101780007DD481108A940894E108F108E114F104F1
:1017900079F7EAC0943611F0993681F517FF08C041
:1017A000F601208131814281538184E090E00AC0BA
:1017B000F601808191819C01442737FD4095542F8B
:1017C00082E090E0C80ED91E9FE6F92EF12257FF65
:1017D00009C050954095309521953F4F4F4F5F4F31
:1017E00090E8F92ACA01B901AE014F5F5F4F2AE0C4
:1017F00030E070D4E82EE889EE1A40C0953721F425
:101800001F7E2AE030E01CC0197F9F3661F09037C0
:1018100020F4983509F0ABC00FC0903739F09837F5
:1018200009F0A5C004C028E030E00AC0106114FD32
:10183000146020E130E004C014FD166020E132E0C5
:1018400017FF08C0F601608171818281938144E0B5
:1018500050E008C0F60180819181BC0180E090E0F9
:1018600042E050E0C40ED51EAE014F5F5F4F32D450
:10187000E82E5889E51A8FE7F82EF122F6FE0BC004
:101880008EEFF822E91438F4F4FE07C0F2FC05C02C
:101890009FEEF92202C01E2D01C0192DF4FE0DC0CD
:1018A000FE01EE0DF11D8081803319F4E9EEFE2278
:1018B00008C01F5FF2FE05C003C08F2D867809F0B7
:1018C0001F5F0F2DF3FC13C0F0FE0EC0181510F0B3
:1018D0009E2C0AC09E2C980C911A182D05C080E2EF
:1018E00090E0B301CBD31F5F1815C8F304C01815DF
:1018F00010F4811A01C0882404FF0EC080E390E038
:10190000B301BCD302FF1BC001FD03C088E790E018
:101910000EC088E590E00BC0802F867881F001FF33
:1019200002C08BE201C080E2F7FC8DE290E0B301DF
:10193000A5D305C080E390E0B301A0D39A94E91445
:10194000C8F3EA94E1E0F0E0EC0FFD1FEE0DF11DAD
:10195000808190E0B30192D3EE2099F705C080E238
:1019600090E0B3018BD38A948820C9F7B6CCF301F9
:1019700066817781CB016196E2E15DC25058BB2759
:10198000AA270ED04DC13ED130F043D120F031F422
:101990009F3F11F41EF433C10EF4E095E7FB29C11B
:1019A000E92F4FD180F3BA176207730784079507B1
:1019B00018F071F49EF567C10EF4E0950B2EBA2F66
:1019C000A02D0B01B90190010C01CA01A001112445
:1019D000FF27591B99F0593F50F4503E68F11A16F1
:1019E000F040A22F232F342F4427585FF3CF469582
:1019F00037952795A795F0405395C9F77EF41F16A4
:101A0000BA0B620B730B840BBAF09150A1F0FF0F6D
:101A1000BB1F661F771F881FC2F70EC0BA0F621F59
:101A2000731F841F48F4879577956795B795F79549
:101A30009E3F08F0B3CF9395880F08F09927EE0FDB
:101A40009795879508950CD0EBC0E3D040F0DAD09D
:101A500030F021F45F3F19F0CCC0511115C1CFC057
:101A6000F0D098F39923C9F35523B1F3951B550B87
:101A7000BB27AA2762177307840738F09F5F5F4F61
:101A8000220F331F441FAA1FA9F333D00E2E3AF0A2
:101A9000E0E830D091505040E695001CCAF729D0BC
:101AA000FE2F27D0660F771F881FBB1F261737070B
:101AB0004807AB07B0E809F0BB0B802DBF01FF273B
:101AC00093585F4F2AF09E3F510568F092C0DCC0EA
:101AD0005F3FECF3983EDCF3869577956795B79575
:101AE000F7959F5FC9F7880F911D9695879597F990
:101AF0000895E1E0660F771F881FBB1F6217730709
:101B00008407BA0720F0621B730B840BBA0BEE1F1D
:101B100088F7E095089504D06894B111B5C0089590
:101B200098D088F09F5790F0B92F9927B751A0F01F
:101B3000D1F0660F771F881F991F1AF0BA95C9F761
:101B400012C0B13081F09FD0B1E008959CC0672FE2
:101B5000782F8827B85F39F0B93FCCF38695779511
:101B60006795B395D9F73EF49095809570956195FA
:101B70007F4F8F4F9F4F0895E89409C097FB3EF425
:101B800090958095709561957F4F8F4F9F4F9923CA
:101B9000A9F0F92F96E9BB279395F6958795779548
:101BA0006795B795F111F8CFFAF4BB0F11F460FF08
:101BB0001BC06F5F7F4F8F4F9F4F16C0882311F060
:101BC00096E911C0772321F09EE8872F762F05C074
:101BD000662371F096E8862F70E060E02AF09A950F
:101BE000660F771F881FDAF7880F9695879597F904
:101BF000089597F99F6780E870E060E008959FEF8F
:101C000080EC089500240A94161617061806090693
:101C1000089500240A941216130614060506089562
:101C2000092E0394000C11F4882352F0BB0F40F4EA
:101C3000BF2B11F460FF04C06F5F7F4F8F4F9F4F2A
:101C4000089557FD9058440F551F59F05F3F71F0AC
:101C50004795880F97FB991F61F09F3F79F0879513
:101C60000895121613061406551FF2CF4695F1DF9C
:101C700008C0161617061806991FF1CF869571052C
:101C8000610508940895E894BB2766277727CB0160
:101C900097F908950BD0C4CFB5DF28F0BADF18F05C
:101CA000952309F0A6CFABCF1124EECFCADFA0F366
:101CB000959FD1F3950F50E0551F629FF001729FE1
:101CC000BB27F00DB11D639FAA27F00DB11DAA1F00
:101CD000649F6627B00DA11D661F829F2227B00D4D
:101CE000A11D621F739FB00DA11D621F839FA00DD8
:101CF000611D221F749F3327A00D611D231F849F28
:101D0000600D211D822F762F6A2F11249F5750407E
:101D10008AF0E1F088234AF0EE0FFF1FBB1F661F19
:101D2000771F881F91505040A9F79E3F510570F0D2
:101D300060CFAACF5F3FECF3983EDCF386957795B2
:101D40006795B795F795E7959F5FC1F7FE2B880FCD
:101D5000911D9695879597F90895629FD001739F7D
:101D6000F001829FE00DF11D649FE00DF11D929F37
:101D7000F00D839FF00D749FF00D659FF00D992776
:101D8000729FB00DE11DF91F639FB00DE11DF91F9A
:101D9000BD01CF0111240895991B79E004C0991F5A
:101DA000961708F0961B881F7A95C9F780950895B5
:101DB000AA1BBB1B51E107C0AA1FBB1FA617B70771
:101DC00010F0A61BB70B881F991F5A95A9F780958D
:101DD0009095BC01CD01089597FB092E07260AD0E6
:101DE00077FD04D0E5DF06D000201AF470956195E8
:101DF0007F4F0895F6F7909581959F4F08952F9204
:101E00003F924F925F926F927F928F929F92AF928A
:101E1000BF92CF92DF92EF92FF920F931F93CF93D7
:101E2000DF93CDB7DEB7CA1BDB0B0FB6F894DEBF6E
:101E30000FBECDBF09942A88398848885F846E8494
:101E40007D848C849B84AA84B984C884DF80EE80DE
:101E5000FD800C811B81AA81B981CE0FD11D0FB6E7
:101E6000F894DEBF0FBECDBFED010895283008F015
:101E700027E03327DA01990F311D87FD9160009625
:101E80006105710539F432602E5F3D9330E32A9588
:101E9000E1F708959F3F30F080387105610509F042
:101EA0003C5F3C5F3D93913008F08068911DDF936B
:101EB000CF931F930F93FF92EF92192F987F9695D0
:101EC000E92F96959695E90FFF27E75EFC4F992736
:101ED0003327EE24FF24A701E70105900894079417
:101EE00028F4360FE71EF81E491F511D660F771F95
:101EF000881F991F0694A1F70590079428F4E70E10
:101F0000F81E491F561FC11D770F881F991F661F96
:101F10000694A1F70590079428F4F80E491F561F60
:101F2000C71FD11D880F991F661F771F0694A1F741
:101F30000590079420F4490F561FC71FD81F990F0B
:101F4000661F771F881F0694A9F784911095177054
:101F500041F0D695C79557954795F794E7941A950C
:101F6000C1F7EFEBF2E0689415901591359165910A
:101F7000959105907FE27395E118F10A430B560B9A
:101F8000C90BD009C0F7E10CF11E431F561FC91F32
:101F9000D01D7EF4703311F48A95E6CFE894015099
:101FA00030F0080F0AF40027021708F4202F2395B9
:101FB000022F7A3328F079E37D932A95E9F710C050
:101FC0007D932A9589F60694979567953795179589
:101FD0001794E118F10A430B560BC90BD00998F07E
:101FE00023957E9173957A3308F070E37C932013E8
:101FF000B8F77E9170617D9330F0839571E37D93A6
:1020000070E32A95E1F71124EF90FF900F911F9153
:10201000CF91DF91992787FD90950895FC01059058
:10202000615070400110D8F7809590958E0F9F1FDA
:102030000895FC016150704001900110D8F780951F
:1020400090958E0F9F1F0895A0E0B0E0E9E2F0E1C7
:10205000E4CE0F8118859E01255F3F4FF8018381F3
:1020600088608383C80169857A85A9011FD9F80131
:102070002381277F23832096E4E0EBCE0F931F93E9
:10208000CF93DF938C01EB018B8181FF1BC082FF1B
:102090000DC02E813F818C819D812817390764F402
:1020A000E881F9810193F983E88306C0E885F98521
:1020B000802F0995892B31F48E819F8101969F8312
:1020C0008E8302C00FEF1FEFC801DF91CF911F91E8
:1020D0000F910895FA01AA27283051F1203181F19A
:1020E000E8946F936E7F6E5F7F4F8F4F9F4FAF4F20
:1020F000B1E03ED0B4E03CD0670F781F891F9A1F33
:10210000A11D680F791F8A1F911DA11D6A0F711DE6
:10211000811D911DA11D20D009F468943F912AE0F2
:10212000269F11243019305D3193DEF6CF010895DA
:10213000462F4770405D4193B3E00FD0C9F7F6CF0B
:10214000462F4F70405D4A3318F0495D31FD4052D3
:10215000419302D0A9F7EACFB4E0A6959795879569
:1021600077956795BA95C9F7009761057105089548
:102170009B01AC010A2E06945795479537952795F4
:10218000BA95C9F7620F731F841F951FA01D08958C
:10219000262FF999FECF1FBA92BD81BD20BD0FB683
:1021A000F894FA9AF99A0FBE01960895F894FFCF21
:1021B0000000003F00000002000000008208000054
:0221C00000001D
:00000001FF
