:100000000C9465020C947D1F0C9482020C94820265
:100010000C9482020C9482020C9482020C94E71ECF
:100020000C9482020C9482020C9482020C94820240
:100030000C9482020C9482020C94F9040C948202B7
:100040000C9482020C9482020C9482020C94820220
:100050000C9482020C9482020C9482020C94820210
:100060000C9482020C94820207634236B79BD8A795
:100070001A39685618AEBAAB558C1D3CB7CC5763CD
:10008000BD6DEDFD753EF6177231BF000000803F7B
:1000900008000000BE922449123EABAAAA2ABECD97
:1000A000CCCC4C3E00000080BEABAAAAAA3E000009
:1000B0000000BF000000803F000000000008417801
:1000C000D3BB4387D1133D190E3CC3BD4282AD2B38
:1000D0003E68EC8276BED98FE1A93E4C80EFFFBE30
:1000E00001C4FF7F3F00000000002532643A253044
:1000F0003264002D2D3A2D2D0025312E30662057EB
:1001000020002D2D2D20570025322E3066205350F3
:100110004D20002D2D2053504D00532320256420C9
:1001200000202564206B6720004369616F210D0A60
:10013000004669726D776172652076302E36310027
:1001400025312E30662057202020002D2D2D2057C0
:1001500000507772206573740025312E3066205769
:10016000202020002D2D2D205700507772002531A2
:100170002E3366206B676D32004A0025312E3466BF
:10018000002D2D2D2D2D2D004B5F44206573740007
:1001900025312E3466004B5F440025312E32662017
:1001A0007320202020002D2D2D2D207300732F5320
:1001B00074720025312E3266206D20202020002D03
:1001C0002D2D2D206D006D2F5374720025312E338F
:1001D00066206D006D2F52657600206B63616C7335
:1001E000200025332E3066002532643A25303264F3
:1001F000002D2D3A2D2D00202057202020002533C2
:100200002E3066002D2D2D002053504D202000252E
:10021000332E3066002D2D2D002532643A253032E4
:1002200064002532643A253032640025332E30666E
:1002300000206D200025342E3066002532643A25DA
:1002400030326400202A2000202020002D2D3A2D5D
:100250002D00206D20002D2D2D2D002D2D3A2D2D22
:10026000002D2D2D002D2D3A2D2D002532643A25FF
:10027000303264002D2D3A2D2D0025312E30662090
:1002800057202020002D2D2D20570025312E32669D
:100290002020005323202564202020200061766741
:1002A0002025322E306600617667202D2D005350B8
:1002B0004D2025322E306620200053504D202D2D0C
:1002C00020200025312E3066206D65746572732004
:1002D000202020002532643A25303264002053610A
:1002E0007261682773204572676F20002053617226
:1002F00061682773204572676F20002F2F004865C3
:1003000061700044617461004275726E00496E66EE
:100310006F002F2F004678005061636500442F5412
:100320000050726F6700496E666F0050726F670011
:10033000526F7721004572676F00202573003E25BC
:100340007300257300486561703A2025642F256489
:100350002000486561703A2025642F2564200054F0
:10036000686425643A2025642F256420005468645D
:1003700025643A2025642F256420006E616E006993
:100380006E66006364696E6F70737578585B65663E
:100390006745464700616E006E66696E6974790054
:1003A000CDCCCC3D0AD7233C17B7D13877CC2B32F4
:1003B0009595E6241FB14F0A000020410000C84275
:1003C00000401C4620BCBE4CCA1B0E5AAEC59D74D4
:1003D00000407A10F35A00A0724E18090010A5D4FC
:1003E000E80000E87648170000E40B54020000CA59
:1003F0009A3B000000E1F50500008096980000009F
:1004000040420F000000A0860100000010270000FD
:100410000000E803000000006400000000000A0083
:10042000000000000100000000002C76D888DC6786
:100430004F0823DFC1DFAE59E1B1B796E5E3E453DE
:10044000C63AE651997696E8E6C28426EB898C9BFB
:1004500062ED407C6FFCEFBC9C9F40F2BAA56FA59B
:10046000F490055A2AF75C936B6CF9676DC11BFC1D
:10047000E0E40D47FEF520E6B500D0ED902E030038
:10048000943577050080841E080000204E0A000085
:1004900000C80C333333330F986E12831141EF8D44
:1004A0002114893BE65516CFFEE6DB18D1844B3884
:1004B0001BF77C1D901DA4BBE424203284725E22B5
:1004C0008100C9F124ECA1E53D2711241FBECFEF27
:1004D000D8E0DEBFCDBF11E0A0E0B1E0EEE2F5E68E
:1004E00002C005900D92A03BB107D9F718E0A0EB30
:1004F000B1E001C01D92A33BB107E1F70E94CE0617
:100500000C9495320C940000F894FFCFCF93DF93B6
:100510008091D2029091D302A091D402B091D502E1
:100520000196A11DB11D8093D2029093D302A09396
:10053000D402B093D502C6EDD2E02FEF3FEF8D810C
:100540009E81AF81B8850097A105B10551F18D81DC
:100550009E81AF81B8850197A109B1098D839E83E2
:10056000AF83B8878D819E81AF81B8850097A10543
:10057000B105B9F48A818330E1F0823001F13C8326
:100580002B831A821D821E821F8218868091D002C0
:100590009091D102C817D90720F4D093D102C0930B
:1005A000D0022A9683E0CA33D80749F6DF91CF916B
:1005B0000895EB81FC8180818F5F8083E0CFEB81A8
:1005C000FC8111821082DBCF08957894089580E039
:1005D00008950895FC017483638312821582168244
:1005E000178210868091D0029091D102E817F90706
:1005F00020F4F093D102E093D002CF010895DC0102
:10060000ED91FC9111973097A1F01D921C9274838B
:100610006383128215821682178210868091D0021F
:100620009091D102E817F90720F4F093D102E093FA
:10063000D0020895DC018C918F5F8C938C911816F9
:100640000CF408958091D9029091DA028A179B07E1
:10065000D9F0E6EDF2E03A96838194818A179B0700
:10066000D1F71482138212821582168217821086A5
:100670008091D0029091D102E817F90710F7F0931A
:10068000D102E093D0020895E6EDF2E0EACFDC017A
:100690002C916C9327FF23C04091D0025091D1023E
:1006A000E6EDF2E06EEF7FEF03C027FF14C03A964D
:1006B000838194818A179B07C1F72F5F74836383BB
:1006C00012821582168217821086E417F50768F7E2
:1006D000AF0127FDECCF5093D1024093D002089593
:1006E000FC018185682B61878281843009F008953F
:1006F00083816823E1F314821382128215821682A9
:10070000178210868091D0029091D102E817F907E4
:1007100070F7F093D102E093D0020895A091CE0239
:10072000B091CF0212968C93129715964D935D93CC
:100730006D937C9318978091D8028823C9F0E6EDD9
:10074000F2E03A9682818823E1F7F093D102E093B8
:10075000D002F093CF02E093CE02CF01BD010E9400
:10076000B604E091CE02F091CF0283819481089586
:10077000E6EDF2E0EACF0F931F93CF93DF93082FBC
:10078000C091CE02D091CF029985182F192389F4F8
:100790004F3F8FEF58078FEF68078FEF780799F07B
:1007A0000B8384E00E948E0397FD0DC09985102F66
:1007B0001923812F809589238987812FDF91CF91FC
:1007C0001F910F9108957894812FDF91CF911F9100
:1007D0000F910895F8940E94BB0378940895DC016A
:1007E0008C91181634F481508C9320E030E0C901CC
:1007F00008954F3F9FEF59079FEF69079FEF7907D4
:1008000019F42FEF3FEFF3CF81508C93E091CE029C
:10081000F091CF02B483A38383E00E948E039C01F6
:10082000E6CFF8940E94EF0378940895AB01BC01E1
:10083000F8948091D2029091D302A091D402B09109
:10084000D502481B590B6A0B7B0B81E00E948E037B
:1008500078940895AB01BC01F89481E00E948E0366
:1008600078940895DC018091CE029091CF02119688
:100870009C938E93E091CE02F091CF02B483A38338
:1008800082E00E948E0308956091CE027091CF02A3
:100890008091D0029091D1026817790731F090933E
:1008A000CF028093CE020E94B6040895F8940E946D
:1008B00070030E94440478940895F8940E944703BA
:1008C0000E94440478940895F8940E941A030E94A8
:1008D000440478940895CF93DF9325EE34E0832F7A
:1008E000992787FD9A95482F66ED72E0DB01C1E1FB
:1008F000D1E0EA81FB8175971196FC93EE938E818E
:10090000828BED91FC9111978E819F81892F990F98
:10091000990B818BED91FC9111978885808BED91DE
:10092000FC91119788859985892F990F990B878755
:10093000ED91FC911197438BED91FC911197248BD4
:100940001A962A9683E0AA33B80799F67093D102D3
:100950006093D0027093CF026093CE02CB01BD01B1
:100960000E94B6047894DF91CF9108952F923F9220
:100970004F925F926F927F928F929F92AF92BF92AF
:10098000CF92DF92EF92FF920F931F93CF93DF935B
:10099000FB010DB600820EB60182FC0100800DBE87
:1009A00001800EBEDF91CF911F910F91FF90EF90CC
:1009B000DF90CF90BF90AF909F908F907F906F907F
:1009C0005F904F903F902F9008957894C201F1016D
:1009D000099580E090E00E948402089582E084BD41
:1009E00093E095BD9DE397BD16BC85BB80936E00DB
:1009F00008951F920F920FB60F9211242F933F93D9
:100A00004F935F936F937F938F939F93AF93BF9316
:100A1000EF93FF930E9486020E944404FF91EF919E
:100A2000BF91AF919F918F917F916F915F914F9106
:100A30003F912F910F900FBE0F901F90189510921D
:100A4000B6011092B7011092B8011092B9018091CD
:100A5000D2029091D302A091D402B091D50280939A
:100A6000BA019093BB01A093BC01B093BD0108955E
:100A7000FC01F8948091B4019091B5019583848331
:100A80008091B0019091B101A091B201B091B301F8
:100A900080839183A283B38378940895CF92DF9269
:100AA000EF92FF920F931F936C01F894E090B401C2
:100AB000F090B5016091B0017091B1018091B201E7
:100AC0009091B3017894F601208131814281538164
:100AD000621B730B840B950B28EE33E040E050E073
:100AE0000E94BD2E9B01AC01F60184819581A0E09E
:100AF000B0E0281B390B4A0B5B0B00E010E02E0D19
:100B00003F1D401F511FB901CA011F910F91FF9056
:100B1000EF90DF90CF900895FC01F8948091B4019C
:100B20009091B5012091B0013091B1014091B20195
:100B30005091B301789480819181A281B381281B67
:100B4000390B4A0B5B0BB901CA010895F894209147
:100B5000B0013091B1014091B2015091B30178944C
:100B6000B901CA010895F8941092B0011092B10130
:100B70001092B2011092B301789408951092B601C8
:100B80001092B7011092B8011092B9018091D2026F
:100B90009091D302A091D402B091D5028093BA0172
:100BA0009093BB01A093BC01B093BD01F894209138
:100BB000D2023091D3024091D4025091D50280915B
:100BC000BA019091BB01A091BC01B091BD01790126
:100BD0008A01E81AF90A0A0B1B0BE092BE01F09297
:100BE000BF010093C0011093C1012093BA0130935B
:100BF000BB014093BC015093BD0178946091BE014C
:100C00007091BF018091C0019091C1010091B40128
:100C10001091B50128EE33E040E050E00E94BD2E77
:100C200020EA3FE040E050E00E94FC2E020F131F3C
:100C30001093B5010093B4018091B4019091B50176
:100C4000875E934008F442C08091B0019091B10159
:100C5000A091B201B091B3010196A11DB11D809385
:100C6000B0019093B101A093B201B093B301809110
:100C7000B6019091B701A091B801B091B901019668
:100C8000A11DB11D8093B6019093B701A093B80147
:100C9000B093B9011092B5011092B4016091B00106
:100CA0007091B1018091B2019091B3010E943F2CEB
:100CB00020E030E040E752E40E94AB2B60930B044D
:100CC00070930C0480930D0490930E0460E570E023
:100CD00080E090E00E942A0469CF6F927F928F9209
:100CE0009F92AF92BF92CF92DF92EF92FF920F93BB
:100CF0001F936B017C015A014901380120E030E06B
:100D000040E752E40E94AB2B0E94132CF501608354
:100D100070E0882777FD8095982F0E94412C20E075
:100D200030E040E752EC0E94F52CA70196010E94AA
:100D3000432B5B016C010E94132CE62EF4016083AF
:100D4000C601B50120E030E040E752E40E94F52CF6
:100D50005B016C01FF2400E010E0C801B7010E94B4
:100D60003F2C20E030E040E752EC0E94F52C9B0144
:100D7000AC01C601B5010E94432B0E94132CF30164
:100D800060831F910F91FF90EF90DF90CF90BF9005
:100D9000AF909F908F907F906F9008950E944F2208
:100DA00081E0809367050E94EE040E946B04FFCFF0
:100DB000DF93CF93CDB7DEB7AE970FB6F894DEBF13
:100DC0000FBECDBF8091CE029091CF029093CD0106
:100DD0008093CC012E010894411C511C3201CE019C
:100DE0008B96D3011D923D01A817B907D1F78AE26E
:100DF0008093CE011092CF011092D001FE01B796E0
:100E0000FEA7EDA76FE7262E61E0362EC1012BA6C7
:100E10009CA784E04FEF5FEF6FEF7FEF0E94EA0344
:100E2000843009F482C21091CF01113009F46EC2EE
:100E300081E04FEF5FEF6FEF7FEF0E94EA03182F23
:100E4000813009F453C29090D1018090D00121E00B
:100E5000821681F08091CF01813009F46FC091E05A
:100E6000891609F49AC068EC70E080E090E00E9476
:100E70002A04CFCF39E2391568F3E090AC02F09044
:100E8000AD020091AE021091AF026091B402709178
:100E9000B5028091B6029091B7022AE037ED43E2A5
:100EA0005EE30E94F52C5B016C01C801B701A8014B
:100EB00097010E94F52C2091D2013091D3014091ED
:100EC000D4015091D5010E94F52C9B01AC01C601C3
:100ED000B5010E94432B20E030E040EC5EE30E942D
:100EE000AB2B6B017C0120E030E040E050E00E9441
:100EF000F12C18165CF4C701B6012AE939E94DE373
:100F000052E40E94A72B88230CF453C0C701B601FA
:100F100020E030E040E050E00E94A72B18160CF0D3
:100F20000BC2F201E90DF11DBFE2B08393949092E0
:100F3000D1018091CF01813009F091CF8091D10111
:100F40008A3209F08CCFF20190E08081981708F482
:100F5000982F31966E167F06C1F7EAE2E093CE0134
:100F6000F9E19F9FC00111246AE070E00E94E82E21
:100F70005B0180E090E00E943F2C6B017C0120E04F
:100F800030E040E450E40E94A72B1816E4F01092E1
:100F9000D10191E0891609F066CF8091D1018A32A2
:100FA00008F061CF68E470E080E090E00E942A04DD
:100FB00030CF8201090D111DC701B6010E94132C0B
:100FC000D8016C93B3CF00E010E0C701B60120E078
:100FD00030E040E450E40E94F12C181614F401E0D3
:100FE00010E001701070012B09F439CFF2018381F8
:100FF000218130E0280F311D3595279535952795AE
:101000004481808190E0840F911D959587959595F9
:1010100087959595879595958795280F828133E0DB
:10102000839FC001112495958795959587959595F2
:101030008795280F21938DA59EA5E817F907B9F686
:1010400096E29093CE010E944B201092CE0180E058
:10105000F201E80FF11D60810E9474208091CE01A1
:101060008F5F8093CE018A3298F387E061E00E941F
:10107000E11F81E08093CA0200D000D000D0EDB71C
:10108000FEB73196ADB7BEB712963C922E9211972D
:1010900021E231E033832283B582A4820E94A5310C
:1010A0001092CA028DB79EB706960FB6F8949EBFEF
:1010B0000FBE8DBF88E062E00E94E11F00D000D02B
:1010C00000D0EDB7FEB73196ADB7BEB712963C92E1
:1010D0002E9211972AE131E0338322838091D60149
:1010E0009091D701958384830E94A5318DB79EB7D7
:1010F00006960FB6F8949EBF0FBE8DBF88E063E0E2
:101100000E94E11F8091D6019091D701059708F0C8
:101110005BC000D000D0EBA5ADB7BEB71196EC9385
:101120001197FCA51296FC93129723E131E01496D7
:101130003C932E9313970E94A5310F900F900F9020
:101140000F9089E064E00E94E11F8091D6019091A8
:10115000D701059708F09DC000D000D0ADB7BEB74D
:1011600012963C922E921197E2E0F1E01496FC93D5
:10117000EE9313970E94A5310F900F900F900F9050
:1011800089E065E00E94E11F8091D6019091D7012E
:101190000A9708F055C000D000D0ADB7BEB7129680
:1011A0003C922E921197E3EFF0E01496FC93EE93AD
:1011B00013970E94A5310F900F900F900F901092EF
:1011C000D1018090D0014BCE8DB79EB708970FB656
:1011D000F8949EBF0FBE8DBF0DB71EB70F5F1F4F98
:1011E000EBA5ADB7BEB71196EC931197FCA512967F
:1011F000FC93E8E0F1E0D8011396FC93EE9312978C
:1012000060E070E080E792E42091A0023091A102BA
:101210004091A2025091A3020E94AB2BD8011496D8
:101220006D937D938D939C9317970E94A531EDB795
:10123000FEB738960FB6F894FEBF0FBEEDBF81CF54
:101240002DB73EB7285030400FB6F8943EBF0FBEC2
:101250002DBFEDB7FEB73196ADB7BEB712963C9233
:101260002E9211972AEE30E0338322838091D801A9
:10127000848315828091D901868317820E94A531CB
:101280008DB79EB708960FB6F8949EBF0FBE8DBF60
:1012900096CF2DB73EB7285030400FB6F8943EBFDA
:1012A0000FBE2DBFEDB7FEB73196ADB7BEB71296E4
:1012B0003C922E92119729EF30E033832283809164
:1012C000A4029091A502A091A602B091A7028483E6
:1012D0009583A683B7830E94A5318DB79EB70896E4
:1012E0000FB6F8949EBF0FBE8DBF4ACF87E695E03C
:1012F00040E050E060E070E00E9411041093CF01E4
:10130000F7E0F093C2010E944B209DCD82E04FEFA9
:101310005FEF6FEF7FEF0E94EA03823009F088CD24
:101320001093D0011092D10183CD1092CF0187E6A6
:1013300095E00E94640477CDF201E90DF11D108261
:10134000F5CD8091CE029091CF029093C50180930C
:10135000C401CFE7D1E0E3E94E2EE2E05E2E7BE868
:10136000272E72E0372ECE017C2E692E81E040E0E0
:1013700050E060E070E00E94EA0387E695E040E01C
:1013800050E060E070E00E94110423E02093C2016D
:101390000E944B2081E061E00E94E11F81E0809388
:1013A000CA0200D000D0ADB7BEB71296DC93CE9380
:1013B0001197EDEDF2E01496FC93EE9313970E94D3
:1013C000A5311092CA020F900F900F900F90DAC0C3
:1013D00000D000D0ADB7BEB711967C92119712968F
:1013E0006C921297EAEBF2E01496FC93EE9313974B
:1013F0000E94A5310F900F900F900F9089E062E04E
:101400000E94E11F6091D6017091D7016230710591
:1014100078F010912402112309F06BC1809125020C
:10142000882309F066C1809126028E3108F061C1DF
:1014300000D000D0ADB7BEB71296DC93CE93119713
:10144000E7EAF2E01496FC93EE9313970E94A5311D
:101450000F900F900F900F9081E063E00E94E11FCA
:1014600000D000D000D0EDB7FEB73196ADB7BEB713
:101470001296DC93CE931197538242828091D601CB
:101480009091D701958384830E94A531EDB7FEB773
:1014900036960FB6F894FEBF0FBEEDBF8BE063E04B
:1014A0000E94E11F2DB73EB7285030400FB6F89488
:1014B0003EBF0FBE2DBFEDB7FEB73196ADB7BEB77D
:1014C0001296DC93CE9311973382228280911F0271
:1014D00090912002A0912102B091220284839583F1
:1014E000A683B7830E94A531EDB7FEB738960FB635
:1014F000F894FEBF0FBEEDBF84E064E00E94E11FE0
:101500008091D6019091D701059708F082C100D053
:1015100000D0ADB7BEB711967C92119712966C921F
:101520001297E5E8F2E01496FC93EE9313970E946D
:10153000A5310F900F900F900F908AE066E00E9407
:10154000E11F8091D6019091D7010A9708F038C128
:1015500000D000D0ADB7BEB71296DC93CE931197F2
:10156000E4E7F2E01496FC93EE9313970E94A53102
:101570000F900F900F900F9068E775E080E090E07B
:101580000E942A0482E04FEF5FEF6FEF7FEF0E942F
:10159000EA03823009F46BC183E066E00E94E11F38
:1015A00060910B0470910C0480910D0490910E04D5
:1015B00044E252E025E232E006E212E00E946D06CB
:1015C0002DB73EB7285030400FB6F8943EBF0FBE3F
:1015D0002DBFEDB7FEB73196ADB7BEB71296DC930F
:1015E000CE93119724ED32E033832283809125023C
:1015F0008483158280912602868317820E94A531FA
:101600008DB79EB708960FB6F8949EBF0FBE8DBFDC
:1016100083E065E00E94E11F40910A0250910B02B5
:1016200060910C0270910D02ADB7BEB718970FB65E
:10163000F894BEBF0FBEADBFEDB7FEB731961296A0
:10164000DC93CE93119723EC32E0338322834483DF
:101650005583668377830E94A5318DB79EB7089620
:101660000FB6F8949EBF0FBE8DBF81E062E00E946E
:10167000E11F8091D6019091D701059708F4A8CE7B
:101680002DB73EB7285030400FB6F8943EBF0FBE7E
:101690002DBF0DB71EB70F5F1F4FADB7BEB7119669
:1016A0007C92119712966C922EEA32E0F801338305
:1016B000228360E070E080E792E42091A002309104
:1016C000A1024091A2025091A3020E94AB2BD8012B
:1016D00014966D937D938D939C9317970E94A531DB
:1016E000EDB7FEB738960FB6F894FEBF0FBEEDBF4C
:1016F00085CE2DB73EB7285030400FB6F8943EBF88
:101700000FBE2DBF8DB69EB60894811C911CADB73F
:10171000BEB71296DC93CE9311972DE932E0F40117
:101720003383228380E090E00E943F2C5B016C01B8
:10173000612F70E080E090E00E943F2C20E030E0DC
:1017400040E752E40E94F52C7B018C016091250258
:1017500070E080E090E00E943F2C9B01AC01C8014A
:10176000B7010E94432B7B018C016091260270E03F
:1017700080E090E00E943F2C20E030E040E752E41F
:101780000E94AB2B9B01AC01C801B7010E94432B07
:101790009B01AC01C601B5010E94AB2BD40114968C
:1017A0006D937D938D939C9317970E94A531EDB710
:1017B000FEB738960FB6F894FEBF0FBEEDBF4CCE05
:1017C0002DB73EB7285030400FB6F8943EBF0FBE3D
:1017D0002DBFEDB7FEB73196ADB7BEB71296DC930D
:1017E000CE9311972BE632E0338322838091D80188
:1017F000848315828091D901868317820E94A53146
:101800008DB79EB708960FB6F8949EBF0FBE8DBFDA
:10181000B3CE2DB73EB7285030400FB6F8943EBF38
:101820000FBE2DBFEDB7FEB73196ADB7BEB711965F
:101830007C92119712966C922AE732E033832283CE
:101840008091A4029091A502A091A602B091A70256
:1018500084839583A683B7830E94A5318DB79EB7F5
:1018600008960FB6F8949EBF0FBE8DBF66CE87E672
:1018700095E00E9464047ACD83E390E00E94B22157
:10188000E090D202F090D3020091D4021091D502E0
:1018900000D000D08DE891E0ADB7BEB712969C9312
:1018A0008E93119789E291E014969C938E931397EF
:1018B0000E94A5310F900F900F900F900E9403226D
:1018C0000E94112280EA9FE0A0E0B0E0E80EF91E3D
:1018D0000A1F1B1FC801B7010E941604EFCF4F92C9
:1018E0005F926F927F928F929F92AF92BF92CF92B0
:1018F000DF92EF92FF920F931F93CF93DF932C0110
:101900000F2EF0E06F2EF0E07F2EF0E08F2EF0E053
:101910009F2EF02D64015301C3E0D0E0BE01882763
:1019200077FD8095982F0E94412C9B01AC0160E0CF
:1019300070E080E090E40E94582D7B018C01C4018E
:10194000B301A80197010E94432B3B014C01C80140
:10195000B701F20121913191419151912F010E94E2
:10196000F52C9B01AC01C601B5010E94432B5B0124
:101970006C012197FFEFCF3FDF0781F6A4019301B0
:101980000E94AB2BDF91CF911F910F91FF90EF90B1
:10199000DF90CF90BF90AF909F908F907F906F908F
:1019A0005F904F9008958091CE029091CF029093D6
:1019B000C9018093C801CFE7D1E0A9E74A2EA1E091
:1019C0005A2EFEE62F2EF1E03F2ECE01FC2EE92E00
:1019D0000F2EFFE5AF2EF9E2BF2EFBE4CF2EFBE387
:1019E000DF2EF02D0F2EFAE06F2EF7ED7F2EF3E2B3
:1019F0008F2EFEE39F2EF02D81E040E050E060E06E
:101A000070E00E94EA0387E695E040E050E060E085
:101A100070E00E94110485E08093C2010E944B2077
:101A200001E01AC084E04FEF5FEF6FEF7FEF0E949D
:101A3000EA038430E9F0809104018230F9F08330C8
:101A400009F474C1813009F4BFC068EE73E080E02E
:101A500090E00E942A0400E082E04FEF5FEF6FEF1A
:101A60007FEF0E94EA03823009F4E2C20130D1F62E
:101A70000E944B2080910401823009F781E061E0EF
:101A80000E94E11F00D000D0EDB7FEB7D283C18322
:101A900086E991E0948383830E94A5310F900F9093
:101AA0000F900F9081E062E00E94E11FADB7BEB7DA
:101AB00018970FB6F894BEBF0FBEADBFEDB7FEB717
:101AC00031961296DC93CE93119780E991E093833F
:101AD0008283A482B582C682D7820E94A531ADB727
:101AE000BEB718960FB6F894BEBF0FBEADBF81E06B
:101AF00063E00E94E11F00D000D0EDB7FEB7D283B3
:101B0000C18388E891E0948383830E94A5310F907C
:101B10000F900F900F9081E064E00E94E11F809190
:101B2000D6019091D701059708F054C200D000D09B
:101B3000ADB7BEB71196FC9211971296EC92129720
:101B4000E1E8F1E01496FC93EE9313970E94A5311F
:101B50000F900F900F900F9081E065E00E94E11FC1
:101B600000D000D0EDB7FEB7D283C1835482438248
:101B70000E94A5310F900F900F900F9081E066E0CA
:101B80000E94E11F8DB79EB708970FB6F8949EBFCD
:101B90000FBE8DBFEDB7FEB73196ADB7BEB712968B
:101BA000DC93CE931197338222826482758286827F
:101BB00097820E94A531EDB7FEB738960FB6F8941C
:101BC000FEBF0FBEEDBF41CF81E061E00E94E11F8B
:101BD00000D000D0ADB7BEB71296DC93CE9311976C
:101BE000E4EDF1E01496FC93EE9313970E94A53177
:101BF0000F900F900F900F9081E062E00E94E11F24
:101C00008DB79EB708970FB6F8949EBF0FBE8DBFD5
:101C1000EDB7FEB73196ADB7BEB71296DC93CE9353
:101C200011978CEC91E0938382838091DA019091FB
:101C3000DB01A091DC01B091DD0184839583A68353
:101C4000B7830E94A531ADB7BEB718960FB6F8940A
:101C5000BEBF0FBEADBF81E063E00E94E11F00D0B8
:101C600000D0EDB7FEB7D283C18386EC91E09483B8
:101C700083830E94A5310F900F900F900F9081E009
:101C800064E00E94E11F8091D6019091D7010597F1
:101C900008F073C100D000D0ADB7BEB71196FC926A
:101CA00011971296EC921297EFEBF1E01496FC93D9
:101CB000EE9313970E94A5310F900F900F900F9005
:101CC00081E065E00E94E11F00D000D0EDB7FEB7D3
:101CD000D283C1838DEA91E0948383830E94A531EE
:101CE0000F900F900F900F9081E066E00E94E11F2F
:101CF0008091D6019091D701059708F09EC000D041
:101D000000D0ADB7BEB71196FC9211971296EC9227
:101D10001297E6EAF1E01496FC93EE9313970E9473
:101D2000A5310F900F900F900F908FCE81E061E062
:101D30000E94E11F00D000D0ADB7BEB71296DC9371
:101D4000CE931197EAE6F1E01496FC93EE93139785
:101D50000E94A5310F900F900F900F9081E062E0EC
:101D60000E94E11F8091D6019091D701059708F05C
:101D7000D7C000D000D0ADB7BEB71196FC92119776
:101D80001296EC921297E4E6F1E01496FC93EE932F
:101D900013970E94A5310F900F900F900F9081E044
:101DA00063E00E94E11F00D000D0EDB7FEB7D28300
:101DB000C18381E591E0948383830E94A5310F90D4
:101DC0000F900F900F9081E064E00E94E11F8091DE
:101DD000D6019091D701059708F05CC000D000D0E3
:101DE000ADB7BEB71196FC9211971296EC9212976E
:101DF000EBE4F1E01496FC93EE9313970E94A53167
:101E00000F900F900F900F9081E065E00E94E11F0E
:101E100000D000D0ADB7BEB71296DC93CE93119729
:101E2000E1E3F1E01496FC93EE9313970E94A53141
:101E30000F900F900F900F9008CE8DB79EB7089718
:101E40000FB6F8949EBF0FBE8DBFEDB7FEB73196AB
:101E5000ADB7BEB71196FC9211971296EC928AE933
:101E600091E0938382838091A0029091A102A0913E
:101E7000A202B091A30284839583A683B7830E94B4
:101E8000A531ADB7BEB718960FB6F894BEBF0FBE5A
:101E9000ADBFDBCD60910602709107028091080210
:101EA0009091090220E030E040E450E40E94582D77
:101EB0009B01AC018DB79EB708970FB6F8949EBFF3
:101EC0000FBE8DBF0DB71EB70F5F1F4FADB7BEB7AB
:101ED0001196FC9211971296EC9280E491E0F80131
:101EE00093838283CA01B9012091D2013091D30139
:101EF0004091D4015091D5010E94F52CD80114963F
:101F00006D937D938D939C9317970E94A531EDB7A8
:101F1000FEB738960FB6F894FEBF0FBEEDBF74CF74
:101F20008DB79EB708970FB6F8949EBF0FBE8DBFB2
:101F3000EDB7FEB73196ADB7BEB71196FC921197CB
:101F40001296EC9289E591E0938382838091A402BA
:101F50009091A502A091A602B091A70284839583D7
:101F6000A683B7830E94A531ADB7BEB718960FB64A
:101F7000F894BEBF0FBEADBF12CF8DB79EB7089706
:101F80000FB6F8949EBF0FBE8DBFEDB7FEB731966A
:101F9000ADB7BEB71196FC9211971296EC9283EBF7
:101FA00091E0938382838091120290911302A09119
:101FB0001402B091150284839583A683B7830E948F
:101FC000A531ADB7BEB718960FB6F894BEBF0FBE19
:101FD000ADBF76CE8DB79EB708970FB6F8949EBF6B
:101FE0000FBE8DBFEDB7FEB73196ADB7BEB7119638
:101FF000FC9211971296EC928BE791E09383828387
:102000008091A8029091A902A091AA02B091AB027E
:10201000B05884839583A683B7830E94A531ADB75A
:10202000BEB718960FB6F894BEBF0FBEADBF94CD25
:1020300087E695E00E946404DFCCDF93CF93CDB7B1
:10204000DEB7C455D0400FB6F894DEBF0FBECDBF8B
:1020500052985A9A1092800083E080938100809376
:10206000690011E01DBB10928500109284008FEF73
:1020700095E0A2E0BAE38093D2019093D301A093BC
:10208000D401B093D5018CE09CEAA4EBBEE380932D
:10209000DA019093DB01A093DC01B093DD0160EEE7
:1020A0007EE280E090E00E942A0410929D0210924D
:1020B0009C0210929F0210929E0280E090E0A0E0AD
:1020C000B0E08093AC029093AD02A093AE02B093C7
:1020D000AF028093B0029093B102A093B202B0938A
:1020E000B3028093B4029093B502A093B602B0936A
:1020F000B7028093B8029093B902A093BA02B0934A
:10210000BB021093BC021092BD028093DE0190933B
:10211000DF01A093E001B093E101E0E060E09C0109
:10212000AD01F0E0EE0FFF1FEE0FFF1F81E090E02A
:102130008C0F9D1FE80FF91F208B318B428B538B27
:10214000862F90E0880F991F880F991FE1E4F0E037
:10215000EC0FFD1FE80FF91F208331834283538367
:10216000E1E0F0E0EC0FFD1FE80FF91F20A331A321
:1021700042A353A320AB31AB42AB53AB208331839B
:1021800042835383E62FEF5F6E2FE093CE01E4305E
:1021900040F21092E2011092E3012093E4013093A7
:1021A000E5014093E6015093E7012093E801309365
:1021B000E9014093EA015093EB012093EC01309345
:1021C000ED014093EE015093EF012093F001309325
:1021D000F1014093F2015093F3018EEB92E00E94E3
:1021E000380584EC92E00E9438051092D7011092D5
:1021F000D601F89484EF91E040E050E060E070E0B8
:102200000E943204789460919C0270919D0280E05B
:1022100090E00E943F2C2DEB37E346E856E30E9406
:10222000F52C1B012C016093F6017093F70180934C
:10223000F8019093F9018091AC029091AD02A091C8
:10224000AE02B091AF0265968CAF9DAFAEAFBFAF9F
:1022500065978093B0029093B102A093B202B093BD
:10226000B30260919C0270919D02E0909E02F090FA
:102270009F0280E090E00E943F2C5B016C0100E037
:1022800010E0C801B7010E943F2C9B01AC01C601C0
:10229000B5010E94432B2DEB37E346E056E30E9445
:1022A000F52C9B01AC016AED7FE089EC90E40E9483
:1022B000AB2B7B018C016093AC027093AD028093D9
:1022C000AE029093AF026090B4027090B50280901D
:1022D000B6029090B7026092B8027092B9028092F2
:1022E000BA029092BB02C201B10127E137EB41ED86
:1022F00058E30E94432B5B016C01C801B70165964E
:102300002CAD3DAD4EAD5FAD65970E94422BA60151
:1023100095010E94AB2B1B012C016093B4027093BA
:10232000B5028093B6029093B702A40193010E9474
:10233000422BA60195010E94AB2B7B018C0160937F
:10234000FA017093FB018093FC019093FD0120E062
:1023500030E040E252EC0E94F12C18160CF098C0CC
:10236000C801B70120E030E040E252E40E94A72B10
:1023700088230CF08DC01092E301C201B10120E06E
:1023800030E040E751E40E94F12C18160CF084C0B4
:10239000A1E0A093E2019091E301913009F483C0A0
:1023A0008091E201813009F496C18091BC02809352
:1023B000BD021092BC028091BD02813009F495C12A
:1023C0008091BC02813009F412C1882309F011CF39
:1023D0008091BD02882309F00CCFA090AC02B09090
:1023E000AD02C090AE02D090AF02C601B50127E1A8
:1023F00037EB41ED58E30E94432B9B01AC01E09089
:10240000F601F090F7010091F8011091F9010E9496
:10241000F52C9B01AC016091B4027091B5028091E2
:10242000B6029091B7020E94AB2BA80197010E94BF
:10243000F52C9B01AC016091FE017091FF01809130
:102440000002909101020E94432B6093FE01709361
:10245000FF018093000290930102C601B501A8011B
:1024600097010E94F52C9B01AC01609102027091D2
:10247000030280910402909105020E94432B609315
:102480000202709303028093040290930502B1CE7E
:1024900091E09093E30171CF1092E2019091E301FA
:1024A000913009F07DCF8091BC028093BD02909362
:1024B000BC02882309F084CF8091CC019091CD019A
:1024C00062E00E94700384EC92E00E94380580E094
:1024D00090E0A0E0B0E08093E8019093E901A09340
:1024E000EA01B093EB018093E4019093E501A0939E
:1024F000E601B093E70189AD9AADABADBCAD2196D5
:102500008CAF9DAFAEAFBFAF21978DA99EA9AFA9EC
:10251000B8AD89AF9AAFABAFBCAF89A99AA9ABA947
:10252000BCA98DAB9EABAFABB8AF6091EC01709125
:10253000ED018091EE019091EF012091F001309139
:10254000F1014091F2015091F3010E94422B2DEBD9
:1025500037E346E855E30E94432B9B01AC016091B1
:10256000FE017091FF0180910002909101020E9492
:10257000AB2B69AB7AAB8BAB9CABCE01C1960E9407
:102580006F0C6093A8027093A9028093AA029093A3
:10259000AB026091AC027091AD028091AE0290915D
:1025A000AF022091F6013091F7014091F80150916E
:1025B000F9010E94F52C9B01AC016091020270911F
:1025C000030280910402909105020E94432B6093C4
:1025D000020270930302809304029093050280919B
:1025E000BC02882309F4E7CE813009F0EECE809159
:1025F000BD02813009F0FDCDE090AC02F090AD025B
:102600000091AE021091AF02A090F601B090F701D8
:10261000C090F801D090F901C801B7012AE037ED68
:1026200043E25EE30E94F52C2091B4023091B502A2
:102630004091B6025091B7020E94F52CA601950177
:102640000E94F52C9B01AC016091E8017091E901B9
:102650008091EA019091EB010E94432B6093E80185
:102660007093E9018093EA019093EB01C801B701EF
:10267000A80197010E94F52C9B01AC01C801B7018C
:102680000E94F52C2091D2013091D3014091D401C8
:102690005091D5010E94F52C9B01AC01C601B501FA
:1026A0000E94F52C9B01AC016091E4017091E50161
:1026B0008091E6019091E7010E94432B6093E40131
:1026C0007093E5018093E6019093E701C801B7019B
:1026D000A6019501C6CE8091BC02813009F067CE7B
:1026E0008093BD028093BC026BCE8091D601909105
:1026F000D70101969093D7018093D60180E090E0B6
:10270000A0E0B0E08093FE019093FF01A09300024F
:10271000B093010284EC92E00E944E050E943F2C8F
:1027200020E030E04AE754E40E94AB2B6093F001D4
:102730007093F1018093F2019093F3018EEB92E09C
:102740000E944E050E943F2C20E030E04AE754E40E
:102750000E94AB2B6093EC017093ED018093EE012E
:102760009093EF018EEB92E00E9438056091EC01AE
:102770007091ED018091EE019091EF0127E137EB2F
:1027800041ED58E30E94432B7B018C0160910202D2
:10279000709103028091040290910502A8019701B3
:1027A0000E94AB2B6093060270930702809308028D
:1027B0009093090280E090E0A0E0B0E080930202F4
:1027C00090930302A0930402B093050260910A0261
:1027D00070910B0280910C0290910D0220910E02DB
:1027E00030910F0240911002509111020E94422B31
:1027F0006093120270931302809314029093150257
:1028000020910A0230910B0240910C0250910D026E
:1028100020930E0230930F02409310025093110246
:102820002D962CAD3DAD4EAD5FAD2D9761962CAF85
:102830003DAF4EAF5FAF619729962CAD3DAD4EAD2C
:102840005FAD29972D962CAF3DAF4EAF5FAF2D9763
:1028500025962CAD3DAD4EAD5FAD259729962CAF9D
:102860003DAF4EAF5FAF2997A80197010E94AB2BF8
:1028700025966CAF7DAF8EAF9FAF2597CE018F5B56
:102880009F4F0E946F0C6093160270931702809303
:1028900018029093190227E137EB41ED58E30E94AB
:1028A000432B9B01AC0160E070E08AEF93E40E944F
:1028B000AB2B60931A0270931B0280931C029093BF
:1028C0001D0220E030E040E752E40E94AB2B4EE1D5
:1028D00052E028ED31E009ED11E00E946D0689A576
:1028E0009AA5ABA5BCA58DA79EA7AFA7B8AB8DA198
:1028F0009EA1AFA1B8A589A79AA7ABA7BCA789A19C
:102900009AA1ABA1BCA18DA39EA3AFA3B8A76091D0
:10291000EC017091ED018091EE019091EF0127E1C2
:1029200037EB41ED58E30E94432B9B01AC016091D2
:10293000F0017091F1018091F2019091F3010E94F8
:10294000AB2B69A37AA38BA39CA3CE0181960E9493
:102950006F0C60931F02709320028093210290936A
:102960002202898D9A8DAB8DBC8D8D8F9E8FAF8FFE
:10297000B8A38D899E89AF89B88D898F9A8FAB8FC7
:10298000BC8F89899A89AB89BC898D8B9E8BAF8BD3
:10299000B88F6091E8017091E9018091EA0190910E
:1029A000EB012091E4013091E5014091E601509165
:1029B000E7010E94432B7B018C016091EC01709137
:1029C000ED018091EE019091EF0127E137EB41EDB0
:1029D00058E30E94432B9B01AC01C801B7010E9440
:1029E000AB2B698B7A8B8B8B9C8BCE0141960E9493
:1029F0006F0C7B018C016093A4027093A5028093FD
:102A0000A6029093A70220E030E040E251E40E9449
:102A1000F12C181694F5C801B70120E030E040E829
:102A200050E40E94F52C20E030E04FEA53E40E948D
:102A3000432B2091EC013091ED014091EE0150913A
:102A4000EF010E94F52C26E636ED42E855E40E949F
:102A5000AB2B9B01AC016091DE017091DF01809195
:102A6000E0019091E1010E94432B6093DE0170939D
:102A7000DF018093E0019093E10189859A85AB8520
:102A8000BC858D879E87AF87B88B8D819E81AF81F6
:102A9000B88589879A87AB87BC8789819A81AB8102
:102AA000BC818D839E83AF83B8878091EC01909128
:102AB000ED01A091EE01B091EF0189839A83AB8380
:102AC000BC83CE0101960E946F0C6093A0027093AC
:102AD000A1028093A2029093A30272CC8091CE02B5
:102AE0009091CF029093CB018093CA0116E01CC055
:102AF00082E04FEF5FEF6FEF7FEF0E94EA038230DB
:102B000099F184E04FEF5FEF6FEF7FEF0E94EA03F0
:102B1000843039F1809123028130F1F068EE73E066
:102B200080E090E00E942A0481E04FEF5FEF6FEFBA
:102B30007FEF0E94EA038130D9F68093230287E673
:102B400095E040E050E060E070E00E9411041093D6
:102B5000C2010E944B20CCCF809105010E94992296
:102B6000DDCF0E944B20D6CF1092230287E695E05E
:102B70000E946404C6CFDF93CF93CDB7DEB7A5978D
:102B80000FB6F894DEBF0FBECDBF19821A821B822A
:102B90008091CE029091CF029093C7018093C6019D
:102BA00080E090E0A0E0B0E08A8F9B8FAC8FBD8F7B
:102BB0008E8B9F8BA88FB98F3C014D011AA21BA24F
:102BC0001CA21DA28A8B9B8BAC8BBD8B8E879F8793
:102BD000A88BB98B1C861B861A860FE7402E01E056
:102BE000502E72012224239481E040E050E060E006
:102BF00070E00E94EA0387E695E040E050E060E084
:102C000070E00E94110494E09093C2010E944B2056
:102C10003324A1E0AD8710C0133009F483C2113012
:102C200009F4B0C06401530168EE73E080E090E005
:102C30000E942A043501460182E04FEF5FEF6FEFFB
:102C40007FEF0E94EA03823009F404C4109103016B
:102C5000123011F783E062E00E94E11F2092CB0264
:102C60008091D6019091D701059708F0FDC200D060
:102C700000D0EDB7FEB75282418225E132E03483C5
:102C800023830E94A5310F900F900F900F90109208
:102C9000CB020E94F21F00D000D0ADB7BEB7129693
:102CA0005C924E921197E8E0F2E01496FC93EE935A
:102CB00013970E94A5310F900F900F900F9083E013
:102CC00064E00E94E11F2092CB028091D601909196
:102CD000D701059708F09AC200D000D0ADB7BEB7B3
:102CE0001196EC9211971296FC921297E4E0F2E0A2
:102CF0001496FC93EE9313970E94A5310F900F90BA
:102D00000F900F901092CB020E94F21F00D000D0C3
:102D1000ADB7BEB712965C924E921197E7EFF1E015
:102D20001496FC93EE9313970E94A5310F900F9089
:102D30000F900F9081E066E00E94E11F2092CB028D
:102D40008091D6019091D7010A9708F035C200D042
:102D500000D0ADB7BEB71196EC9211971296FC92C7
:102D60001297E1EFF1E01496FC93EE9313970E9413
:102D7000A5310F900F900F900F901092CB0264012D
:102D8000530152CF332009F4CEC284E04FEF5FEFFE
:102D90006FEF7FEF0E94EA03843009F4A0C288E05D
:102DA0004FEF5FEF6FEF7FEF0E94EA03883009F487
:102DB00092C2F1E03F1609F035CF81E066E00E9453
:102DC000E11F2D85222309F093C300D000D0ADB7B9
:102DD000BEB712965C924E921197E8E4F2E0149618
:102DE000FC93EE9313970E94A5310F900F900F90D4
:102DF0000F9081E061E00E94E11FCE0104960E94E5
:102E00008C050E943F2C2A893B894C895D890E9450
:102E1000432B6A8F7B8F8C8F9D8F20E030E040E7C3
:102E200052E40E94AB2B44E252E025E232E006E29B
:102E300012E00E946D062DB73EB7285030400FB605
:102E4000F8943EBF0FBE2DBFEDB7FEB73196ADB7BC
:102E5000BEB712965C924E9211972BE332E0338309
:102E600022838091250284831582809126028683A5
:102E700017820E94A531A0900A02B0900B02C09068
:102E80000C02D0900D02C601B501A40193010E946D
:102E9000422B9B01AC016E897F89888D998D0E94A0
:102EA000432B6E8B7F8B888F998F8DB79EB708963B
:102EB0000FB6F8949EBF0FBE8DBF81E065E00E9403
:102EC000E11F3092CB02ADB7BEB718970FB6F8949A
:102ED000BEBF0FBEADBFEDB7FEB7319612965C9286
:102EE0004E92119725E332E0338322838E899F89A6
:102EF000A88DB98D84839583A683B7830E94A5315D
:102F00001092CB02ADB7BEB718960FB6F894BEBFFD
:102F10000FBEADBF0E94F21F00D000D0EDB7FEB7CC
:102F20005282418221E332E0348323830E94A5311F
:102F30008091D6019091D701AA85BB858A1B9B0BF6
:102F40000F900F900F900F90079708F46DCE8BE0C5
:102F500061E00E94E11FADB7BEB718970FB6F894B5
:102F6000BEBF0FBEADBF0DB71EB70F5F1F4F11968F
:102F7000EC9211971296FC922BE232E0F801338327
:102F8000228360E070E080E792E42091A00230911B
:102F9000A1024091A2025091A3020E94AB2BD80142
:102FA00014966D937D938D939C9317970E94A531F2
:102FB000EDB7FEB738960FB6F894FEBF0FBEEDBF63
:102FC00083E063E00E94E11F3092CB022DB73EB751
:102FD000285030400FB6F8943EBF0FBE2DBFEDB75E
:102FE000FEB73196ADB7BEB712965C924E9211976E
:102FF00022E232E0338322838091D80184831582D8
:103000008091D901868317820E94A5311092CB024C
:103010003C853F5F3C876A8D7B8D8C8D9D8D20E04C
:1030200030E04AEF53E40E94F52C6E8F7F8F88A327
:1030300099A36E897F89888D998D27E137EB41EDC2
:1030400058E30E94432B9B01AC016E8D7F8D88A1BC
:1030500099A10E94AB2B9B01AC016E857F8588896D
:1030600099890E94432B6E877F87888B998B8C85EB
:1030700062E30E94DC2EADB7BEB718960FB6F89487
:10308000BEBF0FBEADBF992309F0CECD8AE066E08A
:103090000E94E11F6E857F858889998920E030E054
:1030A00048E452E40E94AB2B20E030E040E752E4D9
:1030B0000E94AB2BAE014F5F5F4F9E012E5F3F4FD3
:1030C0008E010D5F1F4F0E946D06EDB7FEB738975A
:1030D0000FB6F894FEBF0FBEEDBF3196ADB7BEB7C9
:1030E00012965C924E92119729E132E0338322834B
:1030F0008A81848315828B81868317820E94A53101
:1031000080E090E0A0E0B0E08E879F87A88BB98B2D
:103110001C86ADB7BEB718960FB6F894BEBF0FBEEB
:10312000ADBF82CD2092CB0281E062E00E94E11F20
:10313000ADB7BEB718970FB6F894BEBF0FBEADBF00
:10314000EDB7FEB7319612965C924E92119722EE31
:1031500031E0338322838091DE019091DF01A091E1
:10316000E001B091E10184839583A683B7830E9437
:10317000A5311092CB028DB79EB708960FB6F89482
:103180009EBF0FBE8DBF0E94F21F00D000D0ADB712
:10319000BEB712965C924E921197EAEDF1E014964A
:1031A000FC93EE9313970E94A531640153010F9095
:1031B0000F900F900F9038CD2DB73EB7285030406C
:1031C0000FB6F8943EBF0FBE2DBFEDB7FEB73196D8
:1031D000ADB7BEB71196EC9211971296FC9228EEFD
:1031E00031E0338322838091D801848315828091DA
:1031F000D901868317820E94A5318DB79EB70896A4
:103200000FB6F8949EBF0FBE8DBFB7CD2DB73EB79A
:10321000285030400FB6F8943EBF0FBE2DBFEDB71B
:10322000FEB73196ADB7BEB71196EC9211971296D4
:10323000FC922EEF31E0338322838091A40290919F
:10324000A502A091A602B091A70284839583A683CC
:10325000B7830E94A5318DB79EB708960FB6F89434
:103260009EBF0FBE8DBF4ECD8DB79EB708970FB6D0
:10327000F8949EBF0FBE8DBF0DB71EB70F5F1F4FD7
:10328000ADB7BEB712965C924E9211972FE032E026
:10329000F8013383228360E070E080E792E42091BC
:1032A000A0023091A1024091A2025091A3020E947B
:1032B000AB2BD80114966D937D938D939C931797A8
:1032C0000E94A531EDB7FEB738960FB6F894FEBF51
:1032D0000FBEEDBFDCCC640153013324A5CC3320F9
:1032E00009F4DAC080E091E0391609F4FFC0AD8539
:1032F000AA2309F0B4C0882309F4B1C0BE89BAA3D7
:10330000EF89EBA3F88DFCA3298D2DA38A8D9B8DCE
:10331000AC8DBD8D8A8B9B8BAC8BBD8B3324339452
:1033200091E09D873CCD81E061E00E94E11F00D0EB
:1033300000D0EDB7FEB75282418225E632E03483F9
:1033400023830E94A5310F900F900F900F908BE078
:1033500061E00E94E11F00D000D0ADB7BEB7129669
:103360005C924E921197E1E6F2E01496FC93EE9394
:1033700013970E94A5310F900F900F900F9083E04C
:1033800063E00E94E11F1093CB0200D000D0ADB7E4
:10339000BEB712965C924E921197EBE5F2E014964E
:1033A000FC93EE9313970E94A5310F900F900F900E
:1033B0000F9081E065E00E94E11F00D000D0ADB722
:1033C000BEB712965C924E921197E6E5F2E0149623
:1033D000FC93EE9313970E94A5311092CB020F90AD
:1033E0000F900F900F900E94F21F00D000D0ADB749
:1033F000BEB712965C924E921197E2E5F2E01496F7
:10340000FC93EE9313970E94A5310F900F900F90AD
:103410000F908AE066E00E94E11F00D000D0ADB7B7
:10342000BEB712965C924E921197ECE4F2E01496BD
:10343000FC93EE9313970E94A53180E090E0A0E00A
:10344000B0E08E8B9F8BA88FB98F0F900F900F904D
:103450000F909BCC87E695E00E946404C5CB88233F
:1034600009F49DCCAD85A13009F099CCCE0104962C
:103470000E94380560900A0270900B0280900C0246
:1034800090900D02E091D601F091D701FB87EA8779
:10349000332433941D8683CCCE0104960E943805D4
:1034A00060900A0270900B0280900C0290900D02C6
:1034B000A091D601B091D701BB87AA8780E090E0A8
:1034C000A0E0B0E08A8F9B8FAC8FBD8F8E8B9F8BDF
:1034D000A88FB98F1AA21BA21CA21DA28A8B9B8B3C
:1034E000AC8BBD8B332433941D8659CC81E0FFCE49
:1034F0003092CA0200D000D0EDB7FEB752824182AE
:1035000024E432E0348323830E94A5311092CA025E
:103510000F900F900F900F9081E061E00E94E11FEB
:103520006A897B898C899D8920E030E040E752E4FC
:103530000E94AB2B44E252E025E232E006E212E0C8
:103540000E946D068DB79EB708970FB6F8949EBF80
:103550000FBE8DBFEDB7FEB73196ADB7BEB71296B1
:103560005C924E9211972BE332E033832283809159
:1035700025028483158280912602868317820E9409
:10358000A5318DB79EB708960FB6F8949EBF0FBEB3
:103590008DBF81E065E00E94E11F3092CB02ADB7A4
:1035A000BEB718970FB6F894BEBF0FBEADBFEDB74C
:1035B000FEB7319612965C924E92119725E332E057
:1035C000338322832AA13BA14CA15DA1C901DA0169
:1035D00084839583A683B7830E94A5311092CB0282
:1035E0008DB79EB708960FB6F8949EBF0FBE8DBFDD
:1035F0000E94F21F00D000D0ADB7BEB712965C9209
:103600004E921197E1E3F2E01496FC93EE93139738
:103610000E94A5318A899B89AC89BD898A8F9B8F3D
:10362000AC8FBD8F2AA13BA14CA15DA1C901DA01DC
:103630008E8B9F8BA88FB98F640153010F900F90D1
:103640000F900F90F1CA16E3E12E12E0F12E00D098
:1036500000D0ADB7BEB71296FC92EE92119785E3FB
:1036600093E014969C938E9313970E94EE3105E499
:1036700012E0EDB7FEB71283018380E393E09483F9
:1036800083830E94EE3110928102DD24D394D09284
:103690008D020B5F1F4FADB7BEB712961C930E93F2
:1036A00011978BE293E014969C938E9313970E944C
:1036B000EE31D092820210928E020B5F1F4FEDB757
:1036C000FEB71283018386E293E0948383830E9492
:1036D000EE31B2E0DB2ED092830210928F0285E0B1
:1036E00090E0E80EF91EADB7BEB71296FC92EE92CE
:1036F000119781E293E014969C938E9313970E9406
:10370000EE31065F1F4FEDB7FEB7128301838DE1E7
:1037100093E0948383830E94EE3110928502D092CD
:1037200091020B5F1F4FADB7BEB712961C930E935D
:10373000119788E193E014969C938E9313970E94BF
:10374000EE3110928602A3E0DA2ED09292020B5F45
:103750001F4FEDB7FEB71283018385E193E0948399
:1037600083830E94EE3110928702F4E0CF2EC09244
:1037700093020B5F1F4FADB7BEB712961C930E930B
:10378000119782E193E014969C938E9313970E9475
:10379000EE3110928802E3E6BE2EB0929402E5E08C
:1037A000F0E0EE0EFF1EADB7BEB71296FC92EE92A1
:1037B00011978DE093E014969C938E9313970E943B
:1037C000EE310B5F1F4FEDB7FEB71283018388E028
:1037D00093E0948383830E94EE311092890285E006
:1037E000809395020B5F1F4FADB7BEB712961C9327
:1037F0000E93119783E093E014969C938E93139706
:103800000E94EE3110928A0286E0809396020B5F4E
:103810001F4FEDB7FEB7128301838EEF92E09483C2
:1038200083830E94EE3110928B0287E0809397028F
:103830000B5F1F4FADB7BEB712961C930E93119737
:103840008BEF92E014969C938E9313970E94EE3127
:1038500010928C02B0929802D0929902C0929A0271
:10386000C0929B020F900F900F900F9087E695E00B
:1038700040E050E060E070E00E9411040E9484216A
:1038800084E30E9463200E944B2081E061E00E945B
:10389000E11F00D000D0CFE7D1E0EDB7FEB7D28373
:1038A000C1838CEE92E0948383830E94A5310F90B4
:1038B0000F900F900F9083E065E00E94E11F0E943F
:1038C0009F2087E695E00E94640460E971E080E053
:1038D00090E00E942A04F89487E292E040E050E0F1
:1038E00060E070E00E943204789472E4A72E73E0E6
:1038F000B72E6EE3E62E63E0F62E5AE3C52E53E0B4
:10390000D52E05E014E143E0942E87E695E040E0F3
:1039100050E060E070E00E9411040E944B2081E0C2
:1039200061E00E94E11F81E08093CA0200D000D0D4
:1039300000D0EDB7FEB73196ADB7BEB71296DC93A7
:10394000CE931197B382A28280912B02809FC001F7
:1039500011248A5C9D4F958384830E94A531109227
:10396000CA0260912D02E0912B02F0E0E756FD4F74
:103970008DB79EB706960FB6F8949EBF0FBE8DBF4B
:1039800080816817A0F14FC000D000D000D0EDB703
:10399000FEB73196ADB7BEB71296DC93CE931197B2
:1039A000D382C282809F9001112480912B02819F3B
:1039B000C0011124280F391F2B5B3D4F3583248311
:1039C0000E94A531EDB7FEB736960FB6F894FEBF4C
:1039D0000FBEEDBF60912D026F5F60932D02E091ED
:1039E0002B02F0E0E756FD4F80816817E0F46E5F30
:1039F00081E00E94E11F90912C0280912D02981786
:103A000019F600D000D000D0EDB7FEB73196ADB7B3
:103A1000BEB71296DC93CE931197F382E282909F09
:103A200090011124C2CF87E695E00E946404F894C7
:103A300089E292E040E050E060E070E00E943204F1
:103A400078948091C3019091C3018823B1F19330A0
:103A5000A1F18091C301813009F43FC09091C3016D
:103A6000923009F052CF20912B02A22FB0E080912A
:103A70002C02AA0FBB1FAA0FBB1FA80FB11DFD016F
:103A8000E357FD4FE081EE23F1F1E43009F486C005
:103A9000E53008F040C0E23009F475C0E33008F4C6
:103AA00048C0909303018091C6019091C70161E0E5
:103AB0000E94700310922D0228CFE0912B02F0E0BB
:103AC000E756FD4F908180912C029817B1F010922B
:103AD0002D028091C301813009F680912C028F5F05
:103AE00080932C02E0912B02F0E0E756FD4F90818D
:103AF000891731F010922D02B1CF10922C02E7CF2E
:103B000010922C02F7CFAF57BD4F8C9180932B02B0
:103B100010922C02CFCFE63071F1E630A8F49092EB
:103B200003018091C6019091C70161E00E9470037A
:103B3000C1CFE13009F0BECF8091C4019091C501A1
:103B400061E00E947003B6CFE73069F0E33609F018
:103B5000B1CF20932E02AF57BD4F8C9180932B0293
:103B600020932C02A7CF8091CA019091CB0161E0F4
:103B70000E9470039FCF8091C8019091C90161E0BC
:103B80000E94700397CF81E0809303018091C6016A
:103B90009091C70161E00E9470038CCF8091CC01AD
:103BA0009091CD0161E00E94700384CF8AB18F7142
:103BB0008AB98BB1806E8BB91092B20092E090936B
:103BC000B00087E08093B1008DE98093B3009093BB
:103BD000700060E971E080E090E00E942A0411E04A
:103BE000F8948FE292E040E050E060E070E00E94E4
:103BF000320478948091C201843009F43BC085304E
:103C0000E8F4813009F494C0813008F483C0833033
:103C100039F7F8941093C2011092C3016091C30167
:103C200089E292E070E00E94FF028091C4019091CD
:103C3000C50162E00E9470037894D2CF863009F407
:103C400044C0863030F1873059F6F8941093C201A1
:103C50001092C3016091C30189E292E070E00E947A
:103C6000FF028091CC019091CD0164E00E9470032D
:103C70007894B6CFF8948091C301813009F48AC05A
:103C80008091C301823009F499C08091C3018330CF
:103C9000C1F1F8948091C301813009F453C080913F
:103CA00004018F5F809304019091040180910A01C7
:103CB000891710F4109304018091C8019091C901F3
:103CC00064E00E94700378948BCFF8948091C301D4
:103CD000813009F44BC0809105018F5F809305010D
:103CE0009091050180910B01891710F41093050143
:103CF0008091CA019091CB0164E00E947003789496
:103D00006FCF8091C6019091C70168E00E94700357
:103D1000789466CFF8941092C3011093C201609119
:103D2000C30187E292E070E00E94FF02789458CFCE
:103D3000F8946091C30189E292E070E00E94FF0272
:103D400078944ECF8093C2011092C3016091C30159
:103D500089E292E070E00E94FF028091C801909198
:103D6000C90162E00E94700378943ACF8093C20147
:103D70001092C3016091C30189E292E070E00E9459
:103D8000FF028091CA019091CB0162E00E94700312
:103D9000789426CF8093C2011092C3016091C30131
:103DA00089E292E070E00E94FF028091C60190914A
:103DB000C70162E00E947003789412CF8091C6011F
:103DC0009091C70164E00E947003789409CF1F921C
:103DD0000F920FB60F9211242F933F934F935F933F
:103DE0006F937F938F939F93AF93BF93EF93FF93C3
:103DF000E0913102E13009F467C029B189B149B1DC
:103E000030E036952795329522952F7023273F7005
:103E1000232761E070E02627372790E00024880FF1
:103E2000991F001C880F991F001C892F902D862731
:103E30009727822B817090E0552747FD509540953C
:103E400050954427550F441F5527842B952B20E070
:103E500030E0EE2311F421E030E082239323892B1C
:103E600039F580913402863080F01092340281E07E
:103E7000809331024D9922C08093C3016091C301A8
:103E80008FE292E070E00E94FF020E944404FF91E2
:103E9000EF91BF91AF919F918F917F916F915F91C2
:103EA0004F913F912F910F900FBE0F901F9018953B
:103EB000809134028F5F80933402D5CF4E9B19C01E
:103EC0004F99DCCF83E0D8CF8091320290913302BA
:103ED0008832910530F40196909333028093320238
:103EE0008CCF109233021092320210923102E0E035
:103EF00084CF82E08093C301C1CF1F920F920FB68F
:103F00000F9211242F933F934F935F936F937F935F
:103F10008F939F93AF93BF93EF93FF93809135025D
:103F20008F5F8093350290E087709070892BB1F598
:103F30001092350280919C0290919D0290939F0275
:103F400080939E02809184009091850090939D02C1
:103F500080939C02109285001092840060910A0266
:103F600070910B0280910C0290910D022091DA0168
:103F70003091DB014091DC015091DD010E94432B27
:103F800060930A0270930B0280930C0290930D02CF
:103F900084EF91E065E570E00E94FF020E94440416
:103FA000FF91EF91BF91AF919F918F917F916F9111
:103FB0005F914F913F912F910F900FBE0F901F90E7
:103FC000189596E0899FC00111248A55904024E5F8
:103FD000629FB0011124860F971F9093CD028093AA
:103FE000CC0208958091CC029091CD0284559040EE
:103FF0009093CD028093CC020895982F87B18C6066
:1040000087B94198613049F14298492F50E027E043
:1040100030E009C0439A449A4498215030408FEFD1
:104020002F3F380791F0CA01022E02C0959587955F
:104030000A94E2F780FDEECF4398449A44982150C9
:1040400030408FEF2F3F380771F7419A87B1837F58
:1040500087B988B18C6088B908958091CA028111AE
:104060009095429AD2CF0F931F938C0164E570E034
:104070000E94E82E806860E00E94FD1FC80164E590
:1040800070E00E94E82E862F806460E00E94FD1F91
:104090001F910F910895CF93DF931092CD0210924C
:1040A000CC0280E090E00E943320C0E0D0E080E0CD
:1040B00061E00E94FD1F219681E0C83FD807B9F753
:1040C000DF91CF9108951F93182F81E260E00E9445
:1040D000FD1F812F806860E00E94FD1F80E260E08C
:1040E0000E94FD1F1F9108950F931F93982F062F75
:1040F000603318F5862F86958695869515E0181BF2
:1041000010649150892F806860E00E94FD1F812F0C
:1041100060E00E94FD1F077027E030E0201B31099E
:1041200081E090E002C0880F991F2A95E2F761E0D4
:104130000E94FD1F1F910F91089510E4E2CF0F938D
:104140001F93CF93DF930091CC021091CD02C80151
:104150000E943320C0EAD3E0CE010E948A3261E09F
:104160000E94FD1F219683E0CC3DD807A9F7045596
:1041700010401093CD020093CC02C8010E9433205E
:10418000C4E6D3E0CE010E948A3261E00E94FD1FA6
:10419000219683E0C03AD807A9F7C801845590401A
:1041A0009093CD028093CC020E943320C8E2D3E0EA
:1041B000CE010E948A3261E00E94FD1F219683E0B9
:1041C000C436D807A9F7DF91CF911F910F910895B9
:1041D000AF92BF92DF92EF92FF920F931F93CF9314
:1041E000DF93D82EE090CC02F090CD02C7010E9460
:1041F00033208091CB02882341F52D2D30E0C90179
:10420000880F991F880F991F820F931FEC01CF59B8
:10421000D0408C010A591040CE010E948A32880F8A
:1042200061E00E94FD1F2196C017D107A9F780E029
:1042300061E00E94FD1F86E090E0E80EF91EF0921A
:10424000CD02E092CC028091CB02813051F0DF911F
:10425000CF911F910F91FF90EF90DF90BF90AF90A3
:1042600008958BE0D89E5001112485010151104022
:10427000C8ECD1E00DC0C8010E948A3261E00E9402
:10428000FD1F21960F5F1F4F81E0C33DD80729F026
:1042900090E2D91681F7CE01EFCFE090CC02F090FA
:1042A000CD02C701845590409093CD028093CC02FB
:1042B0000E943320850101561F4FC8E7D2E00DC090
:1042C000C8010E948A3261E00E94FD1F21960F5FA3
:1042D0001F4F82E0C338D80729F090E2D91681F742
:1042E000CE01EFCF80E061E00E94FD1F8CE090E006
:1042F000E80EF91EF092CD02E092CC02A8CF0E9407
:10430000E82080E090E00895409A87B18F6187B9F6
:104310006CE370E080E090E00E942A0440986CE337
:1043200070E080E090E00E942A04409A419A81E285
:1043300060E00E94FD1F88EC60E00E94FD1F86E0A7
:1043400060E00E94FD1F83E160E00E94FD1F80E2AB
:1043500060E00E94FD1F8CE060E00E94FD1F0E9453
:104360004B2008959093C5008093C40088E180930A
:10437000C10086E08093C2000895982F8091C0000C
:1043800085FFFCCF9093C60008958091C00087FF01
:10439000FCCF8091C6000895FC019081992351F0D3
:1043A0008091C00085FFFCCF9093C600319690812C
:1043B0009923B1F708958091C000881F8827881F2E
:1043C0000895982F8091C00085FFFCCF9093C60080
:1043D00080E090E00895DC018617970788F48C91BF
:1043E000853571F4FD0103C08081853521F4319656
:1043F000E617F707C8F39F012A1B3B0BC901089575
:1044000020E030E0FBCF8091130190911401892BC3
:1044100039F0E1E1F1E03A9682819381892BD9F775
:1044200008958091130190911401892B39F0E1E1F5
:10443000F1E03A9682819381892BD9F70895FC01A6
:104440008617970728F485E58193E617F707E0F3C9
:104450000895FC01F8948081789408959AE0899FEA
:10446000F0011124EF5EFE4F6281738180819181A2
:104470000E94EB2108958091AF089091B0080097B9
:1044800029F06FEF78E00E94EB2108958091AB0155
:104490009091AC016FEF78E00E94EB210895DF93DB
:1044A000CF9300D0CDB7DEB781E191E09A838983C5
:1044B00060911301709114016115710579F0FC018F
:1044C000808191810E941F22E981FA813A96FA83C4
:1044D000E983628173816115710591F78091AF085D
:1044E0009091B008009751F0BE016F5070400E944B
:1044F0001F220F900F90CF91DF9108958091AB0113
:104500009091AC01F1CF611571058105910509F418
:104510000895FFCF2091D2023091D3024091D4026E
:104520005091D502261737074807590709F408950F
:10453000FFCF6F927F928F929F92AF92BF92CF9256
:10454000DF92EF92FF920F931F93CF93DF93182F79
:10455000C0911301D0911401209709F476C031E184
:10456000E32E31E0F32E01E02BE9A22E21E0B22E62
:104570009FE5692E93E0792E8DE6882E83E0982EB4
:1045800010C0123009F440C02AE030E0E20EF31E01
:104590000F5FD7011296CD91DC911397209709F404
:1045A00055C0113071F7073078F781E0602F0E9415
:1045B000E11FD701CD90DC90C601BE010E94EB2126
:1045C000EDB7FEB73A970FB6F894FEBF0FBEEDBF3A
:1045D0003196ADB7BEB71296BC92AE921197938248
:1045E00082820483158297838683CC19DD09D18763
:1045F000C0870E94A531EDB7FEB73A960FB6F89482
:10460000FEBF0FBEEDBFC0CF073008F4BDCF602F97
:10461000665081E00E94E11FD701CD90DC90C60179
:10462000BE010E94EB21EDB7FEB73A970FB6F894A2
:10463000FEBF0FBEEDBF3196ADB7BEB71296BC92AE
:10464000AE92119773826282CCCF01E0113009F4EF
:1046500052C0123079F0DF91CF911F910F91FF90EE
:10466000EF90DF90CF90BF90AF909F908F907F9012
:104670006F900895073078F3065081E0602F0E9414
:10468000E11F8091AF089091B008009709F458C0DD
:104690006FEF78E00E94EB212DB73EB728503040F5
:1046A0000FB6F8943EBF0FBE2DBFEDB7FEB73196E3
:1046B0002BE931E0ADB7BEB712963C932E9311971C
:1046C00025E433E0338322839583848380E099E07B
:1046D0002091AB013091AC01821B930B97838683B1
:1046E0000E94A531EDB7FEB738960FB6F894FEBF1D
:1046F0000FBEEDBFB0CF073008F0ADCF81E0602F27
:104700000E94E11F8091AF089091B0080097E9F0F6
:104710006FEF78E00E94EB21EDB7FEB738970FB648
:10472000F894FEBF0FBEEDBF31962BE931E0ADB777
:10473000BEB712963C932E93119722E533E0C2CF79
:104740008091AB019091AC01A3CF8091AB0190918E
:10475000AC01DECFA1E1B0E0E0EBF3E20C941E2F60
:104760003C017F876E876A01FC0117821682838174
:1047700081FD03C06FEF7FEF6FC39E012F5F3F4F3F
:10478000398B288BF3012381EE85FF8523FD8591ED
:1047900023FF8191FF87EE87882309F45AC385326E
:1047A00051F4EE85FF8523FD859123FF8191FF87DD
:1047B000EE87853229F490E0B3010E94C231E2CF46
:1047C000982F10E0882499241032B0F49B3269F0BD
:1047D0009C3228F4903251F0933271F40BC09D3228
:1047E00039F0903349F4116028C01260146025C07C
:1047F000186023C0106121C017FD2AC0892F805383
:104800008A3078F416FF06C0FAE09F9E902C11249F
:10481000980E13C03AE0839E802C1124880E1062FB
:104820000CC09E3221F416FD14C3106406C09C36E1
:1048300011F4106802C0983659F4EE85FF8523FD07
:10484000959123FF9191FF87EE87992309F0BCCFC3
:10485000892F8554833020F4812F8061905E07C0BA
:10486000892F8556833008F09FC1812F8F7E86FD6A
:1048700002C076E0972E6FE3F62EF822953619F4F3
:10488000F0E4FF2A07C0963619F420E8F22A02C0A5
:1048900091109A94F7FE0AC03BE3391518F45CE3D3
:1048A000B52E02C0B92CB39427E009C047E04915E2
:1048B00020F4BB2447E0942EF7CF292DBB24C6015A
:1048C00004969D878C87F601608171818281938136
:1048D000AE014F5F5F4F0B2D0E945A306C01098172
:1048E000202E332400FF04C003FD02C01DE209C0D6
:1048F000F1FE02C01BE205C0F2FC02C010E001C0E4
:1049000010E2C1018C709070892BB9F1112311F460
:1049100083E001C084E0881510F088240AC0881A5A
:10492000F3FC07C080E290E0B3010E94C2318A9498
:10493000C9F7112329F0812F90E0B3010E94C23101
:1049400023FE03C00BE713E00EC00FE713E00BC01C
:10495000E114F10409F0805290E0B3010E94C231E9
:104960000F5F1F4F05C0EF2CFF24F0E1EF22FF2463
:10497000F8018491882361F714C1F7FE12C0BC0CC2
:1049800024FE04C08A81813309F4BA941B141CF0FC
:10499000BB24B3942DC0F8E0FB1550F538E0B32EDE
:1049A00027C0F6FC25C0892D90E08C159D054CF0A4
:1049B0002CEFC2162FEFD20624F030E8F32A01C004
:1049C0009A94992049F0E2E0F0E0EC0FFD1FE90D28
:1049D000F11D80818033A1F3F7FE0AC0B92CB39496
:1049E000892D90E0C816D90614F0992401C09C18AE
:1049F000F7FC03C025E030E009C01C141D041CF0C6
:104A000021E030E003C096012F5F3F4F112311F0EA
:104A10002F5F3F4F992029F0892D90E00196280FB4
:104A2000391F882D90E02817390714F0882401C019
:104A3000821A4F2C5524C20189709070892B39F04D
:104A400008C080E290E0B3010E94C2318A948820BD
:104A5000C1F7112329F0812F90E0B3010E94C231E8
:104A600043FE07C008C080E390E0B3010E94C2315A
:104A70008A948820C1F7F7FE46C08601D7FE02C09F
:104A800000E010E076010894E11CF11CE01AF10A44
:104A900041E050E04C0F5D1FE40EF51E26014B185F
:104AA0005108892D90E0AA24BB24A81AB90A5FEF07
:104AB0000F3F150729F48EE290E0B3010E94C23146
:104AC000C016D10634F0401651061CF4F70180815F
:104AD00001C080E3015010400894E11CF11C0A154C
:104AE0001B052CF090E0B3010E94C231E0CF0C1501
:104AF0001D0539F49A81963318F4953311F424FE88
:104B000081E390E04BC08A81813309F00F7E90E011
:104B1000B3010E94C2319920A1F08EE290E0B3016E
:104B20000E94C23112E0E1E0F0E0EC0FFD1FE10F66
:104B3000F11D1F5F808190E0B3010E94C2319A9401
:104B400091F744FC03C085E690E002C085E490E064
:104B5000B3010E94C231D7FC05C0C114D10441F495
:104B600004FF06C0D094C194D108D3948DE201C053
:104B70008BE290E0B3010E94C23180E305C08F5FF9
:104B800026EF3FEFC20ED31E3AE0C316D104BCF7A6
:104B900090E0B3010E94C231C601C096B3010E94E9
:104BA000C231CC84DD8452C1933631F0933799F011
:104BB000933509F059C023C0F601808189835E01D5
:104BC0000894A11CB11C22E030E0C20ED31E21E0EB
:104BD000E22EF12C12C0F601A080B18016FD03C0B8
:104BE0006FEF7FEF02C0692D70E022E030E0C20E6F
:104BF000D31EC5010E9458317C011F7713C0F601F6
:104C0000A080B18016FD03C06FEF7FEF02C0692D59
:104C100070E022E030E0C20ED31EC5010E944D318B
:104C20007C01106813FF07C01BC080E290E0B30155
:104C30000E94C2318A94882D90E0E816F906A8F304
:104C40000FC0F50117FD859117FF81915F0190E07D
:104C5000B3010E94C23181108A940894E108F108DE
:104C6000E114F10471F7F2C0943611F0993689F528
:104C700017FF08C0F601208131814281538184E011
:104C800090E00AC0F601808191819C01442737FDA4
:104C90004095542F82E090E0C80ED91E9FE6F92E71
:104CA000F12257FF09C050954095309521953F4F0F
:104CB0004F4F5F4F90E8F92ACA01B901AE014F5F2B
:104CC0005F4F2AE030E00E942C32E82EE889EE1A8D
:104CD00041C0953721F41F7E2AE030E01CC0197FC7
:104CE0009F3661F0903720F4983509F0B2C00FC0BC
:104CF000903739F0983709F0ACC004C028E030E0B4
:104D00000AC0106114FD146020E130E004C014FDFD
:104D1000166020E132E017FF08C0F6016081718162
:104D20008281938144E050E008C0F6018081918146
:104D3000BC0180E090E042E050E0C40ED51EAE0120
:104D40004F5F5F4F0E942C32E82E5889E51A8FE79B
:104D5000F82EF122F6FE0BC08EEFF822E91438F49B
:104D6000F4FE07C0F2FC05C09FEEF92202C01E2D22
:104D700001C0192DF4FE0DC0FE01EE0DF11D808164
:104D8000803319F4E9EEFE2208C01F5FF2FE05C071
:104D900003C08F2D867809F01F5F0F2DF3FC14C020
:104DA000F0FE0FC0181510F09E2C0BC09E2C980C16
:104DB000911A182D06C080E290E0B3010E94C23122
:104DC0001F5F1815C0F304C0181510F4811A01C034
:104DD000882404FF0FC080E390E0B3010E94C23139
:104DE00002FF1DC001FD03C088E790E00EC088E50A
:104DF00090E00BC0802F867891F001FF02C08BE21B
:104E000001C080E2F7FC8DE290E0B3010E94C23164
:104E100006C080E390E0B3010E94C2319A94E91485
:104E2000C0F3EA94E1E0F0E0EC0FFD1FEE0DF11DA0
:104E3000808190E0B3010E94C231EE2091F706C05C
:104E400080E290E0B3010E94C2318A948820C1F7C9
:104E500099CCF30166817781CB016196E2E10C94F4
:104E60003A2FFC0120FD08C023FD05C022FF02C02F
:104E700073836283518340830895EF92FF920F936F
:104E80001F9344FF02C033E011C046FF02C034E06C
:104E90000DC0DB01FC01AA0FBB1FEE1FFF1F10940A
:104EA000D1F76A0F7B1F8E1F9F1F31E0660F771FA0
:104EB000881F991F3150D1F77B018C01E20EF11C44
:104EC000011D111DA8019701B701CA011F910F9182
:104ED000FF90EF9008950F931F93CF93DF938C0172
:104EE000C8010E946331EC0197FD08C00E94323175
:104EF000892BB1F7CE01B8010E941232CE01DF91A9
:104F0000CF911F910F9108958F929F92AF92BF9270
:104F1000DF92EF92FF920F931F93CF93DF935C0189
:104F2000EB014A01122F0E946331AC018B3219F060
:104F30008D3251F41068219709F46DC0C5010E94AB
:104F40006331AC0197FD67C06DEFD62ED1228D2D58
:104F5000807301F54033F1F4219709F447C0C5018E
:104F60000E946331AC0197FD41C082E0D82A4837E6
:104F700011F0483559F480E4D82A2197B9F1C501D8
:104F80000E946331AC0199232CF430C0D6FC02C0DE
:104F900080E1D82AEE24FF248701242F20532830D3
:104FA00088F0D4FC09C02A3068F0D6FE05C02F7DF9
:104FB000822F8151863028F0CA01B5010E94123239
:104FC00012C02750C801B7014D2D0E943D277B011B
:104FD0008C0182E0D82A219761F0C5010E946331DB
:104FE000AC0197FFDACFD1FC04C015C0EE24FF243A
:104FF0008701D7FE08C010950095F094E094E11C5D
:10500000F11C011D111DC401B801A7012D2D0E9425
:10501000312781E001C080E0DF91CF911F910F9196
:10502000FF90EF90DF90BF90AF909F908F9008958A
:10503000A0E2B0E0EEE1F8E20C94222F5C016B01FB
:105040008A017901FE01319680E2DF011D928A9585
:10505000E9F770E030E060E040E050E03F01A1E0BF
:10506000B0E0F5018381F70183FD259183FF219154
:105070007F01222309F481C02E3519F44115510511
:1050800069F1872F90E08417950744F42D3551F18D
:105090002D3221F4332329F431E021C0332309F4E4
:1050A000622F322F832F869586958695F301E80F20
:1050B000F11D832F87704D0102C0880C991C8A95C1
:1050C000E2F7208128292083361711F430E007C049
:1050D000361710F43F5FE6CF3150E4CF71E04F5FF9
:1050E0005F4FBFCF332319F08E8180628E83772389
:1050F00059F0FE0131969E012F5D3F4F80818095D2
:105100008193E217F307D1F7992493943E01089411
:10511000611C711CC5010E946331AC0197FD25C063
:10512000869586958695F301E80FF11D808190E0C4
:105130009A012770307002C0959587952A95E2F7FD
:1051400080FD05C0CA01B5010E9412320EC00115D2
:10515000110519F0D8014D938D010894C108D108AB
:105160009924C114D104B1F602C0992031F401157B
:10517000110529F0F801108202C0EE24FF24C701B6
:10518000A096EEE00C943E2F2F923F925F926F928A
:105190007F928F929F92AF92BF92CF92DF92EF92C7
:1051A000FF920F931F93CF93DF933C017B011A0172
:1051B0000E946331EC018B3239F08D3211F05524AD
:1051C00011C0B0E85B2E01C055240894E108F10835
:1051D000E114F10409F418C1C3010E946331EC0128
:1051E00097FD12C1CE010E943A318936910521F016
:1051F0008E36910599F51DC008E913E01CC008948E
:10520000E108F108E114F10471F0C3010E94633177
:10521000EC0197FD08C00E943A31D81661F0CE012A
:10522000B3010E94123223E00B39120709F0ECC0DF
:1052300008C005E913E0F8010F5F1F4FD490DD208F
:10524000F1F60859134029F080E090E0A0E8BFE7AC
:10525000CFC080E090E0A0ECBFE7CAC0CC24DD2442
:10526000882499245401AE014053242F4A3038F544
:1052700052E0552A852D90E0AC014870507052FEE6
:1052800006C0452B11F50894C11CD11C1EC0452B2E
:1052900019F00894C108D108C501B40140E20E9488
:1052A0003D274B015C0188E9881689E9980689E960
:1052B000A80689E1B80648F094E0592A06C04E3F96
:1052C00081F453FC0EC0E8E05E2A0894E108F1087E
:1052D000E114F10431F0C3010E946331EC0197FF46
:1052E000C2CF51FE91C0C53619F0C53409F046C091
:1052F0000894E108F108E114F10409F485C0C30140
:105300000E946331EC0197FD7FC08B3221F08D321A
:1053100069F4F0E15F2A0894E108F108E114F1046E
:1053200009F472C0C3010E946331EC01CE01C09741
:105330000A9708F069C000E010E0B801882777FDFF
:105340008095982FAE014053242F40E20E943D27C4
:105350008B010894E108F108E114F10439F0C3016C
:105360000E946331EC01C0970A9738F3B80154FEEC
:1053700003C0709561957F4FC60ED71EEF2831F0A0
:10538000D7FD04C0CE01B3010E941232C501B401A1
:105390000E943F2CD7FE0DC0A4EBEA2EA3E0FA2E0C
:1053A000D094C194D108D394C0E2D0E000E010E0E2
:1053B0000EC0FCECEF2EF3E0FF2EF6CFF7012591A7
:1053C0003591459154910E94F52CCC1ADD0ACC16EA
:1053D000DD06A0F7D695C7950F5F1F4F0630110564
:1053E00029F0ECEFFFEFEE0EFF1EF1CFDC01CB0159
:1053F00057FCB0582114310429F0F10180839183C6
:10540000A283B38381E001C080E0DF91CF911F913F
:105410000F91FF90EF90DF90CF90BF90AF909F9053
:105420008F907F906F905F903F902F900895A0E0B5
:10543000B0E0EDE1FAE20C94212F4C015B013A015E
:10544000FC0117821682552404C1812F90E00E942E
:105450003231892B21F0C4010E946B27FAC015322A
:1054600049F4F501F3FC6591F3FE61915F0165324A
:1054700069F415E2C4010E94633197FDF6C0181764
:1054800009F4E7C0B4010E941232F4C06A3219F084
:10549000162F00E006C0F3FC1591F3FE11915F0199
:1054A00001E0CC24DD240EC00260B60180E090E073
:1054B00040E20E943D276B01F501F3FC1591F3FEDC
:1054C00011915F01212F20532A3070F301FD04C098
:1054D000CC24CA94DC2C04C0C114D10409F4CAC081
:1054E000183621F01C3699F4F5010BC0F501F3FCD8
:1054F0006591F3FE6191683619F05F01162F07C0C0
:1055000008600460F3FC1591F3FE11915F01112313
:1055100009F4B0C083E893E0612F70E00E9442314B
:10552000892B09F4A7C0802F00FF03C0EE24FF24BD
:1055300007C0F301E080F18022E030E0620E731ECC
:105540001E3651F4F4014681578160E070E0C701D6
:10555000202F0E9431277DC01336B9F481FD03C08E
:1055600081E0C82ED12CC4010E94633197FD7DC01B
:10557000E114F10419F0F70181937F010894C10847
:10558000D108C114D10479F762C01B3559F4C401A4
:10559000B601A70195010E9418285C01009709F047
:1055A00056C050C0C4010E946B2797FD5EC01F36D5
:1055B000D1F1103738F41436A1F11936A9F11835A4
:1055C000D1F52DC0133751F0143718F4103799F571
:1055D00026C0153731F1183771F521C0C4010E947A
:1055E0006331EC0197FD15C00E943231892B29F0FF
:1055F000CE01B4010E9412320CC0E114F10419F082
:10560000F701C1937F010894C108D108C114D104E6
:1056100029F7E114F104D9F0F701108218C00064F1
:1056200003C0006201C00061C401B601A701202FC0
:105630000E94842705C0C401B601A7010E94C428A6
:10564000882329F4F4018381807379F413C000FF67
:105650005394F401F380F501F3FC1591F3FE1191DD
:105660005F01112309F0F1CE05C0552019F42FEF89
:105670003FEF02C0252D30E0C901CDB7DEB7EFE026
:105680000C943D2F5058BB27AA270ED070C161D172
:1056900030F066D120F031F49F3F11F41EF456C172
:1056A0000EF4E095E7FB4CC1E92F72D180F3BA17F5
:1056B000620773078407950718F071F49EF58AC195
:1056C0000EF4E0950B2EBA2FA02D0B01B90190011D
:1056D0000C01CA01A0011124FF27591B99F0593F61
:1056E00050F4503E68F11A16F040A22F232F342FA9
:1056F0004427585FF3CF469537952795A795F040F7
:105700005395C9F77EF41F16BA0B620B730B840B0B
:10571000BAF09150A1F0FF0FBB1F661F771F881FC3
:10572000C2F70EC0BA0F621F731F841F48F487951B
:1057300077956795B795F7959E3F08F0B3CF93950A
:10574000880F08F09927EE0F979587950895D4D084
:1057500008F481E008950CD00AC102D140F0F9D0DC
:1057600030F021F45F3F19F0EBC0511134C1EEC0AD
:105770000FD198F39923C9F35523B1F3951B550B1A
:10578000BB27AA2762177307840738F09F5F5F4F14
:10579000220F331F441FAA1FA9F333D00E2E3AF055
:1057A000E0E830D091505040E695001CCAF729D06F
:1057B000FE2F27D0660F771F881FBB1F26173707BE
:1057C0004807AB07B0E809F0BB0B802DBF01FF27EE
:1057D00093585F4F2AF09E3F510568F0B1C0FBC05F
:1057E0005F3FECF3983EDCF3869577956795B79528
:1057F000F7959F5FC9F7880F911D9695879597F943
:105800000895E1E0660F771F881FBB1F62177307BB
:105810008407BA0720F0621B730B840BBA0BEE1FD0
:1058200088F7E0950895BCD088F09F5790F0B92F85
:105830009927B751A0F0D1F0660F771F881F991FE5
:105840001AF0BA95C9F712C0B13081F0C3D0B1E0F7
:105850000895C0C0672F782F8827B85F39F0B93F07
:10586000CCF3869577956795B395D9F73EF49095E7
:105870008095709561957F4F8F4F9F4F0895E89465
:1058800009C097FB3EF490958095709561957F4F88
:105890008F4F9F4F9923A9F0F92F96E9BB27939536
:1058A000F695879577956795B795F111F8CFFAF446
:1058B000BB0F11F460FF1BC06F5F7F4F8F4F9F4F77
:1058C00016C0882311F096E911C0772321F09EE8D5
:1058D000872F762F05C0662371F096E8862F70E03B
:1058E00060E02AF09A95660F771F881FDAF7880F15
:1058F0009695879597F90895990F0008550FAA0B6B
:10590000E0E8FEEF16161706E807F907C0F01216D2
:105910001306E407F50798F0621B730B840B950BD5
:1059200039F40A2661F0232B242B252B21F408952A
:105930000A2609F4A140A6958FEF811D811D0895C7
:1059400097F99F6780E870E060E008959FEF80EC32
:10595000089500240A9416161706180609060895D5
:1059600000240A9412161306140605060895092E3B
:105970000394000C11F4882352F0BB0F40F4BF2BAA
:1059800011F460FF04C06F5F7F4F8F4F9F4F0895EA
:1059900057FD9058440F551F59F05F3F71F04795E0
:1059A000880F97FB991F61F09F3F79F087950895C5
:1059B000121613061406551FF2CF4695F1DF08C0E4
:1059C000161617061806991FF1CF86957105610501
:1059D00008940895E894BB2766277727CB0197F9A9
:1059E00008958ADF08F48FEF08950BD0C0CFB1DFA0
:1059F00028F0B6DF18F0952309F0A2CFA7CF112425
:105A0000EACFC6DFA0F3959FD1F3950F50E0551F65
:105A1000629FF001729FBB27F00DB11D639FAA2703
:105A2000F00DB11DAA1F649F6627B00DA11D661F52
:105A3000829F2227B00DA11D621F739FB00DA11D73
:105A4000621F839FA00D611D221F749F3327A00D2D
:105A5000611D231F849F600D211D822F762F6A2FC9
:105A600011249F5750408AF0E1F088234AF0EE0F4E
:105A7000FF1FBB1F661F771F881F91505040A9F75B
:105A80009E3F510570F05CCFA6CF5F3FECF3983E90
:105A9000DCF3869577956795B795F795E7959F5FC2
:105AA000C1F7FE2B880F911D9695879597F908955C
:105AB000FA01EE0FFF1F30962105310599F16115AE
:105AC000710561F48038BFE39B0749F16894903811
:105AD000810561F08038BFEF9B0741F0992342F5C3
