:100000000C9447020C94E51F0C9464020C94640257
:100010000C9464020C9464020C9464020C944F1FC0
:100020000C9464020C9464020C9464020C946402B8
:100030000C9464020C9464020C94DA040C94640230
:100040000C9464020C9464020C9464020C94640298
:100050000C9464020C9464020C9464020C94640288
:100060000C9464020C94640207634236B79BD8A7D1
:100070001A39685618AEBAAB558C1D3CB7CC5763CD
:10008000BD6DEDFD753EF6177231BF000000803F7B
:1000900008000000BE922449123EABAAAA2ABECD97
:1000A000CCCC4C3E00000080BEABAAAAAA3E000009
:1000B0000000BF000000803F000000000008417801
:1000C000D3BB4387D1133D190E3CC3BD4282AD2B38
:1000D0003E68EC8276BED98FE1A93E4C80EFFFBE30
:1000E00001C4FF7F3F00000000002532643A253044
:1000F0003264002D3A2D0025312E30662057202005
:10010000002D20570025322E30662053504D200000
:100110002D2053504D0053232025642000202564BA
:10012000206B6720200076302E360025312E306679
:100130002057202020002D20570050777220657313
:10014000740025312E30662057202020002D2057A6
:10015000005077720025312E3366206B676D3200B8
:100160004A0025312E3466002D004B5F4420657314
:10017000740025312E3466004B5F440025312E3249
:1001800066207320202020002D207300732F5374CD
:10019000720025312E3266206D20202020002D2077
:1001A0006D006D2F5374720025312E3366206D0063
:1001B0006D2F52657600206B63616C7320002533D0
:1001C0002E3066002532643A25303264002D2D3AF7
:1001D0002D2D0020572020200025332E3066002DA5
:1001E000002053504D20200025332E3066002D0076
:1001F0002532643A25303264002532643A253032A3
:10020000640025332E306600206D200025342E300A
:1002100066002532643A2530326400202A2000200E
:100220002020002D3A2D00206D20002D002D3A2D8C
:10023000002D002D3A2D002532643A25303264001D
:100240002D3A2D0025312E30662057202020002DFC
:1002500020570025312E32662020005323202564AC
:1002600020202020006176672025322E3066006134
:100270007667202D0053504D2025322E30662020E9
:100280000053504D202D0025312E3066206D6574B1
:1002900065727320202020002532643A25303264B4
:1002A000002053617261682773204572676F2000D8
:1002B0002053617261682773204572676F20002F99
:1002C0002F00486561700044617461004275726E70
:1002D00000496E666F002F2F0046780050616365FD
:1002E00000442F540050726F6700496E666F0050D3
:1002F000726F6700526F7721004572676F0020258B
:1003000073003E257300257300486561703A20250F
:10031000642F25642000486561703A2025642F25EC
:1003200064200054686425643A2025642F256420E5
:100330000054686425643A2025642F256420006EEB
:10034000616E00696E66006364696E6F70737578C4
:10035000585B65666745464700616E006E66696E6C
:1003600069747900CDCCCC3D0AD7233C17B7D1387E
:1003700077CC2B329595E6241FB14F0A000020411F
:100380000000C84200401C4620BCBE4CCA1B0E5A8E
:10039000AEC59D7400407A10F35A00A0724E180941
:1003A0000010A5D4E80000E87648170000E40B54DC
:1003B000020000CA9A3B000000E1F50500008096AB
:1003C0009800000040420F000000A08601000000DD
:1003D000102700000000E803000000006400000097
:1003E00000000A00000000000100000000002C7660
:1003F000D888DC674F0823DFC1DFAE59E1B1B7967B
:10040000E5E3E453C63AE651997696E8E6C28426D7
:10041000EB898C9B62ED407C6FFCEFBC9C9F40F2B3
:10042000BAA56FA5F490055A2AF75C936B6CF9672F
:100430006DC11BFCE0E40D47FEF520E6B500D0EDF4
:10044000902E0300943577050080841E080000205C
:100450004E0A000000C80C333333330F986E1283FA
:100460001141EF8D2114893BE65516CFFEE6DB18CE
:10047000D1844B381BF77C1D901DA4BBE424203293
:1004800084725E228100C9F124ECA1E53D2711248C
:100490001FBECFEFD8E0DEBFCDBF11E0A0E0B1E0DE
:1004A000E8E0F6E602C005900D92A839B107D9F749
:1004B00018E0A8E9B1E001C01D92A438B107E1F746
:1004C0000E94AF060C9402330C940000F894FFCF06
:1004D000CF93DF938091590390915A03A0915B03CE
:1004E000B0915C030196A11DB11D809359039093B7
:1004F0005A03A0935B03B0935C03CDE5D3E02FEFE9
:100500003FEF8D819E81AF81B8850097A105B10530
:1005100051F18D819E81AF81B8850197A109B10903
:100520008D839E83AF83B8878D819E81AF81B8858F
:100530000097A105B105B9F48A818330E1F08230DA
:1005400001F13C832B831A821D821E821F82188632
:100550008091570390915803C817D90720F4D0937E
:100560005803C09357032A9683E0C73BD80749F640
:10057000DF91CF910895EB81FC8180818F5F808333
:10058000E0CFEB81FC8111821082DBCF089578945B
:10059000089580E008950895FC01748363831282B6
:1005A0001582168217821086809157039091580306
:1005B000E817F90720F4F0935803E0935703CF01AD
:1005C0000895DC01ED91FC9111973097A1F01D92F7
:1005D0001C9274836383128215821682178210869E
:1005E0008091570390915803E817F90720F4F0938E
:1005F0005803E09357030895DC018C918F5F8C932F
:100600008C9118160CF40895809160039091610309
:100610008A179B07D9F0EDE5F3E03A968381948140
:100620008A179B07D1F714821382128215821682D1
:10063000178210868091570390915803E817F907A5
:1006400010F7F0935803E09357030895EDE5F3E0B6
:10065000EACFDC012C916C9327FF23C04091570314
:1006600050915803EDE5F3E06EEF7FEF03C027FFF5
:1006700014C03A96838194818A179B07C1F72F5F34
:100680007483638312821582168217821086E417A0
:10069000F50768F7AF0127FDECCF5093580340935F
:1006A00057030895FC018185682B6187828184301E
:1006B00009F0089583816823E1F314821382128282
:1006C00015821682178210868091570390915803E5
:1006D000E817F90770F7F0935803E093570308956C
:1006E000A0915503B091560312968C9312971596CC
:1006F0004D935D936D937C93189780915F0388234E
:10070000C9F0EDE5F3E03A9682818823E1F7F093B2
:100710005803E0935703F0935603E0935503CF013A
:10072000BD010E949804E0915503F0915603838126
:1007300094810895EDE5F3E0EACF0F931F93CF93F3
:10074000DF93082FC0915503D09156039985182F38
:10075000192389F44F3F8FEF58078FEF68078FEF0A
:10076000780799F00B8384E00E94700397FD0DC019
:100770009985102F1923812F809589238987812FAF
:10078000DF91CF911F910F9108957894812FDF9180
:10079000CF911F910F910895F8940E949D03789432
:1007A0000895DC018C91181634F481508C9320E06C
:1007B00030E0C90108954F3F9FEF59079FEF690748
:1007C0009FEF790719F42FEF3FEFF3CF81508C9310
:1007D000E0915503F0915603B483A38383E00E9414
:1007E00070039C01E6CFF8940E94D1037894089599
:1007F000AB01BC01F8948091590390915A03A091E8
:100800005B03B0915C03481B590B6A0B7B0B81E0C7
:100810000E94700378940895AB01BC01F89481E0C4
:100820000E94700378940895DC01809155039091A3
:10083000560311969C938E93E0915503F0915603C5
:10084000B483A38382E00E947003089560915503EE
:100850007091560380915703909158036817790758
:1008600031F090935603809355030E9498040895A5
:10087000F8940E9452030E94260478940895F894F4
:100880000E9429030E94260478940895F8940E94F7
:10089000FC020E94260478940895CF93DF9327ECFE
:1008A00034E0832F992787FD9A95482F6DE573E0F3
:1008B000DB01C1E1D1E0EA81FB8175971196FC93E0
:1008C000EE938E81828BED91FC9111978E819F81A9
:1008D000892F990F990B818BED91FC911197888548
:1008E000808BED91FC91119788859985892F990FBF
:1008F000990B8787ED91FC911197438BED91FC91BA
:100900001197248B1A962A9683E0A73BB80799F68D
:100910007093580360935703709356036093550385
:10092000CB01BD010E9498047894DF91CF91089586
:100930002F923F924F925F926F927F928F929F92EF
:10094000AF92BF92CF92DF92EF92FF920F931F93DD
:10095000CF93DF93FB010DB600820EB60182FC013E
:1009600000800DBE01800EBEDF91CF911F910F91CF
:10097000FF90EF90DF90CF90BF90AF909F908F90BF
:100980007F906F905F904F903F902F900895789454
:10099000C201F101099580E090E00E94660208958D
:1009A00092E094BD95BD89EF87BD16BC95BB909331
:1009B0006E0008951F920F920FB60F9211242F937D
:1009C0003F934F935F936F937F938F939F93AF93D7
:1009D000BF93EF93FF930E9468020E942604FF9149
:1009E000EF91BF91AF919F918F917F916F915F91A7
:1009F0004F913F912F910F900FBE0F901F90189520
:100A000010929E0110929F011092A0011092A101DC
:100A10008091590390915A03A0915B03B0915C03BC
:100A20008093A2019093A301A093A401B093A50188
:100A30000895FC01F89480919C0190919D0195830B
:100A400084838091980190919901A0919A01B0912D
:100A50009B0180839183A283B38378940895CF927E
:100A6000DF92EF92FF920F931F936C01F894E09046
:100A70009C01F0909D016091980170919901809185
:100A80009A0190919B017894F601208131814281F5
:100A90005381621B730B840B950B28EE33E040E00F
:100AA00050E00E942A2F9B01AC01F60184819581C0
:100AB000A0E0B0E0281B390B4A0B5B0B00E010E014
:100AC0002E0D3F1D401F511FB901CA011F910F91EB
:100AD000FF90EF90DF90CF900895FC01F894809103
:100AE0009C0190919D012091980130919901409134
:100AF0009A0150919B01789480819181A281B38168
:100B0000281B390B4A0B5B0BB901CA010895F894F5
:100B1000209198013091990140919A0150919B0147
:100B20007894B901CA010895F8941092980110922E
:100B3000990110929A0110929B0178940895109255
:100B40009E0110929F011092A0011092A10180912C
:100B5000590390915A03A0915B03B0915C03809379
:100B6000A2019093A301A093A401B093A501F894CE
:100B70002091590330915A0340915B0350915C03DB
:100B80008091A2019091A301A091A401B091A5012F
:100B900079018A01E81AF90A0A0B1B0BE092A601F7
:100BA000F092A7010093A8011093A9012093A2013C
:100BB0003093A3014093A4015093A50178946091D0
:100BC000A6017091A7018091A8019091A9010091BF
:100BD0009C0110919D0128EE33E040E050E00E941E
:100BE0002A2F20EA3FE040E050E00E94692F020FE8
:100BF000131F10939D0100939C0180919C01909183
:100C00009D01875E934008F442C0809198019091C5
:100C10009901A0919A01B0919B010196A11DB11D6E
:100C20008093980190939901A0939A01B0939B01AE
:100C300080919E0190919F01A091A001B091A1018E
:100C40000196A11DB11D80939E0190939F01A093D9
:100C5000A001B093A10110929D0110929C0160919E
:100C600098017091990180919A0190919B010E9445
:100C7000AC2C20E030E040E752E40E94182C609356
:100C80009704709398048093990490939A0460E574
:100C900070E080E090E00E940C0469CF6F927F9238
:100CA0008F929F92AF92BF92CF92DF92EF92FF927C
:100CB0000F931F936B017C015A014901380120E019
:100CC00030E040E752E40E94182C0E94802CF5018D
:100CD000608370E0882777FD8095982F0E94AE2C66
:100CE00020E030E040E752EC0E94622DA70196011F
:100CF0000E94B02B5B016C010E94802CE62EF40157
:100D00006083C601B50120E030E040E752E40E9474
:100D1000622D5B016C01FF2400E010E0C801B70107
:100D20000E94AC2C20E030E040E752EC0E94622DA3
:100D30009B01AC01C601B5010E94B02B0E94802C22
:100D4000F30160831F910F91FF90EF90DF90CF90A0
:100D5000BF90AF909F908F907F906F9008950E946A
:100D6000BC2281E08093AD050E94D0040E944D0416
:100D7000FFCFDF93CF9300D000D0CDB7DEB7809107
:100D80005503909156039093B5018093B40128E1E7
:100D900033E03C832B83AB81BC811D92BC83AB834E
:100DA000A254B340C1F78AE28093B6011092B70112
:100DB0001092B80125E7622E21E0722E9DE1292EC6
:100DC00091E0392E86E1482E81E0582EC3016982D8
:100DD0009A8384E04FEF5FEF6FEF7FEF0E94CC03C9
:100DE000843009F4C1C10091B701013009F4ADC1EB
:100DF00081E04FEF5FEF6FEF7FEF0E94CC03082F92
:100E0000813009F492C19090B9018090B80121E03D
:100E1000821609F406C1E8E1F3E090E080819817BA
:100E200008F4982F31962B813C812E173F07B1F79C
:100E30003AE23093B6019093420343E2949FC0019B
:100E400011246AE070E00E94552F70934403609370
:100E5000430320E030E06630710510F021E030E01F
:100E600090E08091B701813009F446C180E0AAE2A8
:100E70009A1609F4D4C09823892F90E028233923A7
:100E8000232B09F4C1C00E94B8201092B60180E063
:100E9000E82FF0E0E85EFC4F60810E94E120809145
:100EA000B6018F5F8093B6018A3290F387E061E0EC
:100EB0000E944E2081E08093510300D000D000D0EA
:100EC000EDB7FEB73196ADB7BEB712967C926E9273
:100ED000119733822282809143039091440395833A
:100EE00084830E94123210925103EDB7FEB73696FA
:100EF0000FB6F894FEBF0FBEEDBF87E062E00E9420
:100F00004E2000D000D000D0EDB7FEB73196ADB77F
:100F1000BEB712967C926E92119753824282809154
:100F2000C2019091C301958384830E941232EDB770
:100F3000FEB736960FB6F894FEBF0FBEEDBF87E042
:100F400063E00E944E208091C2019091C3010597F9
:100F500008F03EC100D000D0E981ADB7BEB7119610
:100F6000EC931197FA811296FC93129720E131E0ED
:100F700014963C932E9313970E9412320F900F9069
:100F80000F900F9087E064E00E944E208091C20194
:100F90009091C301059708F0EEC000D000D0ADB726
:100FA000BEB712967C926E921197E1E0F1E0149632
:100FB000FC93EE9313970E9412320F900F900F90B4
:100FC0000F9089E065E00E944E208091C2019091CF
:100FD000C3010A9708F038C100D000D0ADB7BEB742
:100FE00012967C926E921197E3EFF0E01496FC93C8
:100FF000EE9313970E9412320F900F900F900F9064
:101000001092B9018090B80191E0891609F476C078
:1010100068EC70E080E090E00E940C04DACE81E0A1
:101020002ACF39E2391508F4F6CEE0900603F090A5
:101030000703009108031091090360910E0370915A
:101040000F0380911003909111032AE037ED43E2E2
:101050005EE30E94622D5B016C01C801B701A8012B
:1010600097010E94622D2091BA013091BB014091FD
:10107000BC015091BD010E94622D9B01AC01C601D3
:10108000B5010E94B02B26E636E646E05FE30E94FB
:10109000182C6B017C016093BE017093BF0180939B
:1010A000C0019093C10120E030E040E050E00E9498
:1010B0005E2D181654F4C701B6012AE939E94DE34B
:1010C00052E40E94142C88232CF1C701B60120E0C1
:1010D00030E040E050E00E94142C18160CF0DDC007
:1010E000E92DF0E0E85EFC4FBFE2B083892D8F5F11
:1010F0008093B901982E8FCE91E0B8CE8091B9013E
:101100008A3208F085CF6CE370E080E090E00E94C6
:101110000C045FCE092D10E0085E1C4FC701B6011C
:101120000E94802CD8016C93E1CF8DEA95E040E0DD
:1011300050E060E070E00E94F3030093B701F7E035
:10114000F093AA010E94B8205ECE82E04FEF5FEFDD
:101150006FEF7FEF0E94CC03823009F049CE0093FD
:10116000B8011092B90144CE1092B7018DEA95E012
:101170000E94460438CE2DB73EB7285030400FB6F7
:10118000F8943EBF0FBE2DBFEDB7FEB73196ADB799
:10119000BEB712967C926E92119727EF30E03383A0
:1011A00022838091C2029091C302A091C402B091A7
:1011B000C50284839583A683B7830E9412328DB7BC
:1011C0009EB708960FB6F8949EBF0FBE8DBFF9CE9E
:1011D0008DB79EB708970FB6F8949EBF0FBE8DBF10
:1011E0000DB71EB70F5F1F4FE981ADB7BEB71196A0
:1011F000EC931197FA811296FC93E5E0F1E0D801A7
:101200001396FC93EE93129760E070E080E792E40F
:101210002091AA023091AB024091AC025091AD02F4
:101220000E94182CD80114966D937D938D939C93F6
:1012300017970E941232EDB7FEB738960FB6F894A2
:10124000FEBF0FBEEDBF9ECE2DB73EB7285030403B
:101250000FB6F8943EBF0FBE2DBFEDB7FEB7319667
:10126000ADB7BEB712967C926E9211972AEE30E01F
:10127000338322838091C401848315828091C501C8
:10128000868317820E9412328DB79EB708960FB6DA
:10129000F8949EBF0FBE8DBFB3CEE92DF0E0E85E9F
:1012A000FC4F108223CF8091550390915603909369
:1012B000AD018093AC01C5E7D1E04BE5442E42E09F
:1012C000542E33E5232E32E0332E3E0181E040E000
:1012D00050E060E070E00E94CC038DEA95E040E0D1
:1012E00050E060E070E00E94F30323E02093AA0145
:1012F0000E94B82081E061E00E944E2081E080934E
:10130000510300D000D0ADB7BEB71296DC93CE9398
:101310001197E1EAF2E01496FC93EE9313970E9482
:101320001232109251030F900F900F900F902EC118
:1013300000D000D0ADB7BEB711966C92119712963F
:101340007C921297E1E8F2E01496FC93EE931397E7
:101350000E9412320F900F900F900F9089E062E080
:101360000E944E206091C2017091C30162307105EC
:1013700008F420C210911202112309F030C290909B
:101380001302992009F410C28090140280E090E0CA
:101390000E94AC2C5B016C01612F70E080E090E05A
:1013A0000E94AC2C20E030E040E752E40E94622D25
:1013B0007B018C01692D70E080E090E00E94AC2CF4
:1013C0009B01AC01C801B7010E94B02B7B018C01CD
:1013D000682D70E080E090E00E94AC2C20E030E0CE
:1013E00040E752E40E94182C9B01AC01C801B701F0
:1013F0000E94B02B9B01AC01C601B5010E94182CC4
:101400009B01AC0120931502309316024093170202
:10141000509318022DB73EB7285030400FB6F894BD
:101420003EBF0FBE2DBFEDB7FEB73196ADB7BEB70D
:101430001296DC93CE93119725E632E03383228314
:10144000CB01DA0184839583A683B7830E9412328D
:101450008DB79EB708960FB6F8949EBF0FBE8DBF8E
:1014600081E063E00E944E2000D000D000D0EDB7B4
:10147000FEB73196ADB7BEB71296DC93CE931197F7
:10148000538242828091C2019091C30195838483EB
:101490000E941232EDB7FEB736960FB6F894FEBF33
:1014A0000FBEEDBF8BE063E00E944E202DB73EB72C
:1014B000285030400FB6F8943EBF0FBE2DBFEDB799
:1014C000FEB73196ADB7BEB71296DC93CE931197A7
:1014D0003382228280910D0290910E02A0910F0220
:1014E000B091100284839583A683B7830E94123241
:1014F000EDB7FEB738960FB6F894FEBF0FBEEDBF3E
:1015000084E064E00E944E208091C2019091C3016A
:10151000059708F01BC100D000D0ADB7BEB711963B
:101520006C92119712967C921297EFE4F2E0149667
:10153000FC93EE9313970E9412320F900F900F902E
:101540000F908AE066E00E944E208091C201909147
:10155000C3010A9708F0D1C000D000D0ADB7BEB724
:101560001296DC93CE931197E0E4F2E01496FC938C
:10157000EE9313970E9412320F900F900F900F90DE
:1015800068E775E080E090E00E940C0482E04FEF95
:101590005FEF6FEF7FEF0E94CC03823009F424C12C
:1015A00083E066E00E944E20609197047091980459
:1015B0008091990490919A0442E152E023E132E053
:1015C00004E112E00E944E062DB73EB7285030408D
:1015D0000FB6F8943EBF0FBE2DBFEDB7FEB73196E4
:1015E000ADB7BEB71296DC93CE93119728E932E0DF
:1015F00033832283809113028483158280911402A5
:10160000868317820E9412328DB79EB708960FB656
:10161000F8949EBF0FBE8DBF83E065E00E944E2010
:101620004091F8015091F9016091FA017091FB012C
:10163000ADB7BEB718970FB6F894BEBF0FBEADBF1B
:10164000EDB7FEB731961296DC93CE93119727E84B
:1016500032E03383228344835583668377830E94F9
:1016600012328DB79EB708960FB6F8949EBF0FBE84
:101670008DBF81E062E00E944E208091C201909176
:10168000C301059708F454CE2DB73EB7285030401B
:101690000FB6F8943EBF0FBE2DBF0DB71EB70F5F3C
:1016A0001F4FADB7BEB711966C92119712967C92F0
:1016B00025E732E0F8013383228360E070E080E7C1
:1016C00092E42091AA023091AB024091AC02509179
:1016D000AD020E94182CD80114966D937D938D93C2
:1016E0009C9317970E941232EDB7FEB738960FB64B
:1016F000F894FEBF0FBEEDBF31CE2DB73EB72850D8
:1017000030400FB6F8943EBF0FBE2DBFEDB7FEB709
:101710003196ADB7BEB71296DC93CE93119727E3FF
:1017200032E0338322838091C401848315828091C7
:10173000C501868317820E9412328DB79EB7089624
:101740000FB6F8949EBF0FBE8DBF1ACF2DB73EB710
:10175000285030400FB6F8943EBF0FBE2DBFEDB7F6
:10176000FEB73196ADB7BEB711966C92119712962F
:101770007C9224E432E0338322838091C2029091F0
:10178000C302A091C402B091C50284839583A6834D
:10179000B7830E9412328DB79EB708960FB6F894A1
:1017A0009EBF0FBE8DBFCDCE80901402FDE1F81517
:1017B00008F4ECCD00D000D0ADB7BEB71296DC93E4
:1017C000CE931197EFE6F2E01496FC93EE93139705
:1017D0000E9412320F900F900F900F9041CE909078
:1017E000130280901402D2CD8DEA95E00E94460447
:1017F0006DCD4F925F926F927F928F929F92AF9238
:10180000BF92CF92DF92EF92FF920F931F93CF93ED
:10181000DF932C010F2EF0E06F2EF0E07F2EF0E032
:101820008F2EF0E09F2EF02D64015301C4E0D0E034
:10183000BE01882777FD8095982F0E94AE2C9B01D2
:10184000AC0160E070E080E090E40E94C52D7B0177
:101850008C01C401B301A80197010E94B02B3B0188
:101860004C01C801B701F20121913191419151918F
:101870002F010E94622D9B01AC01C601B5010E949F
:10188000B02B5B016C012197FFEFCF3FDF0781F6A3
:10189000A40193010E94182CDF91CF911F910F9109
:1018A000FF90EF90DF90CF90BF90AF909F908F9080
:1018B0007F906F905F904F90089580915503909125
:1018C00056039093B1018093B001C5E7D1E068E77A
:1018D000262E61E0362E56E2452E51E0552ECE01E1
:1018E000FC2EE92E0F2EFFE5AF2EF9E2BF2EFBE412
:1018F000CF2EFBE3DF2EF02D0F2EFAE06F2EF7ED4B
:101900007F2EF3E28F2EFEE39F2EF02D81E040E04C
:1019100050E060E070E00E94CC038DEA95E040E08A
:1019200050E060E070E00E94F30385E08093AA013C
:101930000E94B82001E01AC084E04FEF5FEF6FEF24
:101940007FEF0E94CC038430E9F080910401823063
:10195000F9F0833009F476C1813009F4C1C068EE32
:1019600073E080E090E00E940C0400E082E04FEF22
:101970005FEF6FEF7FEF0E94CC03823009F4DEC28D
:101980000130D1F60E94B82080910401823009F71D
:1019900081E061E00E944E2000D000D0EDB7FEB79C
:1019A000D283C183348223820E9412320F900F901F
:1019B0000F900F9081E062E00E944E208DB79EB79D
:1019C00008970FB6F8949EBF0FBE8DBFEDB7FEB758
:1019D0003196ADB7BEB71296DC93CE93119782E7DE
:1019E00091E093838283A482B582C682D7820E94CB
:1019F0001232ADB7BEB718960FB6F894BEBF0FBE81
:101A0000ADBF81E063E00E944E2000D000D0EDB772
:101A1000FEB7D283C1838AE691E0948383830E94D8
:101A200012320F900F900F900F9081E064E00E94AF
:101A30004E208091C2019091C301059708F050C2D9
:101A400000D000D0ADB7BEB71196FC921197129698
:101A5000EC921297E8E6F1E01496FC93EE9313975C
:101A60000E9412320F900F900F900F9081E065E06E
:101A70000E944E2000D000D0EDB7FEB7D283C183C4
:101A800080E691E0948383830E9412320F900F903E
:101A90000F900F9081E066E00E944E20ADB7BEB778
:101AA00018970FB6F894BEBF0FBEADBFEDB7FEB727
:101AB00031961296DC93CE93119785E591E093834E
:101AC000828364827582868297820E941232ADB7C9
:101AD000BEB718960FB6F894BEBF0FBEADBF3FCFCE
:101AE00081E061E00E944E2000D000D0ADB7BEB7CB
:101AF0001296DC93CE931197E0EBF1E01496FC93F1
:101B0000EE9313970E9412320F900F900F900F9048
:101B100081E062E00E944E208DB79EB708970FB615
:101B2000F8949EBF0FBE8DBFEDB7FEB73196ADB72F
:101B3000BEB71296DC93CE93119788EA91E0938317
:101B400082838091C6019091C701A091C801B09194
:101B5000C90184839583A683B7830E941232ADB7EF
:101B6000BEB718960FB6F894BEBF0FBEADBF81E0EA
:101B700063E00E944E2000D000D0EDB7FEB7D283C4
:101B8000C18382EA91E0948383830E9412320F9092
:101B90000F900F900F9081E064E00E944E208091A2
:101BA000C2019091C301059708F06DC100D000D02B
:101BB000ADB7BEB71196FC9211971296EC921297A0
:101BC000EEE9F1E01496FC93EE9313970E94123223
:101BD0000F900F900F900F9081E065E00E944E20D3
:101BE00000D000D0EDB7FEB7D283C1838CE891E07E
:101BF000948383830E9412320F900F900F900F9066
:101C000081E066E00E944E208091C2019091C30164
:101C1000059708F098C000D000D0ADB7BEB71196B8
:101C2000FC9211971296EC921297E8E8F1E0149664
:101C3000FC93EE9313970E9412320F900F900F9027
:101C40000F908DCE81E061E00E944E2000D000D048
:101C5000EDB7FEB7D283C18381E591E0948383839E
:101C60000E9412320F900F900F900F9081E062E06F
:101C70000E944E208091C2019091C301059708F007
:101C8000D5C000D000D0ADB7BEB71196FC92119769
:101C90001296EC921297EDE4F1E01496FC93EE9319
:101CA00013970E9412320F900F900F900F9081E0C7
:101CB00063E00E944E2000D000D0EDB7FEB7D28383
:101CC000C1838AE391E0948383830E9412320F9050
:101CD0000F900F900F9081E064E00E944E20809161
:101CE000C2019091C301059708F05AC000D000D0FE
:101CF000ADB7BEB71196FC9211971296EC9212975F
:101D0000E6E3F1E01496FC93EE9313970E941232EF
:101D10000F900F900F900F9081E065E00E944E2091
:101D200000D000D0ADB7BEB71296DC93CE9311971A
:101D300014965C924E9213970E9412320F900F905D
:101D40000F900F900CCE8DB79EB708970FB6F894F2
:101D50009EBF0FBE8DBFEDB7FEB73196ADB7BEB714
:101D60001196FC9211971296EC928CE791E0938376
:101D700082838091AA029091AB02A091AC02B091B3
:101D8000AD0284839583A683B7830E941232ADB7D8
:101D9000BEB718960FB6F894BEBF0FBEADBFDFCD6D
:101DA0006091F4017091F5018091F6019091F70135
:101DB00020E030E040E450E40E94C52D9B01AC01DE
:101DC0008DB79EB708970FB6F8949EBF0FBE8DBF14
:101DD0000DB71EB70F5F1F4FADB7BEB71196FC9280
:101DE00011971296EC928BE291E0F8019383828333
:101DF000CA01B9012091BA013091BB014091BC01E7
:101E00005091BD010E94622DD80114966D937D936F
:101E10008D939C9317970E941232EDB7FEB73896B8
:101E20000FB6F894FEBF0FBEEDBF76CF8DB79EB74D
:101E300008970FB6F8949EBF0FBE8DBFEDB7FEB7E3
:101E40003196ADB7BEB71196FC9211971296EC92EF
:101E500082E491E0938382838091C2029091C302D5
:101E6000A091C402B091C50284839583A683B783F1
:101E70000E941232ADB7BEB718960FB6F894BEBF27
:101E80000FBEADBF14CF8DB79EB708970FB6F894AD
:101E90009EBF0FBE8DBFEDB7FEB73196ADB7BEB7D3
:101EA0001196FC9211971296EC9282E991E093833D
:101EB00082838091000290910102A0910202B09170
:101EC000030284839583A683B7830E941232ADB741
:101ED000BEB718960FB6F894BEBF0FBEADBF7CCE8E
:101EE0008DB79EB708970FB6F8949EBF0FBE8DBFF3
:101EF000EDB7FEB73196ADB7BEB71196FC9211970C
:101F00001296EC9282E691E0938382838091DA02CA
:101F10009091DB02A091DC02B091DD02B058848385
:101F20009583A683B7830E941232ADB7BEB71896C9
:101F30000FB6F894BEBF0FBEADBF98CD8DEA95E049
:101F40000E944604E3CC52985A9A1092800083E093
:101F5000809381008093690011E01DBB1092850081
:101F6000109284008FEF95E0A2E0BAE38093BA016B
:101F70009093BB01A093BC01B093BD018CE09CEA9F
:101F8000A4E3BEE38093C6019093C701A093C80168
:101F9000B093C90160EE7EE280E090E00E940C0404
:101FA00010928F0210928E02109291021092900263
:101FB00080E090E0A0E0B0E08093060390930703F8
:101FC000A0930803B093090380930A0390930B0333
:101FD000A0930C03B0930D0380930E0390930F0313
:101FE000A0931003B09311038093120390931303F3
:101FF000A0931403B09315031093160310921703C4
:102000008093CA019093CB01A093CC01B093CD01F2
:1020100080E090E020E030E040E050E0FC01E2555C
:10202000FD4F2083318342835383FC01EE50FD4FEB
:102030002083318342835383FC01EA53FD4F208385
:10204000318342835383FC01E652FD4F2083318369
:1020500042835383FC01EA56FD4F20833183428340
:102060005383049684319105C9F685E08093B601C7
:102070001092CE011092CF012093D0013093D10164
:102080004093D2015093D3012093D4013093D501D2
:102090004093D6015093D7012093D8013093D901B2
:1020A0004093DA015093DB012093DC013093DD0192
:1020B0004093DE015093DF0185E493E00E9419050F
:1020C0008BE493E00E9419051092C3011092C201A3
:1020D0001092E001F89481EE91E040E050E060E081
:1020E00070E00E94140478948091E001682F70E001
:1020F0006F5F7F4F617070706093E001EB01E09162
:10210000E301F0E0E170F070EE0FFF1FE257FD4FCA
:1021100080819181E091E301F0E03196E170F0700F
:10212000EE0FFF1FE257FD4FE080F180E80EF91E31
:1021300082E08093B601FB01EE0FFF1FEE56FD4FCC
:10214000F182E082E091E301F0E0EE0FFF1FE25741
:10215000FD4F6081718180E090E00E94AC2C2DEBFE
:1021600037E346E057E30E94622D5B016C01609308
:10217000E4017093E5018093E6019093E7012090DC
:102180000603309007034090080350900903209203
:102190000A0330920B0340920C0350920D0300E0AF
:1021A00010E0C801B7010E94AC2C7B018C01219684
:1021B000C170D070CC0FDD1FCE56DD4F68817981A4
:1021C00080E090E00E94AC2C9B01AC01C801B701FB
:1021D0000E94B02B2DEB37E346E856E30E94622DB8
:1021E0009B01AC016AED7FE089EC90E40E94182C21
:1021F0007B018C01609306037093070380930803AF
:102200009093090360900E0370900F038090100369
:102210009090110360921203709213038092140342
:1022200090921503C601B50127E137EB41ED58E364
:102230000E94B02B5B016C01C801B701A2019101A2
:102240000E94AF2BA60195010E94182C1B012C01A6
:1022500060930E0370930F03809310039093110308
:10226000A40193010E94AF2BA60195010E94182C96
:102270007B018C016093E8017093E9018093EA018E
:102280009093EB0120E030E040E252EC0E945E2DA2
:1022900018160CF098C0C801B70120E030E040E209
:1022A00052E40E94142C88230CF08DC01092CF01B0
:1022B000C201B10120E030E040E751E40E945E2D10
:1022C00018160CF084C0A1E0A093CE019091CF012C
:1022D000913009F483C08091CE01813009F4C2C1EC
:1022E00080911603809317031092160380911703B1
:1022F000813009F4C1C180911603813009F43EC1D7
:10230000882309F0E7CE80911703882309F0E2CEF5
:10231000A0900603B0900703C0900803D090090373
:10232000C601B50127E137EB41ED58E30E94B02B20
:102330009B01AC01E090E401F090E5010091E60121
:102340001091E7010E94622D9B01AC0160910E0388
:1023500070910F0380911003909111030E94182C2B
:10236000A80197010E94622D9B01AC016091EC01D4
:102370007091ED018091EE019091EF010E94B02BE0
:102380006093EC017093ED018093EE019093EF0167
:10239000C601B501A80197010E94622D9B01AC0105
:1023A0006091F0017091F1018091F2019091F3013F
:1023B0000E94B02B6093F0017093F1018093F201C1
:1023C0009093F30187CE91E09093CF0171CF10925B
:1023D000CE019091CF01913009F07DCF809116030D
:1023E0008093170390931603882309F084CF80917C
:1023F000B4019091B50162E00E9452038BE493E036
:102400000E94190580E090E0A0E0B0E08093D40144
:102410009093D501A093D601B093D7018093D001BA
:102420009093D101A093D201B093D3018091E602A1
:102430009091E702A091E802B091E9028093EA024C
:102440009093EB02A093EC02B093ED028091E20234
:102450009091E302A091E402B091E5028093E6023C
:102460009093E702A093E802B093E9028091DE0224
:102470009091DF02A091E002B091E1028093E2022C
:102480009093E302A093E402B093E5028091DA0214
:102490009091DB02A091DC02B091DD028093DE021C
:1024A0009093DF02A093E002B093E1026091D80123
:1024B0007091D9018091DA019091DB012091DC01CA
:1024C0003091DD014091DE015091DF010E94AF2B80
:1024D0002DEB37E346E855E30E94B02B9B01AC019E
:1024E0006091EC017091ED018091EE019091EF010E
:1024F0000E94182C6093DA027093DB028093DC0256
:102500009093DD028AED92E00E94F90B6093EE0257
:102510007093EF028093F0029093F10260910603B2
:102520007091070380910803909109032091E401C1
:102530003091E5014091E6015091E7010E94622D42
:102540009B01AC016091F0017091F1018091F20169
:102550009091F3010E94B02B6093F0017093F10110
:102560008093F2019093F30180911603882309F47C
:10257000BDCE80911603813009F0C2CE8091170341
:10258000813009F0A7CDE0900603F0900703009199
:10259000080310910903A090E401B090E501C090F8
:1025A000E601D090E701C801B7012AE037ED43E228
:1025B0005EE30E94622D20910E0330910F03409143
:1025C0001003509111030E94622DA60195010E94F3
:1025D000622D9B01AC016091D4017091D501809175
:1025E000D6019091D7010E94B02B6093D4017093D3
:1025F000D5018093D6019093D701C801B701A801F6
:1026000097010E94622D9B01AC01C801B7010E9495
:10261000622D2091BA013091BB014091BC015091D3
:10262000BD010E94622D9B01AC01C601B5010E9453
:10263000622D9B01AC016091D0017091D10180911C
:10264000D2019091D3010E94B02B6093D00170937E
:10265000D1018093D2019093D301C801B701A601A3
:1026600095019ACE80911603813009F03BCE80937C
:102670001703809316033FCE8091C2019091C3014E
:1026800001969093C3018093C20180E090E0A0E0A6
:10269000B0E08093EC019093ED01A093EE01B09334
:1026A000EF018BE493E00E942F050E94AC2C20E008
:1026B00030E04AE754E40E94182C6093DC017093E8
:1026C000DD018093DE019093DF0185E493E00E94B9
:1026D0002F050E94AC2C20E030E04AE754E40E9431
:1026E000182C6093D8017093D9018093DA019093EC
:1026F000DB0185E493E00E9419056091D801709197
:10270000D9018091DA019091DB0127E137EB41EDAE
:1027100058E30E94B02B7B018C016091F001709115
:10272000F1018091F2019091F301A80197010E94BB
:10273000182C6093F4017093F5018093F601909347
:10274000F70180E090E0A0E0B0E08093F00190938A
:10275000F101A093F201B093F3016091F80170913F
:10276000F9018091FA019091FB012091FC013091D7
:10277000FD014091FE015091FF010E94AF2B60933B
:102780000002709301028093020290930302209151
:10279000F8013091F9014091FA015091FB01209329
:1027A000FC013093FD014093FE015093FF01209105
:1027B000FE023091FF0240910003509101032093EB
:1027C00002033093030340930403509305032091C5
:1027D000FA023091FB024091FC025091FD022093DD
:1027E000FE023093FF0240930003509301032091B7
:1027F000F6023091F7024091F8025091F9022093CD
:10280000FA023093FB024093FC025093FD022091A8
:10281000F2023091F3024091F4025091F5022093BC
:10282000F6023093F7024093F8025093F902A801A0
:1028300097010E94182C6093F2027093F302809328
:10284000F4029093F50282EF92E00E94F90B6093FC
:10285000040270930502809306029093070227E119
:1028600037EB41ED58E30E94B02B9B01AC0160E0D7
:1028700070E08AEF93E40E94182C60930802709332
:10288000090280930A0290930B0220E030E040E7B7
:1028900052E40E94182C4CE052E024EC31E005ECAC
:1028A00011E00E944E068091D2029091D302A09135
:1028B000D402B091D5028093D6029093D702A09310
:1028C000D802B093D9028091CE029091CF02A0910C
:1028D000D002B091D1028093D2029093D302A09300
:1028E000D402B093D5028091CA029091CB02A091FC
:1028F000CC02B091CD028093CE029093CF02A093F0
:10290000D002B093D1028091C6029091C702A091EB
:10291000C802B091C9028093CA029093CB02A093DF
:10292000CC02B093CD026091D8017091D901809111
:10293000DA019091DB0127E137EB41ED58E30E948A
:10294000B02B9B01AC016091DC017091DD018091A5
:10295000DE019091DF010E94182C6093C6027093F3
:10296000C7028093C8029093C90286EC92E00E944D
:10297000F90B60930D0270930E0280930F029093F7
:1029800010028091BA029091BB02A091BC02B0915A
:10299000BD028093BE029093BF02A093C002B09389
:1029A000C1028091B6029091B702A091B802B09195
:1029B000B9028093BA029093BB02A093BC02B09379
:1029C000BD028091B2029091B302A091B402B09185
:1029D000B5028093B6029093B702A093B802B09369
:1029E000B9028091AE029091AF02A091B002B09175
:1029F000B1028093B2029093B302A093B402B09359
:102A0000B5026091D4017091D5018091D601909169
:102A1000D7012091D0013091D1014091D201509144
:102A2000D3010E94B02B7B018C016091D801709181
:102A3000D9018091DA019091DB0127E137EB41ED7B
:102A400058E30E94B02B9B01AC01C801B7010E9462
:102A5000182C6093AE027093AF028093B0029093F3
:102A6000B1028EEA92E00E94F90B7B018C01609327
:102A7000C2027093C3028093C4029093C50220E007
:102A800030E040E251E40E945E2D181694F5C80132
:102A9000B70120E030E040E850E40E94622D20E0E1
:102AA00030E04FEA53E40E94B02B2091D8013091DE
:102AB000D9014091DA015091DB010E94622D26E696
:102AC00036ED42E855E40E94182C9B01AC01609160
:102AD000CA017091CB018091CC019091CD010E94EF
:102AE000B02B6093CA017093CB018093CC0190937B
:102AF000CD018091A2029091A302A091A402B09175
:102B0000A5028093A6029093A702A093A802B09377
:102B1000A90280919E0290919F02A091A002B09183
:102B2000A1028093A2029093A302A093A402B09367
:102B3000A50280919A0290919B02A0919C02B09173
:102B40009D0280939E0290939F02A093A002B09357
:102B5000A1028091960290919702A0919802B09163
:102B6000990280939A0290939B02A0939C02B09347
:102B70009D028091D8019091D901A091DA01B09184
:102B8000DB018093960290939702A0939802B093F2
:102B9000990286E992E00E94F90B6093AA02709371
:102BA000AB028093AC029093AD02A5CB809155030C
:102BB000909156039093B3018093B20116E01CC02C
:102BC00082E04FEF5FEF6FEF7FEF0E94CC03823028
:102BD00099F184E04FEF5FEF6FEF7FEF0E94CC033E
:102BE000843039F1809111028130F1F068EE73E0A8
:102BF00080E090E00E940C0481E04FEF5FEF6FEF08
:102C00007FEF0E94CC038130D9F6809311028DEAC8
:102C100095E040E050E060E070E00E94F303109324
:102C2000AA010E94B820CCCF809105010E94062302
:102C3000DDCF0E94B820D6CF109211028DEA95E028
:102C40000E944604C6CFDF93CF93CDB7DEB7A597DA
:102C50000FB6F894DEBF0FBECDBF19821A821B8259
:102C600080915503909156039093AF018093AE01EC
:102C700080E090E0A0E0B0E08A8F9B8FAC8FBD8FAA
:102C80008E8B9F8BA88FB98F3C014D011AA21BA27E
:102C90001CA21DA28A8B9B8BAC8BBD8B8E879F87C2
:102CA000A88BB98B1C861B861A8685E7482E81E087
:102CB000582E72012224239481E040E050E060E02D
:102CC00070E00E94CC038DEA95E040E050E060E0C7
:102CD00070E00E94F30394E09093AA010E94B82050
:102CE0003324A1E0AD8710C0133009F483C2113042
:102CF00009F4B0C06401530168EE73E080E090E035
:102D00000E940C043501460182E04FEF5FEF6FEF48
:102D10007FEF0E94CC03823009F404C410910301B8
:102D2000123011F783E062E00E944E20209252039D
:102D30008091C2019091C301059708F0FDC200D0B7
:102D400000D0EDB7FEB7528241822EEE31E03483DF
:102D500023830E9412320F900F900F900F901092C9
:102D600052030E945F2000D000D0ADB7BEB71296CC
:102D70005C924E921197E1EEF1E01496FC93EE9383
:102D800013970E9412320F900F900F900F9083E0D4
:102D900064E00E944E20209252038091C2019091E3
:102DA000C301059708F09AC200D000D0ADB7BEB7F6
:102DB0001196EC9211971296FC921297EFEDF1E0BA
:102DC0001496FC93EE9313970E9412320F900F907B
:102DD0000F900F90109252030E945F2000D000D0FD
:102DE000ADB7BEB712965C924E921197E3EDF1E04B
:102DF0001496FC93EE9313970E9412320F900F904B
:102E00000F900F9081E066E00E944E2020925203C6
:102E10008091C2019091C3010A9708F035C200D099
:102E200000D0ADB7BEB71196EC9211971296FC92F6
:102E30001297EDECF1E01496FC93EE9313970E9439
:102E400012320F900F900F900F9010925203640166
:102E5000530152CF332009F4CEC284E04FEF5FEF2D
:102E60006FEF7FEF0E94CC03843009F4A0C288E0AA
:102E70004FEF5FEF6FEF7FEF0E94CC03883009F4D4
:102E800092C2F1E03F1609F035CF81E066E00E9482
:102E90004E202D85222309F093C300D000D0ADB77A
:102EA000BEB712965C924E921197EFE1F2E0149643
:102EB000FC93EE9313970E9412320F900F900F9095
:102EC0000F9081E061E00E944E20CE0104960E94A6
:102ED0006D050E94AC2C2A893B894C895D890E9432
:102EE000B02B6A8F7B8F8C8F9D8F20E030E040E786
:102EF00052E40E94182C42E152E023E132E004E166
:102F000012E00E944E062DB73EB7285030400FB653
:102F1000F8943EBF0FBE2DBFEDB7FEB73196ADB7EB
:102F2000BEB712965C924E92119722E132E0338343
:102F300022838091130284831582809114028683F8
:102F400017820E941232A090F801B090F901C0904F
:102F5000FA01D090FB01C601B501A40193010E94C2
:102F6000AF2B9B01AC016E897F89888D998D0E9462
:102F7000B02B6E8B7F8B888F998F8DB79EB70896FD
:102F80000FB6F8949EBF0FBE8DBF81E065E00E9432
:102F90004E2030925203ADB7BEB718970FB6F894D3
:102FA000BEBF0FBEADBFEDB7FEB7319612965C92B5
:102FB0004E9211972CE032E0338322838E899F89D1
:102FC000A88DB98D84839583A683B7830E9412321E
:102FD00010925203ADB7BEB718960FB6F894BEBFA5
:102FE0000FBEADBF0E945F2000D000D0EDB7FEB78E
:102FF0005282418228E032E0348323830E941232DD
:103000008091C2019091C301AA85BB858A1B9B0B4D
:103010000F900F900F900F90079708F46DCE8BE0F4
:1030200061E00E944E20ADB7BEB718970FB6F89476
:10303000BEBF0FBEADBF0DB71EB70F5F1F4F1196BE
:10304000EC9211971296FC9222E032E0F801338361
:10305000228360E070E080E792E42091AA02309140
:10306000AB024091AC025091AD020E94182CD801E5
:1030700014966D937D938D939C9317970E941232B3
:10308000EDB7FEB738960FB6F894FEBF0FBEEDBF92
:1030900083E063E00E944E20309252032DB73EB78A
:1030A000285030400FB6F8943EBF0FBE2DBFEDB78D
:1030B000FEB73196ADB7BEB712965C924E9211979D
:1030C00029EF31E0338322838091C4018483158208
:1030D0008091C501868317820E941232109252039A
:1030E0003C853F5F3C876A8D7B8D8C8D9D8D20E07C
:1030F00030E04AEF53E40E94622D6E8F7F8F88A3E9
:1031000099A36E897F89888D998D27E137EB41EDF1
:1031100058E30E94B02B9B01AC016E8D7F8D88A17E
:1031200099A10E94182C9B01AC016E857F8588892E
:1031300099890E94B02B6E877F87888B998B8C85AD
:1031400062E30E94492FADB7BEB718960FB6F89448
:10315000BEBF0FBEADBF992309F0CECD8AE066E0B9
:103160000E944E206E857F858889998920E030E015
:1031700048E452E40E94182C20E030E040E752E49A
:103180000E94182CAE014F5F5F4F9E012E5F3F4F94
:103190008E010D5F1F4F0E944E06EDB7FEB73897A8
:1031A0000FB6F894FEBF0FBEEDBF3196ADB7BEB7F8
:1031B00012965C924E92119720EF31E03383228376
:1031C0008A81848315828B81868317820E941232C2
:1031D00080E090E0A0E0B0E08E879F87A88BB98B5D
:1031E0001C86ADB7BEB718960FB6F894BEBF0FBE1B
:1031F000ADBF82CD2092520381E062E00E944E205A
:10320000ADB7BEB718970FB6F894BEBF0FBEADBF2F
:10321000EDB7FEB7319612965C924E9211972EEB57
:1032200031E0338322838091CA019091CB01A09138
:10323000CC01B091CD0184839583A683B7830E948E
:103240001232109252038DB79EB708960FB6F894BB
:103250009EBF0FBE8DBF0E945F2000D000D0ADB7D3
:10326000BEB712965C924E921197E6EBF1E014967F
:10327000FC93EE9313970E941232640153010F9056
:103280000F900F900F9038CD2DB73EB7285030409B
:103290000FB6F8943EBF0FBE2DBFEDB7FEB7319607
:1032A000ADB7BEB71196EC9211971296FC9224EC32
:1032B00031E0338322838091C4018483158280911D
:1032C000C501868317820E9412328DB79EB7089679
:1032D0000FB6F8949EBF0FBE8DBFB7CD2DB73EB7CA
:1032E000285030400FB6F8943EBF0FBE2DBFEDB74B
:1032F000FEB73196ADB7BEB71196EC921197129604
:10330000FC9229ED31E0338322838091C2029091B7
:10331000C302A091C402B091C50284839583A683A1
:10332000B7830E9412328DB79EB708960FB6F894F5
:103330009EBF0FBE8DBF4ECD8DB79EB708970FB6FF
:10334000F8949EBF0FBE8DBF0DB71EB70F5F1F4F06
:10335000ADB7BEB712965C924E92119728EE31E04F
:10336000F8013383228360E070E080E792E42091EB
:10337000AA023091AB024091AC025091AD020E9482
:10338000182CD80114966D937D938D939C93179769
:103390000E941232EDB7FEB738960FB6F894FEBF12
:1033A0000FBEEDBFDCCC640153013324A5CC332028
:1033B00009F4DAC080E091E0391609F4FFC0AD8568
:1033C000AA2309F0B4C0882309F4B1C0BE89BAA306
:1033D000EF89EBA3F88DFCA3298D2DA38A8D9B8DFE
:1033E000AC8DBD8D8A8B9B8BAC8BBD8B3324339482
:1033F00091E09D873CCD81E061E00E944E2000D0AD
:1034000000D0EDB7FEB75282418223E332E034832D
:1034100023830E9412320F900F900F900F908BE039
:1034200061E00E944E2000D000D0ADB7BEB712962A
:103430005C924E921197E1E3F2E01496FC93EE93C6
:1034400013970E9412320F900F900F900F9083E00D
:1034500063E00E944E201093520300D000D0ADB71D
:10346000BEB712965C924E921197EDE2F2E014967E
:10347000FC93EE9313970E9412320F900F900F90CF
:103480000F9081E065E00E944E2000D000D0ADB7E3
:10349000BEB712965C924E921197EBE2F2E0149650
:1034A000FC93EE9313970E941232109252030F90E6
:1034B0000F900F900F900E945F2000D000D0ADB70A
:1034C000BEB712965C924E921197E7E2F2E0149624
:1034D000FC93EE9313970E9412320F900F900F906F
:1034E0000F908AE066E00E944E2000D000D0ADB779
:1034F000BEB712965C924E921197E3E2F2E01496F8
:10350000FC93EE9313970E94123280E090E0A0E0CB
:10351000B0E08E8B9F8BA88FB98F0F900F900F907C
:103520000F909BCC8DEA95E00E944604C5CB882382
:1035300009F49DCCAD85A13009F099CCCE0104965B
:103540000E9419056090F8017090F9018090FA01CD
:103550009090FB01E091C201F091C301FB87EA87E3
:10356000332433941D8683CCCE0104960E94190522
:103570006090F8017090F9018090FA019090FB0141
:10358000A091C201B091C301BB87AA8780E090E0FF
:10359000A0E0B0E08A8F9B8FAC8FBD8F8E8B9F8B0E
:1035A000A88FB98F1AA21BA21CA21DA28A8B9B8B6B
:1035B000AC8BBD8B332433941D8659CC81E0FFCE78
:1035C0003092510300D000D0EDB7FEB75282418255
:1035D0002BE132E0348323830E9412321092510394
:1035E0000F900F900F900F9081E061E00E944E20AD
:1035F0006A897B898C899D8920E030E040E752E42C
:103600000E94182C42E152E023E132E004E112E092
:103610000E944E068DB79EB708970FB6F8949EBFCE
:103620000FBE8DBFEDB7FEB73196ADB7BEB71296E0
:103630005C924E92119722E132E033832283809193
:1036400013028483158280911402868317820E945C
:1036500012328DB79EB708960FB6F8949EBF0FBE74
:103660008DBF81E065E00E944E2030925203ADB7DD
:10367000BEB718970FB6F894BEBF0FBEADBFEDB77B
:10368000FEB7319612965C924E9211972CE032E082
:10369000338322832AA13BA14CA15DA1C901DA0198
:1036A00084839583A683B7830E94123210925203BB
:1036B0008DB79EB708960FB6F8949EBF0FBE8DBF0C
:1036C0000E945F2000D000D0ADB7BEB712965C92CA
:1036D0004E921197E8E0F2E01496FC93EE93139764
:1036E0000E9412328A899B89AC89BD898A8F9B8FFF
:1036F000AC8FBD8F2AA13BA14CA15DA1C901DA010C
:103700008E8B9F8BA88FB98F640153010F900F9000
:103710000F900F90F1CA18E2E12E12E0F12E00D0C6
:1037200000D0ADB7BEB71296FC92EE92119789EF1A
:1037300092E014969C938E9313970E945B3207E35A
:1037400012E0EDB7FEB71283018384EF92E0948319
:1037500083830E945B3210927302DD24D394D09253
:103760007F020B5F1F4FADB7BEB712961C930E932F
:1037700011978FEE92E014969C938E9313970E946C
:103780005B32D0927402109280020B5F1F4FEDB734
:10379000FEB7128301838AEE92E0948383830E94B2
:1037A0005B32B2E0DB2ED09275021092810285E08E
:1037B00090E0E80EF91EADB7BEB71296FC92EE92FD
:1037C000119785EE92E014969C938E9313970E9426
:1037D0005B32065F1F4FEDB7FEB71283018381EEA8
:1037E00092E0948383830E945B3210927702D0929E
:1037F00083020B5F1F4FADB7BEB712961C930E939B
:1038000011978CED92E014969C938E9313970E94DF
:103810005B3210927802A3E0DA2ED09284020B5F22
:103820001F4FEDB7FEB71283018389ED92E09483B9
:1038300083830E945B3210927902F4E0CF2EC09213
:1038400085020B5F1F4FADB7BEB712961C930E9348
:10385000119786ED92E014969C938E9313970E9495
:103860005B3210927A02E3E6BE2EB0928602E5E069
:10387000F0E0EE0EFF1EADB7BEB71296FC92EE92D0
:10388000119781ED92E014969C938E9313970E946A
:103890005B320B5F1F4FEDB7FEB7128301838CECD9
:1038A00092E0948383830E945B3210927B0285E0D6
:1038B000809387020B5F1F4FADB7BEB712961C9364
:1038C0000E93119787EC92E014969C938E93139726
:1038D0000E945B3210927C0286E0809388020B5F2C
:1038E0001F4FEDB7FEB71283018382EC92E0948301
:1038F00083830E945B3210927D0287E0809389026D
:103900000B5F1F4FADB7BEB712961C930E93119766
:103910008FEB92E014969C938E9313970E945B32E8
:1039200010927E02B0928A02D0928B02C0928C02D8
:10393000C0928D020F900F900F900F908DEA95E03E
:1039400040E050E060E070E00E94F3030E94F1214B
:1039500084E30E94D0200E94B82081E061E00E94B0
:103960004E2000D000D0C5E7D1E0EDB7FEB7D2833E
:10397000C18380EB92E0948383830E9412320F9084
:103980000F900F900F9083E065E00E944E200E9400
:103990000C218DEA95E00E94460460E971E080E028
:1039A00090E00E940C04F89489E192E040E050E03D
:1039B00060E070E00E941404789476E0A72E73E033
:1039C000B72E62E0E62E63E0F62E5EEFC52E52E0E3
:1039D000D52E05E014E143E0942E8DEA95E040E019
:1039E00050E060E070E00E94F3030E94B82081E0A4
:1039F00061E00E944E2081E08093510300D000D00E
:103A000000D0EDB7FEB73196ADB7BEB71296DC93D6
:103A1000CE931197B382A28280911D02809FC00134
:103A20001124885D9D4F958384830E9412321092E9
:103A3000510360911F02E0911D02F0E0E557FD4F38
:103A40008DB79EB706960FB6F8949EBF0FBE8DBF7A
:103A500080816817A0F14FC000D000D000D0EDB732
:103A6000FEB73196ADB7BEB71296DC93CE931197E1
:103A7000D382C282809F9001112480911D02819F78
:103A8000C0011124280F391F295C3D4F3583248341
:103A90000E941232EDB7FEB736960FB6F894FEBF0D
:103AA0000FBEEDBF60911F026F5F60931F02E09138
:103AB0001D02F0E0E557FD4F80816817E0F46E5F6E
:103AC00081E00E944E2090911E0280911F02981763
:103AD00019F600D000D000D0EDB7FEB73196ADB7E3
:103AE000BEB71296DC93CE931197F382E282909F39
:103AF00090011124C2CF8DEA95E00E944604F8940B
:103B00008BE192E040E050E060E070E00E9414043D
:103B100078948091AB019091AB018823B1F19330FF
:103B2000A1F18091AB01813009F43FC09091AB01CC
:103B3000923009F052CF20911D02A22FB0E0809167
:103B40001E02AA0FBB1FAA0FBB1FA80FB11DFD01AC
:103B5000E158FD4FE081EE23F1F1E43009F486C035
:103B6000E53008F040C0E23009F475C0E33008F4F5
:103B700048C0909303018091AE019091AF0161E044
:103B80000E94520310921F0228CFE0911D02F0E024
:103B9000E557FD4F908180911E029817B1F0109269
:103BA0001F028091AB01813009F680911E028F5F68
:103BB00080931E02E0911D02F0E0E557FD4F9081D9
:103BC000891731F010921F02B1CF10921E02E7CF79
:103BD00010921E02F7CFAD58BD4F8C9180931D02FD
:103BE00010921E02CFCFE63071F1E630A8F4909229
:103BF00003018091AE019091AF0161E00E945203F8
:103C0000C1CFE13009F0BECF8091AC019091AD0100
:103C100061E00E945203B6CFE73069F0E33609F065
:103C2000B1CF20932002AD58BD4F8C9180931D02DF
:103C300020931E02A7CF8091B2019091B30161E061
:103C40000E9452039FCF8091B0019091B10161E039
:103C50000E94520397CF81E0809303018091AE01CF
:103C60009091AF0161E00E9452038CCF8091B4012A
:103C70009091B50161E00E94520384CF8AB18F71A7
:103C80008AB98BB1806E8BB91092B20092E090939A
:103C9000B00087E08093B1008FE48093B3009093ED
:103CA000700060E971E080E090E00E940C0411E097
:103CB000F89481E292E040E050E060E070E00E9421
:103CC000140478948091AA01843009F43BC08530B3
:103CD000E8F4813009F494C0813008F483C0833063
:103CE00039F7F8941093AA011092AB016091AB01DF
:103CF0008BE192E070E00E94E1028091AC01909132
:103D0000AD0162E00E9452037894D2CF863009F46C
:103D100044C0863030F1873059F6F8941093AA01E8
:103D20001092AB016091AB018BE192E070E00E94D8
:103D3000E1028091B4019091B50164E00E945203C8
:103D40007894B6CFF8948091AB01813009F48AC0A1
:103D50008091AB01823009F499C08091AB0183302E
:103D6000C1F1F8948091AB01813009F453C0809186
:103D700004018F5F809304019091040180910A01F6
:103D8000891710F4109304018091B0019091B10152
:103D900064E00E94520378948BCFF8948091AB0139
:103DA000813009F44BC0809105018F5F809305013C
:103DB0009091050180910B01891710F41093050172
:103DC0008091B2019091B30164E00E945203789413
:103DD0006FCF8091AE019091AF0168E00E945203D5
:103DE000789466CFF8941092AB011093AA01609179
:103DF000AB0189E192E070E00E94E102789458CF33
:103E0000F8946091AB018BE192E070E00E94E102D6
:103E100078944ECF8093AA011092AB016091AB01D0
:103E20008BE192E070E00E94E1028091B0019091FC
:103E3000B10162E00E94520378943ACF8093AA01C4
:103E40001092AB016091AB018BE192E070E00E94B7
:103E5000E1028091B2019091B30162E00E945203AD
:103E6000789426CF8093AA011092AB016091AB01A8
:103E70008BE192E070E00E94E1028091AE019091AE
:103E8000AF0162E00E945203789412CF8091AE019C
:103E90009091AF0164E00E945203789409CF1F9281
:103EA0000F920FB60F9211242F933F934F935F936E
:103EB0006F937F938F939F93AF93BF93EF93FF93F2
:103EC000E0912302E13009F467C029B189B149B119
:103ED00030E036952795329522952F7023273F7035
:103EE000232761E070E02627372790E00024880F21
:103EF000991F001C880F991F001C892F902D862761
:103F00009727822B817090E0552747FD509540956B
:103F100050954427550F441F5527842B952B20E09F
:103F200030E0EE2311F421E030E082239323892B4B
:103F300039F580912602863080F01092260281E0C9
:103F4000809323024D9922C08093AB016091AB0115
:103F500081E292E070E00E94E1020E942604FF915B
:103F6000EF91BF91AF919F918F917F916F915F91F1
:103F70004F913F912F910F900FBE0F901F9018956A
:103F8000809126028F5F80932602D5CF4E9B19C069
:103F90004F99DCCF83E0D8CF809124029091250205
:103FA0008832910530F40196909325028093240283
:103FB0008CCF109225021092240210922302E0E08E
:103FC00084CF82E08093AB01C1CF1F920F920FB6D6
:103FD0000F9211242F933F934F935F936F937F938F
:103FE0008F939F93AF93BF93EF93FF93809127029B
:103FF00090E0019687709070809327028370907094
:10400000892BC9F58091E30190E001968170907051
:104010008093E301E091E301F0E0809184009091CE
:104020008500EE0FFF1FE257FD4F918380831092B2
:104030008500109284006091F8017091F9018091DF
:10404000FA019091FB012091C6013091C701409186
:10405000C8015091C9010E94B02B6093F801709380
:10406000F9018093FA019093FB0181EE91E065E5FF
:1040700070E00E94E1020E942604FF91EF91BF913F
:10408000AF919F918F917F916F915F914F913F91F0
:104090002F910F900FBE0F901F90189596E0899F5B
:1040A000C00111248A55904024E5629FB00111247B
:1040B000860F971F90935403809353030895809124
:1040C00053039091540384559040909354038093EC
:1040D00053030895982F87B18C6087B94198613058
:1040E00049F14298492F50E027E030E009C0439A57
:1040F000449A4498215030408FEF2F3F380791F079
:10410000CA01022E02C0959587950A94E2F780FDB8
:10411000EECF4398449A4498215030408FEF2F3F80
:10412000380771F7419A87B1837F87B988B18C606E
:1041300088B908958091510381119095429AD2CF08
:104140000F931F938C0164E570E00E94552F8068E7
:1041500060E00E946A20C80164E570E00E94552F6B
:10416000862F806460E00E946A201F910F9108955D
:10417000CF93DF93109254031092530380E090E0AA
:104180000E94A020C0E0D0E080E061E00E946A20B0
:10419000219681E0C83FD807B9F7DF91CF91089504
:1041A0001F93182F81E260E00E946A20812F8068AF
:1041B00060E00E946A2080E260E00E946A201F9115
:1041C00008950F931F93982F062F603318F5862FAD
:1041D00086958695869515E0181B10649150892F59
:1041E000806860E00E946A20812F60E00E946A205F
:1041F000077027E030E0201B310981E090E002C029
:10420000880F991F2A95E2F761E00E946A201F91AA
:104210000F91089510E4E2CF0F931F93CF93DF9394
:104220000091530310915403C8010E94A020C0EADA
:10423000D3E0CE010E94F73261E00E946A2021960D
:1042400083E0CC3DD807A9F70455104010935403E0
:1042500000935303C8010E94A020C4E6D3E0CE011E
:104260000E94F73261E00E946A20219683E0C03A02
:10427000D807A9F7C80184559040909354038093C0
:1042800053030E94A020C8E2D3E0CE010E94F7327F
:1042900061E00E946A20219683E0C436D807A9F71E
:1042A000DF91CF911F910F910895AF92BF92DF924E
:1042B000EF92FF920F931F93CF93DF93D82EE0904E
:1042C0005303F0905403C7010E94A0208091520331
:1042D000882341F52D2D30E0C901880F991F880FE3
:1042E000991F820F931FEC01CF59D0408C010A59BE
:1042F0001040CE010E94F732880F61E00E946A20D0
:104300002196C017D107A9F780E061E00E946A20DA
:1043100086E090E0E80EF91EF0925403E092530319
:1043200080915203813051F0DF91CF911F910F9115
:10433000FF90EF90DF90BF90AF9008958BE0D89EF4
:1043400050011124850101511040C8ECD1E00DC08D
:10435000C8010E94F73261E00E946A2021960F5F37
:104360001F4F81E0C33DD80729F090E2D91681F7AD
:10437000CE01EFCFE0905303F0905403C701845572
:10438000904090935403809353030E94A020850192
:1043900001561F4FC8E7D2E00DC0C8010E94F73296
:1043A00061E00E946A2021960F5F1F4F82E0C338B0
:1043B000D80729F090E2D91681F7CE01EFCF80E03F
:1043C00061E00E946A208CE090E0E80EF91EF09215
:1043D0005403E0925303A8CF0E94552180E090E05F
:1043E0000895409A87B18F6187B96CE370E080E0EF
:1043F00090E00E940C0440986CE370E080E090E054
:104400000E940C04409A419A81E260E00E946A2076
:1044100088EC60E00E946A2086E060E00E946A20EA
:1044200083E160E00E946A2080E260E00E946A20EE
:104430008CE060E00E946A200E94B820089590936A
:10444000C5008093C40088E18093C10086E080931A
:10445000C2000895982F8091C00085FFFCCF9093F3
:10446000C60008958091C00087FFFCCF8091C600F0
:104470000895FC019081992351F08091C00085FF3F
:10448000FCCF9093C600319690819923B1F708959F
:104490008091C000881F8827881F0895982F8091D9
:1044A000C00085FFFCCF9093C60080E090E00895A7
:1044B000DC018617970788F48C91853571F4FD012E
:1044C00003C08081853521F43196E617F707C8F3DC
:1044D0009F012A1B3B0BC901089520E030E0FBCF70
:1044E0008091130190911401892B39F0E1E1F1E001
:1044F0003A9682819381892BD9F70895809113018F
:1045000090911401892B39F0E1E1F1E03A96828132
:104510009381892BD9F70895FC018617970728F412
:1045200085E58193E617F707E0F30895FC01F89419
:104530008081789408959AE0899FF0011124EF5EBC
:10454000FE4F62817381808191810E94582208957B
:104550008091800890918108009729F06FEF78E0B2
:104560000E945822089580919301909194016FEFD9
:1045700078E00E9458220895DF93CF9300D0CDB702
:10458000DEB781E191E09A83898360911301709194
:1045900014016115710579F0FC01808191810E94FF
:1045A0008C22E981FA813A96FA83E98362817381E8
:1045B0006115710591F780918008909181080097AD
:1045C00051F0BE016F5070400E948C220F900F90EE
:1045D000CF91DF9108958091930190919401F1CF53
:1045E000611571058105910509F40895FFCF2091AA
:1045F000590330915A0340915B0350915C03261795
:1046000037074807590709F40895FFCF6F927F9243
:104610008F929F92AF92BF92CF92DF92EF92FF92D2
:104620000F931F93CF93DF93182FC0911301D09155
:104630001401209709F476C031E1E32E31E0F32E26
:1046400001E023E8A22E21E0B22E93E2692E93E04E
:10465000792E81E3882E83E0982E10C0123009F461
:1046600040C02AE030E0E20EF31E0F5FD701129641
:10467000CD91DC911397209709F455C0113071F753
:10468000073078F781E0602F0E944E20D701CD904F
:10469000DC90C601BE010E945822EDB7FEB73A97E2
:1046A0000FB6F894FEBF0FBEEDBF3196ADB7BEB7E3
:1046B0001296BC92AE9211979382828204831582E5
:1046C00097838683CC19DD09D187C0870E94123277
:1046D000EDB7FEB73A960FB6F894FEBF0FBEEDBF2A
:1046E000C0CF073008F4BDCF602F665081E00E9434
:1046F0004E20D701CD90DC90C601BE010E94582209
:10470000EDB7FEB73A970FB6F894FEBF0FBEEDBFF8
:104710003196ADB7BEB71296BC92AE921197738226
:104720006282CCCF01E0113009F452C0123079F02E
:10473000DF91CF911F910F91FF90EF90DF90CF907D
:10474000BF90AF909F908F907F906F9008950730AB
:1047500078F3065081E0602F0E944E2080918008FF
:1047600090918108009709F458C06FEF78E00E949B
:1047700058222DB73EB7285030400FB6F8943EBFB0
:104780000FBE2DBFEDB7FEB7319623E831E0ADB7D0
:10479000BEB712963C932E93119729E033E03383F2
:1047A00022839583848380E099E020919301309166
:1047B0009401821B930B978386830E941232EDB77C
:1047C000FEB738960FB6F894FEBF0FBEEDBFB0CF60
:1047D000073008F0ADCF81E0602F0E944E2080911D
:1047E0008008909181080097E9F06FEF78E00E94CF
:1047F0005822EDB7FEB738970FB6F894FEBF0FBE3C
:10480000EDBF319623E831E0ADB7BEB712963C93C9
:104810002E93119726E133E0C2CF809193019091BE
:104820009401A3CF8091930190919401DECFA1E1F7
:10483000B0E0EDE1F4E20C948B2F3C017F876E87B2
:104840006A01FC0117821682838181FD03C06FEF2C
:104850007FEF6FC39E012F5F3F4F398B288BF30192
:104860002381EE85FF8523FD859123FF8191FF87BD
:10487000EE87882309F45AC3853251F4EE85FF850B
:1048800023FD859123FF8191FF87EE87853229F4EF
:1048900090E0B3010E942F32E2CF982F10E08824DD
:1048A00099241032B0F49B3269F09C3228F4903293
:1048B00051F0933271F40BC09D3239F0903349F4CA
:1048C000116028C01260146025C0186023C01061F8
:1048D00021C017FD2AC0892F80538A3078F416FF33
:1048E00006C0FAE09F9E902C1124980E13C03AE067
:1048F000839E802C1124880E10620CC09E3221F4FD
:1049000016FD14C3106406C09C3611F4106802C072
:10491000983659F4EE85FF8523FD959123FF9191FB
:10492000FF87EE87992309F0BCCF892F8554833008
:1049300020F4812F8061905E07C0892F85568330D7
:1049400008F09FC1812F8F7E86FD02C076E0972EF2
:104950006FE3F62EF822953619F4F0E4FF2A07C02B
:10496000963619F420E8F22A02C091109A94F7FEC4
:104970000AC03BE3391518F45CE3B52E02C0B92C2C
:10498000B39427E009C047E0491520F4BB2447E071
:10499000942EF7CF292DBB24C60104969D878C87C2
:1049A000F6016081718182819381AE014F5F5F4F1B
:1049B0000B2D0E94C7306C010981202E332400FF8B
:1049C00004C003FD02C01DE209C0F1FE02C01BE2EB
:1049D00005C0F2FC02C010E001C010E2C1018C7001
:1049E0009070892BB9F1112311F483E001C084E0A8
:1049F000881510F088240AC0881AF3FC07C080E2EA
:104A000090E0B3010E942F328A94C9F7112329F054
:104A1000812F90E0B3010E942F3223FE03C00FE3E9
:104A200013E00EC003E413E00BC0E114F10409F03D
:104A3000805290E0B3010E942F320F5F1F4F05C0DC
:104A4000EF2CFF24F0E1EF22FF24F801849188236A
:104A500061F714C1F7FE12C0BC0C24FE04C08A81A9
:104A6000813309F4BA941B141CF0BB24B3942DC0F9
:104A7000F8E0FB1550F538E0B32E27C0F6FC25C052
:104A8000892D90E08C159D054CF02CEFC2162FEF70
:104A9000D20624F030E8F32A01C09A94992049F014
:104AA000E2E0F0E0EC0FFD1FE90DF11D80818033A5
:104AB000A1F3F7FE0AC0B92CB394892D90E0C81673
:104AC000D90614F0992401C09C18F7FC03C025E016
:104AD00030E009C01C141D041CF021E030E003C0CC
:104AE00096012F5F3F4F112311F02F5F3F4F992009
:104AF00029F0892D90E00196280F391F882D90E02C
:104B00002817390714F0882401C0821A4F2C552425
:104B1000C20189709070892B39F008C080E290E062
:104B2000B3010E942F328A948820C1F7112329F003
:104B3000812F90E0B3010E942F3243FE07C008C0CE
:104B400080E390E0B3010E942F328A948820C1F75D
:104B5000F7FE46C08601D7FE02C000E010E07601F5
:104B60000894E11CF11CE01AF10A41E050E04C0FFE
:104B70005D1FE40EF51E26014B185108892D90E0AB
:104B8000AA24BB24A81AB90A5FEF0F3F150729F41E
:104B90008EE290E0B3010E942F32C016D10634F0AD
:104BA000401651061CF4F701808101C080E30150DA
:104BB00010400894E11CF11C0A151B052CF090E034
:104BC000B3010E942F32E0CF0C151D0539F49A81F4
:104BD000963318F4953311F424FE81E390E04BC032
:104BE0008A81813309F00F7E90E0B3010E942F3259
:104BF0009920A1F08EE290E0B3010E942F3212E0E2
:104C0000E1E0F0E0EC0FFD1FE10FF11D1F5F80817F
:104C100090E0B3010E942F329A9491F744FC03C0B4
:104C200085E690E002C085E490E0B3010E942F3257
:104C3000D7FC05C0C114D10441F404FF06C0D094D0
:104C4000C194D108D3948DE201C08BE290E0B3010E
:104C50000E942F3280E305C08F5F26EF3FEFC20E28
:104C6000D31E3AE0C316D104BCF790E0B3010E9412
:104C70002F32C601C096B3010E942F32CC84DD844E
:104C800052C1933631F0933799F0933509F059C0FA
:104C900023C0F601808189835E010894A11CB11CA8
:104CA00022E030E0C20ED31E21E0E22EF12C12C031
:104CB000F601A080B18016FD03C06FEF7FEF02C048
:104CC000692D70E022E030E0C20ED31EC5010E94C3
:104CD000C5317C011F7713C0F601A080B18016FD9D
:104CE00003C06FEF7FEF02C0692D70E022E030E07B
:104CF000C20ED31EC5010E94BA317C01106813FF99
:104D000007C01BC080E290E0B3010E942F328A945A
:104D1000882D90E0E816F906A8F30FC0F50117FDFD
:104D2000859117FF81915F0190E0B3010E942F32BE
:104D300081108A940894E108F108E114F10471F7F4
:104D4000F2C0943611F0993689F517FF08C0F601C4
:104D5000208131814281538184E090E00AC0F601D4
:104D6000808191819C01442737FD4095542F82E03A
:104D700090E0C80ED91E9FE6F92EF12257FF09C018
:104D800050954095309521953F4F4F4F5F4F90E89C
:104D9000F92ACA01B901AE014F5F5F4F2AE030E046
:104DA0000E949932E82EE889EE1A41C0953721F425
:104DB0001F7E2AE030E01CC0197F9F3661F09037DB
:104DC00020F4983509F0B2C00FC0903739F0983709
:104DD00009F0ACC004C028E030E00AC0106114FD46
:104DE000146020E130E004C014FD166020E132E0E0
:104DF00017FF08C0F601608171818281938144E0D0
:104E000050E008C0F60180819181BC0180E090E013
:104E100042E050E0C40ED51EAE014F5F5F4F0E94CE
:104E20009932E82E5889E51A8FE7F82EF122F6FE1E
:104E30000BC08EEFF822E91438F4F4FE07C0F2FC40
:104E400005C09FEEF92202C01E2D01C0192DF4FEEF
:104E50000DC0FE01EE0DF11D8081803319F4E9EEE5
:104E6000FE2208C01F5FF2FE05C003C08F2D8678AA
:104E700009F01F5F0F2DF3FC14C0F0FE0FC01815D2
:104E800010F09E2C0BC09E2C980C911A182D06C069
:104E900080E290E0B3010E942F321F5F1815C0F32B
:104EA00004C0181510F4811A01C0882404FF0FC033
:104EB00080E390E0B3010E942F3202FF1DC001FD8C
:104EC00003C088E790E00EC088E590E00BC0802F1B
:104ED000867891F001FF02C08BE201C080E2F7FC0E
:104EE0008DE290E0B3010E942F3206C080E390E093
:104EF000B3010E942F329A94E914C0F3EA94E1E0DE
:104F0000F0E0EC0FFD1FEE0DF11D808190E0B3018C
:104F10000E942F32EE2091F706C080E290E0B301AC
:104F20000E942F328A948820C1F799CCF3016681C0
:104F30007781CB016196E2E10C94A72FFC0120FD63
:104F400008C023FD05C022FF02C073836283518322
:104F500040830895EF92FF920F931F9344FF02C086
:104F600033E011C046FF02C034E00DC0DB01FC019C
:104F7000AA0FBB1FEE1FFF1F1094D1F76A0F7B1FF4
:104F80008E1F9F1F31E0660F771F881F991F3150BA
:104F9000D1F77B018C01E20EF11C011D111DA8014E
:104FA0009701B701CA011F910F91FF90EF900895EB
:104FB0000F931F93CF93DF938C01C8010E94D031D0
:104FC000EC0197FD08C00E949F31892BB1F7CE01FB
:104FD000B8010E947F32CE01DF91CF911F910F91D6
:104FE00008958F929F92AF92BF92DF92EF92FF92BD
:104FF0000F931F93CF93DF935C01EB014A01122FB4
:105000000E94D031AC018B3219F08D3251F410680E
:10501000219709F46DC0C5010E94D031AC0197FD04
:1050200067C06DEFD62ED1228D2D807301F54033F0
:10503000F1F4219709F447C0C5010E94D031AC01B9
:1050400097FD41C082E0D82A483711F0483559F41D
:1050500080E4D82A2197B9F1C5010E94D031AC0172
:1050600099232CF430C0D6FC02C080E1D82AEE246B
:10507000FF248701242F2053283088F0D4FC09C056
:105080002A3068F0D6FE05C02F7D822F81518630F0
:1050900028F0CA01B5010E947F3212C02750C80112
:1050A000B7014D2D0E94AA277B018C0182E0D82AEE
:1050B000219761F0C5010E94D031AC0197FFDACF92
:1050C000D1FC04C015C0EE24FF248701D7FE08C020
:1050D00010950095F094E094E11CF11C011D111D48
:1050E000C401B801A7012D2D0E949E2781E001C0B7
:1050F00080E0DF91CF911F910F91FF90EF90DF90B3
:10510000BF90AF909F908F900895A0E2B0E0EBE841
:10511000F8E20C948F2F5C016B018A017901FE018A
:10512000319680E2DF011D928A95E9F770E030E068
:1051300060E040E050E03F01A1E0B0E0F501838194
:10514000F70183FD259183FF21917F01222309F43B
:1051500081C02E3519F44115510569F1872F90E072
:105160008417950744F42D3551F12D3221F4332362
:1051700029F431E021C0332309F4622F322F832F29
:10518000869586958695F301E80FF11D832F87702C
:105190004D0102C0880C991C8A95E2F720812829CC
:1051A0002083361711F430E007C0361710F43F5F44
:1051B000E6CF3150E4CF71E04F5F5F4FBFCF332375
:1051C00019F08E8180628E83772359F0FE0131962B
:1051D0009E012F5D3F4F808180958193E217F307F9
:1051E000D1F7992493943E010894611C711CC50168
:1051F0000E94D031AC0197FD25C086958695869595
:10520000F301E80FF11D808190E09A012770307062
:1052100002C0959587952A95E2F780FD05C0CA01E1
:10522000B5010E947F320EC00115110519F0D80199
:105230004D938D010894C108D1089924C114D1045B
:10524000B1F602C0992031F40115110529F0F801D9
:10525000108202C0EE24FF24C701A096EEE00C9459
:10526000AB2F2F923F925F926F927F928F929F927D
:10527000AF92BF92CF92DF92EF92FF920F931F9364
:10528000CF93DF933C017B011A010E94D031EC01E6
:105290008B3239F08D3211F0552411C0B0E85B2EFD
:1052A00001C055240894E108F108E114F10409F45F
:1052B00018C1C3010E94D031EC0197FD12C1CE018B
:1052C0000E94A7318936910521F08E36910599F516
:1052D0001DC00CE513E01CC00894E108F108E114BE
:1052E000F10471F0C3010E94D031EC0197FD08C0B8
:1052F0000E94A731D81661F0CE01B3010E947F321F
:1053000023E00F35120709F0ECC008C009E513E0EF
:10531000F8010F5F1F4FD490DD20F1F60C551340BC
:1053200029F080E090E0A0E8BFE7CFC080E090E007
:10533000A0ECBFE7CAC0CC24DD2488249924540102
:10534000AE014053242F4A3038F552E0552A852DBE
:1053500090E0AC014870507052FE06C0452B11F52C
:105360000894C11CD11C1EC0452B19F00894C1081B
:10537000D108C501B40140E20E94AA274B015C019B
:1053800088E9881689E9980689E9A80689E1B806B6
:1053900048F094E0592A06C04E3F81F453FC0EC0F9
:1053A000E8E05E2A0894E108F108E114F10431F024
:1053B000C3010E94D031EC0197FFC2CF51FE91C0D2
:1053C000C53619F0C53409F046C00894E108F10863
:1053D000E114F10409F485C0C3010E94D031EC014D
:1053E00097FD7FC08B3221F08D3269F4F0E15F2AA6
:1053F0000894E108F108E114F10409F472C0C30152
:105400000E94D031EC01CE01C0970A9708F069C024
:1054100000E010E0B801882777FD8095982FAE0155
:105420004053242F40E20E94AA278B010894E108F0
:10543000F108E114F10439F0C3010E94D031EC010C
:10544000C0970A9738F3B80154FE03C07095619570
:105450007F4FC60ED71EEF2831F0D7FD04C0CE0116
:10546000B3010E947F32C501B4010E94AC2CD7FE6B
:105470000DC0A8E7EA2EA3E0FA2ED094C194D1087B
:10548000D394C0E2D0E000E010E00EC0F0E9EF2ECF
:10549000F3E0FF2EF6CFF701259135914591549118
:1054A0000E94622DCC1ADD0ACC16DD06A0F7D69537
:1054B000C7950F5F1F4F0630110529F0ECEFFFEF86
:1054C000EE0EFF1EF1CFDC01CB0157FCB0582114CA
:1054D000310429F0F10180839183A283B38381E0B9
:1054E00001C080E0DF91CF911F910F91FF90EF906D
:1054F000DF90CF90BF90AF909F908F907F906F90F4
:105500005F903F902F900895A0E0B0E0EAE8FAE2C3
:105510000C948E2F4C015B013A01FC01178216821C
:10552000552404C1812F90E00E949F31892B21F0E6
:10553000C4010E94D827FAC0153249F4F501F3FCE2
:105540006591F3FE61915F01653269F415E2C40172
:105550000E94D03197FDF6C0181709F4E7C0B401D6
:105560000E947F32F4C06A3219F0162F00E006C0A4
:10557000F3FC1591F3FE11915F0101E0CC24DD24D1
:105580000EC00260B60180E090E040E20E94AA27CF
:105590006B01F501F3FC1591F3FE11915F01212FD1
:1055A00020532A3070F301FD04C0CC24CA94DC2CB3
:1055B00004C0C114D10409F4CAC0183621F01C3645
:1055C00099F4F5010BC0F501F3FC6591F3FE6191CF
:1055D000683619F05F01162F07C008600460F3FCFD
:1055E0001591F3FE11915F01112309F4B0C087E416
:1055F00093E0612F70E00E94AF31892B09F4A7C0BE
:10560000802F00FF03C0EE24FF2407C0F301E080D9
:10561000F18022E030E0620E731E1E3651F4F40178
:105620004681578160E070E0C701202F0E949E27CD
:105630007DC01336B9F481FD03C081E0C82ED12CA2
:10564000C4010E94D03197FD7DC0E114F10419F02E
:10565000F70181937F010894C108D108C114D104D6
:1056600079F762C01B3559F4C401B601A701950151
:105670000E9485285C01009709F056C050C0C40103
:105680000E94D82797FD5EC01F36D1F1103738F43D
:105690001436A1F11936A9F11835D1F52DC01337FB
:1056A00051F0143718F4103799F526C0153731F139
:1056B000183771F521C0C4010E94D031EC0197FD6B
:1056C00015C00E949F31892B29F0CE01B4010E94A0
:1056D0007F320CC0E114F10419F0F701C1937F018E
:1056E0000894C108D108C114D10429F7E114F104C8
:1056F000D9F0F701108218C0006403C0006201C035
:105700000061C401B601A701202F0E94F12705C046
:10571000C401B601A7010E943129882329F4F401AC
:105720008381807379F413C000FF5394F401F380F4
:10573000F501F3FC1591F3FE11915F01112309F0BE
:10574000F1CE05C0552019F42FEF3FEF02C0252DF3
:1057500030E0C901CDB7DEB7EFE00C94AA2F505866
:10576000BB27AA270ED070C161D130F066D120F0DE
:1057700031F49F3F11F41EF456C10EF4E095E7FB9F
:105780004CC1E92F72D180F3BA17620773078407FF
:10579000950718F071F49EF58AC10EF4E0950B2E72
:1057A000BA2FA02D0B01B90190010C01CA01A00173
:1057B0001124FF27591B99F0593F50F4503E68F1CE
:1057C0001A16F040A22F232F342F4427585FF3CF0F
:1057D000469537952795A795F0405395C9F77EF4E0
:1057E0001F16BA0B620B730B840BBAF09150A1F029
:1057F000FF0FBB1F661F771F881FC2F70EC0BA0FAF
:10580000621F731F841F48F4879577956795B79536
:10581000F7959E3F08F0B3CF9395880F08F099272E
:10582000EE0F979587950895D4D008F481E00895F8
:105830000CD00AC102D140F0F9D030F021F45F3F22
:1058400019F0EBC0511134C1EEC00FD198F3992378
:10585000C9F35523B1F3951B550BBB27AA27621734
:105860007307840738F09F5F5F4F220F331F441F79
:10587000AA1FA9F333D00E2E3AF0E0E830D09150B1
:105880005040E695001CCAF729D0FE2F27D0660F9E
:10589000771F881FBB1F261737074807AB07B0E8DD
:1058A00009F0BB0B802DBF01FF2793585F4F2AF0F3
:1058B0009E3F510568F0B1C0FBC05F3FECF3983EDE
:1058C000DCF3869577956795B795F7959F5FC9F750
:1058D000880F911D9695879597F90895E1E0660FD9
:1058E000771F881FBB1F621773078407BA0720F052
:1058F000621B730B840BBA0BEE1F88F7E0950895BB
:10590000BCD088F09F5790F0B92F9927B751A0F0DD
:10591000D1F0660F771F881F991F1AF0BA95C9F743
:1059200012C0B13081F0C3D0B1E00895C0C0672F7C
:10593000782F8827B85F39F0B93FCCF386957795F3
:105940006795B395D9F73EF49095809570956195DC
:105950007F4F8F4F9F4F0895E89409C097FB3EF407
:1059600090958095709561957F4F8F4F9F4F9923AC
:10597000A9F0F92F96E9BB279395F695879577952A
:105980006795B795F111F8CFFAF4BB0F11F460FFEA
:105990001BC06F5F7F4F8F4F9F4F16C0882311F042
:1059A00096E911C0772321F09EE8872F762F05C056
:1059B000662371F096E8862F70E060E02AF09A95F1
:1059C000660F771F881FDAF7880F9695879597F9E6
:1059D0000895990F0008550FAA0BE0E8FEEF161680
:1059E0001706E807F907C0F012161306E407F507D3
:1059F00098F0621B730B840B950B39F40A2661F047
:105A0000232B242B252B21F408950A2609F4A140E9
:105A1000A6958FEF811D811D089597F99F6780E8F6
:105A200070E060E008959FEF80EC089500240A94F0
:105A30001616170618060906089500240A94121669
:105A40001306140605060895092E0394000C11F49C
:105A5000882352F0BB0F40F4BF2B11F460FF04C049
:105A60006F5F7F4F8F4F9F4F089557FD9058440FA2
:105A7000551F59F05F3F71F04795880F97FB991FAD
:105A800061F09F3F79F0879508951216130614066A
:105A9000551FF2CF4695F1DF08C0161617061806F7
:105AA000991FF1CF86957105610508940895E894D2
:105AB000BB2766277727CB0197F908958ADF08F47B
:105AC0008FEF08950BD0C0CFB1DF28F0B6DF18F00C
:105AD000952309F0A2CFA7CF1124EACFC6DFA0F308
