:100000000C946D020C94FC1B0C948A020C948A02D2
:100010000C948A020C948A020C948A020C94571C49
:100020000C948A020C948A020C948A020C948A0220
:100030000C948A020C948A020C945F050C948A0238
:100040000C948A020C948A020C948A020C948A0200
:100050000C948A020C948A020C948A020C948A02F0
:100060000C948A020C948A0234072A07D4061507D6
:10007000E906F9065707420707634236B79BD8A738
:100080001A39685618AEBAAB558C1D3CB7CC5763BD
:10009000BD6DEDFD753EF6177231BF000000803F6B
:1000A00008000000BE922449123EABAAAA2ABECD87
:1000B000CCCC4C3E00000080BEABAAAAAA3E0000F9
:1000C0000000BF000000803F0000000000084178F1
:1000D000D3BB4387D1133D190E3CC3BD4282AD2B28
:1000E0003E68EC8276BED98FE1A93E4C80EFFFBE20
:1000F00001C4FF7F3F00000000006E616E00696E6A
:10010000660000407A10F35A00A0724E18090010E1
:10011000A5D4E80000E87648170000E40B5402007C
:1001200000CA9A3B000000E1F505000080969800A7
:10013000000040420F000000A086010000001027D0
:1001400000000000E8030000000064000000000060
:100150000A00000000000100000000002C76D88892
:10016000DC674F0823DFC1DFAE59E1B1B796E5E3A5
:10017000E453C63AE651997696E8E6C28426EB89BE
:100180008C9B62ED407C6FFCEFBC9C9F40F2BAA55B
:100190006FA5F490055A2AF75C936B6CF9676DC1F3
:1001A0001BFCE0E40D47FEF520E6B500D0ED902EF7
:1001B0000300943577050080841E080000204E0A55
:1001C000000000C80C333333330F986E1283114193
:1001D000EF8D2114893BE65516CFFEE6DB18D1845E
:1001E0004B381BF77C1D901DA4BBE4242032847285
:1001F0005E228100C9F124ECA1E53D272532643A55
:1002000025303264002D2D3A2D2D0025312E3066FB
:10021000205720002D2D2D20570025322E3066200E
:1002200053504D20002D2D2053504D005323202599
:10023000642000202564206B6720004369616F21E2
:100240000D0A004669726D776172652076302E3630
:10025000340025312E30662057202020002D2D2DF2
:10026000205700507772206573740025312E306658
:100270002057202020002D2D2D2057005077720070
:1002800025312E3366206B676D32004A0025312EF2
:100290003466002D2D2D2D2D2D004B5F44206573D0
:1002A000740025312E3466004B5F440025312E3218
:1002B00066207320202020002D2D2D2D207300730B
:1002C0002F5374720025312E3266206D202020209D
:1002D000002D2D2D2D206D006D2F537472002531B2
:1002E0002E3366206D006D2F52657600206B6361A2
:1002F0006C73200025332E3066002532643A253099
:100300003264002D2D3A2D2D002020572020200072
:1003100025332E3066002D2D2D002053504D2020EA
:100320000025332E3066002D2D2D002532643A2510
:10033000303264002532643A253032640025332E91
:10034000306600206D200025342E30660025326492
:100350003A2530326400202A2000202020002D2D54
:100360003A2D2D00206D20002D2D2D2D002D2D3A04
:100370002D2D002D2D2D002D2D3A2D2D00253264F3
:100380003A25303264002D2D3A2D2D0025312E30A6
:10039000662057202020002D2D2D20570025312E9E
:1003A0003266202000532320256420202020006175
:1003B00076672025322E306600617667202D2D006D
:1003C00053504D2025322E306620200053504D20B2
:1003D0002D2D20200025312E3066206D657465722C
:1003E0007320202020002532643A2530326400201A
:1003F00053617261682773204572676F2000202562
:1004000073003E2573002573002F2F00486561702F
:100410000044617461004275726E00496E666F003F
:100420002F2F004678005061636500442F54005020
:10043000726F6700496E666F0050726F6700526F8F
:100440007721004572676F002053617261682773DE
:10045000204572676F2000486561703A2025642F3F
:1004600025642000486561703A2025642F256420AA
:100470000054686425643A2025642F2564200054C4
:10048000686425643A2025642F256420006364692C
:100490006E6F70737578585B656667454647006197
:1004A0006E006E66696E69747900CDCCCC3D0AD75A
:1004B000233C17B7D13877CC2B329595E6241FB162
:1004C0004F0A000020410000C84200401C4620BCEA
:1004D000BE4CCA1B0E5AAEC59D7411241FBECFEF71
:1004E000D8E0DEBFCDBF11E0A0E0B1E0E2EEFFE575
:1004F00002C005900D92A03BB107D9F728E0A0EB10
:10050000B1E001C01D92AA3AB207E1F70E9499201A
:100510000C94EF2F0C9400002091C5023091C6027C
:10052000E2ECF2E08217930731F03A9623813481AE
:1005300028173907D1F71482138212821582168286
:10054000178210868091BC029091BD02E817F907CE
:1005500028F4F093BD02E093BC0208950895CF9370
:10056000DF9387E595E0492F982FACE3B1E022ECCB
:1005700032E0F9011296CD91DC9113976597D18302
:10058000C08316968C9116978A8BC081D18117965D
:100590008C911797898BC081D18118968C9118976F
:1005A000888BC081D18119968C9119978F87C081D2
:1005B000D1814B8BC081D1819C8B3A961A9683E076
:1005C000E632F807B9F63093BD022093BC023093AF
:1005D000BB022093BA0266E273E082EC92E00E94D2
:1005E00028057894DF91CF910895F894FFCF8091FA
:1005F000BE029091BF02A091C002B091C1020196CB
:10060000A11DB11D8093BE029093BF02A093C002B2
:10061000B093C102E2ECF2E02FEF3FEF85819681CB
:10062000A781B085892B8A2B8B2B31F1858196810F
:10063000A781B0850197A109B10985839683A78316
:10064000B087892B8A2B8B2BB9F482818330D1F030
:100650008230F1F03483238312821582168217824E
:1006600010868091BC029091BD02E817F90720F432
:10067000F093BD02E093BC023A9683E0E632F807BD
:1006800069F60895A381B4818C918F5F8C93E2CF3A
:10069000A381B4811D921C92DDCF089578940895B2
:1006A00080E008950895FC017483638312821582AB
:1006B0001682178210862091BC023091BD028217EB
:1006C000930720F49093BD028093BC02089560913B
:1006D000BA027091BB028091BC029091BD02681772
:1006E000790731F09093BB028093BA020C942805ED
:1006F0000895A091BA02B091BB0212968C93129702
:1007000015964D935D936D937C9318978091C402D9
:10071000E2ECF2E0882321F03A9682818111FCCF4D
:10072000F093BD02E093BC02F093BB02E093BA02E7
:10073000BD01CF010E942805E091BA02F091BB02F1
:10074000838194810895EAEBF2E020813181DC011C
:100750002D933C930190F081E02D9483838382E07C
:100760000C947903DC01ED91FC9111973097A1F085
:100770001D921C92748363831282158216821782E3
:1007800010868091BC029091BD02E817F90720F411
:10079000F093BD02E093BC020895AB01BC01F89454
:1007A00081E00E947903789408950F931F93F89441
:1007B0000091BE021091BF022091C0023091C1028F
:1007C000AB01BC01401B510B620B730B81E00E941B
:1007D000790378941F910F910895FC019081191667
:1007E0002CF49150908380E090E008954F3F8FEF7C
:1007F00058076807780769F091509083A091BA0272
:10080000B091BB021496FC93EE93139783E00C9483
:1008100079038FEF9FEF0895F8940E94ED03789489
:100820000895FC01F89490819F5F908319169CF4C1
:100830006091BA027091BB028091BC029091BD029E
:100840006817790731F09093BB028093BA020E9437
:10085000280578940895CF010E948C02E9CFFC010D
:1008600090819F5F908319160CF40895CF010C942A
:100870008C02CF93DF93DC01F8944C916C938091C0
:10088000BC029091BD0247FF21C0BC01E2ECF2E046
:10089000CEEFDFEF01C03A9623813481A217B30770
:1008A000D1F74F5FD483C3831282158216821782D9
:1008B0001086E617F707D8F43E2F2F2FCF013A9670
:1008C00041111AC03093BC022093BD026091BA025C
:1008D0007091BB026817790731F09093BB02809347
:1008E000BA020E9428057894DF91CF910895382F9D
:1008F000292F3A96442331F3BC01832F922FCCCF7A
:10090000FC014081608347FF23C06091BC0270916D
:10091000BD02E2ECF2E0AEEFBFEF01C03A962381F8
:10092000348182179307D1F74F5FB483A383128278
:100930001582168217821086E617F70708F4BF01A2
:100940003A964111ECCF7093BD026093BC020895BA
:100950000895FC01F8948185682B61878281843039
:1009600099F08091BC029091BD026091BA027091A1
:10097000BB026817790731F09093BB028093BA02EB
:100980000E942805789408958381682351F3148286
:100990001382128215821682178210868091BC0201
:1009A0009091BD02E817F90700F7F093BD02E093BC
:1009B000BC02CF01DACFFC018185682B618782817F
:1009C000843009F0089583816823E1F3148213824F
:1009D000128215821682178210868091BC02909135
:1009E000BD02E817F90770F7F093BD02E093BC026F
:1009F00008951F93CF93DF93C091BA02D091BB02A9
:100A00002985922F982381F44F3F9FEF590769075B
:100A1000790799F0182F8B8384E00E94790397FD62
:100A20000CC02985912F9223892F8095282329870F
:100A3000892FDF91CF911F910895789480E0DF9105
:100A4000CF911F910895F8940E94F9047894089525
:100A50002F923F924F925F926F927F928F929F92CE
:100A6000AF92BF92CF92DF92EF92FF920F931F93BC
:100A7000CF93DF93FB010DB600820EB60182FC011D
:100A800000800DBE01800EBEDF91CF911F910F91AE
:100A9000FF90EF90DF90CF90BF90AF909F908F909E
:100AA0007F906F905F904F903F902F900895789433
:100AB000C201F101099580E090E00C94F5021F92CB
:100AC0000F920FB60F9211242F933F934F935F9382
:100AD0006F937F938F939F93AF93BF93EF93FF9306
:100AE0000E94F7020E946703FF91EF91BF91AF91BF
:100AF0009F918F917F916F915F914F913F912F9136
:100B00000F900FBE0F901F90189582E084BD93E068
:100B100095BD9DE397BD16BC85BB80936E0008957F
:100B20008091BE029091BF02A091C002B091C1021B
:100B30008093B4019093B501A093B601B093B7012F
:100B400008958091BE029091BF02A091C002B09121
:100B5000C1028093B4019093B501A093B601B09304
:100B6000B70180EAC82E8FE0D82EE12CF12CF89442
:100B70008091BE029091BF02A091C002B091C102CB
:100B80004091B4015091B5016091B6017091B701E7
:100B90008C019D01041B150B260B370B0093B00134
:100BA0001093B1012093B2013093B3018093B4014B
:100BB0009093B501A093B601B093B70178942091BA
:100BC000B0013091B1014091B2015091B301C09197
:100BD000B801D091B901A8EEB3E00E94352CA7016D
:100BE00096010E94FE2B2C0F3D1F3093B9012093DC
:100BF000B8018091B8019091B901873E934078F196
:100C00008091BA019091BB01A091BC01B091BD014E
:100C10000196A11DB11D8093BA019093BB01A093D1
:100C2000BC01B093BD011092B9011092B80160915E
:100C3000BA017091BB018091BC019091BD010E94ED
:100C4000412920E030E040E752E40E94A028609370
:100C5000F9037093FA038093FB039093FC0360E520
:100C600070E080E090E00E94CD0381CFF894209165
:100C7000B8013091B901FC01358324834091BA0158
:100C80005091BB016091BC017091BD0140835183C3
:100C900062837383789408958F929F92AF92BF92EC
:100CA000CF92DF92EF92FF920F931F93CF93DF9338
:100CB000EC01F894E091B801F091B9014091BA01CA
:100CC0005091BB016091BC017091BD017894888105
:100CD0009981AA81BB819A01AB01281B390B4A0B70
:100CE0005B0BA8EEB3E00E94352C6F01E12CF12CD8
:100CF0002C813D8146015701821A930AA108B1084F
:100D0000680D791D8A1D9B1DDF91CF911F910F9159
:100D1000FF90EF90DF90CF90BF90AF909F908F901B
:100D200008950F931F93FC01F8948091B80190915E
:100D3000B9018091BA019091BB01A091BC01B09121
:100D4000BD0178940081118122813381BC01CD01E4
:100D5000601B710B820B930B1F910F910895F894F8
:100D60006091BA017091BB018091BC019091BD016D
:100D7000789408958AB18F718AB98BB1806E8BB9DE
:100D80001092B20082E08093B00097E09093B1009F
:100D90009DE99093B3008093700060E971E080E07A
:100DA00090E00E94CD03C1E0F89440E050E0BA0129
:100DB0008CEA92E00E94A3037894E091BF018E2F09
:100DC00090E08830910580F7FC01EC5CFF4F0C94BB
:100DD000202CF8948091BE01813009F4B4C0809138
:100DE000BE01823009F4C3C08091BE01833009F492
:100DF00079C0F8948091BE01813009F47CC0809163
:100E00000A018F5F80930A0190910A018091040189
:100E1000891710F4C0930A0164E08091A0029091B8
:100E2000A1020E94DB047894BFCFF894C093BF0165
:100E30001092BE016091BE0170E088EA92E00E94CB
:100E4000B20362E080919C0290919D020E94DB04BB
:100E50007894AACFF8946091BE0170E088EA92E09D
:100E60000E94B2037894A0CFF8941092BE01C09370
:100E7000BF016091BE0170E086EA92E00E94B20379
:100E8000789492CFF894C093BF011092BE01609104
:100E9000BE0170E088EA92E00E94B20364E08091B3
:100EA000A4029091A5020E94DB0478947DCFF8946F
:100EB0008091BE01813099F180910B018F5F809309
:100EC0000B0190910B0180910501891710F4C093DB
:100ED0000B0164E08091A2029091A3020E94DB04C6
:100EE000789462CF68E080919E0290919F020E9468
:100EF000DB04789459CF8093BF011092BE016091BA
:100F0000BE0170E088EA92E00E94B20362E0809144
:100F1000A0029091A1020E94DB04789445CF8093B7
:100F2000BF011092BE016091BE0170E088EA92E0BC
:100F30000E94B20362E08091A2029091A3020E94FB
:100F4000DB04789431CF8093BF011092BE01609191
:100F5000BE0170E088EA92E00E94B20362E08091F4
:100F60009E0290919F020E94DB0478941DCF64E062
:100F700080919E0290919F020E94DB04789414CF8E
:100F800083E494E09F938F9386E892E09F938F93FE
:100F90000E944B2F8EE394E09F938F938AE492E01C
:100FA0009F938F930E944B2F10923E02C1E0C093FB
:100FB000320289E394E09F938F938FE492E09F93B2
:100FC0008F930E944B2FC0933F021092330284E311
:100FD00094E09F938F9384E592E09F938F930E9478
:100FE0004B2FC2E0C0934002109234028FE294E093
:100FF0009F938F938BE892E09F938F930E944B2F48
:101000008BE294E09F938F938EE592E09F938F9372
:101010000E944B2F10924202C093360286E294E067
:101020009F938F9383E692E09F938F930E944B2F21
:1010300010924302D3E0D093370283E294E09F936F
:101040008F9388E692E09F938F930E944B2F10928C
:101050004402C4E0C09338028DB79EB780960FB6A5
:10106000F8949EBF0FBE8DBF80E294E09F938F9354
:101070008DE692E09F938F930E944B2F1092450232
:1010800013E6109339028BE194E09F938F9380E9EC
:1010900092E09F938F930E944B2F86E194E09F9361
:1010A0008F9382E792E09F938F930E944B2F109231
:1010B000460285E080933A0281E194E09F938F930A
:1010C00087E792E09F938F930E944B2F10924702E5
:1010D00086E080933B028CE094E09F938F938CE7B3
:1010E00092E09F938F930E944B2F1092480287E0CB
:1010F00080933C0289E094E09F938F9381E892E093
:101100009F938F930E944B2F1092490210933D02A0
:10111000D0932F02C0933002C093310240E050E0E0
:10112000BA0189E595E00E940C040E945C1D84E4EC
:101130000E94371D0E94471D61E081E00E94891DC9
:1011400088E494E09F938F938AE191E09F938F933B
:101150000E94F42E65E083E00E94891D0E94411EDA
:1011600089E595E00E94110460E971E080E090E07B
:101170000E94CD03F89440E050E0BA0186EA92E084
:101180000E94A30378948DB79EB74C960FB6F8943F
:101190009EBF0FBE8DBF76E0C72E74E0D72ECAE18A
:1011A000D1E0E4E1BE2EF2E0EF2EF4E0FF2E0EEFF0
:1011B00013E0A3E0AA2E40E050E0BA0189E595E0F3
:1011C0000E940C040E94471D61E081E00E94891D7D
:1011D00081E08093B7028091970290E09C01220FFA
:1011E000331F220F331F820F931F8A579D4F9F93E8
:1011F0008F93DF92CF92DF93CF930E94F42E1092C1
:10120000B70260919502E0919702F0E0E15DFD4F39
:101210000F900F900F900F900F900F908081681794
:1012200060F14BC090E09C01220F331F220F331F4F
:10123000820F931F20919702B29E800D911D112461
:10124000865B9D4F9F938F931F930F93DF93CF9355
:101250000E94F42E0F900F900F900F900F900F9010
:10126000609195026F5F60939502E0919702F0E0C4
:10127000E15DFD4F8081681700F56E5F81E00E949F
:10128000891D90919602809195029813CBCF892F5A
:1012900090E09C01220F331F220F331F820F931FF8
:1012A00020919702B29E800D911D1124865B9D4F67
:1012B0009F938F93FF92EF92C9CF89E595E00E94AB
:1012C0001104F89440E050E0BA0188EA92E00E94EC
:1012D000A30378948091BE019091BE01811145C015
:1012E000E0919702F0E0E15DFD4F908180919602E0
:1012F000981709F451C0109295028091BE01813077
:10130000D9F18091BE01823009F055CF60919702EA
:10131000262F30E04091960250E0220F331F220F1B
:10132000331FF901EE5CFD4FE40FF51F9081992307
:10133000C9F1943009F456C008F43FC0963009F45E
:1013400063C008F457C0973009F444C0933651F491
:10135000225C3D4FF901E40FF51F808180939702D5
:10136000609396021092950226CF933009F4B8CF7D
:101370008091BE01813029F6809196028F5F809323
:101380009602E0919702F0E0E15DFD4F90818917B0
:1013900031F010929502B5CF10929602ACCF109218
:1013A0009602F7CF225C3D4FF901E40FF51F8081D3
:1013B0008093970210929602D5CF9230B9F160F5E2
:1013C000913081F661E080919C0290919D020E9493
:1013D000DB04C8CF61E08091A2029091A3020E9439
:1013E000DB04C0CF61E08091A4029091A5020E942D
:1013F000DB04B8CFA092090161E080919E02909138
:101400009F020E94DB04AECF61E08091A002909128
:10141000A1020E94DB04A6CF8093090161E08091C4
:101420009E0290919F020E94DB049CCF81E08093FA
:10143000090161E080919E0290919F020E94DB046D
:1014400091CFCF93DF9300D000D000D0CDB7DEB7DF
:101450008091BA029091BB0290939D0280939C026E
:101460002FEEC22E23E0D22E3AE1E32E31E0F32E0E
:1014700006C0C980DA8089E595E00E94110440E049
:1014800050E0BA0181E00E94230540E050E0BA013B
:1014900089E595E00E940C0483E08093BF010E94DF
:1014A000471D61E081E00E94891D81E08093B702C1
:1014B000DF92CF92FF92EF920E94F42E1092B70229
:1014C0000F900F900F900F9000EC13E08CEC882E93
:1014D00083E0982E9CE8292E93E0392E1C830B8301
:1014E0009E828D82DA82C9824FEF5FEFBA0182E07D
:1014F0000E942305823009F4BCCF66E083E00E949D
:10150000891D4090F9035090FA036090FB0370909E
:10151000FC0320E030E040E752E4C301B2010E9446
:10152000A0280E94122960932A0270E080E090E0D7
:101530000E94432920E030E040E752E40E94F8296D
:101540009B01AC01C301B2010E942E282B013C017A
:101550000E941229B62E6093290220E030E040E775
:1015600052E4C301B2010E94F8292B013C016B2D0A
:1015700070E080E090E00E94412920E030E040E708
:1015800052E40E94F8299B01AC01C301B2010E9400
:101590002E280E941229609328021F926F931F9297
:1015A000BF9286EE93E09F938F93FF92EF920E94FB
:1015B000F42E65E083E00E94891D809121029091C4
:1015C0002202A0912302B0912402BF93AF939F9374
:1015D0008F9385ED93E09F938F93FF92EF920E94FC
:1015E000F42E62E081E00E94891D0FB6F894DEBF00
:1015F0000FBECDBF8091CD019091CE01059708F02F
:10160000E0C09E819F932D812F93FF92EF920E94C5
:10161000F42E0F900F900F900F9062E089E00E94DF
:10162000891D6091CD017091CE016230710568F025
:1016300070902A029090290210912802711075C0B2
:10164000911073C01E3108F070C089EB93E09F9336
:101650008F93FF92EF920E94F42E0F900F900F90B5
:101660000F9063E081E00E94891D8091CE018F93ED
:101670008091CD018F9385EA93E09F938F93FF92A2
:10168000EF920E94F42E63E08BE00E94891D80910E
:1016900002028F93809101028F93809100028F93B9
:1016A0008091FF018F938DE993E09F938F93FF9239
:1016B000EF920E94F42E64E084E00E94891D0FB630
:1016C000F894DEBF0FBECDBF8091CD019091CE01C9
:1016D000059708F0ACC087E993E09F938F93FF9242
:1016E000EF920E94F42E0F900F900F900F9066E0F3
:1016F0008AE00E94891D8091CD019091CE010A97C8
:1017000008F07FC086E893E09F938F93FF92EF925B
:101710000E94F42E0F900F900F900F9068E775E0E5
:1017200080E090E00E94CD03DFCE80E090E00E9458
:1017300041295B016C01672D70E080E090E00E9420
:10174000412920E030E040E752E40E94F8292B01D3
:101750003C01692D70E080E090E00E9441299B01EE
:10176000AC01C301B2010E942F282B013C01612F63
:1017700070E080E090E00E94412920E030E040E706
:1017800052E40E94A0289B01AC01C301B2010E9457
:101790002F289B01AC01C601B5010E94A0289F9390
:1017A0008F937F936F938FEA93E09F938F93FF9232
:1017B000EF920E94F42E0FB6F894DEBF0FBECDBF9D
:1017C00050CF20911B0230911C0240911D0250917C
:1017D0001E0260E070E080E792E40E94A0289F93E0
:1017E0008F937F936F938C818F939B819F93FF92B5
:1017F000EF920E94F42E0FB6F894DEBF0FBECDBF5D
:101800000CCF809126021F928F93809127021F9206
:101810008F938DE793E09F938F93FF92EF920E94B7
:10182000F42E0FB6F894DEBF0FBECDBF77CF8091F8
:101830001A028F93809119028F93809118028F93CF
:10184000809117028F933F922F92FF92EF920E9406
:10185000F42E0FB6F894DEBF0FBECDBF48CFCF93A6
:10186000DF93CDB7DEB7AA970FB6F894DEBF0FBEF1
:10187000CDBF8091BA029091BB0290939F0280935A
:101880009E021DA21CA21EA21FA218A619A61AA67D
:1018900018A219A21AA21BA21C8E1D8E1E8E1F8EAC
:1018A000188E198E1A8E1B8E188A198A1A8A1B8A0C
:1018B0001C8A1D8A1E8A1F8A5AE1252E51E0352E68
:1018C00004C089E595E00E94110440E050E0BA01AF
:1018D00081E00E94230540E050E0BA0189E595E0EF
:1018E0000E940C0484E08093BF010E94471D21E008
:1018F0002B87D12C86E1E82E83E0F82E91E2892E09
:1019000093E0992E27E2A22E23E0B22E04EF12E0FC
:101910003CEE632E32E0732E4DE4442E43E0542E11
:10192000FA86E98618870F834FEF5FEFBA0182E0EE
:101930000E942305823029F210910901123069F0CA
:10194000133009F4B9C0113009F478C068EE73E0BF
:1019500080E090E00E94CD03E7CF0E94471D62E047
:1019600083E00E94891D81E08093B6028091CD01C1
:101970009091CE01059708F0FBC0BF92AF923F92C5
:101980002F920E94F42E0F900F900F900F901092B4
:10199000B6020E94A21D2AE133E03F932F933F92AB
:1019A0002F920E94F42E64E083E00E94891D81E062
:1019B0008093B6020F900F900F900F908091CD0101
:1019C0009091CE01059708F0B9C09A859F93A9859B
:1019D000AF933F922F920E94F42E0F900F900F9092
:1019E0000F901092B6020E94A21D29E033E03F93AF
:1019F0002F933F922F920E94F42E66E081E00E9486
:101A0000891D81E08093B6020F900F900F900F9088
:101A10008091CD019091CE010A9708F079C0A3E0A2
:101A2000B3E0BF93AF933F922F920E94F42E0F909A
:101A30000F900F900F901092B60288CFDD2009F41E
:101A4000B5C04FEF5FEFBA0184E00E9423058430F8
:101A500009F413C14FEF5FEFBA0188E00E9423053C
:101A6000883009F408C1B1E0DB1270CF66E081E094
:101A70000E94891D2B85222309F429C181E08093CE
:101A8000B70286E593E09F938F933F922F920E9437
:101A9000F42E1092B70261E081E00E94891D0F9040
:101AA0000F900F900F9038A13C8B89A18D8B9AA13C
:101AB0009E8BABA1AF8B2BC10E94471D81E0809311
:101AC000B60262E00E94891D809116028F93809178
:101AD00015028F93809114028F93809113028F933C
:101AE00038853F938F818F933F922F920E94F42EDF
:101AF0001092B6020E94A21D7F926F923F922F9287
:101B00000E94F42E0FB6F894DEBF0FBECDBF1ECFDD
:101B1000809126021F928F93809127021F928F93AC
:101B20008AEF92E09F938F933F922F920E94F42E20
:101B30000FB6F894DEBF0FBECDBF7DCF80911A02E5
:101B40008F93809119028F93809118028F938091C7
:101B500017028F9320E133E03F932F933F922F9210
:101B60000E94F42E0FB6F894DEBF0FBECDBF39CF62
:101B700020911B0230911C0240911D0250911E02C7
:101B800060E070E080E792E40E94A0289F938F932A
:101B90007F936F939F928F923F922F920E94F42E89
:101BA0000FB6F894DEBF0FBECDBFF1CE61E081E08D
:101BB0000E94891D87E793E09F938F933F922F9216
:101BC0000E94F42E61E08BE00E94891D83E793E080
:101BD0009F938F933F922F920E94F42E63E083E0B5
:101BE0000E94891D1093B6028DE693E09F938F9318
:101BF0003F922F920E94F42E65E081E00E94891DA1
:101C000088E693E09F938F933F922F920E94F42E49
:101C10001092B6020E94A21D84E693E09F938F93D8
:101C20003F922F920E94F42E66E08AE00E94891D66
:101C30008EE593E09F938F933F922F920E94F42E14
:101C40004FEF5FEFBA0184E00E9423050FB6F894CE
:101C5000DEBF0FBECDBF843009F442C1188A198A95
:101C60001A8A1B8A4FEF5FEFBA0188E00E942305B2
:101C7000883009F0F8CED12C69CE81E0D81280E00E
:101C8000BB85B1110EC1882309F40BC19C8998A3AF
:101C9000AD89A9A3BE89BAA32F892BA338893C8F0C
:101CA00089898D8F9A899E8FAB89AF8FB1E0BB8771
:101CB0004FEF5FEFBA0188E00E9423058830D9F228
:101CC00066E081E00E94891D2B852111D7CE8AE52F
:101CD00093E09F938F933F922F920E94F42E61E0A6
:101CE00081E00E94891DCE0101960E9491060E940A
:101CF000412928A139A14AA15BA10E942F286C8B00
:101D00007D8B8E8B9F8B0F900F900F900F9020E00C
:101D100030E040E752E46C897D898E899F890E947A
:101D2000A0286B017C0120E030E040E752E40E94F3
:101D3000A0280E94122960932A0270E080E090E0BF
:101D40000E94432920E030E040E752E40E94F82955
:101D50009B01AC01C701B6010E942E286C877D87CC
:101D60008E879F870E941229D62E6093290220E039
:101D700030E040E752E46C857D858E859F850E942A
:101D8000F8296C877D878E879F876D2D70E080E0B6
:101D900090E00E94412920E030E040E752E40E94B8
:101DA000F8299B01AC016C857D858E859F850E94FD
:101DB0002E280E941229609328021F926F931F926F
:101DC000DF925F924F923F922F920E94F42E0FB6B5
:101DD000F894DEBF0FBECDBF3B853111A9C0809105
:101DE000210290912202A0912302B09124028C87BB
:101DF0009D87AE87BF87288D398D4A8D5B8DBC014D
:101E0000CD010E942E289B01AC01B889A989FA89CD
:101E1000EB896B2F7A2F8F2F9E2F0E942F28D62E83
:101E2000C72E8C01688B798B8A8B1B8B65E081E0D8
:101E30000E94891DFF24F394F092B6021F930F9322
:101E4000CF92DF9287E493E09F938F933F922F92FC
:101E50000E94F42E1092B6020E94A21D83E493E029
:101E60009F938F933F922F920E94F42E8091CD01E9
:101E70009091CE01ACA1BDA18A1B9B0B0FB6F8942B
:101E8000DEBF0FBECDBF079708F087C08C859D854C
:101E9000AE85BF85888F998FAA8FBB8FDD24D394A1
:101EA00055CD2B85222309F4D5CD882309F4D2CD35
:101EB000CE0101960E943606809121029091220265
:101EC000A0912302B0912402888F998FAA8FBB8F93
:101ED000A091CD01B091CE01BDA3ACA31B86E8CEED
:101EE000CE0101960E943606809121029091220235
:101EF000A0912302B0912402888F998FAA8FBB8F63
:101F0000A091CD01B091CE01BDA3ACA31B8618A2B8
:101F100019A21AA21BA21C8E1D8E1E8E1F8E188A3D
:101F2000198A1A8A1B8A1C8A1D8A1E8A1F8AC0CE99
:101F300065E081E00E94891D81E08093B6022F8DCB
:101F40002F933E8D3F938D8D8F939C8D9F9387E430
:101F500093E09F938F933F922F920E94F42E1092C2
:101F6000B6020E94A21D83E493E09F938F933F9259
:101F70002F920E94F42E0FB6F894DEBF0FBECDBF95
:101F8000BC8DB88B2D8D298B3E8D3A8B8F8D8B8B95
:101F900091E09B87DD24D394D9CC61E08BE00E9453
:101FA000891D20911B0230911C0240911D0250910D
:101FB0001E0260E070E080E792E40E94A0289F93F8
:101FC0008F937F936F938DE393E09F938F933F92D3
:101FD0002F920E94F42E63E083E00E94891DF0920C
:101FE000B602809126021F928F93809127021F9242
:101FF0008F9384E393E09F938F933F922F920E945D
:10200000F42E1092B6023EA13F5F3EA320E030E0E6
:102010004AEF53E46C897D898E899F890E94F82953
:10202000688F798F8A8F9B8F27E137EB41ED58E3DB
:10203000D6016B2F7A2F802F912F0E942F289B0182
:10204000AC01688D798D8A8D9B8D0E94A0289B01A3
:10205000AC016FA178A589A59AA50E942F286FA32E
:1020600078A789A79AA789E29EA1989F812D11241C
:10207000869586958695A2E38A9F901911240FB6BE
:10208000F894DEBF0FBECDBF911100CF66E08AE0AD
:102090000E94891D20E030E048E452E46FA178A559
:1020A00089A59AA50E94A02820E030E040E752E4EC
:1020B0000E94A0286B017C0120E030E040E752E460
:1020C0000E94A0280E94122970E080E090E00E9407
:1020D000432920E030E040E752E40E94F8299B01C8
:1020E000AC01C701B6010E942E28688F798F8A8FB4
:1020F0009B8F0E941229D62E20E030E040E752E468
:10210000688D798D8A8D9B8D0E94F829688F798FD3
:102110008A8F9B8F6D2D70E080E090E00E944129B6
:1021200020E030E040E752E40E94F8299B01AC0136
:10213000688D798D8A8D9B8D0E942E280E94122990
:102140001F926F931F92DF928BE293E09F938F9386
:102150003F922F920E94F42E0FB6F894DEBF0FBE6E
:10216000CDBF8C859D85AE85BF85888F998FAA8FC1
:10217000BB8F1EA2DD24D3941FA218A619A61AA6EF
:10218000E5CBCF93DF9300D01F92CDB7DEB7809120
:10219000BA029091BB029093A1028093A0024AE1FF
:1021A000642E41E0742E52EA252E52E0352E04C0F2
:1021B00089E595E00E94110440E050E0BA0181E019
:1021C0000E94230540E050E0BA0189E595E00E94B5
:1021D0000C0485E08093BF010E94471D5524539451
:1021E00083E9C82E82E0D82E9CE7E92E92E0F92EF2
:1021F00003E612E022E5A22E22E0B22E3DE5832E78
:1022000032E0932E83E492E09A8389835B824FEFDE
:102210005FEFBA0182E00E942305823049F29B8180
:102220009130D1F04FEF5FEFBA0184E00E942305B7
:10223000843091F080910A018230A1F0833009F45A
:10224000EEC0813009F478C068EE73E080E090E081
:102250000E94CD031B82DBCF0E94471D80910A01A3
:10226000823061F761E081E00E94891D88EA92E096
:102270009F938F937F926F920E94F42E62E081E091
:102280000E94891D8BE38F938BE48F9389E28F9358
:102290008FE58F933F922F927F926F920E94F42E40
:1022A00063E081E00E94891D8AE992E09F938F9309
:1022B0007F926F920E94F42E64E081E00E94891D5B
:1022C0000FB6F894DEBF0FBECDBF8091CD019091C7
:1022D000CE01059708F071C1DF92CF927F926F9285
:1022E0000E94F42E0F900F900F900F9065E081E008
:1022F0000E94891D8BE892E09F938F937F926F924B
:102300000E94F42E66E081E00E94891D8EE38F9387
:1023100083E28F9387ED8F938AE08F9380E892E03A
:102320009F938F937F926F920E94F42E0FB6F89432
:10233000DEBF0FBECDBF88CF61E00E94891D86EE53
:1023400092E09F938F937F926F920E94F42E62E0AF
:1023500081E00E94891D8091B1028F938091B0022B
:102360008F938091AF028F938091AE028F938EED09
:1023700092E09F938F937F926F920E94F42E63E07E
:1023800081E00E94891D88ED92E09F938F937F9258
:102390006F920E94F42E64E081E00E94891D0FB6C6
:1023A000F894DEBF0FBECDBF8091CD019091CE01DC
:1023B000059708F0CEC081ED92E09F938F937F92B6
:1023C0006F920E94F42E0F900F900F900F9065E087
:1023D00081E00E94891D8FEB92E09F938F937F9203
:1023E0006F920E94F42E66E081E00E94891D0F909A
:1023F0000F900F900F908091CD019091CE01059795
:1024000008F08DC088EB92E09F938F937F926F923C
:102410000E94F42E0F900F900F900F9015CF61E057
:1024200081E00E94891DFF92EF927F926F920E943D
:10243000F42E62E081E00E94891D0F900F900F90B2
:102440000F908091CD019091CE01059708F09BC02F
:1024500086E792E09F938F937F926F920E94F42E73
:102460000F900F900F900F9063E081E00E94891D04
:102470001F930F937F926F920E94F42E64E081E08D
:102480000E94891D0F900F900F900F908091CD01A9
:102490009091CE010597D8F49F928F927F926F9280
:1024A0000E94F42E0F900F900F900F9065E081E046
:1024B0000E94891D9A819F9329812F937F926F9209
:1024C0000E94F42E0F900F900F900F90BDCE609150
:1024D000D3017091D4018091D5019091D60120E073
:1024E00030E040E450E40E94652A2091B20230912D
:1024F000B3024091B4025091B5020E94F8299F9313
:102500008F937F936F93BF92AF927F926F920E944F
:10251000F42E0FB6F894DEBF0FBECDBFC7CF8091AB
:102520001E028F9380911D028F9380911C028F93C6
:1025300080911B028F938CEA92E09F938F937F92FE
:102540006F920E94F42E0FB6F894DEBF0FBECDBF7F
:102550007BCE8091F6018F938091F5018F938091CE
:10256000F4018F938091F3018F9385EC92E09F9318
:102570008F937F926F920E94F42E0FB6F894DEBF75
:102580000FBECDBF24CF80911A028F938091190284
:102590008F93809118028F93809117028F938BE60F
:1025A00092E09F938F937F926F920E94F42E0FB6CA
:1025B000F894DEBF0FBECDBF57CF80910702909138
:1025C0000802A0910902B0910A02B058BF93AF93DC
:1025D0009F938F938DE892E09F938F937F926F925A
:1025E0000E94F42E0FB6F894DEBF0FBECDBF7ECE94
:1025F0002F923F924F925F926F927F928F929F9213
:10260000AF92BF92CF92DF92EF92FF920F931F9300
:10261000CF93DF938C01FB012080C3E0D0E0C12C7D
:10262000D12C90E8E92E91E4F92E812C912C5401C3
:1026300024013501312CF2E02F0E311CA701960147
:10264000C301B2010E942F282B013C01C1018C0F54
:102650009D1F65E070E00E94EA2BFC01EE0FFF1F5A
:10266000EE0FFF1FE00FF11F208131814281538166
:10267000C701B6010E94F8299B01AC01C501B40154
:102680000E942F284B015C01CF3F8FEFD80799F0B4
:10269000BE010D2E000C880B990B0E9443299B0153
:1026A000AC0160E070E080E090E40E94652A6B017C
:1026B0007C012197C3CFA3019201C501B4010E94FF
:1026C000A028DF91CF911F910F91FF90EF90DF90A5
:1026D000CF90BF90AF909F908F907F906F905F90C2
:1026E0004F903F902F9008958091BA029091BB0235
:1026F0009093A3028093A202C6E01AC04FEF5FEF4F
:10270000BA0182E00E942305823079F14FEF5FEF3A
:10271000BA0184E00E9423058430A9F180919B02D4
:102720008130B9F168EE73E080E090E00E94CD0363
:102730004FEF5FEFBA0181E00E9423058130F1F68F
:1027400080939B0240E050E0BA0189E595E00E9449
:102750000C04C093BF010E94471D4FEF5FEFBA0109
:1027600082E00E942305823089F610929B0289E55F
:1027700095E00E9411044FEF5FEFBA0184E00E94E0
:102780002305843059F60E94471D80919B028130B9
:1027900049F680910B010E94211FC4CFCF93DF9394
:1027A000CDB7DEB7C757D1090FB6F894DEBF0FBE5D
:1027B000CDBFAF961FAEAF97AE961FAEAE975298F5
:1027C0005A9A1092800083E0809381008093690080
:1027D00011E01DBB10928500109284008FEF95E0F0
:1027E000A2E0BAE38093B2029093B302A093B40242
:1027F000B093B5028CE09CEAA4E3BEE38093AE0202
:102800009093AF02A093B002B093B10260EE7EE26B
:1028100080E090E00E94CD031092200210921F02EF
:102820001092E7011092E8011092E9011092EA017A
:102830001092EB011092EC011092ED011092EE015A
:102840001092DF011092E0011092E1011092E2017A
:102850001092E3011092E4011092E5011092E6015A
:102860001093CF011092D001109213021092140213
:102870001092150210921602FE01FD96AE014F5FF6
:102880005F4F9E01275D3F4FCE0145968E010F5A47
:102890001F4FBF016C5E7F4F1192119211921192E6
:1028A000DA011D921D921D921D92AD01D9011D925A
:1028B0001D921D921D929D01DC011D921D921D9283
:1028C0001D92CD01D8011D921D921D921D928D0168
:1028D000E617F70709F7A7961FAE1EAEA797A996AA
:1028E0001FAE1EAEA997AB961FAE1EAEAB97AD96B0
:1028F0001FAE1EAEAD9784E08093CC011092D20142
:102900001092D10110920F02109210021092110237
:102910001092120210920B0210920C0210920D02F1
:1029200010920E021092FB011092FC011092FD0118
:102930001092FE011092F7011092F8011092F90125
:102940001092FA0186EC91E00E94360680EC91E04C
:102950000E9436061092CE011092CD0110E001E0E7
:10296000F89440E050E0BA018AEA92E00E94A303A2
:1029700078948090E7019090E801A090E901B090F0
:10298000EA018092EB019092EC01A092ED01B092ED
:10299000EE01E12EF12CBFEFEB1AFB0AE3E0EE2291
:1029A000FF241E2D20901F0230902002F701EE0F11
:1029B000FF1F25E630E02C0F3D1FE20FF31F318291
:1029C0002082A7966EAD7FADA797A9968EAD9FADDD
:1029D000A997680F791F76956795AB962EAD3FAD99
:1029E000AB97AD968EAD9FADAD97820F931F969529
:1029F0008795680F791F80E090E00E9441292DEBB8
:102A000037E346E856E30E94F8299B01AC016AEDE2
:102A10007FE089EC90E40E94A028A50194010E9427
:102A20002F2820E030E040E05FE30E94F8292B01EE
:102A30003C016093E7017093E8018093E901909372
:102A4000EA01F7013396E370FF27EE0FFF1F45E61B
:102A500050E04C0F5D1FE40FF51F6081718180E035
:102A600090E00E9441296B017C01B10180E090E07F
:102A70000E9441299B01AC01C701B6010E942F2889
:102A800020E030E040E05FE30E94F8292DEB37E3DF
:102A900046E856E30E94F8296093DB017093DC015D
:102AA0008093DD019093DE01C090DF01D090E001C2
:102AB000E090E101F090E201C092E301D092E401E4
:102AC000E092E501F092E60127E137EB41ED58E3B2
:102AD0000E942F28E3966CAF7DAF8EAF9FAFE39738
:102AE000A5019401C301B2010E942E28E3962CADEA
:102AF0003DAD4EAD5FADE3970E94A028A7019601C2
:102B00000E942F2820E030E040E05FE30E94F82997
:102B10004B015C016093DF017093E0018093E10160
:102B20009093E201A70196010E942E28E3962CAD16
:102B30003DAD4EAD5FADE3970E94A0286B017C01D7
:102B400020E030E040E252EC0E94F32918160CF02D
:102B500084C020E030E040E252E4C701B6010E94A8
:102B60009B2887FF7AC01092D10120E030E040E737
:102B700051E4C501B4010E94F32918160CF0F1C00C
:102B80000093D2018091CF01813009F473C3809307
:102B9000D0011092CF018091D001813009F48CC115
:102BA0008111DECEC090E701D090E801E090E9010C
:102BB000F090EA0127E137EB41ED58E3C701B60198
:102BC0000E942F288090DB019090DC01A090DD0115
:102BD000B090DE019B01AC010E94F8299B01AC0181
:102BE0006091DF017091E0018091E1019091E2013B
:102BF0000E94A028A50194010E94F8299B01AC0124
:102C00006091030270910402809105029091060286
:102C10000E942F28609303027093040280930502A0
:102C200090930602A5019401C701B6010E94F829FC
:102C30009B01AC016091D7017091D8018091D901BD
:102C40009091DA010E942F286093D7017093D801E8
:102C50008093D9019093DA0183CE0093D10120E0D3
:102C600030E040E751E4C501B4010E94F329181691
:102C70000CF47CC01092D2018091CF018093D001DE
:102C80000093CF01882309F47BC08091D00181306B
:102C900009F066CEC090E701D090E801E090E9012C
:102CA000F090EA018090DB019090DC01A090DD01C2
:102CB000B090DE012AE037ED43E25EE3C701B601E2
:102CC0000E94F8292091DF013091E0014091E1015B
:102CD0005091E2010E94F829A50194010E94F8296F
:102CE0009B01AC0160910B0270910C0280910D026E
:102CF00090910E020E942F2860930B0270930C0299
:102D000080930D0290930E02A7019601C701B601B0
:102D10000E94F829A70196010E94F8292091B20289
:102D20003091B3024091B4025091B5020E94F8294B
:102D3000A50194010E94F8299B01AC0160910F024A
:102D40007091100280911102909112020E942F281E
:102D500060930F02709310028093110290931202FD
:102D600061CF1092D2018091CF0111CF0093D20197
:102D70008091CF018093D0010093CF01811185CF45
:102D800062E08091A4029091A5020E94DB0480EC95
:102D900091E00E94360610920B0210920C021092E3
:102DA0000D0210920E0210920F0210921002109259
:102DB000110210921202AF968FADAF97E82EF12C50
:102DC000CC24C394D12CCC0EDD1E54E0859FC00CC6
:102DD000D11C11242091F7013091F8014091F901A3
:102DE0005091FA016091FB017091FC018091FD010D
:102DF0009091FE010E942E282DEB37E346E855E323
:102E00000E942F289B01AC01609103027091040283
:102E100080910502909106020E94A028D601549646
:102E20006D937D938D939C935797BE0162597F4F0D
:102E3000CE0145960E94F812609307027093080233
:102E40008093090290930A02C701019665E070E041
:102E50000E94EA2BAF968FAFAF972091DB013091A4
:102E6000DC014091DD015091DE016091E70170913C
:102E7000E8018091E9019091EA010E94F8299B0103
:102E8000AC016091D7017091D8018091D9019091E6
:102E9000DA010E942F286093D7017093D8018093A4
:102EA000D9019093DA018091CF01882309F473CE80
:102EB000813009F055CDE9CE8091CD019091CE01C0
:102EC00001969093CE018093CD011092030210924F
:102ED0000402109205021092060280EC91E00E941A
:102EE0004C060E94412920E030E04AE754E40E9469
:102EF000A0286093F7017093F8018093F9019093F3
:102F0000FA0186EC91E00E944C060E94412920E0E3
:102F100030E04AE754E40E94A0286093FB017093DC
:102F2000FC018093FD019093FE0186EC91E00E94EC
:102F300036068090FB019090FC01A090FD01B090BE
:102F4000FE0127E137EB41ED58E3C501B4010E94D2
:102F50002F286B017C019B01AC016091D70170911E
:102F6000D8018091D9019091DA010E94A028609344
:102F7000D3017093D4018093D5019093D601109220
:102F8000D7011092D8011092D9011092DA01609104
:102F900021027091220280912302909124022091BB
:102FA000EF013091F0014091F1015091F2010E9446
:102FB0002E286093F3017093F4018093F5019093B0
:102FC000F6014090210250902202609023027090FE
:102FD00024024092EF015092F0016092F101709250
:102FE000F201AE962FADAE97E22FF0E0E596FFAF7F
:102FF000EEAFE597EE0FFF1FEE0FFF1FE896FFAF56
:10300000EEAFE89721E030E02C0F3D1F2E0F3F1F61
:10301000E1963FAF2EAFE197A70196010E94A0284D
:10302000E196AEADBFADE1976D937D938D939C938B
:103030001397BE0163597F4FCE0101960E94F8128B
:1030400027E137EB41ED58E30E942F289B01AC01AB
:1030500060E070E08AEF93E40E94A02820E030E076
:1030600040E752E40E94A0282B013C0120E030E020
:1030700040E752E40E94A0280E94122970E080E0FC
:1030800090E00E94432920E030E040E752E40E94B3
:10309000F8299B01AC01C301B2010E942E282B012B
:1030A0003C010E941229E6966FAFE69760932702D3
:1030B00020E030E040E752E4C301B2010E94F82969
:1030C0002B013C01E696BFADE6976B2F70E080E0E8
:1030D00090E00E94412920E030E040E752E40E9465
:1030E000F8299B01AC01C301B2010E942E280E9465
:1030F000122960932602A70196016091F701709151
:10310000F8018091F9019091FA010E94A028E196BE
:10311000EEADFFADE19760A771A782A793A7BE01AF
:1031200063597F4FCE0189960E94F8126093FF0188
:1031300070930002809301029093020220910F028B
:1031400030911002409111025091120260910B02D5
:1031500070910C0280910D0290910E020E942F2816
:10316000A70196010E94A028E196AEADBFADE19700
:10317000DC966D937D938D939C93DF97BE0163598D
:103180007F4FCE01CD960E94F8126B017C016093B7
:103190001702709318028093190290931A0220E08C
:1031A00030EC49E754E40E94F32918160CF067C08C
:1031B00080E090ECA9E7B4E48093170290931802A2
:1031C000A0931902B0931A0260E070ED87E895E4CD
:1031D000A50194010E94F82926E636ED42E855E45F
:1031E0000E94A0289B01AC0160911302709114020F
:1031F00080911502909116020E942F28609313026D
:10320000709314028093150290931602E1E5F0E0AA
:10321000EC0FFD1FE8962EAD3FADE897E20FF31FD0
:1032200080829182A282B382BE0163597F4FCE0118
:103230008F5A9F4F0E94F81260931B0270931C02DA
:1032400080931D0290931E02E5968EAD9FADE5978B
:10325000019665E070E00E94EA2BAE968FAFAE97C4
:103260008091CF01813009F410CD811179CB80910B
:10327000D00196CC8093D0018093CF0106CD20E081
:1032800030E040E251E4C701B6010E94F32918166C
:103290000CF0BCCF20E030E040E850E4C701B601BC
:1032A0000E94F82920E030E04FEA53E40E942F28E2
:1032B0008FCF83E390E00E94B51EC090BE02D090F5
:1032C000BF02E090C002F090C1028BE392E09F93B6
:1032D0008F938CE091E09F938F930E94F42E0F9038
:1032E0000F900F900F900E941F1F0E94111F80EAE5
:1032F000C80E8FE0D81EE11CF11CC701B6010E9468
:10330000D503F1CFCF93DF93CDB7DEB7E0970FB6FC
:10331000F894DEBF0FBECDBF8091BA029091BB0280
:103320009093A5028093A4028E010F5C1F4FFE01B3
:10333000319611920E171F07E1F780E38093CC01BD
:1033400010929A021092980233E3A32E32E0B32E29
:103350004AE1E42E41E0F42E5CE2652E52E0752E47
:103360004FEF5FEFBA0184E00E9423058430B1F192
:10337000D0909A0221E0D216E1F14FEF5FEFBA014F
:1033800081E00E942305D82E81E0D81609F423C2DB
:10339000CC24C39480919802813009F0C12CD09044
:1033A0009902EFE2ED1598F5E0E3DE1609F48EC020
:1033B00081E09FE29D1508F480E0C82209F4B7C0BF
:1033C0006CE370E080E090E00E94CD034FEF5FEF90
:1033D000BA0184E00E942305843051F610929A02CB
:1033E00089E595E00E941104D0909A0221E0D21262
:1033F000C4CF4FEF5FEFBA0182E00E942305823015
:1034000009F0BBCFD092980210929902B6CFCC208F
:1034100059F26091E7017091E8018091E901909182
:10342000EA019B01AC010E94F8292091B20230917F
:10343000B3024091B4025091B5020E94F8291B01D9
:103440002C012AE037ED43E25EE36091DF017091E9
:10345000E0018091E1019091E2010E94F8299B0135
:10346000AC01C201B1010E942F282DE33AE047EDE3
:103470005EE30E94A0281B012C0120E030E0A9019E
:103480000E94F329181654F42AE939E94DE352E46D
:10349000C201B1010E949B2887FD3FC120E030E0BE
:1034A000A901C201B1010E949B28E1E0F0E0EC0F0C
:1034B000FD1FED0DF11D18160CF09CC12FE22083AD
:1034C000D394D092990280E3D81272CF10929802CE
:1034D00080919A02813059F5FE01319620E0819168
:1034E000281708F4282FE017F107C9F790E3909305
:1034F000CC01ECE12E9F90011124ADECBCEC0E94BC
:10350000262C6C01D694C794D694C794D694C794AD
:10351000B60180E090E00E94412920E030E040E2E6
:1035200051E40E949B2818164CF01092990268EC06
:1035300070E080E090E00E94CD0312CFFE01319652
:103540008BE2582EA1815481428133818081658133
:1035500070E0680F711DCB019595879595958795BE
:10356000959587959595879595958795B0E0BD013B
:10357000660F771F6A0F7B1F759567957595679521
:10358000759567957595679575956795282F260F9D
:10359000852F90E0BC01660F771F680F791F759526
:1035A0006795759567957595679575956795759503
:1035B0006795620F8A0F9B1F9595879595958795BF
:1035C0009595879595958795860F25E0429FA00153
:1035D000112455954795559547955595479555957A
:1035E0004795840F95E0399F9001112435952795D3
:1035F000359527953595279535952795280F21934E
:103600005A9451109FCFEBE2E093CC010E94471DEA
:103610001092CC01852DE1E0F0E0EC0FFD1FE80FEA
:10362000F11D60810E948F1E8091CC018F5F80937D
:10363000CC018B3280F361E087E00E94891D81E03C
:103640008093B702DF92CF92BF92AF92FF92EF9238
:103650000E94F42E1092B70262E088E00E94891D59
:103660008091CE018F938091CD018F937F926F9245
:10367000FF92EF920E94F42E63E088E00E94891D81
:103680000FB6F894DEBF0FBECDBF8091CD019091F3
:10369000CE01059708F07FC0E5E2F2E0FF93EF93DB
:1036A000FF92EF920E94F42E0F900F900F900F90C8
:1036B00064E089E00E94891D8091CD019091CE0146
:1036C000059708F04EC0E4E1F2E0FF93EF93FF921C
:1036D000EF920E94F42E0F900F900F900F9065E0E4
:1036E00089E00E94891D8091CD019091CE010A97B9
:1036F00010F5E5E0F2E0FF93EF93FF92EF920E9466
:10370000F42E0F900F900F900F90109299028091CD
:103710009802813009F00BCF53CE88248394912CEA
:103720008C0E9D1E8D0C911CC201B1010E941229AC
:10373000F4016083C5CE809126021F928F93809101
:1037400027021F928F938CEF91E09F938F93FF92AC
:10375000EF920E94F42E0FB6F894DEBF0FBECDBFDD
:10376000D4CF80911A028F93809119028F93809108
:1037700018028F93809117028F938BE092E09F93B2
:103780008F93FF92EF920E94F42E0FB6F894DEBF53
:103790000FBECDBFA4CF20911B0230911C024091DF
:1037A0001D0250911E0260E070E080E792E40E94EA
:1037B000A0289F938F937F936F938AE192E09F93CA
:1037C0008F93FF92EF920E94F42E0FB6F894DEBF13
:1037D0000FBECDBF6DCF40E050E0BA0189E595E066
:1037E0000E940C04D0929A0297E09093BF010E942D
:1037F000471DCECD108264CE1F920F920FB60F924E
:1038000011242F933F934F935F936F937F938F93E5
:103810009F93AF93BF93EF93FF93809125028F5FA8
:10382000982F9370A9F0809325020E946703FF915F
:10383000EF91BF91AF919F918F917F916F915F9128
:103840004F913F912F910F900FBE0F901F901895A1
:10385000109225028091840090918500909320021F
:1038600080931F02109285001092840060912102C3
:103870007091220280912302909124022091AE0245
:103880003091AF024091B0025091B1020E942F28B6
:10389000609321027093220280932302909324026A
:1038A00065E570E08AEA92E00E94B203BECF1F9203
:1038B0000F920FB60F9211242F933F934F935F9364
:1038C0006F937F938F939F93AF93BF93EF93FF93E8
:1038D00080912E02813009F44DC041E081113FC03A
:1038E00089B139B199B121E085FB882780F9822718
:1038F00036FB332730F92327822B9095991F992780
:10390000991F892BA1F1442391F180912B028F5FA4
:1039100080932B02863080F010922B0281E08093FE
:103920002E024D991EC08093BE016091BE0170E0D1
:103930008CEA92E00E94B2030E946703FF91EF912C
:10394000BF91AF919F918F917F916F915F914F91B7
:103950003F912F910F900FBE0F901F90189540E050
:10396000BFCF4E9B19C04F99E0CF83E0DCCF809151
:103970002B02D0CF80912C0290912D02883291059C
:1039800078F4019690932D0280932C0289B189B12D
:1039900089B180912B02BECF82E08093BE01C5CF5A
:1039A00010922D0210922C0210922E0241E098CF1C
:1039B00097B19C6097B94198613011F1429890E0BD
:1039C00027E030E006C0439A449A449821503109D8
:1039D00078F0AC01022E02C0559547950A94E2F7A3
:1039E00040FDF1CF4398449A44982150310988F71B
:1039F000419A87B1837F87B988B18C6088B908956F
:103A00009091B70291118095429AD9CFCF93DF93CD
:103A1000AC01EC01D695C795D695C7959E01A7E850
:103A2000B1E60E94262C9695879596958795969552
:103A3000879564E5689F9001699F300D1124CA0144
:103A4000821B930B60E080680E94D81C9E01A7E84F
:103A5000B1E60E94262C9695879596958795969522
:103A6000879560E08064DF91CF910C94D81CCF9350
:103A7000C82F60E081E20E94D81C60E08C2F806833
:103A80000E94D81C60E080E2CF910C94D81CCF93A8
:103A9000DF931092B9021092B80280E090E00E9489
:103AA000061DC8EFD1E061E080E00E94D81C21979C
:103AB000D1F7DF91CF910895409A87B18F6187B98F
:103AC0006CE370E080E090E00E94CD0340986CE3EE
:103AD00070E080E090E00E94CD03409A419A60E05F
:103AE00081E20E94D81C60E088EC0E94D81C60E053
:103AF00086E00E94D81C60E083E10E94D81C60E050
:103B000080E20E94D81C60E08CE00E94D81C0C94DB
:103B1000471D90E001979C01220F331F820F931FD6
:103B2000880F991F70E06150710944E5469F90012C
:103B3000479F300D1124820F931F9093B9028093F9
:103B4000B80208958091B8029091B9028455910904
:103B50009093B9028093B8020895CF92DF92EF92CA
:103B6000FF921F93CF93DF93182FC090B802D0908D
:103B7000B902C6010E94061D8091B602811129C0BA
:103B8000E12EF12C80E2E81AF108C701880F991F95
:103B9000880F991FE80EF91EE701219686E0E80ECE
:103BA000F11CCE010E94E72F61E0880F0E94D81C13
:103BB0002196CE15DF05A9F761E080E00E94D81CB0
:103BC00086E0C80ED11CD092B902C092B802809192
:103BD000B602813041F0DF91CF911F91FF90EF90BD
:103BE000DF90CF900895812F90E08B972BE0289F56
:103BF0007001299FF00C1124C8ECD1E00DC0C70161
:103C00008C0F9D1F0E94E72F61E00E94D81C219617
:103C1000C33D81E0D80721F0103289F7CE01F2CF01
:103C2000C090B802D090B902C60184559109909312
:103C3000B9028093B8020E94061DC8E7D2E0CE0107
:103C4000103211F08E0D9F1D0E94E72F61E00E943F
:103C5000D81C2196C33882E0D80789F761E080E05C
:103C60000E94D81C8CE0C80ED11CD092B902C09220
:103C7000B802DF91CF911F91FF90EF90DF90CF902E
:103C800008950F931F93CF93DF930091B802109183
:103C9000B902C8010E94061DC0EAD3E0CE010E940D
:103CA000E72F61E00E94D81C2196CC3D83E0D80725
:103CB000A9F7C801845591099093B9028093B8027D
:103CC0000E94061DC4E6D3E0CE010E94E72F61E00A
:103CD0000E94D81C2196C03A83E0D807A9F7C801F2
:103CE000885A91099093B9028093B8020E94061DE8
:103CF000C8E2D3E0CE010E94E72F61E00E94D81C09
:103D00002196C43683E0D807A9F7DF91CF911F91A0
:103D10000F9108950E94AD1D80E090E00895CF932B
:103D2000DF93C62F6033F8F4962F96959695969567
:103D3000D5E0D91BD064815060E080680E94D81C17
:103D400060E08D2F0E94D81CC77027E030E02C1B4C
:103D5000310961E081E001C0880F2A95EAF7DF911F
:103D6000CF910C94D81CD0E4E6CF9093C5008093FB
:103D7000C40088E18093C10086E08093C20008956A
:103D80009091C00095FFFCCF8093C600089580916C
:103D9000C00087FFFCCF8091C6000895FC01208100
:103DA000222351F031969091C00095FFFCCF2093D3
:103DB000C60021912111F7CF08958091C000881F7E
:103DC0008827881F08959091C00095FFFCCF8093AD
:103DD000C60080E090E00895DC0186179707A0F404
:103DE0008C91853589F4FD01319607C09F012F5FC5
:103DF0003F4F9081953521F4F901E617F707B1F7A8
:103E0000CF018A1B9B0B089580E090E008958617F0
:103E1000970730F4FC0185E58193E617F707E1F792
:103E2000089580913E0190913F01892B39F0ECE398
:103E3000F1E03A9682819381892BD9F708950C9409
:103E4000111F8F929F92AF92BF92CF92DF92EF920B
:103E5000FF920F931F93CF93DF93082F80913E0122
:103E600090913F01892B09F4DFC011E0CCE3D1E050
:103E700081E7A82E84E0B82E98E2E92E91E0F92E91
:103E80002FE7C22E24E0D22E0BC0023009F446C028
:103E90002A9661E0610F8A819B81892B69F1162F37
:103EA000013099F71730A0F7612F81E00E94891D3A
:103EB0006A817B81888199814B01881A990A0E94C5
:103EC000EC1E9F928F929F938F931F921F93DF926E
:103ED000CF92FF92EF920E94F42E8DB79EB70A9672
:103EE0000FB6F8949EBF0FBE8DBF2A9661E0610F9A
:103EF0008A819B81892B99F6013009F466C00230D2
:103F000099F1DF91CF911F910F91FF90EF90DF908A
:103F1000CF90BF90AF909F908F900895173008F486
:103F2000B7CF6AEF610F81E00E94891D6A817B81B2
:103F3000888199814B01881A990A0E94EC1E9F92F0
:103F40008F929F938F931F921F93BF92AF92FF9276
:103F5000EF920E94F42E8DB79EB70A960FB6F89492
:103F60009EBF0FBE8DBF94CF673058F26BEF610FCD
:103F700081E00E94891D2091380130913901C0E013
:103F8000D9E0C21BD30B8091A6089091A708009797
:103F900009F44FC06FEF78E00E94EC1EDF93CF93DF
:103FA0009F938F9387E594E09F938F9388E291E0AE
:103FB0009F938F930E94F42E8DB79EB708960FB6ED
:103FC000F8949EBF0FBE8DBF9CCF673008F099CF8D
:103FD00081E00E94891D2091380130913901C0E0B3
:103FE000D9E0C21BD30B8091A6089091A708009737
:103FF00011F16FEF78E00E94EC1EDF93CF939F9357
:104000008F9384E694E09F938F9388E291E09F934F
:104010008F930E94F42E8DB79EB708960FB6F89432
:104020009EBF0FBE8DBF6DCF013009F06ACF61E03A
:10403000CFCFC901AFCFC901DCCFF894FC0180819B
:104040007894089590E0FC01EE0FFF1F880F991FF0
:10405000880F991F880F991FE80FF91FE45CFE4F26
:1040600062817381808191810C94EC1E8091A608FD
:104070009091A708009721F06FEF78E00C94EC1E68
:1040800080913801909139016FEF78E00C94EC1E2B
:10409000CF93DF9300D0CDB7DEB78CE391E09A8366
:1040A000898360913E0170913F016115710599F01E
:1040B000ECE3F1E0808191810E94071FA981BA8120
:1040C000FD013A96FA83E9831C966D917C911D97C8
:1040D0006115710579F78091A6089091A70800975E
:1040E00051F0BE016F5071090E94071F0F900F9091
:1040F000DF91CF9108958091380190913901F1CFEE
:10410000672B682B692B09F0FFCF08950F931F933E
:104110000091BE021091BF022091C0023091C102F5
:10412000061717072807390709F0FFCF1F910F91CE
:1041300008950E94482081E0809359050E948505DA
:104140000E94AF02FFCFA0E1B0E0E9EAF0E20C94F8
:10415000402C7C011B016A01FC01178216828381BD
:1041600081FF44C39E012F5F3F4F3901F7019381C7
:10417000F10193FD859193FF81911F01882309F43B
:1041800031C3853239F493FD859193FF81911F01ED
:10419000853239F4B70190E00E940F2F5601650176
:1041A000E5CF10E0512C912CFFE1F915D8F08B32BE
:1041B00079F038F4803279F08332A1F4F92DF0618E
:1041C0002EC08D3261F0803369F4292D21602DC01D
:1041D000392D3260932E892D8460982E2AC0E92DC6
:1041E000E86015C097FC2DC020ED280F2A3088F418
:1041F00096FE06C03AE0139F200D1124122F19C01D
:104200008AE0589E200D1124522EE92DE0629E2E48
:1042100010C08E3231F496FCE5C2F92DF0649F2E69
:1042200008C08C3621F4292D2068922E02C08836D1
:1042300041F4F10193FD859193FF81911F0181115B
:10424000B3CF9BEB980F933020F4992D9061805E53
:1042500007C09BE9980F933008F066C1992D9F7EA7
:1042600096FF16E09F73992E853619F49064992E67
:1042700008C0863621F4392F3068932E02C0111100
:10428000115097FE07C01C3350F444244394410E50
:1042900027E00BC0183038F027E017E005C027E012
:1042A0009CE3492E02C0212F412C560184E0A80E28
:1042B000B11CF6016081718182819381042DA3017B
:1042C0000E94AC2D6C01F981FC87F0FF02C0F3FF66
:1042D00006C091FC06C092FE06C000E205C00DE2D9
:1042E00003C00BE201C000E08C858C7019F0011155
:1042F0005AC29BC297FE10C04C0CFC85F4FF04C050
:104300008A81813309F44A94141474F528E0241541
:1043100078F588E0482E2CC096FC2AC0812F90E0CA
:104320008C159D059CF03CEFC3163FEFD30674F04F
:10433000892D8068982E0AC0E2E0F0E0EC0FFD1FA6
:10434000E10FF11D8081803319F411501111F4CF68
:1043500097FE0EC044244394410E812F90E0C8166E
:10436000D9062CF41C1904C04424439401C010E065
:1043700097FE06C01C141D0434F4C601019605C046
:1043800085E090E002C081E090E0011101961123E8
:1043900031F0212F30E02F5F3F4F820F931F252DEB
:1043A00030E08217930714F4581A01C0512C892D5C
:1043B000897049F4552039F0B70180E290E00E94FD
:1043C0000F2F5A94F7CF002329F0B701802F90E0E8
:1043D0000E940F2F93FC09C0552039F0B70180E3EC
:1043E00090E00E940F2F5A94F7CF97FE4CC04601E1
:1043F000D7FE02C0812C912CC60188199909F301BE
:10440000E80FF91FFE87ED87960124193109388BD3
:104410002F87012F10E01195019511093FEF8316A9
:10442000930629F4B7018EE290E00E940F2FC81482
:10443000D9044CF08F8598898815990524F4ED8569
:10444000FE85818101C080E3F1E08F1A91082D85FE
:104450003E852F5F3F4F3E872D87801691062CF0BB
:10446000B70190E00E940F2FD9CFC814D90441F4AE
:104470009A81963320F4953319F43C8534FF81E317
:10448000B70190E04EC08A81813319F09C859F7EF0
:104490009C87B70190E00E940F2F111105C094FC7A
:1044A00018C085E690E017C0B7018EE290E00E9448
:1044B0000F2F1E5F82E001E0080FF301E80FF11DEE
:1044C0008081B70190E00E940F2F802F0113F3CF5E
:1044D000E6CF85E490E0B7010E940F2FD7FC06C01D
:1044E000C114D10441F4EC85E4FF05C0D194C1941A
:1044F000D1088DE201C08BE2B70190E00E940F2F3E
:1045000080E32AE0C216D1042CF08F5FFAE0CF1AC4
:10451000D108F7CFB70190E00E940F2FB701C60175
:10452000C0960E940F2F54C1833631F0833779F043
:10453000833509F056C020C0560132E0A30EB11CED
:10454000F6018081898301E010E0630112C0560109
:10455000F2E0AF0EB11CF601C080D18096FE03C020
:10456000612F70E002C06FEF7FEFC6010E94AB2E9B
:104570008C01F92DFF7714C0560122E0A20EB11C68
:10458000F601C080D18096FE03C0612F70E002C0AA
:104590006FEF7FEFC6010E94A02E8C01F92DF0680D
:1045A0009F2EF3FD1AC0852D90E008171907A8F477
:1045B000B70180E290E00E940F2F5A94F4CFF601E9
:1045C00097FC859197FE81916F01B70190E00E9461
:1045D0000F2F51105A94015011090115110579F747
:1045E000F7C0843611F0893661F5560197FE09C08F
:1045F00024E0A20EB11CF601608171818281938159
:104600000AC0F2E0AF0EB11CF60160817181072E85
:10461000000C880B990BF92DFF769F2E97FF09C090
:1046200090958095709561957F4F8F4F9F4FF06863
:104630009F2E2AE030E0A3010E94862FC82EC618C4
:104640003FC0092D853721F40F7E2AE030E01DC0E0
:10465000097F8F3691F018F4883559F0C3C0803740
:1046600019F0883711F0BEC0006104FF09C0046072
:1046700007C094FE08C0066006C028E030E005C010
:1046800020E130E002C020E132E0560107FF09C01E
:1046900084E0A80EB11CF601608171818281938152
:1046A00008C0F2E0AF0EB11CF6016081718180E0BC
:1046B00090E0A3010E94862FC82EC6180F77902E77
:1046C00096FE0BC0092D0E7FC11650F494FE0AC051
:1046D00092FC08C0092D0E7E05C0DC2C092D03C0FC
:1046E000DC2C01C0D12E04FF0DC0FE01EC0DF11D2C
:1046F0008081803311F4097E09C002FF06C0D39483
:10470000D39404C0802F867809F0D39403FD11C0A0
:1047100000FF06C01C2DD51480F4150D1D190DC009
:10472000D51458F4B70180E290E00E940F2FD39483
:10473000F7CFD51410F45D1801C0512C04FF10C040
:10474000B70180E390E00E940F2F02FF17C001FD28
:1047500003C088E790E002C088E590E0B7010CC094
:10476000802F867859F001FF02C08BE201C080E201
:1047700007FD8DE2B70190E00E940F2FC11638F4BB
:10478000B70180E390E00E940F2F1150F7CFCA9439
:10479000F301EC0DF11D8081B70190E00E940F2F15
:1047A000C110F5CF15C0F4E0F51560F584E0581A96
:1047B00093FE1FC0011127C02C8523FF2AC00AEFDA
:1047C00010E0392D3071932EF8018491811124C0AD
:1047D000552009F4E4CCB70180E290E00E940F2F4D
:1047E0005A94F6CFF7018681978126C08FEF9FEF0D
:1047F00023C0B70180E290E00E940F2F5A9451101D
:10480000F8CFD8CF512CB701802F90E00E940F2F06
:10481000D3CF0EEF10E0D5CF91108052B70190E0CA
:104820000E940F2F0F5F1F4FCFCF23E0251510F4ED
:1048300083E0BDCF512CC0CF6096E2E10C945C2C9C
:1048400020FD09C0FC0123FD05C022FF02C07383C7
:10485000628351834083089544FD17C046FD17C00D
:10486000AB01BC01DA01FB01AA0FBB1FEE1FFF1F4A
:104870001094D1F74A0F5B1F6E1F7F1FCB01BA0147
:10488000660F771F881F991F09C033E001C034E00D
:10489000660F771F881F991F3150D1F7620F711D66
:1048A000811D911D08950F931F93CF93DF938C016A
:1048B000C8010E94B62EEC0197FD08C00E94842E0C
:1048C000892BB1F7B801CE010E946D2FCE01DF9187
:1048D000CF911F910F910895A0E0B0E0E2E7F4E2DC
:1048E0000C94462C7C018B016A01D22F0E94B62EBB
:1048F0009C0133272B32310521F02D32310559F43B
:10490000D0680150110911F480E06BC0C7010E940A
:10491000B62E97FDF9CFCD2FCD7F2D2F207319F512
:10492000803309F5580181E0A81AB10809F445C09F
:10493000C7010E94B62E97FD40C09C012F7D3327F2
:104940002835310551F4C26402501109B1F1C70193
:104950000E94B62E97FF07C030C0D6FF02C0C260CB
:1049600001C0C2618501812C912C540120ED280FDA
:10497000283080F0C4FF04C0B7010E946D2F1AC018
:104980002A3040F0C6FFF8CF2F7D3FEE320F363091
:1049900098F727504C2FC501B4010E942C244B01DD
:1049A0005C01C2600150110959F0C7010E94B62E86
:1049B00097FFDCCFC1FD04C0A7CF812C912C5401FF
:1049C000C7FF08C0B094A09490948094811C911C5F
:1049D000A11CB11C2C2FB501A401C6010E942024EA
:1049E00081E0CDB7DEB7ECE00C94622CA0E2B0E041
:1049F000ECEFF4E20C94422C5C014B017A018E0145
:104A00000F5F1F4F680180E2F80111928A95E9F764
:104A1000F501538040E050E0612C90E0712CA1E062
:104A2000B0E0F90153FC859153FE81918F01482E2E
:104A30009F01811103C080E090E096C08E3519F48B
:104A40004115510551F1672D70E0641775073CF46D
:104A50008D3561F18D3219F4992311F103C0992339
:104A600009F46DC0842D869586958695F601E80F2C
:104A7000F11D842D87708D0102C0000F111F8A95D2
:104A8000E2F7C8019081892B8083641459F04614A1
:104A900010F44394E7CF4A94E5CF7724739403C08E
:104AA00091E001C090E04F5F5F4FBBCF992319F0B9
:104AB0008E8180628E83711003C07724739419C035
:104AC000F6019E012F5D3F4F8081809581932E17C7
:104AD0003F07D1F7F2CFE114F10431F0F701808301
:104AE000B7016F5F7F4F7B0171E0871A9108712CCE
:104AF000F9F0C5010E94B62E97FD18C0FC01FF27F2
:104B000023E0F595E7952A95E1F7EC0DFD1D208151
:104B100030E0AC014770552702C0359527954A957E
:104B2000E2F720FDD8CFB5010E946D2F711083CF21
:104B3000E114F10411F0F7011082C80115C0682FCB
:104B4000669566956695F601E60FF11D682F67700C
:104B50008D0102C0000F111F6A95E2F7B801708144
:104B6000672B6083682E9FCFA096E0E10C945E2CAB
:104B70002F923F924F925F926F927F929F92AF924D
:104B8000BF92CF92DF92EF92FF920F931F93CF933A
:104B9000DF936C018B011A010E94B62EEC0199275C
:104BA0008B32910529F08D9781F430E8932E01C066
:104BB000912C0150110911F480E00CC1C6010E9432
:104BC000B62EEC0197FF02C0F7CF912CCE010E94C8
:104BD0008D2E8936910531F08E36910599F5CFE904
:104BE000D4E002C0C2EAD4E02196FE013197B4902D
:104BF000BB20C9F00150110991F0C6010E94B62EE8
:104C00007C0197FD0CC00E948D2E9927EB2DF0E0C2
:104C10008E179F0749F3B601C7010E946D2FC55A31
:104C2000D44051F603C0C25AD44029F080E090E04D
:104C3000A0E8BFE704C080E090E0A0ECBFE7BC01C3
:104C4000CD01B8C0412C512C3201E12CF12C2C2F7C
:104C500020532A3010F5E92DE260BE2E892D887090
:104C600092FE06C0811120C0FFEFEF1AFF0A1CC0A0
:104C7000882319F081E0E81AF10840E2C301B2018B
:104C80000E942C242B013C016839794989499941BA
:104C900058F0F92DF660BF2E07C02E3F89F493FC23
:104CA0000FC0292D2860B22E0150110941F0C60114
:104CB0000E94B62EEC019B2C97FFC9CF01C09B2C04
:104CC00091FE7ACFCE018F7D99278534910509F029
:104CD00042C0580181E0A81AB10809F46DCFC6019D
:104CE0000E94B62EEC0197FD67CF99278B32910574
:104CF00029F08D9769F4E92DE0619E2E5801F2E0CC
:104D0000AF1AB10809F458CFC6010E94B62EEC01C3
:104D1000CE01C0970A9708F04FCF8501A12CB12C86
:104D2000B501BB0C880B990B2C2F205340E20E943D
:104D30002C245B010150110939F0C6010E94B62EE6
:104D4000EC01C0970A9760F394FE03C0B194A1945C
:104D5000B108EA0CFB1C012B31F0D7FD04C0B601F1
:104D6000CE010E946D2FC301B2010E944129F7FEBE
:104D700006C0F194E194F108CEEBD4E002C0C6ED98
:104D8000D4E06E0128E1C21AD10800E210E0E0167A
:104D9000F10650F0FE0125913591459154910E9404
:104DA000F829E01AF10AF3CF249716950795CC1647
:104DB000DD0669F797FE05C0DC01CB01B058BC01E8
:104DC000CD012114310429F0F101608371838283C4
:104DD000938381E0DF91CF911F910F91FF90EF902E
:104DE000DF90CF90BF90AF909F907F906F905F903B
:104DF0004F903F902F900895A0E0B0E0E2E0F7E2FE
:104E00000C94442C5C01EB014A01FC0117821682D0
:104E1000612CF5010381FE0103FD859103FF819162
:104E2000182FEF01882309F40FC190E00E94842E0F
:104E3000892B21F0C5010E945324EBCF153241F498
:104E4000FE0103FD159103FF1191EF01153281F46D
:104E5000C5010E94B62E97FDF5C0412F50E09C0180
:104E6000332724173507A9F2B5010E946D2FECC036
:104E70001A3241F403FD159103FF1191EF017724DC
:104E8000739401C0712CE12CF12C20ED210F2A30FC
:104E900088F4F72DF2607F2EB70180E090E040E2C9
:104EA0000E942C247B01FE0103FD159103FF11914B
:104EB000EF01EBCF71FE04C0E114F10421F4C4C092
:104EC000EE24EA94FE2C183619F01C3661F014C05A
:104ED000FE0103FD159103FF1191EF01183661F4F6
:104EE000872D8860782E972D9460792EFE0103FD22
:104EF000159103FF1191EF01112309F4A5C0612F52
:104F000070E08DE894E00E94952E892B09F49CC0F6
:104F100070FC07C0F401C080D180C40102964C012E
:104F200002C0C12CD12C1E3651F4F50146815781A7
:104F300060E070E0272DC6010E9420246ACF13365E
:104F4000B9F471FC03C0EE24E394F12CC5010E9476
:104F5000B62E97FD77C0C114D10429F0F6018083E5
:104F6000C60101966C0191E0E91AF10879F766C073
:104F70001B3559F49E01A601B701C5010E94F62414
:104F8000EC01892B09F05AC054C0C5010E9453247A
:104F900097FD58C01F36E1F140F41436A9F11936D7
:104FA000D1F1183509F03EC02BC01337A9F018F421
:104FB000103731F137C0153739F1183709F132C0E0
:104FC000C114D10429F0F6010083C60101966C01D9
:104FD00091E0E91AF10871F0C5010E94B62E8C012A
:104FE00097FD08C00E94842E892B51F3B501C8019A
:104FF0000E946D2FC114D10409F1F60110821EC068
:10500000F72DF0647F2E07C0872D8062782E03C0B5
:10501000972D9061792E272DA601B701C5010E9419
:105020006C2405C0A601B701C5010E94B8258111F5
:1050300005C0F5018381807329F406C070FCE9CEB8
:105040006394E7CE662019F0862D90E002C08FEFC2
:105050009FEFCDB7DEB7EEE00C94602C5058BB2725
:10506000AA270E9446280C94B9290E94AB2938F03F
:105070000E94B22920F039F49F3F19F426F40C94D1
:10508000A8290EF4E095E7FB0C94A229E92F0E94D1
:10509000CA2958F3BA17620773078407950720F0E7
:1050A00079F4A6F50C94EC290EF4E0950B2EBA2FAA
:1050B000A02D0B01B90190010C01CA01A00111241E
:1050C000FF27591B99F0593F50F4503E68F11A16CA
:1050D000F040A22F232F342F4427585FF3CF46955B
:1050E00037952795A795F0405395C9F77EF41F167D
:1050F000BA0B620B730B840BBAF09150A1F0FF0F47
:10510000BB1F661F771F881FC2F70EC0BA0F621F32
:10511000731F841F48F4879577956795B795F79522
:105120009E3F08F0B0CF9395880F08F09927EE0FB7
:105130009795879508950E947E2908F481E0089547
:105140000E94B4280C94B9290E94B22958F00E94F8
:10515000AB2940F029F45F3F29F00C94A2295111AA
:105160000C94ED290C94A8290E94CA2968F399236C
:10517000B1F3552391F3951B550BBB27AA27621753
:105180007307840738F09F5F5F4F220F331F441F60
:10519000AA1FA9F335D00E2E3AF0E0E832D0915094
:1051A0005040E695001CCAF72BD0FE2F29D0660F81
:1051B000771F881FBB1F261737074807AB07B0E8C4
:1051C00009F0BB0B802DBF01FF2793585F4F3AF0CA
:1051D0009E3F510578F00C94A2290C94ED295F3F75
:1051E000E4F3983ED4F3869577956795B795F79550
:1051F0009F5FC9F7880F911D9695879597F9089538
:10520000E1E0660F771F881FBB1F621773078407D3
:10521000BA0720F0621B730B840BBA0BEE1F88F7E2
:10522000E09508950E94D22988F09F5798F0B92FF1
:105230009927B751B0F0E1F0660F771F881F991FCB
:105240001AF0BA95C9F714C0B13091F00E94EC2958
:10525000B1E008950C94EC29672F782F8827B85F68
:1052600039F0B93FCCF3869577956795B395D9F723
:105270003EF490958095709561957F4F8F4F9F4F2D
:105280000895E89409C097FB3EF490958095709539
:1052900061957F4F8F4F9F4F9923A9F0F92F96E982
:1052A000BB279395F695879577956795B795F111F7
:1052B000F8CFFAF4BB0F11F460FF1BC06F5F7F4F94
:1052C0008F4F9F4F16C0882311F096E911C07723A6
:1052D00021F09EE8872F762F05C0662371F096E8AF
:1052E000862F70E060E02AF09A95660F771F881F7E
:1052F000DAF7880F9695879597F90895990F000822
:10530000550FAA0BE0E8FEEF16161706E807F90797
:10531000C0F012161306E407F50798F0621B730B32
:10532000840B950B39F40A2661F0232B242B252BB3
:1053300021F408950A2609F4A140A6958FEF811D56
:10534000811D089597F99F6780E870E060E00895F7
:105350009FEF80EC089500240A941616170618068D
:105360000906089500240A94121613061406050669
:105370000895092E0394000C11F4882352F0BB0FFA
:1053800040F4BF2B11F460FF04C06F5F7F4F8F4F5D
:105390009F4F089557FD9058440F551F59F05F3F98
:1053A00071F04795880F97FB991F61F09F3F79F047
:1053B00087950895121613061406551FF2CF4695C9
:1053C000F1DF08C0161617061806991FF1CF86954B
:1053D0007105610508940895E894BB27662777272F
:1053E000CB0197F908950E947E2908F48FEF089564
:1053F0000E940B2A0C94B9290E94AB2938F00E9414
:10540000B22920F0952311F00C94A2290C94A8291C
:1054100011240C94ED290E94CA2970F3959FC1F3C1
:10542000950F50E0551F629FF001729FBB27F00D52
:10543000B11D639FAA27F00DB11DAA1F649F6627A7
:10544000B00DA11D661F829F2227B00DA11D621FF6
:10545000739FB00DA11D621F839FA00D611D221FB0
:10546000749F3327A00D611D231F849F600D211D94
:10547000822F762F6A2F11249F5750409AF0F1F017
:1054800088234AF0EE0FFF1FBB1F661F771F881F80
:1054900091505040A9F79E3F510580F00C94A229ED
:1054A0000C94ED295F3FE4F3983ED4F3869577950D
:1054B0006795B795F795E7959F5FC1F7FE2B880F26
:1054C000911D9695879597F90895FA01EE0FFF1FA4
:1054D000309621053105A1F16115710561F480381F
:1054E000BFE39B0749F168949038810561F08038EB
:1054F000BFEF9B0741F099234AF5FF3FE1053105D6
:10550000210519F1E8940894E795D901AA2329F413
:10551000AB2FBE2FF85FD0F310C0FF5F70F4A695DD
:10552000E0F7F73950F019F0FF3A38F49F779F937E
:105530000DD00F9007FC9058089546F00C94A829C0
:1055400060E070E080E89FE308954FE79F775F9306
:105550004F933F932F930E94602B2F913F914F9138
:105560005F910E94F8290C94BD2A29F416F00C943E
:10557000A2290C94EC290C94A8290E94D229A8F302
:105580009638A0F707F80F92E8942BE33AEA48EB35
:105590005FE70E940E2A0F920F920F924DB75EB7EF
:1055A0000F920E94A82BE8E7F0E00E94EF2A4F91AB
:1055B0005F91EF91FF91E595EE1FFF1F49F0FE57B8
:1055C000E0684427EE0F441FFA95E1F74195550B2B
:1055D0000E94222B0F9007FE0C94162B0895DF9348
:1055E000CF931F930F93FF92EF92DF927B018C0179
:1055F000689406C0DA2EEF010E940B2AFE01E8949F
:10560000A5912591359145915591A6F3EF010E9401
:105610004628FE019701A801DA9469F7DF90EF9020
:10562000FF900F911F91CF91DF9108959B01AC01E5
:1056300060E070E080E89FE30C94A0280C94A2291D
:105640000C94DC2B0E94D229D8F39923C9F3940F30
:10565000511DA3F39150504094F059F0882332F03B
:10566000660F771F881F91505040C1F79E3F51052C
:105670002CF7880F911D9695879597F908955F3FB0
:10568000ACF0983E9CF0BB27869577956795B795CB
:1056900008F4B1609395C1F7BB0F58F711F460FFA0
:1056A000E8CF6F5F7F4F8F4F9F4FE3CF0C94ED2973
:1056B00016F00C94DC2B0C94A82968940C94A22965
:1056C0000E94D229A8F39923C1F3AEF3DF93CF93BD
:1056D0001F930F93FF92C92FDD2788232AF021976C
:1056E000660F771F881FDAF720E030E040E85FEBB5
:1056F0009FE3883920F0803E38F021968F770E9412
:105700002F28E0EAF0E004C00E942F28EDECF0E042
:105710000E94EF2A8B01BE01EC01FB2E6F5771092D
:105720007595771F880B990B0E94432928E132E772
:1057300041E35FE30E940B2AAF2D9801AE01FF9079
:105740000F911F91CF91DF910E9446280C94B929A7
:10575000FA01DC01AA0FBB1F9B01AC01BF5728F463
:10576000222733274427507820C0B75190F4AB2F1D
:105770000024469537952795011CA395D2F3002068
:1057800071F0220F331F441FB395DAF30ED00C943F
:105790002E2861307105A0E88A07B94630F49B01D4
:1057A000AC016627772788279078309621F02083F0
:1057B00031834283538308959F3F31F0915020F409
:1057C000879577956795B795880F911D96958795DD
:1057D00097F9089597FB072E16F4009407D077FDEC
:1057E00009D00E94772C07FC05D03EF49095819556
:1057F0009F4F0895709561957F4F0895A1E21A2EED
:10580000AA1BBB1BFD010DC0AA1FBB1FEE1FFF1F64
:10581000A217B307E407F50720F0A21BB30BE40BB4
:10582000F50B661F771F881F991F1A9469F76095FB
:105830007095809590959B01AC01BD01CF010895B5
:10584000EE0FFF1F0590F491E02D0994A29FB00187
:10585000B39FC001A39F700D811D1124911DB29FA4
:10586000700D811D1124911D08950E94262CA59F65
:10587000900DB49F900DA49F800D911D112408954B
:105880002F923F924F925F926F927F928F929F9250
:10589000AF92BF92CF92DF92EF92FF920F931F933E
:1058A000CF93DF93CDB7DEB7CA1BDB0B0FB6F894EF
:1058B000DEBF0FBECDBF09942A88398848885F842F
:1058C0006E847D848C849B84AA84B984C884DF80A0
:1058D000EE80FD800C811B81AA81B981CE0FD11D84
:1058E0000FB6F894DEBF0FBECDBFED010895AA1B21
:1058F000BB1B51E107C0AA1FBB1FA617B70710F0BB
:10590000A61BB70B881F991F5A95A9F780959095EC
:10591000BC01CD0108950F931F93CF93DF93823085
:10592000910510F482E090E0E091A808F091A908B8
:1059300020E030E0A0E0B0E0309719F140815181E3
:105940000281138148175907C8F08417950769F435
:10595000109731F012960C93129713961C9327C050
:105960000093A8081093A90822C02115310519F049
:105970004217530718F49A01BD01EF01DF01F80146
:10598000DBCF21153105F9F0281B390B2430310507
:1059900080F48A819B816115710521F0FB0193835D
:1059A000828304C09093A9088093A808FE013296D0
:1059B00044C0FE01E20FF31F8193919322503109FD
:1059C000398328833AC02091A6083091A708232B59
:1059D00041F420913801309139013093A708209388
:1059E000A60820913601309137012115310541F487
:1059F0002DB73EB740913A0150913B01241B350B26
:105A0000E091A608F091A708E217F307A0F42E1B77
:105A10003F0B2817390778F0AC014E5F5F4F241712
:105A2000350748F04E0F5F1F5093A7084093A60814
:105A30008193919302C0E0E0F0E0CF01DF91CF913C
:105A40001F910F910895CF93DF93009709F481C0C0
:105A5000FC01329713821282A091A808B091A90884
:105A6000109781F420813181820F931F2091A60825
:105A70003091A7082817390751F5F093A708E0934C
:105A8000A60867C0ED0120E030E0CE17DF0740F444
:105A90004A815B819E0141155105F1F0EA01F5CF84
:105AA000D383C28340815181840F951FC817D907C2
:105AB00059F488819981840F951F02969183808380
:105AC0008A819B81938382832115310529F4F09388
:105AD000A908E093A8083DC0E901FB83EA83499146
