:100000001AC20000BAC2000032C2000030C20000B2
:100010002EC200002CC200002AC2000012C3000041
:1000200026C2000024C2000022C2000020C200003C
:100030001EC200001CC200000C94630F18C2000016
:1000400016C2000014C2000012C2000010C200005C
:100050000EC200000CC200000AC2000008C200006C
:1000600006C2000004C2000007634236B79BD8A74F
:100070001A39685618AEBAAB558C1D3CB7CC5763CD
:10008000BD6DEDFD753EF6177231BF000000803F7B
:1000900008000000BE922449123EABAAAA2ABECD97
:1000A000CCCC4C3E00000080BEABAAAAAA3E000009
:1000B0000000BF000000803F000000000008417801
:1000C000D3BB4387D1133D190E3CC3BD4282AD2B38
:1000D0003E68EC8276BED98FE1A93E4C80EFFFBE30
:1000E00001C4FF7F3F0000000000253032643A2544
:1000F000303264002D2D3A2D2D0025312E30662012
:1001000057202020002D2D2D20570025312E32661E
:1001100020200053232025642020202000617667C2
:100120002025322E306600617667202D2D00535039
:100130004D2025322E306620200053504D202D2D8D
:1001400020200025312E3066206D65746572732085
:1001500020202000253032643A25303264002020EF
:100160004F70656E204572676F20202000000000F0
:10017000000000002F00000007000700147F147F1C
:1001800014242A7F2A123234081626364955225062
:100190000005030000001C2241000041221C001445
:1001A000083E081408083E080800005030001010EF
:1001B000101010006060000020100804023E514939
:1001C000453E00427F400042615149462141454B36
:1001D000311814127F1027454545393C4A494930AA
:1001E00001710905033649494936064949291E0066
:1001F0003636000000563600000814224100141460
:1002000014141400412214080201510906324959FC
:10021000513E7E1111117E7F494949363E4141418F
:10022000227F4141221C7F494949417F0909090137
:100230003E4149497A7F0808087F00417F410020FC
:1002400040413F017F081422417F404040407F02EF
:100250000C027F7F0408107F3E4141413E7F090927
:1002600009063E4151215E7F0919294646494949FF
:100270003101017F01013F4040403F1F2040201FCE
:100280003F4038403F631408146307087008076153
:1002900051494543007F414100552A552A550041A7
:1002A000417F00040201020440404040400001023E
:1002B000040020545454787F48444438384444441B
:1002C00020384444487F3854545418087E090102A9
:1002D0000C5252523E7F0804047800447D400020B6
:1002E00040443D007F1028440000417F40007C04D2
:1002F0001804787C0804047838444444387C141486
:100300001408081414187C7C080404084854545435
:1003100020043F4440203C4040207C1C2040201CC6
:100320003C4030403C44281028440C5050503C4441
:1003300064544C446E616E00696E660000407A1031
:10034000F35A00A0724E18090010A5D4E80000E886
:100350007648170000E40B54020000CA9A3B0000E4
:1003600000E1F505000080969800000040420F0073
:100370000000A08601000000102700000000E80334
:10038000000000006400000000000A0000000000FF
:100390000100000000002C76D888DC674F0823DFBE
:1003A000C1DFAE59E1B1B796E5E3E453C63AE65191
:1003B000997696E8E6C28426EB898C9B62ED407CB8
:1003C0006FFCEFBC9C9F40F2BAA56FA5F490055A54
:1003D0002AF75C936B6CF9676DC11BFCE0E40D4779
:1003E000FEF520E6B500D0ED902E0300943577059C
:1003F0000080841E080000204E0A000000C80C3354
:100400003333330F986E12831141EF8D2114893BE2
:10041000E65516CFFEE6DB18D1844B381BF77C1D62
:10042000901DA4BBE424203284725E228100C9F1B5
:1004300024ECA1E53D2711241FBECFEFD8E0DEBF9D
:10044000CDBF11E0A0E0B1E0E8E6F2E302C0059024
:100450000D92A432B107D9F712E0A4E2B1E001C0D5
:100460001D92A532B107E1F738D10C943219C8CDED
:100470006F927F928F929F92AF92BF92CF92DF92B4
:10048000EF92FF920F931F936B017C015A01490178
:10049000380120E030E040E752E40E94FF130E9460
:1004A0006714F50171836083882777FD8095982F05
:1004B0000E949A1420E030E040E752EC0E944E1572
:1004C0009B01AC01C701B6010E9497135B016C014F
:1004D0000E9467147B01F40171836083C601B5013A
:1004E00020E030E040E752E40E944E155B016C01D1
:1004F0000027F7FC0095102FC801B7010E949A143D
:1005000020E030E040E752EC0E944E159B01AC0128
:10051000C601B5010E9497130E946714F30171830D
:1005200060831F910F91FF90EF90DF90CF90BF906D
:10053000AF909F908F907F906F9008951092800061
:1005400083E08093810082E08093B00097E09093F5
:10055000B1008093700080E58093B3001AB88BB12E
:100560008C6E8BB99093690081E08DBB10928500F1
:10057000109284001092B20008951F920F920FB64D
:100580000F9211242F933F934F935F936F937F9319
:100590008F939F93AF93BF93EF93FF93F8948091C2
:1005A0003D018F5F80933D0190E087709070892BB3
:1005B000B1F510923D018091C7019091C8019093CF
:1005C000CA018093C9018091840090918500909325
:1005D000C8018093C7011092850010928400609139
:1005E0004601709147018091480190914901209105
:1005F00028013091290140912A0150912B010E943C
:10060000971360934601709347018093480190933C
:10061000490180911401813011F4109214017894F1
:10062000FF91EF91BF91AF919F918F917F916F91CA
:100630005F914F913F912F910F900FBE0F901F90A0
:1006400018951F920F920FB60F9211248F939F93BC
:1006500080918501813099F480918201909183018C
:100660008832910530F40196909383018093820142
:1006700006C01092830110928201109285014D9B59
:1006800004C04E9B02C04F9909C080918501882308
:1006900029F4809184018F5F80938401809184018B
:1006A0008630A0F04D9903C081E080933C014E99C3
:1006B00003C082E080933C014F9903C083E08093A4
:1006C0003C011092840181E0809385019F918F917C
:1006D0000F900FBE0F901F9018952F923F926F9220
:1006E0007F928F929F92AF92BF92CF92DF92EF92C2
:1006F000FF920F931F93DF93CF93CDB7DEB72C9765
:100700000FB6F894DEBF0FBECDBF609100017091AF
:100710000101809102019091030120910401309127
:10072000050140910601509107010E944E1560930A
:100730002401709325018093260190932701209135
:1007400008013091090140910A0150910B010E946A
:10075000FF132BEA3AEA4AEA5EE30E94B1157B01F5
:100760008C0120910C0130910D0140910E015091AE
:100770000F01CA01B9010E949713A80197010E94B5
:100780004E15609328017093290180932A0190935C
:100790002B0180E197E229E130E0F9013197F1F78F
:1007A0000197D9F780E197E229E130E0F90131972B
:1007B000F1F70197D9F780E197E229E130E0F901FB
:1007C0003197F1F70197D9F70E94300F88E20E9424
:1007D000220F81E0809314010E94550FAFDE7894C0
:1007E0001092C8011092C7011092CA011092C9015B
:1007F00080E090E0A0E0B0E08093E0019093E10120
:10080000A093E201B093E3018093E4019093E501AA
:10081000A093E601B093E7018093BF019093C001DC
:10082000A093C101B093C2018093C3019093C4010E
:10083000A093C501B093C60110927E0110927F0172
:1008400011E0109307021092080280939101909397
:100850009201A0939301B09394018093950190939A
:100860009601A0939701B09398018093990190937A
:100870009A01A0939B01B0939C0180939D0190935A
:100880009E01A0939F01B093A0018093A10190933A
:10089000A201A093A301B093A4018093A50190931A
:1008A000A601A093A701B093A8018093A9019093FA
:1008B000AA01A093AB01B093AC018093AD019093DA
:1008C000AE01A093AF01B093B0018093B1019093BA
:1008D000B201A093B301B093B4018093B50190939A
:1008E000B601A093B701B093B8018093CB01909368
:1008F000CC01A093CD01B093CE018093CF01909312
:10090000D001A093D101B093D2018093D3019093F1
:10091000D401A093D501B093D6018093D7019093D1
:10092000D801A093D901B093DA018093DB019093B1
:10093000DC01A093DD01B093DE018093E801909388
:10094000E901A093EA01B093EB018093EC0190934D
:10095000ED01A093EE01B093EF018093F00190932D
:10096000F101A093F201B093F3018093F40190930D
:10097000F501A093F601B093F7018093F8019093ED
:10098000F901A093FA01B093FB0180930F029093B9
:100990001002A0931102B09312028093130290935D
:1009A0001402A0931502B09316028093170290933D
:1009B0001802A0931902B0931A0280931B0290931D
:1009C0001C02A0931D02B0931E0280931F029093FD
:1009D0002002A0932102B093220280934A019093B7
:1009E0004B01A0934C01B0934D0180934E01909325
:1009F0004F01A0935001B093510180935E019093F9
:100A00005F01A0936001B0936101809362019093B4
:100A10006301A0936401B09365010E940C0F81E013
:100A200061E00E94880E1093860100D000D005E19D
:100A300011E0ADB7BEB712961C930E9311978EE5D9
:100A400091E014969C938E9313970E948D181092A8
:100A500086010F900F900F900F9089E092E00E9416
:100A6000B20F89EB91E00E94B20F10920602109231
:100A7000DF011092FC011092FD0110928101109291
:100A8000800118018091FD018F5F8093FD0164E674
:100A90000E943517992309F04AC080913C018130AA
:100AA00091F410923C01F8940E941C1078941092DA
:100AB00081011092800189E092E00E94B20F89EBDF
:100AC00091E00E94B20F80913C018230F1F41092CB
:100AD0003C0180E090E0A0E0B0E08093460190937C
:100AE0004701A0934801B0934901F8940E941C105B
:100AF0007894109281011092800189E092E00E9426
:100B0000B20F89EB91E00E94B20F80913C018330DB
:100B100071F410923C0180E090E0A0E0B0E080939E
:100B2000460190934701A0934801B09349018091F9
:100B30001401882309F0C4C46091C7017091C801F1
:100B400080E090E00E9498142091100130911101F2
:100B500040911201509113010E944E1569837A83CE
:100B60008B839C83609372017093730180937401F3
:100B7000909375018091E0019091E101A091E201D3
:100B8000B091E3018D839E83AF83B8878093E401A6
:100B90009093E501A093E601B093E701E090C701CF
:100BA000F090C801A090C901B090CA0120910C0139
:100BB00030910D0140910E0150910F01CA01B90110
:100BC0000E94971369877A878B879C8760911001B1
:100BD00070911101809112019091130120E030E099
:100BE00040E05FE30E944E153B014C0100E010E045
:100BF000C801B7010E9498147B018C01CC24DD242C
:100C0000C601B5010E9498149B01AC01C801B7014F
:100C10000E9497139B01AC01C401B3010E944E15C1
:100C20009B01AC0169857A858B859C850E94FF13A9
:100C30006093E0017093E1018093E2019093E301FE
:100C40006090BF017090C0018090C1019090C2017E
:100C50006092C3017092C4018092C5019092C60156
:100C60002D813E814F8158850E9496137B018C0116
:100C700069817A818B819C8127E137EB41ED58E3D3
:100C80000E9497135B016C01C801B701A601950191
:100C90000E94FF136093BF017093C0018093C10154
:100CA0009093C201A40193010E949613A60195019D
:100CB0000E94FF137B018C0160936E0170936F01A2
:100CC000809370019093710120E030E040E252EC9B
:100CD0000E944A1518166CF4C801B70120E030E0F4
:100CE00040E252E40E94FB1388231CF410927F011F
:100CF00003C091E090937F016091BF017091C001AA
:100D00008091C1019091C20120E030E040E751E4C0
:100D10000E944A15181624F4A1E0A0937E0102C097
:100D200010927E0180917F01813041F080917E019F
:100D3000813061F480910702813041F48091070293
:100D400080930802B1E0B093070206C080910702C9
:100D5000809308021092070280910702813009F007
:100D6000AFC080910802882309F0AAC089EB91E006
:100D70000E94B20F80E090E0A0E0B0E080934E01CE
:100D800090934F01A0935001B093510180934A0179
:100D900090934B01A0934C01B0934D018091F401CD
:100DA0009091F501A091F601B091F7018093F801BF
:100DB0009093F901A093FA01B093FB018091F001A7
:100DC0009091F101A091F201B091F3018093F401AF
:100DD0009093F501A093F601B093F7018091EC0197
:100DE0009091ED01A091EE01B091EF018093F0019F
:100DF0009093F101A093F201B093F3018091E80187
:100E00009091E901A091EA01B091EB018093EC018E
:100E10009093ED01A093EE01B093EF0160915E011C
:100E200070915F0180916001909161012091620158
:100E30003091630140916401509165010E949613C5
:100E40002DEB37E346E855E30E9497139B01AC0175
:100E5000609152017091530180915401909155011C
:100E60000E94FF136093E8017093E9018093EA0107
:100E70009093EB016091E0017091E1018091E201BA
:100E80009091E301209172013091730140917401BE
:100E9000509175010E944E159B01AC016091760145
:100EA0007091770180917801909179010E94971358
:100EB0006093760170937701809378019093790124
:100EC00080910702882309F0EEC1809108028130E9
:100ED00009F0E9C180918001909181010196909380
:100EE00081018093800180E090E0A0E0B0E08093F9
:100EF000520190935301A0935401B093550189EB93
:100F000091E00E94D60F0E94981420E030E04AE75A
:100F100054E40E94FF136093620170936301809315
:100F200064019093650189E092E00E94D60F0E94CF
:100F3000981420E030E04AE754E40E94FF136093E5
:100F40005E0170935F01809360019093610189E07D
:100F500092E00E94B20F60915E0170915F018091FA
:100F600060019091610127E137EB41ED58E30E9468
:100F700097137B018C0160917601709177018091CC
:100F8000780190917901A80197010E94FF13609365
:100F90007A0170937B0180937C0190937D0180E0C6
:100FA00090E0A0E0B0E08093760190937701A09369
:100FB0007801B09379016091460170914701809169
:100FC00048019091490120916A0130916B01409153
:100FD0006C0150916D010E949613609366017093AD
:100FE00067018093680190936901209146013091D7
:100FF0004701409148015091490120936A01309383
:101000006B0140936C0150936D012091B1013091BF
:10101000B2014091B3015091B4012093B5013093D6
:10102000B6014093B7015093B8012091AD013091C2
:10103000AE014091AF015091B0012093B1013093C6
:10104000B2014093B3015093B4012091A9013091B2
:10105000AA014091AB015091AC012093AD013093B6
:10106000AE014093AF015093B0012091A5013091A2
:10107000A6014091A7015091A8012093A9013093A6
:10108000AA014093AB015093AC01A80197010E94C3
:10109000FF136093A5017093A6018093A70190931D
:1010A000A8018091D7019091D801A091D901B09168
:1010B000DA018093DB019093DC01A093DD01B09312
:1010C000DE018091D3019091D401A091D501B0911E
:1010D000D6018093D7019093D801A093D901B09302
:1010E000DA018091CF019091D001A091D101B0910E
:1010F000D2018093D3019093D401A093D501B093F2
:10110000D6018091CB019091CC01A091CD01B091FD
:10111000CE018093CF019093D001A093D101B093E1
:10112000D20160916201709163018091640190919C
:101130006501A80197010E94FF136093CB01709392
:10114000CC018093CD019093CE0180919D0190912F
:101150009E01A0919F01B091A0018093A101909365
:10116000A201A093A301B093A40180919901909151
:101170009A01A0919B01B0919C0180939D01909355
:101180009E01A0939F01B093A00180919501909141
:101190009601A0919701B091980180939901909345
:1011A0009A01A0939B01B0939C0180919101909131
:1011B0009201A0919301B091940180939501909335
:1011C0009601A0939701B093980160914E017091A0
:1011D0004F01809150019091510120914A0130912D
:1011E0004B0140914C0150914D010E949713A80171
:1011F00097010E94FF136093910170939201809375
:1012000093019093940180911B0290911C02A091F4
:101210001D02B0911E0280931F0290932002A093A2
:101220002102B09322028091170290911802A0919E
:101230001902B0911A0280931B0290931C02A09392
:101240001D02B0931E028091130290911402A0918E
:101250001502B09116028093170290931802A09382
:101260001902B0931A0280910F0290911002A0917E
:101270001102B09112028093130290931402A09372
:101280001502B093160280915E0190915F01A091CA
:101290006001B091610180930F0290931002A093BE
:1012A0001102B093120280910702813009F099C0B7
:1012B00080910802813009F094C060910001709122
:1012C000010180910201909103012091E001309190
:1012D000E1014091E2015091E3010E944E152091FD
:1012E000BF013091C0014091C1015091C2010E94E3
:1012F0004E1520917201309173014091740150910B
:1013000075010E944E159B01AC0160914E017091D8
:101310004F0180915001909151010E949713609369
:101320004E0170934F018093500190935101E090D2
:10133000E001F090E1010091E2011091E301C801A8
:10134000B701A80197010E944E15A80197010E94BC
:101350004E15209124013091250140912601509194
:1013600027010E944E152091720130917301409126
:101370007401509175010E944E159B01AC01609162
:101380004A0170914B0180914C0190914D010E9456
:10139000971360934A0170934B0180934C01909393
:1013A0004D01C801B7012091720130917301409144
:1013B0007401509175010E944E159B01AC01609122
:1013C00076017091770180917801909179010E9466
:1013D00097136093760170937701809378019093CF
:1013E000790180910702882309F067C08091080283
:1013F000882309F062C06091E0017091E101809161
:10140000E2019091E30127E137EB41ED58E30E94BF
:1014100097139B01AC010E944E159B01AC0160919A
:10142000BF017091C0018091C1019091C2010E94E1
:10143000FF1320917201309173014091740150911A
:1014400075010E944E159B01AC0160915201709193
:10145000530180915401909155010E94971360931C
:101460005201709353018093540190935501609100
:10147000E0017091E1018091E2019091E3012091FE
:1014800072013091730140917401509175010E9475
:101490004E159B01AC0160917601709177018091AE
:1014A0007801909179010E9497136093760170936F
:1014B0007701809378019093790191E090931401E2
:1014C0008091FD0190E064EF71E00E945517892B37
:1014D00009F0D8CA9ED50E94981420E030E040E779
:1014E00052E40E94FF136093420170934301809382
:1014F00044019093450183E066E00AD46091420183
:101500007091430180914401909145014CE251E07A
:101510002EE231E000E311E00E943802ADB7BEB721
:1015200018970FB6F894BEBF0FBEADBFEDB7FEB7AC
:10153000319611962C92119712963C9224E531E047
:101540003383228380912E0190912F019583848390
:101550008091300190913101978386830E948D188C
:101560008DB79EB708960FB6F8949EBF0FBE8DBF7D
:1015700083E065E0CDD340914601509147016091F1
:10158000480170914901ADB7BEB718970FB6F894EE
:10159000BEBF0FBEADBFEDB7FEB7319611962C9210
:1015A000119712963C9223E431E0338322834483E3
:1015B0005583668377830E948D1820911B0230919A
:1015C0001C0240911D0250911E02CA01B9010E94E5
:1015D000971320911F0230912002409121025091D7
:1015E00022020E9497137B018C0160911702709177
:1015F00018028091190290911A0220E030E040E830
:1016000050E40E944E159B01AC01C801B7010E9435
:1016100097137B018C0160911302709114028091E9
:1016200015029091160220E030E040E051E40E9463
:101630004E159B01AC01C801B7010E9497137B01B5
:101640008C0160910F0270911002809111029091B3
:10165000120220E030E040E851E40E944E159B0168
:10166000AC01C801B7010E94971320E030E048EFB9
:1016700051E40E94FF136093FE017093FF01809379
:101680000002909301028DB79EB708960FB6F894AA
:101690009EBF0FBE8DBF81E062E03AD38091800192
:1016A000909181010597B8F400D000D0ADB7BEB7D6
:1016B00011962C92119712963C921297EAE3F1E060
:1016C0001496FC93EE9313970E948D180F900F9031
:1016D0000F900F9040C02DB73EB7285030400FB646
:1016E000F8943EBF0FBE2DBF0DB71EB70F5F1F4F43
:1016F000ADB7BEB711962C92119712963C922EE27E
:1017000031E0F801338322836091FE017091FF0183
:10171000809100029091010227E137EB41ED58E3FF
:101720000E9497139B01AC0160E070E080E792E4B7
:101730000E94FF13D80114966D937D938D939C9313
:1017400017970E948D18EDB7FEB738960FB6F8942C
:10175000FEBF0FBEEDBF89E062E0DAD2609180018A
:10176000709181016230710598F000912C01109107
:101770002D010115110519F580912E0190912F0170
:10178000892BE9F480913001909131014E97BCF49E
:1017900000D000D0ADB7BEB711962C92119712961B
:1017A0003C921297E7E2F1E01496FC93EE931397C4
:1017B0000E948D180F900F900F900F9075C080E0D1
:1017C00090E00E9498145B016C01B801882777FDB6
:1017D0008095982F0E949A1420E030E040E752E470
:1017E0000E944E157B018C0160912E0170912F019A
:1017F000882777FD8095982F0E949A149B01AC0151
:10180000C801B70194D77B018C01609130017091C0
:101810003101882777FD8095982F0E949A1420E047
:1018200030E040E752E4EBD79B01AC01C801B701BF
:101830007ED72AE037ED43E25CE379D79B01AC0128
:10184000C601B501DCD79B01AC0120933E0130936A
:101850003F0140934001509341012DB73EB72850BE
:1018600030400FB6F8943EBF0FBE2DBFEDB7FEB7A8
:101870003196ADB7BEB711962C92119712963C9245
:101880002DE131E033832283CB01DA018483958318
:10189000A683B7830E948D188DB79EB708960FB6A2
:1018A000F8949EBF0FBE8DBF81E063E031D200D0BF
:1018B00000D000D0EDB7FEB73196ADB7BEB71196E8
:1018C0002C92119712963C9223E131E033832283CC
:1018D0008091800190918101958384830E948D186D
:1018E0002091D7013091D8014091D9015091DA016E
:1018F000CA01B9011CD72091DB013091DC01409174
:10190000DD015091DE0113D77B018C016091D30181
:101910007091D4018091D5019091D60120E030E002
:1019200040E850E40E944E159B01AC01C801B7018C
:10193000FED67B018C016091CF017091D001809126
:10194000D1019091D20120E030E040E051E40E94CA
:101950004E159B01AC01C801B701E9D67B018C0192
:101960006091CB017091CC018091CD019091CE011D
:1019700020E030E040E851E40E944E159B01AC01AC
:10198000C801B701D4D620E030E048EF51E437D7A2
:1019900060935A0170935B0180935C0190935D01A9
:1019A0008DB79EB706960FB6F8949EBF0FBE8DBF3B
:1019B0008BE063E0ADD1ADB7BEB718970FB6F89422
:1019C000BEBF0FBEADBFEDB7FEB7319611962C92DC
:1019D000119712963C922BE031E033832283809161
:1019E0005A0190915B01A0915C01B0915D018483EB
:1019F0009583A683B7830E948D188DB79EB70896EE
:101A00000FB6F8949EBF0FBE8DBF84E064E080D116
:101A100020919D0130919E0140919F015091A00124
:101A2000CA01B90184D62091A1013091A20140914F
:101A3000A3015091A4017BD67B018C016091990197
:101A400070919A0180919B0190919C0120E030E07F
:101A500040E850E40E944E159B01AC01C801B7015B
:101A600066D67B018C016091950170919601809101
:101A700097019091980120E030E040E051E40E940D
:101A80004E159B01AC01C801B70151D67B018C01F9
:101A900060919101709192018091930190919401D4
:101AA00020E030E040E851E4F9D79B01AC01C801E7
:101AB000B7013DD620E030E048EF51E4A0D67B01ED
:101AC0008C01CB01D8018093020290930302A09372
:101AD0000402B093050280918001909181010597E5
:101AE000B8F400D000D0ADB7BEB711962C921197C4
:101AF00012963C921297E5E0F1E01496FC93EE9377
:101B000013970E948D180F900F900F900F9027C081
:101B10002DB73EB7285030400FB6F8943EBF0FBEE9
:101B20002DBFEDB7FEB73196ADB7BEB711962C926B
:101B3000119712963C922AEF30E033832283C7013B
:101B4000D80184839583A683B7830E948D188DB7AF
:101B50009EB708960FB6F8949EBF0FBE8DBF8AE061
:101B600066E0D6D02091B1013091B2014091B3012D
:101B70005091B401CA01B901DAD52091B501309173
:101B8000B6014091B7015091B801D1D57B018C01CC
:101B90006091AD017091AE018091AF019091B00163
:101BA00020E030E040E850E479D79B01AC01C80167
:101BB000B701BDD57B018C016091A9017091AA018B
:101BC0008091AB019091AC0120E030E040E051E425
:101BD00065D79B01AC01C801B701A9D57B018C0178
:101BE0006091A5017091A6018091A7019091A80133
:101BF00020E030E040E851E451D79B01AC01C8013E
:101C0000B70195D520E030E048EF51E4F8D5609376
:101C100056017093570180935801909359012FE614
:101C200032E143E85AE383D59B01AC0160E070E008
:101C30008AEF93E4E4D5609338017093390180937F
:101C40003A0190933B0120E030E040E752E4D7D5E1
:101C50009B01AC0120934201309343014093440126
:101C60005093450142E351E024E331E006E311E003
:101C70000E94380280918001909181010A97B8F406
:101C800000D000D0ADB7BEB711962C921197129626
:101C90003C921297E4EFF0E01496FC93EE931397C6
:101CA0000E948D180F900F900F900F902DC02DB7A0
:101CB0003EB7285030400FB6F8943EBF0FBE2DBF40
:101CC000EDB7FEB73196ADB7BEB711962C9211970E
:101CD00012963C922AEE30E03383228380913401C5
:101CE00090913501958384838091360190913701DD
:101CF000978386830E948D188DB79EB708960FB67E
:101D0000F8949EBF0FBE8DBF1092FD010C9442054A
:101D100096E0899FC00111248A55904024E5629F76
:101D2000B0011124860F971F909324028093230201
:101D30000895982F87B18C6087B94198613031F44C
:101D40008091860181119095429A01C0429827E0C6
:101D500030E0492F50E0CA01022E02C095958795C8
:101D60000A94E2F780FF02C0439A01C04398449A64
:101D70004498215030408FEF2F3F380761F7419A48
:101D800087B1837F87B988B18C6088B908950F9334
:101D90001F938C0164E570E00E944117806860E049
:101DA000C8DFC80164E570E00E944117862F806497
:101DB00060E0BFDF1F910F9108950F931F93CF93A2
:101DC000DF93082F8091230290912402E0DF85E0C9
:101DD000089F80011124E801C353DF4F0B591040C5
:101DE00003591E4FFE018491880F61E0A2DF219606
:101DF000C017D107B9F780E061E09BDF8091230233
:101E00009091240206969093240280932302DF91FE
:101E1000CF911F910F910895CF93DF9310922402D9
:101E20001092230280E090E0B2DFC0E0D0E080E0DA
:101E300061E07FDF219681E0C83FD807C1F7DF91DD
:101E4000CF9108951F93182F81E260E072DF812FF8
:101E5000806860E06EDF80E260E06BDF1F910895D4
:101E6000409A87B18F6187B986EA9EE0FC0131977D
:101E7000F1F740980197F1F7409A419A81E260E0CA
:101E800058DF88EC60E055DF86E060E052DF83E1F8
:101E900060E04FDF80E260E04CDF8CE060E049DF33
:101EA000BBCF8BDF80E090E0089584E085BD84B5F2
:101EB000806884BD84B584BD8EE387BD82E0809355
:101EC0006E0016BC08951F920F920FB60F92112448
:101ED0002F938F939F93AF93BF9316BC80918B01E9
:101EE00090918C01029690938C0180938B0180914C
:101EF0008B0190918C01885E934050F18091870115
:101F000090918801A0918901B0918A010196A11D4B
:101F1000B11D8093870190938801A0938901B093AC
:101F20008A0180918D0190918E01A0918F01B091D5
:101F300090010196A11DB11D80938D0190938E019A
:101F4000A0938F01B093900110928C0110928B019D
:101F5000BF91AF919F918F912F910F900FBE0F90D6
:101F60001F901895CF93DF939C01EEE6F0E08081FF
:101F70008D7F808380918B0190918C01D901159682
:101F80009C938E9314978091870190918801A091E2
:101F90008901B0918A01E90188839983AA83BB836F
:101FA000808182608083DF91CF910895A6E0B0E0C8
:101FB000EBEDFFE09BC78C01CE010196D3DF698179
:101FC0007A818B819C81F80120813181428153810A
:101FD000621B730B840B950B28EE33E040E050E05E
:101FE00025D79B01AC01F80184819581A0E0B0E088
:101FF000281B390B4A0B5B0B8D819E81A0E0B0E062
:10200000280F391F4A1F5B1FB901CA012696E4E059
:1020100089C7EEE6F0E080818D7F80832091870183
:10202000309188014091890150918A0180818260BC
:102030008083B901CA010895EEE6F0E080818D7FCA
:10204000808310928701109288011092890110926A
:102050008A018081826080830895A1E1B0E0E2E39B
:10206000F0E136C73C017F876E876A01FC01178269
:102070001682838181FD03C06FEF7FEF53C39E0102
:102080002F5F3F4F398B288BF3012381EE85FF852E
:1020900023FD859123FF8191FF87EE87882309F433
:1020A0003EC3853251F4EE85FF8523FD859123FFE4
:1020B0008191FF87EE87853229F490E0B3010E9479
:1020C000A818E2CF982F10E0882499241032B0F499
:1020D0009B3269F09C3228F4903251F0933271F4C3
:1020E0000BC09D3239F0903349F4116028C0126062
:1020F000146025C0186023C0106121C017FD2AC0DC
:10210000892F80538A3078F416FF06C0FAE09F9E2C
:10211000902C1124980E13C03AE0839E802C112439
:10212000880E10620CC09E3221F416FDF8C21064B5
:1021300006C09C3611F4106802C0983659F4EE853A
:10214000FF8523FD959123FF9191FF87EE879923CA
:1021500009F0BCCF892F8554833020F4812F806112
:10216000905E07C0892F8556833008F08FC1812F7C
:102170008F7E86FD02C076E0972E6FE3F62EF82262
:10218000953619F4F0E4FF2A07C0963619F420E8D2
:10219000F22A02C091109A94F7FE0AC03BE3391567
:1021A00018F45CE3B52E02C0B92CB39427E009C043
:1021B00047E0491520F4BB2447E0942EF7CF292DA2
:1021C000BB24C60104969D878C87F60160817181CE
:1021D00082819381AE014F5F5F4F0B2DB0D66C01B2
:1021E0000981202E332400FF04C003FD02C01DE23C
:1021F00009C0F1FE02C01BE205C0F2FC02C010E003
:1022000001C010E2C1018C709070892BA1F11123E3
:1022100011F483E001C084E0881510F0882409C01F
:10222000881AF3FC06C080E290E0B30191D78A944B
:10223000D1F7112321F0812F90E0B30189D723FE3C
:1022400003C004E313E00DC008E313E00AC0E11487
:10225000F10409F0805290E0B3017AD70F5F1F4F6D
:1022600005C0EF2CFF24F0E1EF22FF24F801849158
:10227000882369F708C1F7FE12C0BC0C24FE04C015
:102280008A81813309F4BA941B141CF0BB24B394E3
:102290002DC0F8E0FB1550F538E0B32E27C0F6FC52
:1022A00025C0892D90E08C159D054CF02CEFC216B1
:1022B0002FEFD20624F030E8F32A01C09A94992037
:1022C00049F0E2E0F0E0EC0FFD1FE90DF11D808127
:1022D0008033A1F3F7FE0AC0B92CB394892D90E0A6
:1022E000C816D90614F0992401C09C18F7FC03C045
:1022F00025E030E009C01C141D041CF021E030E092
:1023000003C096012F5F3F4F112311F02F5F3F4F06
:10231000992029F0892D90E00196280F391F882DEA
:1023200090E02817390714F0882401C0821A4F2C36
:102330005524C20189709070892B31F007C080E26A
:1023400090E0B30105D78A948820C9F7112321F0C2
:10235000812F90E0B301FCD643FE06C007C080E3A6
:1023600090E0B301F5D68A948820C9F7F7FE44C0FF
:102370008601D7FE02C000E010E076010894E11C5F
:10238000F11CE01AF10A41E050E04C0F5D1FE40E31
:10239000F51E26014B185108892D90E0AA24BB2474
:1023A000A81AB90A5FEF0F3F150721F48EE290E0FB
:1023B000B301CED6C016D10634F0401651061CF437
:1023C000F701808101C080E3015010400894E11CB6
:1023D000F11C0A151B0524F090E0B301B9D6E2CF39
:1023E0000C151D0539F49A81963318F4953311F4C0
:1023F00024FE81E390E045C08A81813309F00F7E9D
:1024000090E0B301A5D6992091F08EE290E0B3015F
:102410009FD612E0E1E0F0E0EC0FFD1FE10FF11DAF
:102420001F5F808190E0B30193D69A9499F744FCA2
:1024300003C085E690E002C085E490E0B30188D651
:10244000D7FC05C0C114D10441F404FF06C0D094E8
:10245000C194D108D3948DE201C08BE290E0B30126
:1024600077D680E305C08F5F26EF3FEFC20ED31E05
:102470003AE0C316D104BCF790E0B30169D6C601B7
:10248000C096B30165D6CC84DD8446C1933631F065
:10249000933799F0933509F055C022C0F601808139
:1024A00089835E010894A11CB11C22E030E0C20EB9
:1024B000D31E21E0E22EF12C11C0F601A080B180E4
:1024C00016FD03C06FEF7FEF02C0692D70E022E0C0
:1024D00030E0C20ED31EC50115D67C011F7712C095
:1024E000F601A080B18016FD03C06FEF7FEF02C040
:1024F000692D70E022E030E0C20ED31EC501F7D591
:102500007C01106813FF06C019C080E290E0B3019F
:102510001FD68A94882D90E0E816F906B0F30EC015
:10252000F50117FD859117FF81915F0190E0B301DF
:102530000FD681108A940894E108F108E114F1049F
:1025400079F7EAC0943611F0993681F517FF08C083
:10255000F601208131814281538184E090E00AC0FC
:10256000F601808191819C01442737FD4095542FCD
:1025700082E090E0C80ED91E9FE6F92EF12257FFA7
:1025800009C050954095309521953F4F4F4F5F4F73
:1025900090E8F92ACA01B901AE014F5F5F4F2AE006
:1025A00030E002D6E82EE889EE1A40C0953721F4D3
:1025B0001F7E2AE030E01CC0197F9F3661F0903703
:1025C00020F4983509F0ABC00FC0903739F0983738
:1025D00009F0A5C004C028E030E00AC0106114FD75
:1025E000146020E130E004C014FD166020E132E008
:1025F00017FF08C0F601608171818281938144E0F8
:1026000050E008C0F60180819181BC0180E090E03B
:1026100042E050E0C40ED51EAE014F5F5F4FC4D5FF
:10262000E82E5889E51A8FE7F82EF122F6FE0BC046
:102630008EEFF822E91438F4F4FE07C0F2FC05C06E
:102640009FEEF92202C01E2D01C0192DF4FE0DC00F
:10265000FE01EE0DF11D8081803319F4E9EEFE22BA
:1026600008C01F5FF2FE05C003C08F2D867809F0F9
:102670001F5F0F2DF3FC13C0F0FE0EC0181510F0F5
:102680009E2C0AC09E2C980C911A182D05C080E231
:1026900090E0B3015DD51F5F1815C8F304C018158D
:1026A00010F4811A01C0882404FF0EC080E390E07A
:1026B000B3014ED502FF1BC001FD03C088E790E0C7
:1026C0000EC088E590E00BC0802F867881F001FF76
:1026D00002C08BE201C080E2F7FC8DE290E0B30122
:1026E00037D505C080E390E0B30132D59A94E91460
:1026F000C8F3EA94E1E0F0E0EC0FFD1FEE0DF11DF0
:10270000808190E0B30124D5EE2099F705C080E2E6
:1027100090E0B3011DD58A948820C9F7B5CCF301A8
:1027200066817781CB016196E2E1EEC35058BB2709
:10273000AA270ED075C166D130F06BD120F031F4EC
:102740009F3F11F41EF45BC10EF4E095E7FB51C10D
:10275000E92F77D180F3BA176207730784079507CB
:1027600018F071F49EF58FC10EF4E0950B2EBA2F80
:10277000A02D0B01B90190010C01CA01A001112487
:10278000FF27591B99F0593F50F4503E68F11A1633
:10279000F040A22F232F342F4427585FF3CF4695C4
:1027A00037952795A795F0405395C9F77EF41F16E6
:1027B000BA0B620B730B840BBAF09150A1F0FF0FB0
:1027C000BB1F661F771F881FC2F70EC0BA0F621F9C
:1027D000731F841F48F4879577956795B795F7958C
:1027E0009E3F08F0B3CF9395880F08F09927EE0F1E
:1027F000979587950895D9D008F481E008950CD075
:102800000FC107D140F0FED030F021F45F3F19F046
:10281000F0C0511139C1F3C014D198F39923C9F311
:102820005523B1F3951B550BBB27AA2762177307D6
:10283000840738F09F5F5F4F220F331F441FAA1F8A
:10284000A9F333D00E2E3AF0E0E830D0915050404A
:10285000E695001CCAF729D0FE2F27D0660F771FF8
:10286000881FBB1F261737074807AB07B0E809F0DA
:10287000BB0B802DBF01FF2793585F4F2AF09E3F6F
:10288000510568F0B6C000C15F3FECF3983EDCF341
:10289000869577956795B795F7959F5FC9F7880FE8
:1028A000911D9695879597F90895E1E0660F771F3A
:1028B000881FBB1F621773078407BA0720F0621BCB
:1028C000730B840BBA0BEE1F88F7E095089504D0C4
:1028D0006894B111D9C00895BCD088F09F5790F08A
:1028E000B92F9927B751A0F0D1F0660F771F881F35
:1028F000991F1AF0BA95C9F712C0B13081F0C3D050
:10290000B1E00895C0C0672F782F8827B85F39F0ED
:10291000B93FCCF3869577956795B395D9F73EF493
:1029200090958095709561957F4F8F4F9F4F08953B
:10293000E89409C097FB3EF4909580957095619559
:102940007F4F8F4F9F4F9923A9F0F92F96E9BB270F
:102950009395F695879577956795B795F111F8CF8B
:10296000FAF4BB0F11F460FF1BC06F5F7F4F8F4FF6
:102970009F4F16C0882311F096E911C0772321F0EC
:102980009EE8872F762F05C0662371F096E8862F84
:1029900070E060E02AF09A95660F771F881FDAF7DB
:1029A000880F9695879597F90895990F0008550F08
:1029B000AA0BE0E8FEEF16161706E807F907C0F0C5
:1029C00012161306E407F50798F0621B730B840BCD
:1029D000950B39F40A2661F0232B242B252B21F4A7
:1029E00008950A2609F4A140A6958FEF811D811D47
:1029F000089597F99F6780E870E060E008959FEF81
:102A000080EC089500240A94161617061806090685
:102A1000089500240A941216130614060506089554
:102A2000092E0394000C11F4882352F0BB0F40F4DC
:102A3000BF2B11F460FF04C06F5F7F4F8F4F9F4F1C
:102A4000089557FD9058440F551F59F05F3F71F09E
:102A50004795880F97FB991F61F09F3F79F0879505
:102A60000895121613061406551FF2CF4695F1DF8E
:102A700008C0161617061806991FF1CF869571051E
:102A8000610508940895E894BB2766277727CB0152
:102A900097F908958ADF08F48FEF08950BD0C0CF1F
:102AA000B1DF28F0B6DF18F0952309F0A2CFA7CF49
:102AB0001124EACFC6DFA0F3959FD1F3950F50E024
:102AC000551F629FF001729FBB27F00DB11D639FE0
:102AD000AA27F00DB11DAA1F649F6627B00DA11D86
:102AE000661F829F2227B00DA11D621F739FB00D2C
:102AF000A11D621F839FA00D611D221F749F33279C
:102B0000A00D611D231F849F600D211D822F762F34
:102B10006A2F11249F5750408AF0E1F088234AF031
:102B2000EE0FFF1FBB1F661F771F881F915050407D
:102B3000A9F79E3F510570F05CCFA6CF5F3FECF345
:102B4000983EDCF3869577956795B795F795E79569
:102B50009F5FC1F7FE2B880F911D9695879597F97A
:102B60000895FA01EE0FFF1F30962105310599F106
:102B70006115710561F48038BFE39B0749F16894E2
:102B80009038810561F08038BFEF9B0741F09923B1
:102B900042F5FF3FE1053105210511F1E894089464
:102BA000E795D901AA2329F4AB2FBE2FF85FD0F304
:102BB00010C0FF5F70F4A695E0F7F73950F019F0F8
:102BC000FF3A38F49F779F930CD00F9007FC9058F2
:102BD00008953EF014CF60E070E080E89FE3089530
:102BE0004FE79F775F934F933F932F939ED02F9103
:102BF0003F914F915F9152DF05C019F40EF0F9CE6D
:102C000042CFFDCE26DFC8F39638C0F707F80F9203
:102C1000E8942BE33AEA48EB5FE74EDF0F920F921E
:102C20000F924DB75EB70F92C0D0E8E6F0E016D035
:102C30004F915F91EF91FF91E595EE1FFF1F49F0D6
:102C4000FE57E0684427EE0F441FFA95E1F74195DF
:102C5000550B32D00F9007FE26C00895DF93CF9317
:102C60001F930F93FF92EF92DF927B018C01689488
:102C700005C0DA2EEF011EDFFE01E894A591259133
:102C8000359145915591AEF3EF0162DDFE0197015B
:102C9000A801DA9479F7DF90EF90FF900F911F91E0
:102CA000CF91DF9108959B01AC0160E070E080E876
:102CB0009FE3A5CD9ECEACC0CCDEE8F39923D9F33B
:102CC000940F511DBBF39150504094F059F088235C
:102CD00032F0660F771F881F91505040C1F79E3F1A
:102CE000510544F7880F911D9695879597F908959A
:102CF0005F3FACF0983E9CF0BB2786957795679533
:102D0000B79508F4B1609395C1F7BB0F58F711F46C
:102D100060FFE8CF6F5F7F4F8F4F9F4FE3CFB4CE01
:102D20000EF076C06CCE689464CE93DEC8F399231F
:102D3000D1F3C6F3DF93CF931F930F93FF92C92F65
:102D4000DD2788232AF02197660F771F881FDAF77F
:102D500020E030E040E85FEB9FE3883920F0803EE0
:102D600030F021968F77E3DCE0E9F0E003C0DFDCB0
:102D7000EDEBF0E073DF8B01BE01EC01FB2E6F5732
:102D800071097595771F880B990BD4DD28E132E71F
:102D900041E35FE38FDEAF2D9801AE01FF900F910D
:102DA0001F91CF91DF91D4DC3BCEFA01DC01AA0F59
:102DB000BB1F9B01AC01BF5728F4222733274427B0
:102DC00050781FC0B75188F4AB2F00244695379533
:102DD0002795011CA395D2F3002069F0220F331F21
:102DE000441FB395DAF30DD0A1CC61307105A0E892
:102DF0008A07B94630F49B01AC01662777278827FC
:102E00009078309621F02083318342835383089554
:102E10009F3F31F0915020F4879577956795B7954E
:102E2000880F911D9695879597F90895629FD00117
:102E3000739FF001829FE00DF11D649FE00DF11D75
:102E4000929FF00D839FF00D749FF00D659FF00D24
:102E50009927729FB00DE11DF91F639FB00DE11D11
:102E6000F91FBD01CF0111240895991B79E004C019
:102E7000991F961708F0961B881F7A95C9F78095B9
:102E80000895AA1BBB1B51E107C0AA1FBB1FA617B1
:102E9000B70710F0A61BB70B881F991F5A95A9F703
:102EA00080959095BC01CD01089597FB092E0726CA
:102EB0000AD077FD04D0E5DF06D000201AF4709523
:102EC00061957F4F0895F6F7909581959F4F0895EE
:102ED0002F923F924F925F926F927F928F929F922A
:102EE000AF92BF92CF92DF92EF92FF920F931F9318
:102EF000CF93DF93CDB7DEB7CA1BDB0B0FB6F894C9
:102F0000DEBF0FBECDBF09942A88398848885F8408
:102F10006E847D848C849B84AA84B984C884DF8079
:102F2000EE80FD800C811B81AA81B981CE0FD11D5D
:102F30000FB6F894DEBF0FBECDBFED010895283067
:102F400008F027E03327DA01990F311D87FD9160E2
:102F500000966105710539F432602E5F3D9330E3D0
:102F60002A95E1F708959F3F30F08038710561059B
:102F700009F03C5F3C5F3D93913008F08068911D03
:102F8000DF93CF931F930F93FF92EF92192F987FA8
:102F90009695E92F96959695E90FFF27EA56FC4FEF
:102FA00099273327EE24FF24A701E7010590089411
:102FB000079428F4360FE71EF81E491F511D660FAF
:102FC000771F881F991F0694A1F70590079428F48E
:102FD000E70EF81E491F561FC11D770F881F991F46
:102FE000661F0694A1F70590079428F4F80E491F70
:102FF000561FC71FD11D880F991F661F771F069484
:10300000A1F70590079420F4490F561FC71FD81F3A
:10301000990F661F771F881F0694A9F78491109552
:10302000177041F0D695C79557954795F794E79453
:103030001A95C1F7ECE3F3E068941590159135917A
:103040006591959105907FE27395E118F10A430B24
:10305000560BC90BD009C0F7E10CF11E431F561FD8
:10306000C91FD01D7EF4703311F48A95E6CFE89421
:10307000015030F0080F0AF40027021708F4202F3F
:103080002395022F7A3328F079E37D932A95E9F787
:1030900010C07D932A9589F6069497956795379584
:1030A00017951794E118F10A430B560BC90BD00979
:1030B00098F023957E9173957A3308F070E37C93B2
:1030C0002013B8F77E9170617D9330F0839571E3A2
:1030D0007D9370E32A95E1F71124EF90FF900F9113
:1030E0001F91CF91DF91992787FD90950895FC015D
:1030F0000590615070400110D8F7809590958E0F23
:103100009F1F0895FC016150704001900110D8F795
:10311000809590958E0F9F1F0895A0E0B0E0E2E9A2
:10312000F8E1E4CE0F8118859E01255F3F4FF8013D
:10313000838188608383C80169857A85A9010E949B
:103140002D10F8012381277F23832096E4E0EACE27
:103150000F931F93CF93DF938C01EB018B8181FF42
:103160001BC082FF0DC02E813F818C819D8128175D
:10317000390764F4E881F9810193F983E88306C093
:10318000E885F985802F0995892B31F48E819F81FF
:1031900001969F838E8302C00FEF1FEFC801DF915E
:1031A000CF911F910F910895FA01AA27283051F16C
:1031B000203181F1E8946F936E7F6E5F7F4F8F4F68
:1031C0009F4FAF4FB1E03ED0B4E03CD0670F781FC7
:1031D000891F9A1FA11D680F791F8A1F911DA11DAC
:1031E0006A0F711D811D911DA11D20D009F46894E5
:1031F0003F912AE0269F11243019305D3193DEF68D
:10320000CF010895462F4770405D4193B3E00FD042
:10321000C9F7F6CF462F4F70405D4A3318F0495D2D
:1032200031FD4052419302D0A9F7EACFB4E0A69510
:103230009795879577956795BA95C9F70097610532
:10324000710508959B01AC010A2E06945795479588
:1032500037952795BA95C9F7620F731F841F951F7D
:08326000A01D0895F894FFCFB2
:103268000AD7233E5F294B3B33333340DA0F4940BB
:10327800BD370637010000000200000000510F00B2
:043288000000000042
:00000001FF
