:100000000C946C020C94F21F0C9489020C948902DB
:100010000C9489020C9489020C9489020C94631F3D
:100020000C9489020C9489020C9489020C94890224
:100030000C9489020C9489020C9400050C9489029A
:100040000C9489020C9489020C9489020C94890204
:100050000C9489020C9489020C9489020C948902F4
:100060000C9489020C94890207634236B79BD8A787
:100070001A39685618AEBAAB558C1D3CB7CC5763CD
:10008000BD6DEDFD753EF6177231BF000000803F7B
:1000900008000000BE922449123EABAAAA2ABECD97
:1000A000CCCC4C3E00000080BEABAAAAAA3E000009
:1000B0000000BF000000803F000000000008417801
:1000C000D3BB4387D1133D190E3CC3BD4282AD2B38
:1000D0003E68EC8276BED98FE1A93E4C80EFFFBE30
:1000E00001C4FF7F3F00000000002532643A253044
:1000F0003264002D2D3A2D2D0025312E30662057EB
:1001000020002D2D2D20570025322E3066205350F3
:100110004D20002D2D2053504D00532320256420C9
:1001200000202564206B6720004369616F210D0A60
:10013000004669726D776172652076302E36350023
:1001400025312E30662057202020002D2D2D2057C0
:1001500000507772206573740025312E3066205769
:10016000202020002D2D2D205700507772002531A2
:100170002E3366206B676D32004A0025312E3466BF
:10018000002D2D2D2D2D2D004B5F44206573740007
:1001900025312E3466004B5F440025312E32662017
:1001A0007320202020002D2D2D2D207300732F5320
:1001B00074720025312E3266206D20202020002D03
:1001C0002D2D2D206D006D2F5374720025312E338F
:1001D00066206D006D2F52657600206B63616C7335
:1001E000200025332E3066002532643A25303264F3
:1001F000002D2D3A2D2D00202057202020002533C2
:100200002E3066002D2D2D002053504D202000252E
:10021000332E3066002D2D2D002532643A253032E4
:1002200064002532643A253032640025332E30666E
:1002300000206D200025342E3066002532643A25DA
:1002400030326400202A2000202020002D2D3A2D5D
:100250002D00206D20002D2D2D2D002D2D3A2D2D22
:10026000002D2D2D002D2D3A2D2D002532643A25FF
:10027000303264002D2D3A2D2D0025312E30662090
:1002800057202020002D2D2D20570025312E32669D
:100290002020005323202564202020200061766741
:1002A0002025322E306600617667202D2D005350B8
:1002B0004D2025322E306620200053504D202D2D0C
:1002C00020200025312E3066206D65746572732004
:1002D000202020002532643A2530326400204C75FD
:1002E00063612773204572676F202000466F727A22
:1002F0006120417A7A757272692100204C756361C0
:100300002773204572676F20002F2F0048656170AA
:100310000044617461004275726E00496E666F0040
:100320002F2F004678005061636500442F54005021
:10033000726F6700496E666F0050726F6700526F90
:100340007721004572676F00202573003E257300FA
:10035000257300486561703A2025642F25642000CC
:10036000486561703A2025642F2564200054686434
:1003700025643A2025642F25642000546864256490
:100380003A2025642F256420006E616E00696E6638
:10039000006364696E6F70737578585B6566674556
:1003A000464700616E006E66696E69747900CDCC57
:1003B000CC3D0AD7233C17B7D13877CC2B32959553
:1003C000E6241FB14F0A000020410000C84200404F
:1003D0001C4620BCBE4CCA1B0E5AAEC59D740040C4
:1003E0007A10F35A00A0724E18090010A5D4E80044
:1003F00000E87648170000E40B54020000CA9A3B5C
:10040000000000E1F50500008096980000004042E1
:100410000F000000A086010000001027000000006F
:10042000E803000000006400000000000A00000073
:1004300000000100000000002C76D888DC674F081F
:1004400023DFC1DFAE59E1B1B796E5E3E453C63A25
:10045000E651997696E8E6C28426EB898C9B62ED9C
:10046000407C6FFCEFBC9C9F40F2BAA56FA5F49056
:10047000055A2AF75C936B6CF9676DC11BFCE0E4CD
:100480000D47FEF520E6B500D0ED902E0300943523
:1004900077050080841E080000204E0A000000C876
:1004A0000C333333330F986E12831141EF8D2114C7
:1004B000893BE65516CFFEE6DB18D1844B381BF797
:1004C0007C1D901DA4BBE424203284725E22810036
:1004D000C9F124ECA1E53D2711241FBECFEFD8E0E0
:1004E000DEBFCDBF11E0A0E0B1E0EEE2F6E602C073
:1004F00005900D92A03BB107D9F718E0A0EBB1E051
:1005000001C01D92A33BB107E1F70E94A6060C941F
:1005100015330C940000F894FFCFCF93DF938091B4
:10052000C7029091C802A091C902B091CA02019677
:10053000A11DB11D8093C7029093C802A093C90268
:10054000B093CA02CBECD2E02FEF3FEF8D819E81BA
:10055000AF81B8850097A105B10551F18D819E81CC
:10056000AF81B8850197A109B1098D839E83AF83BF
:10057000B8878D819E81AF81B8850097A105B105AF
:10058000B9F48A818330E1F0823001F13C832B831E
:100590001A821D821E821F8218868091C502909148
:1005A000C602C817D90720F4D093C602C093C5026B
:1005B0002A9683E0CF32D80749F6DF91CF9108958C
:1005C000EB81FC8180818F5F8083E0CFEB81FC81B8
:1005D00011821082DBCF08957894089580E0089509
:1005E0000895FC0174836383128215821682178238
:1005F00010868091C5029091C602E817F90720F491
:10060000F093C602E093C502CF010895DC01ED919D
:10061000FC9111973097A1F01D921C927483638313
:10062000128215821682178210868091C5029091DF
:10063000C602E817F90720F4F093C602E093C5025A
:100640000895DC018C918F5F8C938C9118160CF4BB
:1006500008958091CE029091CF028A179B07D9F01E
:10066000EBECF2E03A96838194818A179B07D1F7ED
:10067000148213821282158216821782108680914C
:10068000C5029091C602E817F90710F7F093C60269
:10069000E093C5020895EBECF2E0EACFDC012C9187
:1006A0006C9327FF23C04091C5025091C602EBEC2A
:1006B000F2E06EEF7FEF03C027FF14C03A9683810C
:1006C00094818A179B07C1F72F5F7483638312821B
:1006D0001582168217821086E417F50768F7AF01B6
:1006E00027FDECCF5093C6024093C5020895FC014C
:1006F0008185682B61878281843009F00895838128
:100700006823E1F314821382128215821682178203
:1007100010868091C5029091C602E817F90770F71C
:10072000F093C602E093C5020895A091C302B09170
:10073000C40212968C93129715964D935D936D9308
:100740007C9318978091CD028823C9F0EBECF2E0FE
:100750003A9682818823E1F7F093C602E093C502BE
:10076000F093C402E093C302CF01BD010E94BD0417
:10077000E091C302F091C402838194810895EBEC6F
:10078000F2E0EACF0F931F93CF93DF93082FC0912E
:10079000C302D091C4029985182F192389F44F3FC1
:1007A0008FEF58078FEF68078FEF780799F00B836B
:1007B00084E00E94950397FD0DC09985102F1923A1
:1007C000812F809589238987812FDF91CF911F9178
:1007D0000F9108957894812FDF91CF911F910F9100
:1007E0000895F8940E94C20378940895DC018C91D6
:1007F000181634F481508C9320E030E0C90108953C
:100800004F3F9FEF59079FEF69079FEF790719F453
:100810002FEF3FEFF3CF81508C93E091C302F09123
:10082000C402B483A38383E00E9495039C01E6CFB6
:10083000F8940E94F60378940895AB01BC01F894F3
:100840008091C7029091C802A091C902B091CA02DA
:10085000481B590B6A0B7B0B81E00E94950378942F
:100860000895AB01BC01F89481E00E94950378944F
:100870000895DC018091C3029091C40211969C936B
:100880008E93E091C302F091C402B483A38382E00B
:100890000E94950308956091C3027091C4028091F3
:1008A000C5029091C6026817790731F09093C4028F
:1008B0008093C3020E94BD040895F8940E947703B8
:1008C0000E944B0478940895F8940E944E030E946D
:1008D0004B0478940895F8940E9421030E944B04DD
:1008E00078940895CF93DF932CEE34E0832F9927EB
:1008F00087FD9A95482F6BEC72E0DB01C1E1D1E0F6
:10090000EA81FB8175971196FC93EE938E81828B21
:10091000ED91FC9111978E819F81892F990F990BF1
:10092000818BED91FC9111978885808BED91FC91E5
:10093000119788859985892F990F990B8787ED9154
:10094000FC911197438BED91FC911197248B1A9692
:100950002A9683E0AF32B80799F67093C602609387
:10096000C5027093C4026093C302CB01BD010E9413
:10097000BD047894DF91CF9108952F923F924F92CA
:100980005F926F927F928F929F92AF92BF92CF921F
:10099000DF92EF92FF920F931F93CF93DF93FB01B0
:1009A0000DB600820EB60182FC0100800DBE0180F2
:1009B0000EBEDF91CF911F910F91FF90EF90DF90CE
:1009C000CF90BF90AF909F908F907F906F905F90EF
:1009D0004F903F902F9008957894C201F1010995AE
:1009E00080E090E00E948B02089582E084BD93E055
:1009F00095BD9DE397BD16BC85BB80936E000895A1
:100A00001F920F920FB60F9211242F933F934F9383
:100A10005F936F937F938F939F93AF93BF93EF9366
:100A2000FF930E948D020E944B04FF91EF91BF91B2
:100A3000AF919F918F917F916F915F914F913F9176
:100A40002F910F900FBE0F901F9018958091C702A5
:100A50009091C802A091C902B091CA028093B601D8
:100A60009093B701A093B801B093B9010895FC0128
:100A7000F8948091B4019091B5019583848380911D
:100A8000B0019091B101A091B201B091B301808306
:100A90009183A283B38378940895CF92DF92EF92EB
:100AA000FF920F931F936C01F894E090B401F090C3
:100AB000B5016091B0017091B1018091B201909146
:100AC000B3017894F6012081318142815381621B08
:100AD000730B840B950B28EE33E040E050E00E944E
:100AE0002A2F9B01AC01F60184819581A0E0B0E042
:100AF000281B390B4A0B5B0B00E010E02E0D3F1D4D
:100B0000401F511FB901CA011F910F91FF90EF9033
:100B1000DF90CF900895FC01F8948091B4019091FA
:100B2000B5012091B0013091B1014091B2015091D5
:100B3000B301789480819181A281B381281B390B04
:100B40004A0B5B0BB901CA010895F8942091B001DA
:100B50003091B1014091B2015091B3017894B90143
:100B6000CA0108958091C7029091C802A091C9025C
:100B7000B091CA028093B6019093B701A093B801D7
:100B8000B093B901F8942091C7023091C802409106
:100B9000C9025091CA028091B6019091B701A0910B
:100BA000B801B091B90179018A01E81AF90A0A0B72
:100BB0001B0BE092BA01F092BB010093BC011093B1
:100BC000BD012093B6013093B7014093B801509313
:100BD000B90178946091BA017091BB018091BC0118
:100BE0009091BD010091B4011091B50128EE33E060
:100BF00040E050E00E942A2F20EA3FE040E050E031
:100C00000E947C2F020F131F1093B5010093B401B3
:100C10008091B4019091B501875E934078F1809105
:100C2000B0019091B101A091B201B091B3010196D0
:100C3000A11DB11D8093B0019093B101A093B201A9
:100C4000B093B3011092B5011092B4016091B0015C
:100C50007091B1018091B2019091B3010E94AC2CCE
:100C600020E030E040E752E40E94182C6093020438
:100C700070930304809304049093050460E570E08E
:100C800080E090E00E9431047DCF6F927F928F923E
:100C90009F92AF92BF92CF92DF92EF92FF920F930B
:100CA0001F936B017C015A014901380120E030E0BB
:100CB00040E752E40E94182C0E94802CF5016083CA
:100CC00070E0882777FD8095982F0E94AE2C20E059
:100CD00030E040E752EC0E94622DA70196010E948D
:100CE000B02B5B016C010E94802CE62EF401608326
:100CF000C601B50120E030E040E752E40E94622DD9
:100D00005B016C01FF2400E010E0C801B7010E9404
:100D1000AC2C20E030E040E752EC0E94622D9B01B9
:100D2000AC01C601B5010E94B02B0E94802CF301DA
:100D300060831F910F91FF90EF90DF90CF90BF9055
:100D4000AF909F908F907F906F9008950E94BC22EB
:100D500081E0809362050E94F5040E947204FFCF37
:100D6000DF93CF93CDB7DEB7E4970FB6F894DEBF2D
:100D70000FBECDBF8091C3029091C4029093C90170
:100D80008093C8012E010894411C511C3201CE01F0
:100D9000C196D3011D923D01A817B907D1F780E391
:100DA0008093CA011092CB011092CC01FE01BC9637
:100DB000FCABEBAB9FE7292E91E0392EC10129AAAC
:100DC0009AAB84E04FEF5FEF6FEF7FEF0E94F1038C
:100DD000843009F4ABC20091CB01013009F497C211
:100DE00081E04FEF5FEF6FEF7FEF0E94F103082F7D
:100DF000813009F47CC29090CD018090CC0121E03B
:100E0000821609F476C1E0E39E1659F091E0891646
:100E100009F463C168EC70E080E090E00E94310466
:100E2000D0CF1092CC018091CB01813009F08AC2E1
:100E3000F20190E08081981708F4982F31966E1691
:100E40007F06C1F7F0E3F093CA012CE1929FC00145
:100E500011246AE070E00E94552F7B0180E090E051
:100E60000E94AC2C20E030E040E251E40E94142CBF
:100E700018160CF02AC1D20111966C91119770E0EE
:100E800014964C91149750E09B01220F331F260FAC
:100E9000371F3595279535952795359527953595A0
:100EA0002795359527951596EC9115978C9190E09F
:100EB0008E0F911D95958795959587959595879515
:100EC0009595879595958795280FCA01880F991F45
:100ED000840F951F959587959595879595958795F9
:100EE0009595879595958795280F460F571F55958A
:100EF0004795559547955595479555954795240F91
:100F000012968C91129735E0839FC001112495951C
:100F10008795959587959595879595958795280FAC
:100F200013968C911397839FC001112495958795F3
:100F3000959587959595879595958795280F2D93E8
:100F40008BA99CA9A817B90709F096CF9BE29093AB
:100F5000CA010E94B8201092CA0180E0F201E80F95
:100F6000F11D60810E94E1208091CA018F5F809312
:100F7000CA018B3298F387E061E00E944E2081E045
:100F80008093BF0200D000D000D0EDB7FEB73196FD
:100F9000ADB7BEB712963C922E92119721E231E086
:100FA00033832283F582E4820E9425321092BF02AD
:100FB0008DB79EB706960FB6F8949EBF0FBE8DBF35
:100FC00088E062E00E944E2000D000D000D0EDB753
:100FD000FEB73196ADB7BEB712963C922E921197DE
:100FE0002AE131E0338322838091D2019091D301B1
:100FF000958384830E9425328DB79EB706960FB6DF
:10100000F8949EBF0FBE8DBF88E063E00E944E2023
:101010008091D2019091D301059708F02CC100D0A6
:1010200000D0E9A9ADB7BEB71196EC931197FAA914
:101030001296FC93129723E131E014963C932E9381
:1010400013970E9425320F900F900F900F9089E018
:1010500064E00E944E208091D2019091D3010597C7
:1010600008F0DCC000D000D0ADB7BEB712963C92FD
:101070002E921197E2E0F1E01496FC93EE93139711
:101080000E9425320F900F900F900F9089E065E03D
:101090000E944E208091D2019091D3010A9708F0CE
:1010A00094C000D000D0ADB7BEB712963C922E923D
:1010B0001197E3EFF0E01496FC93EE9313970E94E0
:1010C00025320F900F900F900F901092CD018090CD
:1010D000CC0191E0891609F09DCE8091CD0180333D
:1010E00008F098CE6CE370E080E090E00E9431045C
:1010F00068CE3FE2391508F486CEE090A102F09068
:10110000A2020091A3021091A4026091A902709121
:10111000AA028091AB029091AC022AE037ED43EA3B
:101120005DE30E94622D5B016C01C801B701A8015B
:1011300097010E94622D2091CE013091CF01409104
:10114000D0015091D1010E94622D9B01AC01C601DA
:10115000B5010E94B02B2DE33AE047ED5EE30E941B
:10116000182C6B017C0120E030E040E050E00E9450
:101170005E2D181654F4C701B6012AE939E94DE38A
:1011800052E40E94142C8823B4F0C701B60120E079
:1011900030E040E050E00E94142C18160CF0CDC056
:1011A000F201E90DF11DBFE2B083892D8F5F8093BD
:1011B000CD01982E28CE8201090D111DC701B6015F
:1011C0000E94802CD8016C93F0CF2DB73EB72850E9
:1011D00030400FB6F8943EBF0FBE2DBFEDB7FEB73F
:1011E0003196ADB7BEB712963C922E9211972AEE69
:1011F00030E0338322838091D401848315828091EF
:10120000D501868317820E9425328DB79EB7089636
:101210000FB6F8949EBF0FBE8DBF57CF2DB73EB708
:10122000285030400FB6F8943EBF0FBE2DBFEDB72B
:10123000FEB73196ADB7BEB712963C922E9211977B
:1012400029EF30E0338322838091990290919A02B2
:10125000A0919B02B0919C0284839583A683B7835F
:101260000E9425328DB79EB708960FB6F8949EBFA0
:101270000FBE8DBF0BCF8DB79EB708970FB6F894F2
:101280009EBF0FBE8DBF0DB71EB70F5F1F4FE9A9E1
:10129000ADB7BEB71196EC931197FAA91296FC93CD
:1012A000E8E0F1E0D8011396FC93EE93129760E02A
:1012B00070E080E792E4209195023091960240918F
:1012C0009702509198020E94182CD80114966D93A1
:1012D0007D938D939C9317970E942532EDB7FEB7AF
:1012E00038960FB6F894FEBF0FBEEDBFB0CE82E6C3
:1012F00095E040E050E060E070E00E941804009348
:10130000CB01F7E0F093BE010E94B82074CD82E0DB
:101310004FEF5FEF6FEF7FEF0E94F103823009F034
:101320005FCD0093CC011092CD015ACD1092CB012C
:1013300082E695E00E946B044ECDF201E90DF11DAD
:10134000108233CF882462CD8091C3029091C40271
:101350009093C1018093C001CFE7D1E033E9432EE0
:1013600032E0532E2BE8222E22E0322ECE017C2EAC
:10137000692E81E040E050E060E070E00E94F103FF
:1013800082E695E040E050E060E070E00E941804E2
:1013900023E02093BE010E94B82081E061E00E941A
:1013A0004E2081E08093BF0200D000D0ADB7BEB721
:1013B0001296DC93CE931197EDEDF2E01496FC9328
:1013C000EE9313970E9425321092BF020F900F9058
:1013D0000F900F90DAC000D000D0ADB7BEB7119615
:1013E0007C92119712966C921297EAEBF2E01496A7
:1013F000FC93EE9313970E9425320F900F900F905D
:101400000F9089E062E00E944E206091D2017091BD
:10141000D3016230710578F010911C02112309F09C
:101420006BC180911D02882309F066C180911E0264
:101430008E3108F061C100D000D0ADB7BEB71296B2
:10144000DC93CE931197E7EAF2E01496FC93EE93C7
:1014500013970E9425320F900F900F900F9081E00C
:1014600063E00E944E2000D000D000D0EDB7FEB760
:101470003196ADB7BEB71296DC93CE9311975382D7
:1014800042828091D2019091D301958384830E94FE
:101490002532EDB7FEB736960FB6F894FEBF0FBEF5
:1014A000EDBF8BE063E00E944E202DB73EB7285081
:1014B00030400FB6F8943EBF0FBE2DBFEDB7FEB75C
:1014C0003196ADB7BEB71296DC93CE9311973382A7
:1014D00022828091170290911802A0911902B09176
:1014E0001A0284839583A683B7830E942532EDB7C1
:1014F000FEB738960FB6F894FEBF0FBEEDBF84E07E
:1015000064E00E944E208091D2019091D301059712
:1015100008F082C100D000D0ADB7BEB711967C9262
:10152000119712966C921297E5E8F2E01496FC93EC
:10153000EE9313970E9425320F900F900F900F900B
:101540008AE066E00E944E208091D2019091D30102
:101550000A9708F038C100D000D0ADB7BEB71296D8
:10156000DC93CE931197E4E7F2E01496FC93EE93AC
:1015700013970E9425320F900F900F900F9068E7FD
:1015800075E080E090E00E94310482E04FEF5FEF71
:101590006FEF7FEF0E94F103823009F46BC183E0AB
:1015A00066E00E944E2060910204709103048091D5
:1015B0000404909105044CE152E02DE132E00EE18B
:1015C00012E00E9445062DB73EB7285030400FB6B6
:1015D000F8943EBF0FBE2DBFEDB7FEB73196ADB745
:1015E000BEB71296DC93CE93119724ED32E033838D
:1015F000228380911D028483158280911E0286833E
:1016000017820E9425328DB79EB708960FB6F894C0
:101610009EBF0FBE8DBF83E065E00E944E204091CB
:101620000602509107026091080270910902ADB75D
:10163000BEB718970FB6F894BEBF0FBEADBFEDB7DB
:10164000FEB731961296DC93CE93119723EC32E0DD
:101650003383228344835583668377830E942532B4
:101660008DB79EB708960FB6F8949EBF0FBE8DBF7C
:1016700081E062E00E944E208091D2019091D301DE
:10168000059708F4A8CE2DB73EB7285030400FB6C6
:10169000F8943EBF0FBE2DBF0DB71EB70F5F1F4F93
:1016A000ADB7BEB711967C92119712966C922EEA46
:1016B00032E0F8013383228360E070E080E792E457
:1016C0002091950230919602409197025091980294
:1016D0000E94182CD80114966D937D938D939C9342
:1016E00017970E942532EDB7FEB738960FB6F894DB
:1016F000FEBF0FBEEDBF85CE2DB73EB728503040A0
:101700000FB6F8943EBF0FBE2DBF8DB69EB608949F
:10171000811C911CADB7BEB71296DC93CE93119786
:101720002DE932E0F4013383228380E090E00E94CF
:10173000AC2C5B016C01612F70E080E090E00E94B6
:10174000AC2C20E030E040E752E40E94622D7B01A7
:101750008C0160911D0270E080E090E00E94AC2C52
:101760009B01AC01C801B7010E94B02B7B018C0129
:1017700060911E0270E080E090E00E94AC2C20E0BE
:1017800030E040E752E40E94182C9B01AC01C801F4
:10179000B7010E94B02B9B01AC01C601B5010E94AC
:1017A000182CD40114966D937D938D939C93179769
:1017B0000E942532EDB7FEB738960FB6F894FEBFFB
:1017C0000FBEEDBF4CCE2DB73EB7285030400FB600
:1017D000F8943EBF0FBE2DBFEDB7FEB73196ADB743
:1017E000BEB71296DC93CE9311972BE632E033838B
:1017F00022838091D401848315828091D5018683D0
:1018000017820E9425328DB79EB708960FB6F894BE
:101810009EBF0FBE8DBFB3CE2DB73EB72850304010
:101820000FB6F8943EBF0FBE2DBFEDB7FEB7319691
:10183000ADB7BEB711967C92119712966C922AE7BB
:1018400032E0338322838091990290919A02A09191
:101850009B02B0919C0284839583A683B7830E94E8
:1018600025328DB79EB708960FB6F8949EBF0FBE6F
:101870008DBF66CE82E695E00E946B047ACD83E34D
:1018800090E00E941F22E090C702F090C8020091F1
:10189000C9021091CA0200D000D08DE891E0ADB726
:1018A000BEB712969C938E93119789E291E014969D
:1018B0009C938E9313970E9425320F900F900F9058
:1018C0000F900E9470220E947E2280EA9FE0A0E09A
:1018D000B0E0E80EF91E0A1F1B1FC801B7010E94E5
:1018E0001D04EFCF2F923F924F925F926F927F92A3
:1018F0008F929F92AF92BF92CF92DF92EF92FF9220
:101900000F931F93CF93DF931C01FB0180810F2E58
:10191000F0E06F2EF0E07F2EF0E08F2EF0E09F2EB3
:10192000F02D64015301C4E0D0E0482E5524089402
:10193000411C511CBE01882777FD8095982F0E947D
:10194000AE2C9B01AC0160E070E080E090E40E946E
:10195000C52D7B018C01C401B301A80197010E9430
:10196000B02B3B014C01C2018C0F9D1F65E070E064
:101970000E94692FFC01EE0FFF1FEE0FFF1FE20D0B
:10198000F31DC801B70120813181428153810E943A
:10199000622D9B01AC01C601B5010E94B02B5B0119
:1019A0006C0121978FEFCF3FD80721F6C601B50113
:1019B000A40193010E94182CDF91CF911F910F91E8
:1019C000FF90EF90DF90CF90BF90AF909F908F905F
:1019D0007F906F905F904F903F902F9008958091EF
:1019E000C3029091C4029093C5018093C401CFE7D4
:1019F000D1E06EE6462E61E0562E5AE6252E51E0E5
:101A0000352ECE01FC2EE92E0F2EF7E7AF2EFEEB82
:101A1000BF2EFFE9CF2EFCE3DF2EF02D0F2EFAE0D4
:101A20006F2EF7ED7F2EF3EA8F2EFDE39F2EF02D24
:101A300081E040E050E060E070E00E94F10382E667
:101A400095E040E050E060E070E00E94180485E01E
:101A50008093BE010E94B82001E01AC084E04FEFDD
:101A60005FEF6FEF7FEF0E94F1038430E9F0809128
:101A700004018230F9F0833009F474C1813009F433
:101A8000BFC068EE73E080E090E00E94310400E0A7
:101A900082E04FEF5FEF6FEF7FEF0E94F103823044
:101AA00009F4D8C20130D1F60E94B8208091040117
:101AB000823009F781E061E00E944E2000D000D022
:101AC000EDB7FEB7D283C18386E991E09483838327
:101AD0000E9425320F900F900F900F9081E062E0EE
:101AE0000E944E20ADB7BEB718970FB6F894BEBF90
:101AF0000FBEADBFEDB7FEB731961296DC93CE9315
:101B0000119780E991E093838283A482B582C68293
:101B1000D7820E942532ADB7BEB718960FB6F8949B
:101B2000BEBF0FBEADBF81E063E00E944E2000D07B
:101B300000D0EDB7FEB7D283C18388E891E09483EB
:101B400083830E9425320F900F900F900F9081E0B9
:101B500064E00E944E208091D2019091D3010597BC
:101B600008F04AC200D000D0ADB7BEB71196FC92C3
:101B700011971296EC921297E1E8F1E01496FC931B
:101B8000EE9313970E9425320F900F900F900F90B5
:101B900081E065E00E944E2000D000D0EDB7FEB796
:101BA000D283C18389E791E0948383830E942532A5
:101BB0000F900F900F900F9081E066E00E944E20F2
:101BC000ADB7BEB718970FB6F894BEBF0FBEADBF86
:101BD000EDB7FEB731961296DC93CE9311975382F0
:101BE000428264827582868297820E942532EDB796
:101BF000FEB738960FB6F894FEBF0FBEEDBF41CFCB
:101C000081E061E00E944E2000D000D0ADB7BEB7A9
:101C10001296DC93CE931197E4EDF1E01496FC93C9
:101C2000EE9313970E9425320F900F900F900F9014
:101C300081E062E00E944E208DB79EB708970FB6F4
:101C4000F8949EBF0FBE8DBFEDB7FEB73196ADB70E
:101C5000BEB71296DC93CE9311978CEC91E09383F0
:101C600082838091D6019091D701A091D801B09143
:101C7000D90184839583A683B7830E942532ADB7AB
:101C8000BEB718960FB6F894BEBF0FBEADBF81E0C9
:101C900063E00E944E2000D000D0EDB7FEB7D283A3
:101CA000C18386EC91E0948383830E9425320F9058
:101CB0000F900F900F9081E064E00E944E20809181
:101CC000D2019091D301059708F069C100D000D0EE
:101CD000ADB7BEB71196FC9211971296EC9212977F
:101CE000EFEBF1E01496FC93EE9313970E942532EC
:101CF0000F900F900F900F9081E065E00E944E20B2
:101D000000D000D0EDB7FEB7D283C1838DEA91E059
:101D1000948383830E9425320F900F900F900F9031
:101D200081E066E00E944E208091D2019091D30123
:101D3000059708F096C000D000D0ADB7BEB7119699
:101D4000FC9211971296EC921297E6EAF1E0149643
:101D5000FC93EE9313970E9425320F900F900F90F3
:101D60000F908FCE81E061E00E944E2000D000D025
:101D7000ADB7BEB71296DC93CE93119714963C92F2
:101D80002E9213970E9425320F900F900F900F9074
:101D900081E062E00E944E208091D2019091D301B7
:101DA000059708F0D1C000D000D0EDB7FEB7F182A2
:101DB000E28284E691E0948383830E9425320F902F
:101DC0000F900F900F9081E063E00E944E2000D0B2
:101DD00000D0EDB7FEB7D283C18381E591E0948353
:101DE00083830E9425320F900F900F900F9081E017
:101DF00064E00E944E208091D2019091D30105971A
:101E000008F05CC000D000D0ADB7BEB71196FC9210
:101E100011971296EC921297EBE4F1E01496FC9372
:101E2000EE9313970E9425320F900F900F900F9012
:101E300081E065E00E944E2000D000D0ADB7BEB773
:101E40001296DC93CE931197E1E3F1E01496FC93A4
:101E5000EE9313970E9425320F900F900F900F90E2
:101E600010CE8DB79EB708970FB6F8949EBF0FBEE1
:101E70008DBFEDB7FEB73196ADB7BEB71196FC92E8
:101E800011971296EC928AE991E093838283809174
:101E9000950290919602A0919702B0919802848346
:101EA0009583A683B7830E942532ADB7BEB7189637
:101EB0000FB6F894BEBF0FBEADBFE3CD6091020276
:101EC00070910302809104029091050220E030E0BD
:101ED00040E450E40E94C52D9B01AC018DB79EB734
:101EE00008970FB6F8949EBF0FBE8DBF0DB71EB7F3
:101EF0000F5F1F4FADB7BEB71196FC9211971296A8
:101F0000EC9280E491E0F80193838283CA01B901E5
:101F10002091CE013091CF014091D0015091D1015B
:101F20000E94622DD80114966D937D938D939C939E
:101F300017970E942532EDB7FEB738960FB6F89482
:101F4000FEBF0FBEEDBF74CFADB7BEB718970FB6CB
:101F5000F894BEBF0FBEADBFEDB7FEB73196119678
:101F6000FC9211971296EC9289E591E0938382831B
:101F70008091990290919A02A0919B02B0919C024B
:101F800084839583A683B7830E942532ADB7BEB7FD
:101F900018960FB6F894BEBF0FBEADBF14CF8DB765
:101FA0009EB708970FB6F8949EBF0FBE8DBFEDB7D2
:101FB000FEB73196ADB7BEB71196FC921197129647
:101FC000EC9283EB91E09383828380910E02909157
:101FD0000F02A0911002B091110284839583A68311
:101FE000B7830E942532ADB7BEB718960FB6F894E6
:101FF000BEBF0FBEADBF80CE8DB79EB708970FB6E0
:10200000F8949EBF0FBE8DBFEDB7FEB73196ADB74A
:10201000BEB71196FC9211971296EC928BE791E065
:102020009383828380919D0290919E02A0919F0252
:10203000B091A002B05884839583A683B7830E9491
:102040002532ADB7BEB718960FB6F894BEBF0FBE17
:10205000ADBF9ECD82E695E00E946B04E9CCDF9394
:10206000CF93CDB7DEB7C057D0400FB6F894DEBFE0
:102070000FBECDBF19821A8252985A9A10928000D0
:1020800083E0809381008093690011E01DBB109272
:102090008500109284008AEE98E7ACECBAE3809356
:1020A000CE019093CF01A093D001B093D10182E0F3
:1020B0009BE5A4E8BEE38093D6019093D701A0935B
:1020C000D801B093D90160EE7EE280E090E00E94FA
:1020D0003104109294021092930280E090E0A0E00C
:1020E000B0E08093A1029093A202A093A302B093C8
:1020F000A4028093A5029093A602A093A702B09396
:10210000A8028093A9029093AA02A093AB02B09375
:10211000AC028093AD029093AE02A093AF02B09355
:10212000B0021093B1021092B2028093DA01909340
:10213000DB01A093DC01B093DD01E0E080E020E072
:1021400030E040E050E0F0E0EE0FFF1FEE0FFF1F29
:1021500061E070E06C0F7D1FE60FF71F268F378F51
:1021600040A351A3E82FF0E0EE0FFF1FEE0FFF1F7B
:10217000ABE5B0E0AC0FBD1FAE0FBF1F2D933D937D
:102180004D935C931397DB01AE0FBF1FD2962D9337
:102190003D934D935C93D59767E470E06C0F7D1F82
:1021A000E60FF71F20833183428353831A962D93C2
:1021B0003D934D935C931D97E82FEF5F8E2FE53095
:1021C00010F21C821B821E821D8218861F821A86B4
:1021D000198684E08093CA011092DE011092DF011B
:1021E0002093E0013093E1014093E2015093E30139
:1021F0002093E4013093E5014093E6015093E70119
:102200002093E8013093E9014093EA015093EB01F8
:102210002093EC013093ED014093EE015093EF01D8
:1022200083EB92E00E94370589EB92E00E9437052C
:102230001092D3011092D201E1961FAE1EAEE1972B
:10224000F89480EF91E040E050E060E070E00E94A0
:10225000390478946090A1027090A2028090A30249
:102260009090A4026092A5027092A6028092A702AA
:102270009092A802E1968EAD9FADE1970196E1960E
:102280009FAF8EAFE197E0968FADE0978370A82F58
:10229000B0E0E196BFAFAEAFE197E0909302F0906F
:1022A0009402FD01EE0FFF1F21E030E02C0F3D1FD7
:1022B000E20FF31FF382E28269857A852F813885E8
:1022C000620F731F769567952D813E814B815C81EE
:1022D000240F351F36952795620F731F80E090E01D
:1022E0000E94AC2C2DEB37E346E856E30E94622DAA
:1022F0009B01AC016AED7FE089EC90E40E94182C10
:102300009B01AC01C401B3010E94B02B20E030E07E
:1023100040E05FE30E94622D1B012C016093A1024B
:102320007093A2028093A3029093A40200E010E0B5
:10233000C801B7010E94AC2C7B018C01E196EEAD87
:10234000FFADE1973396E370F070EE0FFF1F61E091
:1023500070E06C0F7D1FE60FF71F6281738180E0D4
:1023600090E00E94AC2C9B01AC01C801B7010E9417
:10237000B02B20E030E040E05FE30E94622D2DEBC7
:1023800037E346E856E30E94622D6093F2017093B2
:10239000F3018093F4019093F501E090A902F0908D
:1023A000AA020091AB021091AC02E092AD02F09251
:1023B000AE020093AF021093B00227E137EB41ED7C
:1023C00058E30E94B02B5B016C01C201B101A40172
:1023D00093010E94AF2BA60195010E94182C9B012E
:1023E000AC01C801B7010E94B02B20E030E040E012
:1023F0005FE30E94622D3B014C016093A902709340
:10240000AA028093AB029093AC02A80197010E94AC
:10241000AF2BA60195010E94182C7B018C016093C3
:10242000F6017093F7018093F8019093F90120E091
:1024300030E040E252EC0E945E2D18160CF098C07D
:10244000C801B70120E030E040E252E40E94142CC1
:1024500088230CF08DC01092DF01C401B30120E08D
:1024600030E040E751E40E945E2D18160CF084C065
:1024700081E08093DE019091DF01913009F483C007
:102480008091DE01813009F497C18091B10280937F
:10249000B2021092B1028091B202813009F496C169
:1024A0008091B102813009F413C1882309F0C8CEAC
:1024B0008091B202882309F0C3CEA090A102B0900F
:1024C000A202C090A302D090A402C601B50127E1E8
:1024D00037EB41ED58E30E94B02B9B01AC01E0903B
:1024E000F201F090F3010091F4011091F5010E94C6
:1024F000622D9B01AC016091A9027091AA028091AA
:10250000AB029091AC020E94182CA80197010E9486
:10251000622D9B01AC016091FA017091FB018091E9
:10252000FC019091FD010E94B02B6093FA01709321
:10253000FB018093FC019093FD01C601B501A80148
:1025400097010E94622D9B01AC016091FE01709188
:10255000FF0180910002909101020E94B02B6093D4
:10256000FE017093FF01809300029093010268CEF8
:1025700071E07093DF0171CF1092DE019091DF0165
:10258000913009F07DCF8091B1028093B202909397
:10259000B102882309F084CF8091C8019091C901CC
:1025A00062E00E94770389EB92E00E94370560E0C9
:1025B00070E080E090E06093E4017093E501809327
:1025C000E6019093E7016093E0017093E10180934D
:1025D000E2019093E3018981082F10E0000F111FA1
:1025E000000F111F87E490E08C0F9D1F080F191F2B
:1025F0006091E8017091E9018091EA019091EB010D
:102600002091EC013091ED014091EE015091EF01EC
:102610000E94AF2B2DEB37E346E855E30E94B02B29
:102620009B01AC016091FA017091FB018091FC016A
:102630009091FD010E94182CD8016D937D938D938C
:102640009C931397CE01895B9F4FBE016F5F7F4FB5
:102650000E94720C60939D0270939E0280939F0271
:102660009093A002898190E0019665E070E00E945D
:10267000692F89836091A1027091A2028091A302C7
:102680009091A4022091F2013091F3014091F40164
:102690005091F5010E94622D9B01AC016091FE01F9
:1026A0007091FF0180910002909101020E94B02B75
:1026B0006093FE017093FF018093000290930102EA
:1026C0008091B102882309F4E6CE813009F0EDCE85
:1026D0008091B202813009F0B3CDE090A102F09078
:1026E000A2020091A3021091A402A090F201B09066
:1026F000F301C090F401D090F501C801B7012AE0C0
:1027000037ED43EA5DE30E94622D2091A9023091EA
:10271000AA024091AB025091AC020E94622DA60128
:1027200095010E94622D9B01AC016091E4017091C2
:10273000E5018091E6019091E7010E94B02B609342
:10274000E4017093E5018093E6019093E701C801ED
:10275000B701A80197010E94622D9B01AC01C8013D
:10276000B7010E94622D2091CE013091CF0140919E
:10277000D0015091D1010E94622D9B01AC01C60194
:10278000B5010E94622D9B01AC016091E001709146
:10279000E1018091E2019091E3010E94B02B6093EE
:1027A000E0017093E1018093E2019093E301C8019D
:1027B000B701A6019501C5CE8091B102813009F023
:1027C00066CE8093B2028093B1026ACE8091D2012C
:1027D0009091D30101969093D3018093D20160E050
:1027E00070E080E090E06093FA017093FB018093C9
:1027F000FC019093FD0189EB92E00E944D050E943F
:10280000AC2C20E030E04AE754E40E94182C60939E
:10281000EC017093ED018093EE019093EF0183EB57
:1028200092E00E944D050E94AC2C20E030E04AE787
:1028300054E40E94182C6093E8017093E90180939E
:10284000EA019093EB0183EB92E00E9437056091DF
:10285000E8017091E9018091EA019091EB0127E193
:1028600037EB41ED58E30E94B02B7B018C01609166
:10287000FE017091FF018091000290910102A80178
:1028800097010E94182C60930202709303028093B8
:1028900004029093050280E090E0A0E0B0E0809315
:1028A000FE019093FF01A0930002B093010260919A
:1028B000060270910702809108029091090220910E
:1028C0000A0230910B0240910C0250910D020E94BD
:1028D000AF2B60930E0270930F02809310029093BF
:1028E0001102209106023091070240910802509196
:1028F000090220930A0230930B0240930C0250937A
:102900000D022A81822E9924880C991C880C991C0E
:10291000ABE5B0E0AC0FBD1F8A0E9B1EA80197016E
:102920000E94182CF4016083718382839383CE010B
:10293000855A9F4FBE016E5F7F4F0E94720C27E148
:1029400037EB41ED58E30E94B02B9B01AC0160E0F6
:1029500070E08AEF93E40E94182C60931202709347
:102960001302809314029093150220E030E040E7B8
:1029700052E40E94182C46E152E024ED31E005EDCE
:1029800011E00E9445068A81082F10E0000F111FF8
:10299000000F111F21E030E02C0F3D1F020F131F0D
:1029A0006091E8017091E9018091EA019091EB0159
:1029B00027E137EB41ED58E30E94B02B9B01AC01BE
:1029C0006091EC017091ED018091EE019091EF0129
:1029D0000E94182CD801D2966D937D938D939C9371
:1029E000D597CE01C396BE016E5F7F4F0E94720CD9
:1029F00060931702709318028093190290931A0241
:102A00008A81882E9924880C991C880C991CE1E0F5
:102A1000F0E0EC0FFD1F8E0E9F1E6091E40170919F
:102A2000E5018091E6019091E7012091E00130916C
:102A3000E1014091E2015091E3010E94B02B7B0142
:102A40008C016091E8017091E9018091EA01909117
:102A5000EB0127E137EB41ED58E30E94B02B9B01DE
:102A6000AC01C801B7010E94182CD4015E966D9389
:102A70007D938D939C939197CE014F96BE016E5F8F
:102A80007F4F0E94720C7B018C01609399027093BE
:102A90009A0280939B0290939C0220E030EC49E7DD
:102AA00054E40E945E2D1816E4F560E070E080E0CA
:102AB00090E06093990270939A0280939B029093A6
:102AC0009C02EA81F0E0EE0FFF1FEE0FFF1F81E096
:102AD00090E08C0F9D1FE80FF91F8091E801909105
:102AE000E901A091EA01B091EB0182879387A48765
:102AF000B587CE010B96BE016E5F7F4F0E94720CB0
:102B00006093950270939602809397029093980237
:102B10008A8190E0019665E070E00E94692F8A83C7
:102B2000BFCCC801B70120E030E040E251E40E9490
:102B30005E2D181634F6C801B70120E030E040E8F9
:102B400050E40E94622D20E030E04FEA53E40E94FE
:102B5000B02B2091E8013091E9014091EA015091B8
:102B6000EB010E94622D26E636ED42E855E40E9414
:102B7000182C9B01AC016091DA017091DB0180910E
:102B8000DC019091DD010E94B02B6093DA0170931B
:102B9000DB018093DC019093DD0193CF8091C30230
:102BA0009091C4029093C7018093C60116E01CC0A7
:102BB00082E04FEF5FEF6FEF7FEF0E94F103823013
:102BC00099F184E04FEF5FEF6FEF7FEF0E94F10329
:102BD000843039F180911B028130F1F068EE73E0AE
:102BE00080E090E00E94310481E04FEF5FEF6FEFF3
:102BF0007FEF0E94F1038130D9F680931B0282E6B9
:102C000095E040E050E060E070E00E94180410930E
:102C1000BE010E94B820CCCF809105010E940623FE
:102C2000DDCF0E94B820D6CF10921B0282E695E03D
:102C30000E946B04C6CFDF93CF93CDB7DEB7A597C5
:102C40000FB6F894DEBF0FBECDBF19821A821B8269
:102C50008091C3029091C4029093C3018093C201FA
:102C600080E090E0A0E0B0E08A8F9B8FAC8FBD8FBA
:102C70008E8B9F8BA88FB98F3C014D011AA21BA28E
:102C80001CA21DA28A8B9B8BAC8BBD8B8E879F87D2
:102C9000A88BB98B1C861B861A861FE7412E11E074
:102CA000512E72012224239481E040E050E060E044
:102CB00070E00E94F10382E695E040E050E060E0C1
:102CC00070E00E94180494E09093BE010E94B82026
:102CD0003324A1E0AD8710C0133009F485C2113050
:102CE00009F4B2C06401530168EE73E080E090E043
:102CF0000E9431043501460182E04FEF5FEF6FEF34
:102D00007FEF0E94F103823009F408C4109103019F
:102D1000123011F70E94B82083E062E00E944E203A
:102D20002092C0028091D2019091D301059708F0C2
:102D3000FFC200D000D0EDB7FEB75282418225E13C
:102D400032E0348323830E9425320F900F900F903E
:102D50000F901092C0020E945F2000D000D0ADB74B
:102D6000BEB712965C924E921197E8E0F2E014968C
:102D7000FC93EE9313970E9425320F900F900F90C3
:102D80000F9083E064E00E944E202092C002809168
:102D9000D2019091D301059708F09CC200D000D0D9
:102DA000ADB7BEB71196EC9211971296FC9212979E
:102DB000E4E0F2E01496FC93EE9313970E94253220
:102DC0000F900F900F900F901092C0020E945F2002
:102DD00000D000D0ADB7BEB712965C924E9211975C
:102DE000E7EFF1E01496FC93EE9313970E942532DF
:102DF0000F900F900F900F9081E066E00E944E20A0
:102E00002092C0028091D2019091D3010A9708F0DC
:102E100037C200D000D0ADB7BEB71196EC92119773
:102E20001296FC921297E1EFF1E01496FC93EE9368
:102E300013970E9425320F900F900F900F901092D1
:102E4000C0026401530150CF332009F4D0C284E0A2
:102E50004FEF5FEF6FEF7FEF0E94F103843009F4D3
:102E6000A2C288E04FEF5FEF6FEF7FEF0E94F103A8
:102E7000883009F494C2F1E03F1609F033CF81E0C5
:102E800066E00E944E202D85222309F095C300D0D4
:102E900000D0ADB7BEB712965C924E921197E8E49F
:102EA000F2E01496FC93EE9313970E9425320F9054
:102EB0000F900F900F9081E061E00E944E20CE01B4
:102EC00004960E948B050E94AC2C2A893B894C8970
:102ED0005D890E94B02B6A8F7B8F8C8F9D8F20E045
:102EE00030E040E752E40E94182C4CE152E02DE122
:102EF00032E00EE112E00E9445062DB73EB72850A1
:102F000030400FB6F8943EBF0FBE2DBFEDB7FEB7F1
:102F10003196ADB7BEB712965C924E9211972BE3E5
:102F200032E03383228380911D0284831582809155
:102F30001E02868317820E942532A0900602B0905E
:102F40000702C0900802D0900902C601B501A40191
:102F500093010E94AF2B9B01AC016E897F89888D04
:102F6000998D0E94B02B6E8B7F8B888F998F8DB738
:102F70009EB708960FB6F8949EBF0FBE8DBF81E036
:102F800065E00E944E203092C002ADB7BEB71897E0
:102F90000FB6F894BEBF0FBEADBFEDB7FEB731960A
:102FA00012965C924E92119725E332E0338322838E
:102FB0008E899F89A88DB98D84839583A683B783D5
:102FC0000E9425321092C002ADB7BEB718960FB658
:102FD000F894BEBF0FBEADBF0E945F2000D000D0EE
:102FE000EDB7FEB75282418221E332E0348323837E
:102FF0000E9425328091D2019091D301AA85BB8590
:103000008A1B9B0B0F900F900F900F90079708F45F
:103010006BCE8BE061E00E944E20ADB7BEB7189733
:103020000FB6F894BEBF0FBEADBF0DB71EB70F5F92
:103030001F4F1196EC9211971296FC922BE232E000
:10304000F8013383228360E070E080E792E420910E
:1030500095023091960240919702509198020E94F9
:10306000182CD80114966D937D938D939C9317978C
:103070000E942532EDB7FEB738960FB6F894FEBF22
:103080000FBEEDBF83E063E00E944E203092C0028D
:103090002DB73EB7285030400FB6F8943EBF0FBE54
:1030A0002DBFEDB7FEB73196ADB7BEB712965C92A5
:1030B0004E92119722E232E0338322838091D40131
:1030C000848315828091D501868317820E942532E0
:1030D0001092C0023C853F5F3C876A8D7B8D8C8D52
:1030E0009D8D20E030E04AEF53E40E94622D6E8F08
:1030F0007F8F88A399A36E897F89888D998D27E119
:1031000037EB41ED58E30E94B02B9B01AC016E8D73
:103110007F8D88A199A10E94182C9B01AC016E851E
:103120007F85888999890E94B02B6E877F87888BDD
:10313000998B8C8562E30E94492FADB7BEB7189674
:103140000FB6F894BEBF0FBEADBF992309F0CCCD2A
:103150008AE066E00E944E206E857F858889998985
:1031600020E030E048E452E40E94182C20E030E0F7
:1031700040E752E40E94182CAE014F5F5F4F9E0162
:103180002E5F3F4F8E010D5F1F4F0E944506EDB72A
:10319000FEB738970FB6F894FEBF0FBEEDBF31965D
:1031A000ADB7BEB712965C924E92119729E132E00C
:1031B000338322838A81848315828B81868317825D
:1031C0000E94253280E090E0A0E0B0E08E879F87EB
:1031D000A88BB98B1C86ADB7BEB718960FB6F894FE
:1031E000BEBF0FBEADBF80CD0E94B8202092C002EE
:1031F00081E062E00E944E20ADB7BEB718970FB6CF
:10320000F894BEBF0FBEADBFEDB7FEB731961296B4
:103210005C924E92119722EE31E0338322838091AB
:10322000DA019091DB01A091DC01B091DD01848392
:103230009583A683B7830E9425321092C0028DB772
:103240009EB708960FB6F8949EBF0FBE8DBF0E9422
:103250005F2000D000D0ADB7BEB712965C924E9200
:103260001197EAEDF1E01496FC93EE9313970E9408
:103270002532640153010F900F900F900F9034CDC1
:103280002DB73EB7285030400FB6F8943EBF0FBE62
:103290002DBFEDB7FEB73196ADB7BEB71196EC9224
:1032A00011971296FC9228EE31E0338322838091AD
:1032B000D401848315828091D501868317820E9470
:1032C00025328DB79EB708960FB6F8949EBF0FBEF5
:1032D0008DBFB5CD2DB73EB7285030400FB6F8940E
:1032E0003EBF0FBE2DBFEDB7FEB73196ADB7BEB72F
:1032F0001196EC9211971296FC922EEF31E03383E7
:1033000022838091990290919A02A0919B02B091A0
:103310009C0284839583A683B7830E9425328DB750
:103320009EB708960FB6F8949EBF0FBE8DBF4CCDCA
:103330008DB79EB708970FB6F8949EBF0FBE8DBF8E
:103340000DB71EB70F5F1F4FADB7BEB712965C9299
:103350004E9211972FE032E0F8013383228360E030
:1033600070E080E792E420919502309196024091BE
:103370009702509198020E94182CD80114966D93D0
:103380007D938D939C9317970E942532EDB7FEB7DE
:1033900038960FB6F894FEBF0FBEEDBFDACC6401CD
:1033A00053013324A1CC332009F4DAC080E091E04A
:1033B000391609F4FFC0AD85AA2309F0B4C08823EB
:1033C00009F4B1C0BE89BAA3EF89EBA3F88DFCA3C1
:1033D000298D2DA38A8D9B8DAC8DBD8D8A8B9B8B6A
:1033E000AC8BBD8B3324339491E09D873ACD81E043
:1033F00061E00E944E2000D000D0EDB7FEB75282AF
:10340000418225E632E0348323830E9425320F90E7
:103410000F900F900F908BE061E00E944E2000D043
:1034200000D0ADB7BEB712965C924E921197E1E60E
:10343000F2E01496FC93EE9313970E9425320F90BE
:103440000F900F900F9083E063E00E944E20109346
:10345000C00200D000D0ADB7BEB712965C924E92BB
:103460001197EBE5F2E01496FC93EE9313970E940C
:1034700025320F900F900F900F9081E065E00E9431
:103480004E2000D000D0ADB7BEB712965C924E92DF
:103490001197E6E5F2E01496FC93EE9313970E94E1
:1034A00025321092C0020F900F900F900F900E9443
:1034B0005F2000D000D0ADB7BEB712965C924E929E
:1034C0001197E2E5F2E01496FC93EE9313970E94B5
:1034D00025320F900F900F900F908AE066E00E94C7
:1034E0004E2000D000D0ADB7BEB712965C924E927F
:1034F0001197ECE4F2E01496FC93EE9313970E947C
:10350000253280E090E0A0E0B0E08E8B9F8BA88F0A
:10351000B98F0F900F900F900F9099CC82E695E0A5
:103520000E946B04C1CB882309F49BCCAD85A130EC
:1035300009F097CCCE0104960E94370560900602F0
:10354000709007028090080290900902E091D201E9
:10355000F091D301FB87EA87332433941D8681CC15
:10356000CE0104960E943705609006027090070213
:103570008090080290900902A091D201B091D301ED
:10358000BB87AA8780E090E0A0E0B0E08A8F9B8FA5
:10359000AC8FBD8F8E8B9F8BA88FB98F1AA21BA269
:1035A0001CA21DA28A8B9B8BAC8BBD8B33243394C6
:1035B0001D8657CC81E0FFCE3092BF0200D000D0F4
:1035C000EDB7FEB75282418224E432E03483238394
:1035D0000E9425321092BF020F900F900F900F9013
:1035E00081E061E00E944E206A897B898C899D89F7
:1035F00020E030E040E752E40E94182C4CE152E019
:103600002DE132E00EE112E00E9445068DB79EB733
:1036100008970FB6F8949EBF0FBE8DBFEDB7FEB7EB
:103620003196ADB7BEB712965C924E9211972BE3CE
:1036300032E03383228380911D028483158280913E
:103640001E02868317820E9425328DB79EB7089688
:103650000FB6F8949EBF0FBE8DBF81E065E00E945B
:103660004E203092C002ADB7BEB718970FB6F8948F
:10367000BEBF0FBEADBFEDB7FEB7319612965C92DE
:103680004E92119725E332E0338322832AA13BA196
:103690004CA15DA1C901DA0184839583A683B78318
:1036A0000E9425321092C0028DB79EB708960FB6C1
:1036B000F8949EBF0FBE8DBF0E945F2000D000D047
:1036C000ADB7BEB712965C924E921197E1E3F2E06D
:1036D0001496FC93EE9313970E9425328A899B8956
:1036E000AC89BD898A8F9B8FAC8FBD8F2AA13BA1EE
:1036F0004CA15DA1C901DA018E8B9F8BA88FB98F78
:10370000640153010F900F900F900F90EDCA1DE2CE
:10371000E12E12E0F12E00D000D0ADB7BEB7129668
:10372000FC92EE92119783E493E014969C938E930F
:1037300013970E946E320CE312E0EDB7FEB71283CE
:1037400001838EE393E0948383830E946E32109210
:103750007802DD24D394D09284020B5F1F4FADB763
:10376000BEB712961C930E93119789E393E01496BB
:103770009C938E9313970E946E32D092790210928E
:1037800085020B5F1F4FEDB7FEB71283018384E301
:1037900093E0948383830E946E32B2E0DB2ED0925A
:1037A0007A021092860285E090E0E80EF91EADB72D
:1037B000BEB71296FC92EE9211978FE293E01496A8
:1037C0009C938E9313970E946E32065F1F4FEDB746
:1037D000FEB7128301838BE293E0948383830E947C
:1037E0006E3210927C02D09288020B5F1F4FADB7F1
:1037F000BEB712961C930E93119786E293E014962F
:103800009C938E9313970E946E3210927D02A3E0D8
:10381000DA2ED09289020B5F1F4FEDB7FEB71283ED
:10382000018383E293E0948383830E946E3210923B
:103830007E02F4E0CF2EC0928A020B5F1F4FADB71D
:10384000BEB712961C930E93119780E293E01496E4
:103850009C938E9313970E946E3210927F02E3E640
:10386000BE2EB0928B02E5E0F0E0EE0EFF1EADB78B
:10387000BEB71296FC92EE9211978BE193E01496EC
:103880009C938E9313970E946E320B5F1F4FEDB780
:10389000FEB71283018386E193E0948383830E94C1
:1038A0006E321092800285E080938C020B5F1F4F76
:1038B000ADB7BEB712961C930E93119781E193E0BA
:1038C00014969C938E9313970E946E3210928102ED
:1038D00086E080938D020B5F1F4FEDB7FEB712831A
:1038E00001838CE093E0948383830E946E32109274
:1038F000820287E080938E020B5F1F4FADB7BEB789
:1039000012961C930E93119789E093E014969C9362
:103910008E9313970E946E3210928302B0928F02A0
:10392000D0929002C0929102C09292020F900F909A
:103930000F900F9082E695E040E050E060E070E08C
:103940000E9418040E94F12184E40E94D0200E9469
:10395000B82081E061E00E944E2000D000D0CFE787
:10396000D1E0EDB7FEB7D283C1838BEF92E09483B1
:1039700083830E9425320F900F900F900F9083E069
:1039800065E00E944E200E940C2181E066E00E94CA
:103990004E2000D000D0ADB7BEB71296DC93CE93C8
:1039A00011978CEE92E014969C938E9313970E943D
:1039B00025320F900F900F900F9082E695E00E94B5
:1039C0006B0460E971E080E090E00E943104F894BB
:1039D0008FE192E040E050E060E070E00E94390446
:1039E000789470E5A72E73E0B72E6CE4E62E63E0C2
:1039F000F62E58E4C52E53E0D52E05E014E143E041
:103A0000942E82E695E040E050E060E070E00E9495
:103A100018040E94B82081E061E00E944E2081E0FD
:103A20008093BF0200D000D000D0EDB7FEB7319632
:103A3000ADB7BEB71296DC93CE931197B382A28234
:103A400080912302809FC0011124835D9D4F958347
:103A500084830E9425321092BF0260912502E0917A
:103A60002302F0E0E057FD4F8DB79EB706960FB6E4
:103A7000F8949EBF0FBE8DBF80816817A0F14FC024
:103A800000D000D000D0EDB7FEB73196ADB7BEB7CD
:103A90001296DC93CE931197D382C282809F9001BD
:103AA000112480912302819FC0011124280F391F06
:103AB000245C3D4F358324830E942532EDB7FEB749
:103AC00036960FB6F894FEBF0FBEEDBF609125028B
:103AD0006F5F60932502E0912302F0E0E057FD4F15
:103AE00080816817E0F46E5F81E00E944E20909123
:103AF000240280912502981719F600D000D000D03A
:103B0000EDB7FEB73196ADB7BEB71296DC93CE9344
:103B10001197F382E282909F90011124C2CF82E636
:103B200095E00E946B04F89481E292E040E050E05E
:103B300060E070E00E94390478948091BF01909118
:103B4000BF018823B1F19330A1F18091BF01813091
:103B500009F43FC09091BF01923009F052CF2091FB
:103B60002302A22FB0E080912402AA0FBB1FAA0F4C
:103B7000BB1FA80FB11DFD01EC57FD4FE081EE23E7
:103B8000F1F1E43009F486C0E53008F040C0E230DD
:103B900009F475C0E33008F448C0909303018091A4
:103BA000C2019091C30161E00E9477031092250247
:103BB00028CFE0912302F0E0E057FD4F9081809103
:103BC00024029817B1F0109225028091BF01813034
:103BD00009F6809124028F5F80932402E0912302F2
:103BE000F0E0E057FD4F9081891731F010922502E7
:103BF000B1CF10922402E7CF10922402F7CFA85839
:103C0000BD4F8C918093230210922402CFCFE630D7
:103C100071F1E630A8F4909203018091C201909175
:103C2000C30161E00E947703C1CFE13009F0BECF4C
:103C30008091C0019091C10161E00E947703B6CFED
:103C4000E73069F0E33609F0B1CF20932602A85897
:103C5000BD4F8C918093230220932402A7CF8091A3
:103C6000C6019091C70161E00E9477039FCF8091C8
:103C7000C4019091C50161E00E94770397CF81E074
:103C8000809303018091C2019091C30161E00E9481
:103C900077038CCF8091C8019091C90161E00E94A7
:103CA000770384CF8AB18F718AB98BB1806E8BB95B
:103CB0001092B20092E09093B00087E08093B10040
:103CC0008DE98093B3009093700060E971E080E02B
:103CD00090E00E94310411E0F89487E292E040E025
:103CE00050E060E070E00E94390478948091BE0159
:103CF000843009F43BC08530E8F4813009F494C085
:103D0000813008F483C0833039F7F8941093BE01F2
:103D10001092BF016091BF0181E292E070E00E94C9
:103D200006038091C0019091C10162E00E94770377
:103D30007894D2CF863009F444C0863030F1873091
:103D400059F6F8941093BE011092BF016091BF0123
:103D500081E292E070E00E9406038091C801909198
:103D6000C90164E00E9477037894B6CFF8948091FB
:103D7000BF01813009F48AC08091BF01823009F40B
:103D800099C08091BF018330C1F1F8948091BF0147
:103D9000813009F453C0809104018F5F8093040146
:103DA0009091040180910A01891710F41093040185
:103DB0008091C4019091C50164E00E9477037894DA
:103DC0008BCFF8948091BF01813009F44BC0809172
:103DD00005018F5F809305019091050180910B0192
:103DE000891710F4109305018091C6019091C701C5
:103DF00064E00E94770378946FCF8091C201909124
:103E0000C30168E00E947703789466CFF89410921B
:103E1000BF011093BE016091BF018FE192E070E09D
:103E20000E940603789458CFF8946091BF0181E214
:103E300092E070E00E94060378944ECF8093BE011A
:103E40001092BF016091BF0181E292E070E00E9498
:103E500006038091C4019091C50162E00E9477033E
:103E600078943ACF8093BE011092BF016091BF0158
:103E700081E292E070E00E9406038091C601909179
:103E8000C70162E00E947703789426CF8093BE0139
:103E90001092BF016091BF0181E292E070E00E9448
:103EA00006038091C2019091C30162E00E947703F2
:103EB000789412CF8091C2019091C30164E00E9476
:103EC0007703789409CF1F920F920FB60F921124A7
:103ED0002F933F934F935F936F937F938F939F9312
:103EE000AF93BF93EF93FF93E0912902E13009F480
:103EF00067C029B189B149B130E03695279532952F
:103F000022952F7023273F70232761E070E026273A
:103F1000372790E00024880F991F001C880F991FF5
:103F2000001C892F902D86279727822B817090E087
:103F3000552747FD5095409550954427550F441FF0
:103F40005527842B952B20E030E0EE2311F421E05F
:103F500030E082239323892B39F580912B02863020
:103F600080F010922B0281E0809329024D9922C0AB
:103F70008093BF016091BF0187E292E070E00E94F0
:103F800006030E944B04FF91EF91BF91AF919F9167
:103F90008F917F916F915F914F913F912F910F90F2
:103FA0000FBE0F901F90189580912B028F5F80930A
:103FB0002B02D5CF4E9B12C04F99DCCF83E0D8CFD8
:103FC00080912A02883220F48F5F80932A0291CF59
:103FD00010922A0210922902E0E08BCF82E08093B7
:103FE000BF01C8CF1F920F920FB60F9211242F93CB
:103FF0003F934F935F936F937F938F939F93AF9371
:10400000BF93EF93FF9380912C028F5F80932C02DC
:1040100090E083709070892B71F510922C02809142
:104020008400909185009093940280939302109263
:1040300085001092840060910602709107028091C1
:104040000802909109022091D6013091D701409148
:10405000D8015091D9010E94B02B60930602709351
:104060000702809308029093090280EF91E065E5D2
:1040700070E00E9406030E944B04FF91EF91BF91F4
:10408000AF919F918F917F916F915F914F913F91F0
:104090002F910F900FBE0F901F90189596E0899F5B
:1040A000C00111248A55904024E5629FB00111247B
:1040B000860F971F9093C2028093C102089580914A
:1040C000C1029091C202845590409093C2028093A5
:1040D000C1020895982F87B18C6087B941986130EB
:1040E00049F14298492F50E027E030E009C0439A57
:1040F000449A4498215030408FEF2F3F380791F079
:10410000CA01022E02C0959587950A94E2F780FDB8
:10411000EECF4398449A4498215030408FEF2F3F80
:10412000380771F7419A87B1837F87B988B18C606E
:1041300088B908958091BF0281119095429AD2CF9B
:104140000F931F938C0164E570E00E94552F8068E7
:1041500060E00E946A20C80164E570E00E94552F6B
:10416000862F806460E00E946A201F910F9108955D
:10417000CF93DF931092C2021092C10280E090E0D0
:104180000E94A020C0E0D0E080E061E00E946A20B0
:10419000219681E0C83FD807B9F7DF91CF91089504
:1041A0001F93182F81E260E00E946A20812F8068AF
:1041B00060E00E946A2080E260E00E946A201F9115
:1041C00008950F931F93982F062F603318F5862FAD
:1041D00086958695869515E0181B10649150892F59
:1041E000806860E00E946A20812F60E00E946A205F
:1041F000077027E030E0201B310981E090E002C029
:10420000880F991F2A95E2F761E00E946A201F91AA
:104210000F91089510E4E2CF0F931F93CF93DF9394
:104220000091C1021091C202C8010E94A020C0EA00
:10423000D3E0CE010E940A3361E00E946A202196F9
:1042400083E0CC3DD807A9F7045510401093C20273
:104250000093C102C8010E94A020C4E6D3E0CE01B1
:104260000E940A3361E00E946A20219683E0C03AEE
:10427000D807A9F7C801845590409093C202809353
:10428000C1020E94A020C8E2D3E0CE010E940A33FE
:1042900061E00E946A20219683E0C436D807A9F71E
:1042A000DF91CF911F910F910895AF92BF92DF924E
:1042B000EF92FF920F931F93CF93DF93D82EE0904E
:1042C000C102F090C202C7010E94A0208091C002EA
:1042D000882341F52D2D30E0C901880F991F880FE3
:1042E000991F820F931FEC01CF59D0408C010A59BE
:1042F0001040CE010E940A33880F61E00E946A20BC
:104300002196C017D107A9F780E061E00E946A20DA
:1043100086E090E0E80EF91EF092C202E092C1023F
:104320008091C002813051F0DF91CF911F910F91A8
:10433000FF90EF90DF90BF90AF9008958BE0D89EF4
:1043400050011124850101511040C8ECD1E00DC08D
:10435000C8010E940A3361E00E946A2021960F5F23
:104360001F4F81E0C33DD80729F090E2D91681F7AD
:10437000CE01EFCFE090C102F090C202C701845598
:1043800090409093C2028093C1020E94A0208501B8
:1043900001561F4FC8E7D2E00DC0C8010E940A3382
:1043A00061E00E946A2021960F5F1F4F82E0C338B0
:1043B000D80729F090E2D91681F7CE01EFCF80E03F
:1043C00061E00E946A208CE090E0E80EF91EF09215
:1043D000C202E092C102A8CF0E94552180E090E085
:1043E0000895409A87B18F6187B96CE370E080E0EF
:1043F00090E00E94310440986CE370E080E090E02F
:104400000E943104409A419A81E260E00E946A2051
:1044100088EC60E00E946A2086E060E00E946A20EA
:1044200083E160E00E946A2080E260E00E946A20EE
:104430008CE060E00E946A200E94B820089590936A
:10444000C5008093C40088E18093C10086E080931A
:10445000C2000895982F8091C00085FFFCCF9093F3
:10446000C60008958091C00087FFFCCF8091C600F0
:104470000895FC019081992351F08091C00085FF3F
:10448000FCCF9093C600319690819923B1F708959F
:104490008091C000881F8827881F0895982F8091D9
:1044A000C00085FFFCCF9093C60080E090E00895A7
:1044B000DC018617970788F48C91853571F4FD012E
:1044C00003C08081853521F43196E617F707C8F3DC
:1044D0009F012A1B3B0BC901089520E030E0FBCF70
:1044E0008091130190911401892B39F0E1E1F1E001
:1044F0003A9682819381892BD9F70895809113018F
:1045000090911401892B39F0E1E1F1E03A96828132
:104510009381892BD9F70895FC018617970728F412
:1045200085E58193E617F707E0F30895FC01F89419
:104530008081789408959AE0899FF0011124EF5EBC
:10454000FE4F62817381808191810E94582208957B
:104550008091AF089091B008009729F06FEF78E054
:104560000E94582208958091AB019091AC016FEFA9
:1045700078E00E9458220895DF93CF9300D0CDB702
:10458000DEB781E191E09A83898360911301709194
:1045900014016115710579F0FC01808191810E94FF
:1045A0008C22E981FA813A96FA83E98362817381E8
:1045B0006115710591F78091AF089091B00800974F
:1045C00051F0BE016F5070400E948C220F900F90EE
:1045D000CF91DF9108958091AB019091AC01F1CF23
:1045E000611571058105910509F40895FFCF2091AA
:1045F000C7023091C8024091C9025091CA022617E1
:1046000037074807590709F40895FFCF6F927F9243
:104610008F929F92AF92BF92CF92DF92EF92FF92D2
:104620000F931F93CF93DF93182FC0911301D09155
:104630001401209709F476C031E1E32E31E0F32E26
:1046400001E02BE9A22E21E0B22E9DE6692E93E037
:10465000792E8BE7882E83E0982E10C0123009F453
:1046600040C02AE030E0E20EF31E0F5FD701129641
:10467000CD91DC911397209709F455C0113071F753
:10468000073078F781E0602F0E944E20D701CD904F
:10469000DC90C601BE010E945822EDB7FEB73A97E2
:1046A0000FB6F894FEBF0FBEEDBF3196ADB7BEB7E3
:1046B0001296BC92AE9211979382828204831582E5
:1046C00097838683CC19DD09D187C0870E94253264
:1046D000EDB7FEB73A960FB6F894FEBF0FBEEDBF2A
:1046E000C0CF073008F4BDCF602F665081E00E9434
:1046F0004E20D701CD90DC90C601BE010E94582209
:10470000EDB7FEB73A970FB6F894FEBF0FBEEDBFF8
:104710003196ADB7BEB71296BC92AE921197738226
:104720006282CCCF01E0113009F452C0123079F02E
:10473000DF91CF911F910F91FF90EF90DF90CF907D
:10474000BF90AF909F908F907F906F9008950730AB
:1047500078F3065081E0602F0E944E208091AF08D0
:104760009091B008009709F458C06FEF78E00E946C
:1047700058222DB73EB7285030400FB6F8943EBFB0
:104780000FBE2DBFEDB7FEB731962BE931E0ADB7C7
:10479000BEB712963C932E93119723E533E03383F3
:1047A00022839583848380E099E02091AB0130914E
:1047B000AC01821B930B978386830E942532EDB751
:1047C000FEB738960FB6F894FEBF0FBEEDBFB0CF60
:1047D000073008F0ADCF81E0602F0E944E2080911D
:1047E000AF089091B0080097E9F06FEF78E00E9471
:1047F0005822EDB7FEB738970FB6F894FEBF0FBE3C
:10480000EDBF31962BE931E0ADB7BEB712963C93C0
:104810002E93119720E633E0C2CF8091AB019091A7
:10482000AC01A3CF8091AB019091AC01DECFA1E1AF
:10483000B0E0EDE1F4E20C949E2F3C017F876E879F
:104840006A01FC0117821682838181FD03C06FEF2C
:104850007FEF6FC39E012F5F3F4F398B288BF30192
:104860002381EE85FF8523FD859123FF8191FF87BD
:10487000EE87882309F45AC3853251F4EE85FF850B
:1048800023FD859123FF8191FF87EE87853229F4EF
:1048900090E0B3010E944232E2CF982F10E08824CA
:1048A00099241032B0F49B3269F09C3228F4903293
:1048B00051F0933271F40BC09D3239F0903349F4CA
:1048C000116028C01260146025C0186023C01061F8
:1048D00021C017FD2AC0892F80538A3078F416FF33
:1048E00006C0FAE09F9E902C1124980E13C03AE067
:1048F000839E802C1124880E10620CC09E3221F4FD
:1049000016FD14C3106406C09C3611F4106802C072
:10491000983659F4EE85FF8523FD959123FF9191FB
:10492000FF87EE87992309F0BCCF892F8554833008
:1049300020F4812F8061905E07C0892F85568330D7
:1049400008F09FC1812F8F7E86FD02C076E0972EF2
:104950006FE3F62EF822953619F4F0E4FF2A07C02B
:10496000963619F420E8F22A02C091109A94F7FEC4
:104970000AC03BE3391518F45CE3B52E02C0B92C2C
:10498000B39427E009C047E0491520F4BB2447E071
:10499000942EF7CF292DBB24C60104969D878C87C2
:1049A000F6016081718182819381AE014F5F5F4F1B
:1049B0000B2D0E94DA306C010981202E332400FF78
:1049C00004C003FD02C01DE209C0F1FE02C01BE2EB
:1049D00005C0F2FC02C010E001C010E2C1018C7001
:1049E0009070892BB9F1112311F483E001C084E0A8
:1049F000881510F088240AC0881AF3FC07C080E2EA
:104A000090E0B3010E9442328A94C9F7112329F041
:104A1000812F90E0B3010E94423223FE03C009E8D7
:104A200013E00EC00DE813E00BC0E114F10409F02F
:104A3000805290E0B3010E9442320F5F1F4F05C0C9
:104A4000EF2CFF24F0E1EF22FF24F801849188236A
:104A500061F714C1F7FE12C0BC0C24FE04C08A81A9
:104A6000813309F4BA941B141CF0BB24B3942DC0F9
:104A7000F8E0FB1550F538E0B32E27C0F6FC25C052
:104A8000892D90E08C159D054CF02CEFC2162FEF70
:104A9000D20624F030E8F32A01C09A94992049F014
:104AA000E2E0F0E0EC0FFD1FE90DF11D80818033A5
:104AB000A1F3F7FE0AC0B92CB394892D90E0C81673
:104AC000D90614F0992401C09C18F7FC03C025E016
:104AD00030E009C01C141D041CF021E030E003C0CC
:104AE00096012F5F3F4F112311F02F5F3F4F992009
:104AF00029F0892D90E00196280F391F882D90E02C
:104B00002817390714F0882401C0821A4F2C552425
:104B1000C20189709070892B39F008C080E290E062
:104B2000B3010E9442328A948820C1F7112329F0F0
:104B3000812F90E0B3010E94423243FE07C008C0BB
:104B400080E390E0B3010E9442328A948820C1F74A
:104B5000F7FE46C08601D7FE02C000E010E07601F5
:104B60000894E11CF11CE01AF10A41E050E04C0FFE
:104B70005D1FE40EF51E26014B185108892D90E0AB
:104B8000AA24BB24A81AB90A5FEF0F3F150729F41E
:104B90008EE290E0B3010E944232C016D10634F09A
:104BA000401651061CF4F701808101C080E30150DA
:104BB00010400894E11CF11C0A151B052CF090E034
:104BC000B3010E944232E0CF0C151D0539F49A81E1
:104BD000963318F4953311F424FE81E390E04BC032
:104BE0008A81813309F00F7E90E0B3010E94423246
:104BF0009920A1F08EE290E0B3010E94423212E0CF
:104C0000E1E0F0E0EC0FFD1FE10FF11D1F5F80817F
:104C100090E0B3010E9442329A9491F744FC03C0A1
:104C200085E690E002C085E490E0B3010E94423244
:104C3000D7FC05C0C114D10441F404FF06C0D094D0
:104C4000C194D108D3948DE201C08BE290E0B3010E
:104C50000E94423280E305C08F5F26EF3FEFC20E15
:104C6000D31E3AE0C316D104BCF790E0B3010E9412
:104C70004232C601C096B3010E944232CC84DD8428
:104C800052C1933631F0933799F0933509F059C0FA
:104C900023C0F601808189835E010894A11CB11CA8
:104CA00022E030E0C20ED31E21E0E22EF12C12C031
:104CB000F601A080B18016FD03C06FEF7FEF02C048
:104CC000692D70E022E030E0C20ED31EC5010E94C3
:104CD000D8317C011F7713C0F601A080B18016FD8A
:104CE00003C06FEF7FEF02C0692D70E022E030E07B
:104CF000C20ED31EC5010E94CD317C01106813FF86
:104D000007C01BC080E290E0B3010E9442328A9447
:104D1000882D90E0E816F906A8F30FC0F50117FDFD
:104D2000859117FF81915F0190E0B3010E944232AB
:104D300081108A940894E108F108E114F10471F7F4
:104D4000F2C0943611F0993689F517FF08C0F601C4
:104D5000208131814281538184E090E00AC0F601D4
:104D6000808191819C01442737FD4095542F82E03A
:104D700090E0C80ED91E9FE6F92EF12257FF09C018
:104D800050954095309521953F4F4F4F5F4F90E89C
:104D9000F92ACA01B901AE014F5F5F4F2AE030E046
:104DA0000E94AC32E82EE889EE1A41C0953721F412
:104DB0001F7E2AE030E01CC0197F9F3661F09037DB
:104DC00020F4983509F0B2C00FC0903739F0983709
:104DD00009F0ACC004C028E030E00AC0106114FD46
:104DE000146020E130E004C014FD166020E132E0E0
:104DF00017FF08C0F601608171818281938144E0D0
:104E000050E008C0F60180819181BC0180E090E013
:104E100042E050E0C40ED51EAE014F5F5F4F0E94CE
:104E2000AC32E82E5889E51A8FE7F82EF122F6FE0B
:104E30000BC08EEFF822E91438F4F4FE07C0F2FC40
:104E400005C09FEEF92202C01E2D01C0192DF4FEEF
:104E50000DC0FE01EE0DF11D8081803319F4E9EEE5
:104E6000FE2208C01F5FF2FE05C003C08F2D8678AA
:104E700009F01F5F0F2DF3FC14C0F0FE0FC01815D2
:104E800010F09E2C0BC09E2C980C911A182D06C069
:104E900080E290E0B3010E9442321F5F1815C0F318
:104EA00004C0181510F4811A01C0882404FF0FC033
:104EB00080E390E0B3010E94423202FF1DC001FD79
:104EC00003C088E790E00EC088E590E00BC0802F1B
:104ED000867891F001FF02C08BE201C080E2F7FC0E
:104EE0008DE290E0B3010E94423206C080E390E080
:104EF000B3010E9442329A94E914C0F3EA94E1E0CB
:104F0000F0E0EC0FFD1FEE0DF11D808190E0B3018C
:104F10000E944232EE2091F706C080E290E0B30199
:104F20000E9442328A948820C1F799CCF3016681AD
:104F30007781CB016196E2E10C94BA2FFC0120FD50
:104F400008C023FD05C022FF02C073836283518322
:104F500040830895EF92FF920F931F9344FF02C086
:104F600033E011C046FF02C034E00DC0DB01FC019C
:104F7000AA0FBB1FEE1FFF1F1094D1F76A0F7B1FF4
:104F80008E1F9F1F31E0660F771F881F991F3150BA
:104F9000D1F77B018C01E20EF11C011D111DA8014E
:104FA0009701B701CA011F910F91FF90EF900895EB
:104FB0000F931F93CF93DF938C01C8010E94E331BD
:104FC000EC0197FD08C00E94B231892BB1F7CE01E8
:104FD000B8010E949232CE01DF91CF911F910F91C3
:104FE00008958F929F92AF92BF92DF92EF92FF92BD
:104FF0000F931F93CF93DF935C01EB014A01122FB4
:105000000E94E331AC018B3219F08D3251F41068FB
:10501000219709F46DC0C5010E94E331AC0197FDF1
:1050200067C06DEFD62ED1228D2D807301F54033F0
:10503000F1F4219709F447C0C5010E94E331AC01A6
:1050400097FD41C082E0D82A483711F0483559F41D
:1050500080E4D82A2197B9F1C5010E94E331AC015F
:1050600099232CF430C0D6FC02C080E1D82AEE246B
:10507000FF248701242F2053283088F0D4FC09C056
:105080002A3068F0D6FE05C02F7D822F81518630F0
:1050900028F0CA01B5010E94923212C02750C801FF
:1050A000B7014D2D0E94AA277B018C0182E0D82AEE
:1050B000219761F0C5010E94E331AC0197FFDACF7F
:1050C000D1FC04C015C0EE24FF248701D7FE08C020
:1050D00010950095F094E094E11CF11C011D111D48
:1050E000C401B801A7012D2D0E949E2781E001C0B7
:1050F00080E0DF91CF911F910F91FF90EF90DF90B3
:10510000BF90AF909F908F900895A0E2B0E0EBE841
:10511000F8E20C94A22F5C016B018A017901FE0177
:10512000319680E2DF011D928A95E9F770E030E068
:1051300060E040E050E03F01A1E0B0E0F501838194
:10514000F70183FD259183FF21917F01222309F43B
:1051500081C02E3519F44115510569F1872F90E072
:105160008417950744F42D3551F12D3221F4332362
:1051700029F431E021C0332309F4622F322F832F29
:10518000869586958695F301E80FF11D832F87702C
:105190004D0102C0880C991C8A95E2F720812829CC
:1051A0002083361711F430E007C0361710F43F5F44
:1051B000E6CF3150E4CF71E04F5F5F4FBFCF332375
:1051C00019F08E8180628E83772359F0FE0131962B
:1051D0009E012F5D3F4F808180958193E217F307F9
:1051E000D1F7992493943E010894611C711CC50168
:1051F0000E94E331AC0197FD25C086958695869582
:10520000F301E80FF11D808190E09A012770307062
:1052100002C0959587952A95E2F780FD05C0CA01E1
:10522000B5010E9492320EC00115110519F0D80186
:105230004D938D010894C108D1089924C114D1045B
:10524000B1F602C0992031F40115110529F0F801D9
:10525000108202C0EE24FF24C701A096EEE00C9459
:10526000BE2F2F923F925F926F927F928F929F926A
:10527000AF92BF92CF92DF92EF92FF920F931F9364
:10528000CF93DF933C017B011A010E94E331EC01D3
:105290008B3239F08D3211F0552411C0B0E85B2EFD
:1052A00001C055240894E108F108E114F10409F45F
:1052B00018C1C3010E94E331EC0197FD12C1CE0178
:1052C0000E94BA318936910521F08E36910599F503
:1052D0001DC006EA13E01CC00894E108F108E114BF
:1052E000F10471F0C3010E94E331EC0197FD08C0A5
:1052F0000E94BA31D81661F0CE01B3010E949232F9
:1053000023E0093A120709F0ECC008C003EA13E0F1
:10531000F8010F5F1F4FD490DD20F1F6065A1340BD
:1053200029F080E090E0A0E8BFE7CFC080E090E007
:10533000A0ECBFE7CAC0CC24DD2488249924540102
:10534000AE014053242F4A3038F552E0552A852DBE
:1053500090E0AC014870507052FE06C0452B11F52C
:105360000894C11CD11C1EC0452B19F00894C1081B
:10537000D108C501B40140E20E94AA274B015C019B
:1053800088E9881689E9980689E9A80689E1B806B6
:1053900048F094E0592A06C04E3F81F453FC0EC0F9
:1053A000E8E05E2A0894E108F108E114F10431F024
:1053B000C3010E94E331EC0197FFC2CF51FE91C0BF
:1053C000C53619F0C53409F046C00894E108F10863
:1053D000E114F10409F485C0C3010E94E331EC013A
:1053E00097FD7FC08B3221F08D3269F4F0E15F2AA6
:1053F0000894E108F108E114F10409F472C0C30152
:105400000E94E331EC01CE01C0970A9708F069C011
:1054100000E010E0B801882777FD8095982FAE0155
:105420004053242F40E20E94AA278B010894E108F0
:10543000F108E114F10439F0C3010E94E331EC01F9
:10544000C0970A9738F3B80154FE03C07095619570
:105450007F4FC60ED71EEF2831F0D7FD04C0CE0116
:10546000B3010E949232C501B4010E94AC2CD7FE58
:105470000DC0A2ECEA2EA3E0FA2ED094C194D1087C
:10548000D394C0E2D0E000E010E00EC0FAEDEF2EC1
:10549000F3E0FF2EF6CFF701259135914591549118
:1054A0000E94622DCC1ADD0ACC16DD06A0F7D69537
:1054B000C7950F5F1F4F0630110529F0ECEFFFEF86
:1054C000EE0EFF1EF1CFDC01CB0157FCB0582114CA
:1054D000310429F0F10180839183A283B38381E0B9
:1054E00001C080E0DF91CF911F910F91FF90EF906D
:1054F000DF90CF90BF90AF909F908F907F906F90F4
:105500005F903F902F900895A0E0B0E0EAE8FAE2C3
:105510000C94A12F4C015B013A01FC011782168209
:10552000552404C1812F90E00E94B231892B21F0D3
:10553000C4010E94D827FAC0153249F4F501F3FCE2
:105540006591F3FE61915F01653269F415E2C40172
:105550000E94E33197FDF6C0181709F4E7C0B401C3
:105560000E949232F4C06A3219F0162F00E006C091
:10557000F3FC1591F3FE11915F0101E0CC24DD24D1
:105580000EC00260B60180E090E040E20E94AA27CF
:105590006B01F501F3FC1591F3FE11915F01212FD1
:1055A00020532A3070F301FD04C0CC24CA94DC2CB3
:1055B00004C0C114D10409F4CAC0183621F01C3645
:1055C00099F4F5010BC0F501F3FC6591F3FE6191CF
:1055D000683619F05F01162F07C008600460F3FCFD
:1055E0001591F3FE11915F01112309F4B0C081E917
:1055F00093E0612F70E00E94C231892B09F4A7C0AB
:10560000802F00FF03C0EE24FF2407C0F301E080D9
:10561000F18022E030E0620E731E1E3651F4F40178
:105620004681578160E070E0C701202F0E949E27CD
:105630007DC01336B9F481FD03C081E0C82ED12CA2
:10564000C4010E94E33197FD7DC0E114F10419F01B
:10565000F70181937F010894C108D108C114D104D6
:1056600079F762C01B3559F4C401B601A701950151
:105670000E9485285C01009709F056C050C0C40103
:105680000E94D82797FD5EC01F36D1F1103738F43D
:105690001436A1F11936A9F11835D1F52DC01337FB
:1056A00051F0143718F4103799F526C0153731F139
:1056B000183771F521C0C4010E94E331EC0197FD58
:1056C00015C00E94B231892B29F0CE01B4010E948D
:1056D00092320CC0E114F10419F0F701C1937F017B
:1056E0000894C108D108C114D10429F7E114F104C8
:1056F000D9F0F701108218C0006403C0006201C035
:105700000061C401B601A701202F0E94F12705C046
:10571000C401B601A7010E943129882329F4F401AC
:105720008381807379F413C000FF5394F401F380F4
:10573000F501F3FC1591F3FE11915F01112309F0BE
:10574000F1CE05C0552019F42FEF3FEF02C0252DF3
:1057500030E0C901CDB7DEB7EFE00C94BD2F505853
:10576000BB27AA270ED070C161D130F066D120F0DE
:1057700031F49F3F11F41EF456C10EF4E095E7FB9F
:105780004CC1E92F72D180F3BA17620773078407FF
:10579000950718F071F49EF58AC10EF4E0950B2E72
:1057A000BA2FA02D0B01B90190010C01CA01A00173
:1057B0001124FF27591B99F0593F50F4503E68F1CE
:1057C0001A16F040A22F232F342F4427585FF3CF0F
:1057D000469537952795A795F0405395C9F77EF4E0
:1057E0001F16BA0B620B730B840BBAF09150A1F029
:1057F000FF0FBB1F661F771F881FC2F70EC0BA0FAF
:10580000621F731F841F48F4879577956795B79536
:10581000F7959E3F08F0B3CF9395880F08F099272E
:10582000EE0F979587950895D4D008F481E00895F8
:105830000CD00AC102D140F0F9D030F021F45F3F22
:1058400019F0EBC0511134C1EEC00FD198F3992378
:10585000C9F35523B1F3951B550BBB27AA27621734
:105860007307840738F09F5F5F4F220F331F441F79
:10587000AA1FA9F333D00E2E3AF0E0E830D09150B1
:105880005040E695001CCAF729D0FE2F27D0660F9E
:10589000771F881FBB1F261737074807AB07B0E8DD
:1058A00009F0BB0B802DBF01FF2793585F4F2AF0F3
:1058B0009E3F510568F0B1C0FBC05F3FECF3983EDE
:1058C000DCF3869577956795B795F7959F5FC9F750
:1058D000880F911D9695879597F90895E1E0660FD9
:1058E000771F881FBB1F621773078407BA0720F052
:1058F000621B730B840BBA0BEE1F88F7E0950895BB
:10590000BCD088F09F5790F0B92F9927B751A0F0DD
:10591000D1F0660F771F881F991F1AF0BA95C9F743
:1059200012C0B13081F0C3D0B1E00895C0C0672F7C
:10593000782F8827B85F39F0B93FCCF386957795F3
:105940006795B395D9F73EF49095809570956195DC
:105950007F4F8F4F9F4F0895E89409C097FB3EF407
:1059600090958095709561957F4F8F4F9F4F9923AC
:10597000A9F0F92F96E9BB279395F695879577952A
:105980006795B795F111F8CFFAF4BB0F11F460FFEA
:105990001BC06F5F7F4F8F4F9F4F16C0882311F042
:1059A00096E911C0772321F09EE8872F762F05C056
:1059B000662371F096E8862F70E060E02AF09A95F1
:1059C000660F771F881FDAF7880F9695879597F9E6
:1059D0000895990F0008550FAA0BE0E8FEEF161680
:1059E0001706E807F907C0F012161306E407F507D3
:1059F00098F0621B730B840B950B39F40A2661F047
:105A0000232B242B252B21F408950A2609F4A140E9
:105A1000A6958FEF811D811D089597F99F6780E8F6
:105A200070E060E008959FEF80EC089500240A94F0
:105A30001616170618060906089500240A94121669
:105A40001306140605060895092E0394000C11F49C
:105A5000882352F0BB0F40F4BF2B11F460FF04C049
:105A60006F5F7F4F8F4F9F4F089557FD9058440FA2
:105A7000551F59F05F3F71F04795880F97FB991FAD
:105A800061F09F3F79F0879508951216130614066A
:105A9000551FF2CF4695F1DF08C0161617061806F7
:105AA000991FF1CF86957105610508940895E894D2
:105AB000BB2766277727CB0197F908958ADF08F47B
:105AC0008FEF08950BD0C0CFB1DF28F0B6DF18F00C
:105AD000952309F0A2CFA7CF1124EACFC6DFA0F308
