:100000000C946A020C94F91C0C9487020C948702DD
:100010000C9487020C9487020C9487020C94631C46
:100020000C9487020C9487020C9487020C9487022C
:100030000C9487020C9487020C94FD040C948702A4
:100040000C9487020C9487020C9487020C9487020C
:100050000C9487020C9487020C9487020C948702FC
:100060000C9487020C94870207634236B79BD8A78B
:100070001A39685618AEBAAB558C1D3CB7CC5763CD
:10008000BD6DEDFD753EF6177231BF000000803F7B
:1000900008000000BE922449123EABAAAA2ABECD97
:1000A000CCCC4C3E00000080BEABAAAAAA3E000009
:1000B0000000BF000000803F000000000008417801
:1000C000D3BB4387D1133D190E3CC3BD4282AD2B38
:1000D0003E68EC8276BED98FE1A93E4C80EFFFBE30
:1000E00001C4FF7F3F00000000004369616F210DE4
:1000F0000A004669726D776172652076302E330092
:1001000025312E30662057202020002D2D2D205700
:1001100000506F77657220457374696D6174650076
:1001200025312E30662057202020002D2D2D2057E0
:1001300000506F7765720025312E3366206B672A79
:100140006D5E32004D2D496E657274696120284ADA
:10015000290025312E3466002D2D2D2D2D2D004BFF
:100160005F44616D70204573742E0025312E346616
:10017000004B5F44616D700025312E326620732084
:10018000202020002D2D2D2D20730054696D652F0A
:100190005374726F6B650025312E3266206D2020FE
:1001A0002020002D2D2D2D206D00446973742F53B8
:1001B00074726F6B650025312E3366206D004469C3
:1001C00073742F52657600206B63616C7320002579
:1001D000332E3066002532643A25303264002D2DEE
:1001E0003A2D2D0020572020200025332E30660088
:1001F0002D2D2D002053504D20200025332E30660C
:10020000002D2D2D002532643A2530326400253230
:10021000643A253032640025332E306600206D208C
:100220000025342E3066002532643A2530326400D1
:10023000202A2000202020002D2D3A2D2D00206D79
:1002400020002D2D2D2D002D2D3A2D2D20002D2D72
:100250002D002D2D3A2D2D002532643A25303264A3
:10026000002D2D3A2D2D0025312E306620572020CF
:1002700020002D2D2D20570025312E326620200004
:10028000532320256420202020006176672025321A
:100290002E306600617667202D2D0053504D2025AD
:1002A000322E306620200053504D202D2D2020006E
:1002B00025312E3066206D657465727320202020F4
:1002C000002532643A25303264002053617261683F
:1002D0002773204572676F20002F2F0048656170DB
:1002E000004461746100496E666F002F2F004275F3
:1002F000726E005061636500442F540050726F6746
:1003000000496E666F0050726F6700526F77210070
:100310004572676F00202573003E2573002573002A
:10032000486561703A2025642F2564200048656186
:10033000703A2025642F2564200054686425643AAF
:100340002025642F2564200054686425643A202504
:10035000642F2564200025640D0A002564200055C3
:100360006E7573656420537461636B3A2000256475
:100370000D0A0025642000537461636B2053697A71
:1003800065733A20006E616E00696E660063646991
:100390006E6F70737578585B656667454647006198
:1003A0006E006E66696E69747900CDCCCC3D0AD75B
:1003B000233C17B7D13877CC2B329595E6241FB163
:1003C0004F0A000020410000C84200401C4620BCEB
:1003D000BE4CCA1B0E5AAEC59D7400407A10F35A2B
:1003E00000A0724E18090010A5D4E80000E8764875
:1003F000170000E40B54020000CA9A3B000000E121
:10040000F505000080969800000040420F000000B3
:10041000A08601000000102700000000E803000093
:1004200000006400000000000A000000000001005D
:10043000000000002C76D888DC674F0823DFC1DF7E
:10044000AE59E1B1B796E5E3E453C63AE651997681
:1004500096E8E6C28426EB898C9B62ED407C6FFCBB
:10046000EFBC9C9F40F2BAA56FA5F490055A2AF7FD
:100470005C936B6CF9676DC11BFCE0E40D47FEF506
:1004800020E6B500D0ED902E03009435770500806E
:10049000841E080000204E0A000000C80C333333CD
:1004A000330F986E12831141EF8D2114893BE6556D
:1004B00016CFFEE6DB18D1844B381BF77C1D901D50
:1004C000A4BBE424203284725E228100C9F124ECB2
:1004D000A1E53D2711241FBECFEFD8E0DEBFCDBF81
:1004E00011E0A0E0B1E0E4EFF0E602C005900D926B
:1004F000A43BB107D9F718E0A4EBB1E001C01D920D
:10050000A635B107E1F70E94D2060C9478300C941E
:100510000000F894FFCFCF93DF9380913503909143
:100520003603A0913703B09138030196A11DB11D88
:100530008093350390933603A0933703B093380329
:10054000C9E3D3E02FEF3FEF8D819E81AF81B88566
:100550000097A105B10551F18D819E81AF81B885CC
:100560000197A109B1098D839E83AF83B8878D81DF
:100570009E81AF81B8850097A105B105B9F48A8144
:100580008330E1F0823001F13C832B831A821D829B
:100590001E821F8218868091330390913403C817FE
:1005A000D90720F4D0933403C09333032A9683E011
:1005B000C339D80749F6DF91CF910895EB81FC81CB
:1005C00080818F5F8083E0CFEB81FC81118210827C
:1005D000DBCF08957894089580E008950895FC0194
:1005E000748363831282158216821782108680912B
:1005F000330390913403E817F90720F4F0933403A0
:10060000E0933303CF010895DC01ED91FC91119744
:100610003097A1F01D921C9274836383128215821D
:100620001682178210868091330390913403E81765
:10063000F90720F4F0933403E09333030895DC01C9
:100640008C918F5F8C938C9118160CF40895809187
:100650003C0390913D038A179B07D9F0E9E3F3E04F
:100660003A96838194818A179B07D1F7148213826B
:100670001282158216821782108680913303909120
:100680003403E817F90710F7F0933403E0933303CA
:100690000895E9E3F3E0EACFDC012C916C9327FFA6
:1006A00023C04091330350913403E9E3F3E06EEF4C
:1006B0007FEF03C027FF14C03A96838194818A1785
:1006C0009B07C1F72F5F74836383128215821682A2
:1006D00017821086E417F50768F7AF0127FDECCF06
:1006E00050933403409333030895FC018185682BB4
:1006F00061878281843009F0089583816823E1F362
:1007000014821382128215821682178210868091BB
:10071000330390913403E817F90770F7F09334032B
:10072000E09333030895A0913103B0913203129600
:100730008C93129715964D935D936D937C931897B8
:1007400080913B038823C9F0E9E3F3E03A96828184
:100750008823E1F7F0933403E0933303F0933203FB
:10076000E0933103CF01BD010E94BB04E09131034E
:10077000F0913203838194810895E9E3F3E0EACFB5
:100780000F931F93CF93DF93082FC0913103D09124
:1007900032039985182F192389F44F3F8FEF58079B
:1007A0008FEF68078FEF780799F00B8384E00E9442
:1007B000930397FD0DC09985102F1923812F8095E4
:1007C00089238987812FDF91CF911F910F91089500
:1007D0007894812FDF91CF911F910F910895F89414
:1007E0000E94C00378940895DC018C91181634F4AB
:1007F00081508C9320E030E0C90108954F3F9FEF76
:1008000059079FEF69079FEF790719F42FEF3FEF23
:10081000F3CF81508C93E0913103F0913203B48394
:10082000A38383E00E9493039C01E6CFF8940E9487
:10083000F40378940895AB01BC01F89480913503DA
:1008400090913603A0913703B0913803481B590BA0
:100850006A0B7B0B81E00E94930378940895AB01AF
:10086000BC01F89481E00E94930378940895DC0120
:10087000809131039091320311969C938E93E09175
:100880003103F0913203B483A38382E00E94930387
:1008900008956091310370913203809133039091F8
:1008A00034036817790731F0909332038093310352
:1008B0000E94BB040895F8940E9475030E944904A5
:1008C00078940895F8940E944C030E944904789407
:1008D0000895F8940E941F030E9449047894089593
:1008E000CF93DF932AEE34E0832F992787FD9A95E3
:1008F000482F69E373E0DB01C2E1D1E0EA81FB81CB
:1009000075971196FC93EE938E81828BED91FC91FD
:1009100011978E819F81892F990F990B818BED9172
:10092000FC9111978885808BED91FC9111978885BA
:100930009985892F990F990B8787ED91FC911197D4
:10094000438BED91FC911197248B1A962A9683E0A4
:10095000A339B80799F67093340360933303709307
:10096000320360933103CB01BD010E94BB04789434
:10097000DF91CF9108952F923F924F925F926F92A5
:100980007F928F929F92AF92BF92CF92DF92EF921F
:10099000FF920F931F93CF93DF93FB010DB600825D
:1009A0000EB60182FC0100800DBE01800EBEDF91FB
:1009B000CF911F910F91FF90EF90DF90CF90BF905C
:1009C000AF909F908F907F906F905F904F903F90EF
:1009D0002F9008957894C201F101099580E090E08C
:1009E0000E948902089592E094BD95BD89EF87BD6C
:1009F00016BC95BB90936E0008951F920F920FB690
:100A00000F9211242F933F934F935F936F937F9394
:100A10008F939F93AF93BF93EF93FF930E948B02AB
:100A20000E944904FF91EF91BF91AF919F918F91E7
:100A30007F916F915F914F913F912F910F900FBEDA
:100A40000F901F9018951092BA011092BB0110924E
:100A5000BC011092BD018091350390913603A091A5
:100A60003703B09138038093BE019093BF01A093E8
:100A7000C001B093C1010895FC01F8948091B801C0
:100A80009091B901958384838091B4019091B501CF
:100A9000A091B601B091B70180839183A283B38303
:100AA00078940895CF92DF92EF92FF920F931F9365
:100AB0006C01F894E090B801F090B9016091B40134
:100AC0007091B5018091B6019091B7017894F601CB
:100AD0002081318142815381621B730B840B950B02
:100AE00028EE33E040E050E00E94A02C9B01AC01D6
:100AF000F60184819581A0E0B0E0281B390B4A0BF8
:100B00005B0B00E010E02E0D3F1D401F511FB9018F
:100B1000CA011F910F91FF90EF90DF90CF90089541
:100B2000FC01F8948091B8019091B9012091B40131
:100B30003091B5014091B6015091B7017894808110
:100B40009181A281B381281B390B4A0B5B0BB90140
:100B5000CA010895F8942091B4013091B5014091F3
:100B6000B6015091B7017894B901CA010895F8947B
:100B70001092B4011092B5011092B6011092B70113
:100B8000789408951092BA011092BB011092BC01A2
:100B90001092BD018091350390913603A0913703E7
:100BA000B09138038093BE019093BF01A093C00120
:100BB000B093C101F89420913503309136034091F0
:100BC0003703509138038091BE019091BF01A091ED
:100BD000C001B091C10179018A01E81AF90A0A0B32
:100BE0001B0BE092C201F092C3010093C401109369
:100BF000C5012093BE013093BF014093C0015093C3
:100C0000C10178946091C2017091C3018091C401C7
:100C10009091C5010091B8011091B90128EE33E01F
:100C200040E050E00E94A02C20EA3FE040E050E08D
:100C30000E94DF2C020F131F1093B9010093B8011B
:100C40008091B8019091B901875E934008F442C049
:100C50008091B4019091B501A091B601B091B70116
:100C60000196A11DB11D8093B4019093B501A0938D
:100C7000B601B093B7018091BA019091BB01A091E8
:100C8000BC01B091BD010196A11DB11D8093BA01B7
:100C90009093BB01A093BC01B093BD011092B90128
:100CA0001092B8016091B4017091B5018091B601C4
:100CB0009091B7010E94222A20E030E040E752E400
:100CC0000E948E296093730470937404809375045A
:100CD0009093760460E570E080E090E00E942F043D
:100CE00069CF6F927F928F929F92AF92BF92CF9275
:100CF000DF92EF92FF920F931F936B017C015A01D9
:100D00004901380120E030E040E752E40E948E299A
:100D10000E94F629F501608370E0882777FD8095B1
:100D2000982F0E94242A20E030E040E752EC0E94F5
:100D3000D82AA70196010E9426295B016C010E9416
:100D4000F629E62EF4016083C601B50120E030E00B
:100D500040E752E40E94D82A5B016C01FF2400E0C6
:100D600010E0C801B7010E94222A20E030E040E7ED
:100D700052EC0E94D82A9B01AC01C601B5010E9429
:100D800026290E94F629F30160831F910F91FF909D
:100D9000EF90DF90CF90BF90AF909F908F907F901B
:100DA0006F9008950E943B1F81E0809389050E9407
:100DB000F3040E947004FFCF89E190E00E94BA1E04
:100DC000E0903503F090360300913703109138031B
:100DD00000D000D086E791E0ADB7BEB712969C93E5
:100DE0008E9311978AEE90E014969C938E931397AE
:100DF0000E94882F0F900F900F900F900E94152146
:100E00000E94962080EA9FE0A0E0B0E0E80EF91E84
:100E10000A1F1B1FC801B7010E941B04EFCF4F928E
:100E20005F926F927F928F929F92AF92BF92CF927A
:100E3000DF92EF92FF920F931F93CF93DF932C01DA
:100E40000F2EF0E06F2EF0E07F2EF0E08F2EF0E01E
:100E50009F2EF02D64015301C4E0D0E0BE0188272D
:100E600077FD8095982F0E94242A9B01AC0160E0B9
:100E700070E080E090E40E943B2B7B018C01C40178
:100E8000B301A80197010E9426293B014C01C8012A
:100E9000B701F20121913191419151912F010E94AD
:100EA000D82A9B01AC01C601B5010E9426295B012D
:100EB0006C012197FFEFCF3FDF0781F6A40193017B
:100EC0000E948E29DF91CF911F910F91FF90EF909B
:100ED000DF90CF90BF90AF909F908F907F906F905A
:100EE0005F904F900895DF93CF9300D000D0CDB79F
:100EF000DEB752985A9A1092800083E08093810066
:100F00008093690011E01DBB10928500109284004F
:100F10008FEF95E0A2E0BAE38093C7019093C801F8
:100F2000A093C901B093CA018CE09CEAA4EBBEE394
:100F30008093CB019093CC01A093CD01B093CE01CF
:100F400060EE7EE280E090E00E942F0410929C020E
:100F500010929B0210929E0210929D0280E090E0FF
:100F6000A0E0B0E080930F0390931003A0931103CF
:100F7000B09312038093130390931403A09315036B
:100F8000B09316038093170390931803A09319034B
:100F9000B0931A0380931B0390931C03A0931D032B
:100FA000B0931E0310931F03109220038093CF0170
:100FB0009093D001A093D101B093D201E0E080E002
:100FC00020E030E040E050E0F0E0EE0FFF1FEE0FD9
:100FD000FF1FDF01A954BD4F2D933D934D935C93AB
:100FE0001397DF01A550BD4F2D933D934D935C9317
:100FF0001397DF01A153BD4F2D933D934D935C9308
:101000001397DF01AD51BD4F2D933D934D935C93ED
:101010001397E156FD4F2083318342835383E82F9A
:10102000EF5F8E2FE53080F2E093D3011092D40170
:101030001092D5012093D6013093D7014093D80167
:101040005093D9012093DA013093DB014093DC0106
:101050005093DD012093DE013093DF014093E001E6
:101060005093E1012093E2013093E3014093E401C6
:101070005093E50181E293E00E943C0587E293E012
:101080000E943C051092E7011092E601F89488EE68
:1010900091E040E050E060E070E00E943704789416
:1010A00060919B0270919C0280E090E00E94222A55
:1010B0002DEB37E346E057E30E94D82A1B012C01B1
:1010C0006093EA017093EB018093EC019093ED0142
:1010D00080910F0390911003A0911103B09112031E
:1010E00089839A83AB83BC83809313039093140307
:1010F000A0931503B093160360919B0270919C021C
:10110000E0909D02F0909E0280E090E00E94222AF2
:101110005B016C0100E010E0C801B7010E94222AC7
:101120009B01AC01C601B5010E9426292DEB37E3D6
:1011300046E856E30E94D82A9B01AC016AED7FE0A5
:1011400089EC90E40E948E297B018C0160930F034F
:101150007093100380931103909312036090170310
:10116000709018038090190390901A0360921B03EB
:1011700070921C0380921D0390921E03C201B10164
:1011800027E137EB41ED58E30E9426295B016C0112
:10119000C801B70129813A814B815C810E942529D0
:1011A000A60195010E948E291B012C016093170353
:1011B000709318038093190390931A03A401930169
:1011C0000E942529A60195010E948E297B018C0190
:1011D0006093EE017093EF018093F0019093F10121
:1011E00020E030E040E252EC0E94D42A18160CF0C5
:1011F00098C0C801B70120E030E040E252E40E940C
:101200008A2988230CF08DC01092D501C201B1014A
:1012100020E030E040E751E40E94D42A18160CF098
:1012200084C0A1E0A093D4019091D501913009F43C
:1012300083C08091D401813009F4B9C180911F032A
:101240008093200310921F0380912003813009F4C2
:10125000B8C180911F03813009F435C1882309F09A
:1012600015CF80912003882309F010CFA0900F03A1
:10127000B0901003C0901103D0901203C601B501C5
:1012800027E137EB41ED58E30E9426299B01AC0191
:10129000E090EA01F090EB010091EC011091ED017A
:1012A0000E94D82A9B01AC0160911703709118032A
:1012B0008091190390911A030E948E29A801970129
:1012C0000E94D82A9B01AC016091F2017091F30158
:1012D0008091F4019091F5010E9426296093F2011A
:1012E0007093F3018093F4019093F501C601B50169
:1012F000A80197010E94D82A9B01AC016091F601D8
:101300007091F7018091F8019091F9010E942629CE
:101310006093F6017093F7018093F8019093F901BF
:10132000B5CE91E09093D50171CF1092D4019091F8
:10133000D501913009F07DCF80911F038093200368
:1013400090931F03882309F084CF87E293E00E94E3
:101350003C0580E090E0A0E0B0E08093DA0190935B
:10136000DB01A093DC01B093DD018093D601909363
:10137000D701A093D801B093D9018091EF02909149
:10138000F002A091F102B091F2028093F3029093E7
:10139000F402A093F502B093F6028091EB029091D3
:1013A000EC02A091ED02B091EE028093EF029093D7
:1013B000F002A093F102B093F2028091E7029091C3
:1013C000E802A091E902B091EA028093EB029093C7
:1013D000EC02A093ED02B093EE028091E3029091B3
:1013E000E402A091E502B091E6028093E7029093B7
:1013F000E802A093E902B093EA026091DE017091E5
:10140000DF018091E0019091E1012091E2013091B2
:10141000E3014091E4015091E5010E9425292DEB63
:1014200037E346E855E30E9426299B01AC01609111
:10143000F2017091F3018091F4019091F5010E9405
:101440008E296093E3027093E4028093E502909307
:10145000E60283EE92E00E940F076093F70270931A
:10146000F8028093F9029093FA0260910F03709151
:10147000100380911103909112032091EA013091A1
:10148000EB014091EC015091ED010E94D82A9B01A3
:10149000AC016091F6017091F7018091F801909193
:1014A000F9010E9426296093F6017093F701809359
:1014B000F8019093F90180911F03882309F4C4CEA9
:1014C000813009F0CBCE80912003813009F0DECD50
:1014D000E0900F03F090100300911103109112039C
:1014E000A090EA01B090EB01C090EC01D090ED012A
:1014F000C801B7012AE037ED43E25EE30E94D82A33
:1015000020911703309118034091190350911A0349
:101510000E94D82AA60195010E94D82A9B01AC01FD
:101520006091DA017091DB018091DC019091DD0125
:101530000E9426296093DA017093DB018093DC011D
:101540009093DD01C801B701A80197010E94D82A34
:101550009B01AC01C801B7010E94D82A2091C701A4
:101560003091C8014091C9015091CA010E94D82A06
:101570009B01AC01C601B5010E94D82A9B01AC01B8
:101580006091D6017091D7018091D8019091D901D5
:101590000E9426296093D6017093D7018093D801C9
:1015A0009093D901C801B701A6019501A3CE8091FE
:1015B0001F03813009F044CE8093200380931F03E2
:1015C00048CE8091E6019091E70101969093E70162
:1015D0008093E60180E090E0A0E0B0E08093F2012B
:1015E0009093F301A093F401B093F50187E293E0A7
:1015F0000E9452050E94222A20E030E04AE754E48B
:101600000E948E296093E2017093E3018093E401CC
:101610009093E50181E293E00E9452050E94222A04
:1016200020E030E04AE754E40E948E296093DE0116
:101630007093DF018093E0019093E10181E293E0F8
:101640000E943C056091DE017091DF018091E00114
:101650009091E10127E137EB41ED58E30E94262903
:101660007B018C016091F6017091F7018091F80186
:101670009091F901A80197010E948E296093FA01C7
:101680007093FB018093FC019093FD0180E090E05A
:10169000A0E0B0E08093F6019093F701A093F801E9
:1016A000B093F9016091FE017091FF0180910002F9
:1016B00090910102209102023091030240910402B4
:1016C000509105020E94252960930602709307023B
:1016D00080930802909309022091FE013091FF014E
:1016E00040910002509101022093020230930302C4
:1016F00040930402509305022091070330910803A0
:101700004091090350910A0320930B0330930C037B
:1017100040930D0350930E03209103033091040373
:10172000409105035091060320930703309308036B
:101730004093090350930A032091FF023091000364
:10174000409101035091020320930303309304035B
:1017500040930503509306032091FB023091FC0255
:101760004091FD025091FE022093FF02309300034E
:101770004093010350930203A80197010E948E2910
:101780006093FB027093FC028093FD029093FE0233
:101790008BEF92E00E940F0760930A0270930B0296
:1017A00080930C0290930D0227E137EB41ED58E353
:1017B0000E9426299B01AC0160E070E08AEF93E46F
:1017C0000E948E2960930E0270930F028093100284
:1017D0009093110220E030E040E752E40E948E290D
:1017E00042E152E023E132E004E112E00E9471069E
:1017F0008091DB029091DC02A091DD02B091DE02CB
:101800008093DF029093E002A093E102B093E202A2
:101810008091D7029091D802A091D902B091DA02BA
:101820008093DB029093DC02A093DD02B093DE0292
:101830008091D3029091D402A091D502B091D602AA
:101840008093D7029093D802A093D902B093DA0282
:101850008091CF029091D002A091D102B091D2029A
:101860008093D3029093D402A093D502B093D60272
:101870006091DE017091DF018091E0019091E101C2
:1018800027E137EB41ED58E30E9426299B01AC018B
:101890006091E2017091E3018091E4019091E50192
:1018A0000E948E296093CF027093D0028093D10260
:1018B0009093D2028FEC92E00E940F076093150282
:1018C0007093160280931702909318028091C302BE
:1018D0009091C402A091C502B091C6028093C70244
:1018E0009093C802A093C902B093CA028091BF022C
:1018F0009091C002A091C102B091C2028093C30234
:101900009093C402A093C502B093C6028091BB021B
:101910009091BC02A091BD02B091BE028093BF0223
:101920009093C002A093C102B093C2028091B7020B
:101930009091B802A091B902B091BA028093BB0213
:101940009093BC02A093BD02B093BE026091DA01F5
:101950007091DB018091DC019091DD012091D60135
:101960003091D7014091D8015091D9010E94262988
:101970007B018C016091DE017091DF018091E001BB
:101980009091E10127E137EB41ED58E30E942629D0
:101990009B01AC01C801B7010E948E296093B70278
:1019A0007093B8028093B9029093BA0287EB92E0E9
:1019B0000E940F077B018C016093CB027093CC02D5
:1019C0008093CD029093CE0220E030E040E251E4DB
:1019D0000E94D42A181694F5C801B70120E030E01F
:1019E00040E850E40E94D82A20E030E04FEA53E477
:1019F0000E9426292091DE013091DF014091E00113
:101A00005091E1010E94D82A26E636ED42E855E4DD
:101A10000E948E299B01AC016091CF017091D00191
:101A20008091D1019091D2010E9426296093CF012B
:101A30007093D0018093D1019093D2018091AB0239
:101A40009091AC02A091AD02B091AE028093AF0232
:101A50009093B002A093B102B093B2028091A7021A
:101A60009091A802A091A902B091AA028093AB0222
:101A70009093AC02A093AD02B093AE028091A3020A
:101A80009091A402A091A502B091A6028093A70212
:101A90009093A802A093A902B093AA0280919F02FA
:101AA0009091A002A091A102B091A2028093A30202
:101AB0009093A402A093A502B093A6028091DE01A8
:101AC0009091DF01A091E001B091E10180939F022C
:101AD0009093A002A093A102B093A2028FE992E09A
:101AE0000E940F076093B3027093B4028093B50213
:101AF0009093B602AECB80913103909132039093D4
:101B0000200280931F0210E006E01AC082E04FEF2F
:101B10005FEF6FEF7FEF0E94EF03823081F184E08F
:101B20004FEF5FEF6FEF7FEF0E94EF03843021F103
:101B30001130E9F068EE73E080E090E00E942F043D
:101B400081E04FEF5FEF6FEF7FEF0E94EF03813097
:101B5000E9F689E895E040E050E060E070E00E943E
:101B60001604009300010E94C71D11E0CFCF8091A1
:101B700006010E94851FDECF0E94C71DD9CF89E8CC
:101B800095E00E94690410E0CACF809131039091E2
:101B9000320390931E0280931D02C4E8D1E03EEB15
:101BA000432E31E0532E24E4222E21E0322ECE01AA
:101BB000FC2EE92E0F2EFFE5AF2EF9E2BF2EFBE43F
:101BC000CF2EFBE3DF2EF02D0F2EFAE06F2EF7ED78
:101BD0007F2EF3E28F2EFEE39F2EF02D81E040E07A
:101BE00050E060E070E00E94EF0389E895E040E09B
:101BF00050E060E070E00E94160485E080930001F0
:101C00000E94C71D01E01AC084E04FEF5FEF6FEF45
:101C10007FEF0E94EF038430E9F08091050182306C
:101C2000F9F0833009F472C1813009F4C1C068EE63
:101C300073E080E090E00E942F0400E082E04FEF2C
:101C40005FEF6FEF7FEF0E94EF03823009F4DCC299
:101C50000130D1F60E94C71D80910501823009F73D
:101C600081E061E00E945D1D00D000D0EDB7FEB7BD
:101C7000D283C18381E791E0948383830E94882F7C
:101C80000F900F900F900F9081E062E00E945D1D19
:101C9000ADB7BEB718970FB6F894BEBF0FBEADBFB5
:101CA000EDB7FEB731961296DC93CE9311978BE683
:101CB00091E093838283A482B582C682D7820E94F8
:101CC000882FADB7BEB718960FB6F894BEBF0FBE3B
:101CD000ADBF81E063E00E945D1D00D000D0EDB794
:101CE000FEB7D283C1838FE591E0948383830E9402
:101CF000882F0F900F900F900F9081E064E00E946A
:101D00005D1D8091E6019091E701059708F04EC2B4
:101D100000D000D0ADB7BEB71196FC9211971296C5
:101D2000EC921297E8E5F1E01496FC93EE9313978A
:101D30000E94882F0F900F900F900F9081E065E028
:101D40000E945D1D00D000D0EDB7FEB7D283C183E5
:101D5000348223820E94882F0F900F900F900F9053
:101D600081E066E00E945D1D8DB79EB708970FB6B3
:101D7000F8949EBF0FBE8DBFEDB7FEB73196ADB7DD
:101D8000BEB71296DC93CE93119787E391E09383CD
:101D9000828364827582868297820E94882FADB783
:101DA000BEB718960FB6F894BEBF0FBEADBF3FCFFB
:101DB00081E061E00E945D1D00D000D0ADB7BEB7EC
:101DC0001296DC93CE93119714965C924E921397D1
:101DD0000E94882F0F900F900F900F9081E062E08B
:101DE0000E945D1DEDB7FEB738970FB6F894FEBFA1
:101DF0000FBEEDBF3196ADB7BEB71296DC93CE9352
:101E0000119786EB91E0938382838091CB0190912F
:101E1000CC01A091CD01B091CE0184839583A6839E
:101E2000B7830E94882FADB7BEB718960FB6F89447
:101E3000BEBF0FBEADBF81E063E00E945D1D00D05C
:101E400000D0EDB7FEB7D283C1838AEA91E09483D4
:101E500083830E94882F0F900F900F900F9081E046
:101E600064E00E945D1D8091E6019091E701059775
:101E700008F06FC100D000D0ADB7BEB71196FC928C
:101E800011971296EC921297E3EAF1E01496FC9304
:101E9000EE9313970E94882F0F900F900F900F9042
:101EA00081E065E00E945D1D00D000D0EDB7FEB777
:101EB000D283C1838BE891E0948383830E94882F2F
:101EC0000F900F900F900F9081E066E00E945D1DD3
:101ED0008091E6019091E701059708F09AC000D043
:101EE00000D0ADB7BEB71196FC9211971296EC9246
:101EF0001297E4E8F1E01496FC93EE9313970E9496
:101F0000882F0F900F900F900F9091CE81E061E09D
:101F10000E945D1D00D000D0EDB7FEB7D283C18313
:101F200081E391E0948383830E94882F0F900F9028
:101F30000F900F9081E062E00E945D1D8091E601AC
:101F40009091E701059708F0D7C000D000D0ADB759
:101F5000BEB71196FC9211971296EC921297EBE293
:101F6000F1E01496FC93EE9313970E94882F0F9044
:101F70000F900F900F9081E063E00E945D1D00D0F4
:101F800000D0EDB7FEB7D283C18381E191E09483A5
:101F900083830E94882F0F900F900F900F9081E005
:101FA00064E00E945D1D8091E6019091E701059734
:101FB00008F05CC000D000D0ADB7BEB71196FC925F
:101FC00011971296EC921297EBE0F1E01496FC93C5
:101FD000EE9313970E94882F0F900F900F900F9001
:101FE00081E065E00E945D1D00D000D0ADB7BEB7B6
:101FF0001296DC93CE931197E2EFF0E01496FC93E7
:10200000EE9313970E94882F0F900F900F900F90D0
:102010000ECE8DB79EB708970FB6F8949EBF0FBE31
:102020008DBFEDB7FEB73196ADB7BEB71196FC9236
:1020300011971296EC9288E791E0938382838091C6
:10204000B3029091B402A091B502B091B60284831C
:102050009583A683B7830E94882FADB7BEB7189625
:102060000FB6F894BEBF0FBEADBFE1CD6091FA01CF
:102070007091FB018091FC019091FD0120E030E026
:1020800040E450E40E943B2B9B01AC018DB79EB70E
:1020900008970FB6F8949EBF0FBE8DBF0DB71EB741
:1020A0000F5F1F4FADB7BEB71196FC9211971296F6
:1020B000EC9280E091E0F80193838283CA01B90138
:1020C0002091C7013091C8014091C9015091CA01C6
:1020D0000E94D82AD80114966D937D938D939C937A
:1020E00017970E94882FEDB7FEB738960FB6F89471
:1020F000FEBF0FBEEDBF74CF8DB79EB708970FB66A
:10210000F8949EBF0FBE8DBFEDB7FEB73196ADB749
:10211000BEB71196FC9211971296EC9280E291E074
:10212000938382838091CB029091CC02A091CD02C7
:10213000B091CE0284839583A683B7830E94882FB3
:10214000ADB7BEB718960FB6F894BEBF0FBEADBF01
:1021500012CF8DB79EB708970FB6F8949EBF0FBEEB
:102160008DBFEDB7FEB73196ADB7BEB71196FC92F5
:1021700011971296EC9287E991E093838283809184
:10218000060290910702A0910802B091090284838F
:102190009583A683B7830E94882FADB7BEB71896E4
:1021A0000FB6F894BEBF0FBEADBF7ACE8DB79EB747
:1021B00008970FB6F8949EBF0FBE8DBFEDB7FEB760
:1021C0003196ADB7BEB71196FC9211971296EC926C
:1021D00082E591E0938382838091E3029091E4020F
:1021E000A091E502B091E602B05884839583A6835E
:1021F000B7830E94882FADB7BEB718960FB6F89474
:10220000BEBF0FBEADBF9ACD89E895E00E946904BC
:10221000E5CC809131039091320390931A02809320
:102220001902C4E8D1E050E8452E52E0552E48E7A7
:10223000242E42E0342E3E0181E040E050E060E098
:1022400070E00E94EF0389E895E040E050E060E034
:1022500070E00E94160423E0209300010E94C71D35
:1022600081E061E00E945D1D81E080932D0300D03C
:1022700000D0ADB7BEB71296DC93CE931197EAECBF
:10228000F2E01496FC93EE9313970E94882F10921D
:102290002D030F900F900F900F902EC100D000D003
:1022A000ADB7BEB711966C92119712967C921297A9
:1022B000E7EAF2E01496FC93EE9313970E94882FBE
:1022C0000F900F900F900F9089E062E00E945D1DCB
:1022D0006091E6017091E7016230710508F420C257
:1022E00010912102112309F030C29090220299200E
:1022F00009F410C28090230280E090E00E94222A1C
:102300005B016C01612F70E080E090E00E94222A66
:1023100020E030E040E752E40E94D82A7B018C01A3
:10232000692D70E080E090E00E94222A9B01AC01C0
:10233000C801B7010E9426297B018C01682D70E03D
:1023400080E090E00E94222A20E030E040E752E462
:102350000E948E299B01AC01C801B7010E94262969
:102360009B01AC01C601B5010E948E299B01AC0105
:102370002093240230932502409326025093270293
:102380002DB73EB7285030400FB6F8943EBF0FBE71
:102390002DBFEDB7FEB73196ADB7BEB71296DC9341
:1023A000CE9311972AE832E033832283CB01DA01FE
:1023B00084839583A683B7830E94882F8DB79EB7A9
:1023C00008960FB6F8949EBF0FBE8DBF81E063E004
:1023D0000E945D1D00D000D000D0EDB7FEB7319651
:1023E000ADB7BEB71296DC93CE931197538242825B
:1023F0008091E6019091E701958384830E94882F64
:10240000EDB7FEB736960FB6F894FEBF0FBEEDBF20
:102410008BE063E00E945D1D2DB73EB72850304031
:102420000FB6F8943EBF0FBE2DBFEDB7FEB7319685
:10243000ADB7BEB71296DC93CE931197338222824A
:102440008091150290911602A0911702B091180286
:1024500084839583A683B7830E94882FEDB7FEB748
:1024600038960FB6F894FEBF0FBEEDBF84E064E06F
:102470000E945D1D8091E6019091E701059708F0AB
:102480001BC100D000D0ADB7BEB711966C921197AA
:1024900012967C921297E2E7F2E01496FC93EE9388
:1024A00013970E94882F0F900F900F900F908AE043
:1024B00066E00E945D1D8091E6019091E7010A9718
:1024C00008F0D1C000D000D0ADB7BEB71296DC93F3
:1024D000CE931197E1E6F2E01496FC93EE931397F6
:1024E0000E94882F0F900F900F900F9068E775E073
:1024F00080E090E00E942F0482E04FEF5FEF6FEFEB
:102500007FEF0E94EF03823009F424C183E066E08C
:102510000E945D1D60917304709174048091750434
:102520009091760441E252E022E232E003E212E0CE
:102530000E9471062DB73EB7285030400FB6F89470
:102540003EBF0FBE2DBFEDB7FEB73196ADB7BEB7DC
:102550001296DC93CE93119721EC32E033832283E1
:1025600080912202848315828091230286831782C0
:102570000E94882F8DB79EB708960FB6F8949EBF1D
:102580000FBE8DBF83E065E00E945D1D4091FE019E
:102590005091FF016091000270910102ADB7BEB78A
:1025A00018970FB6F894BEBF0FBEADBFEDB7FEB71C
:1025B00031961296DC93CE93119720EB32E0338361
:1025C000228344835583668377830E94882F8DB747
:1025D0009EB708960FB6F8949EBF0FBE8DBF81E0E0
:1025E00062E00E945D1D8091E6019091E7010597F0
:1025F00008F454CE2DB73EB7285030400FB6F894AB
:102600003EBF0FBE2DBF0DB71EB70F5F1F4FADB73B
:10261000BEB711966C92119712967C922BE932E01C
:10262000F8013383228360E070E080E792E4209138
:10263000B3023091B4024091B5025091B6020E94AB
:102640008E29D80114966D937D938D939C93179743
:102650000E94882FEDB7FEB738960FB6F894FEBFEC
:102660000FBEEDBF31CE2DB73EB7285030400FB66C
:10267000F8943EBF0FBE2DBFEDB7FEB73196ADB794
:10268000BEB71296DC93CE93119728E532E03383E0
:1026900022838091130284831582809114028683A1
:1026A00017820E94882F8DB79EB708960FB6F894B0
:1026B0009EBF0FBE8DBF1ACF2DB73EB728503040FA
:1026C0000FB6F8943EBF0FBE2DBFEDB7FEB73196E3
:1026D000ADB7BEB711966C92119712967C9227E611
:1026E00032E0338322838091CB029091CC02A0917F
:1026F000CD02B091CE0284839583A683B7830E94D6
:10270000882F8DB79EB708960FB6F8949EBF0FBE60
:102710008DBFCDCE80902302FDE1F81508F4ECCDFD
:1027200000D000D0ADB7BEB71296DC93CE93119710
:10273000E4E9F2E01496FC93EE9313970E94882F3D
:102740000F900F900F900F9041CE909022028090AA
:102750002302D2CD89E895E00E9469046DCDDF9314
:10276000CF93CDB7DEB7A5970FB6F894DEBF0FBEF7
:10277000CDBF19821A821B8280913103909132035E
:1027800090931C0280931B0280E090E0A0E0B0E0F8
:102790008A8F9B8FAC8FBD8F8E8B9F8BA88FB98FAD
:1027A0003C014D011AA21BA21CA21DA28A8B9B8B6D
:1027B000AC8BBD8B8E879F87A88BB98B1C861B86A5
:1027C0001A8664E8462E61E0562E72012224239474
:1027D00081E040E050E060E070E00E94EF0389E8B3
:1027E00095E040E050E060E070E00E94160494E064
:1027F000909300010E94C71D3324A1E0AD8710C053
:10280000133009F483C2113009F4B0C064015301DC
:1028100068EE73E080E090E00E942F0435014601ED
:1028200082E04FEF5FEF6FEF7FEF0E94EF038230A8
:1028300009F404C410910401123011F783E062E03E
:102840000E945D1D20922E038091E6019091E70188
:10285000059708F0FDC200D000D0EDB7FEB7528258
:10286000418221E032E0348323830E94882F0F903D
:102870000F900F900F9010922E030E946E1D00D0AB
:1028800000D0ADB7BEB712965C924E921197E4EFAE
:10289000F1E01496FC93EE9313970E94882F0F900B
:1028A0000F900F900F9083E064E00E945D1D2092D6
:1028B0002E038091E6019091E701059708F09AC2F6
:1028C00000D000D0ADB7BEB71196EC92119712961A
:1028D000FC921297E0EFF1E01496FC93EE931397BD
:1028E0000E94882F0F900F900F900F9010922E0340
:1028F0000E946E1D00D000D0ADB7BEB712965C929C
:102900004E921197E4EEF1E01496FC93EE93139738
:102910000E94882F0F900F900F900F9081E066E03B
:102920000E945D1D20922E038091E6019091E701A7
:102930000A9708F035C200D000D0ADB7BEB71196E7
:10294000EC9211971296FC921297EEEDF1E014962C
:10295000FC93EE9313970E94882F0F900F900F9087
:102960000F9010922E036401530152CF332009F4CB
:10297000CEC284E04FEF5FEF6FEF7FEF0E94EF0377
:10298000843009F4A0C288E04FEF5FEF6FEF7FEF74
:102990000E94EF03883009F492C2F1E03F1609F07B
:1029A00035CF81E066E00E945D1D2D85222309F070
:1029B00093C300D000D0ADB7BEB712965C924E92D2
:1029C0001197E4E3F2E01496FC93EE9313970E94C0
:1029D000882F0F900F900F900F9081E061E00E9480
:1029E0005D1DCE0104960E9490050E94222A2A892C
:1029F0003B894C895D890E9426296A8F7B8F8C8F49
:102A00009D8F20E030E040E752E40E948E2941E2B1
:102A100052E022E232E003E212E00E9471062DB79A
:102A20003EB7285030400FB6F8943EBF0FBE2DBFC2
:102A3000EDB7FEB73196ADB7BEB712965C924E9227
:102A4000119727E232E0338322838091220284832C
:102A5000158280912302868317820E94882FA0907E
:102A6000FE01B090FF01C0900002D0900102C601AB
:102A7000B501A40193010E9425299B01AC016E8937
:102A80007F89888D998D0E9426296E8B7F8B888FF8
:102A9000998F8DB79EB708960FB6F8949EBF0FBE5C
:102AA0008DBF81E065E00E945D1D30922E03ADB7C1
:102AB000BEB718970FB6F894BEBF0FBEADBFEDB747
:102AC000FEB7319612965C924E92119721E232E057
:102AD000338322838E899F89A88DB98D84839583C2
:102AE000A683B7830E94882F10922E03ADB7BEB77E
:102AF00018960FB6F894BEBF0FBEADBF0E946E1DF4
:102B000000D000D0EDB7FEB7528241822DE132E015
:102B1000348323830E94882F8091E6019091E701FE
:102B2000AA85BB858A1B9B0B0F900F900F900F906F
:102B3000079708F46DCE8BE061E00E945D1DADB794
:102B4000BEB718970FB6F894BEBF0FBEADBF0DB796
:102B50001EB70F5F1F4F1196EC9211971296FC92C1
:102B600027E132E0F8013383228360E070E080E700
:102B700092E42091B3023091B4024091B502509199
:102B8000B6020E948E29D80114966D937D938D9381
:102B90009C9317970E94882FEDB7FEB738960FB613
:102BA000F894FEBF0FBEEDBF83E063E00E945D1DA1
:102BB00030922E032DB73EB7285030400FB6F89410
:102BC0003EBF0FBE2DBFEDB7FEB73196ADB7BEB756
:102BD00012965C924E9211972EE032E0338322835C
:102BE0008091130284831582809114028683178258
:102BF0000E94882F10922E033C853F5F3C876A8D90
:102C00007B8D8C8D9D8D20E030E04AEF53E40E9457
:102C1000D82A6E8F7F8F88A399A36E897F89888D2C
:102C2000998D27E137EB41ED58E30E9426299B015E
:102C3000AC016E8D7F8D88A199A10E948E299B0188
:102C4000AC016E857F85888999890E9426296E87C7
:102C50007F87888B998B8C8562E30E94BF2CADB7F0
:102C6000BEB718960FB6F894BEBF0FBEADBF99237E
:102C700009F0CECD8AE066E00E945D1D6E857F85FD
:102C80008889998920E030E048E452E40E948E2946
:102C900020E030E040E752E40E948E29AE014F5F11
:102CA0005F4F9E012E5F3F4F8E010D5F1F4F0E94B1
:102CB0007106EDB7FEB738970FB6F894FEBF0FBE9A
:102CC000EDBF3196ADB7BEB712965C924E9211979A
:102CD00025E032E0338322838A81848315828B81CD
:102CE000868317820E94882F80E090E0A0E0B0E009
:102CF0008E879F87A88BB98B1C86ADB7BEB71896F9
:102D00000FB6F894BEBF0FBEADBF82CD20922E038A
:102D100081E062E00E945D1DADB7BEB718970FB6A7
:102D2000F894BEBF0FBEADBFEDB7FEB73196129699
:102D30005C924E9211972FEC31E033832283809185
:102D4000CF019091D001A091D101B091D2018483A3
:102D50009583A683B7830E94882F10922E038DB788
:102D60009EB708960FB6F8949EBF0FBE8DBF0E9407
:102D70006E1D00D000D0ADB7BEB712965C924E92D9
:102D80001197E7ECF1E01496FC93EE9313970E94F1
:102D9000882F640153010F900F900F900F9038CD42
:102DA0002DB73EB7285030400FB6F8943EBF0FBE47
:102DB0002DBFEDB7FEB73196ADB7BEB71196EC9209
:102DC00011971296FC9225ED31E033832283809196
:102DD00013028483158280911402868317820E94D5
:102DE000882F8DB79EB708960FB6F8949EBF0FBE7A
:102DF0008DBFB7CD2DB73EB7285030400FB6F894F1
:102E00003EBF0FBE2DBFEDB7FEB73196ADB7BEB713
:102E10001196EC9211971296FC922AEE31E03383D0
:102E200022838091CB029091CC02A091CD02B091EF
:102E3000CE0284839583A683B7830E94882F8DB7A3
:102E40009EB708960FB6F8949EBF0FBE8DBF4ECDAD
:102E50008DB79EB708970FB6F8949EBF0FBE8DBF73
:102E60000DB71EB70F5F1F4FADB7BEB712965C927E
:102E70004E9211972BEF31E0F8013383228360E00B
:102E800070E080E792E42091B3023091B402409167
:102E9000B5025091B6020E948E29D80114966D9306
:102EA0007D938D939C9317970E94882FEDB7FEB763
:102EB00038960FB6F894FEBF0FBEEDBFDCCC6401B0
:102EC00053013324A5CC332009F4DAC080E091E02B
:102ED000391609F4FFC0AD85AA2309F0B4C08823D0
:102EE00009F4B1C0BE89BAA3EF89EBA3F88DFCA3A6
:102EF000298D2DA38A8D9B8DAC8DBD8D8A8B9B8B4F
:102F0000AC8BBD8B3324339491E09D873CCD81E025
:102F100061E00E945D1D00D000D0EDB7FEB7528287
:102F2000418222E532E0348323830E94882F0F9070
:102F30000F900F900F908BE061E00E945D1D00D01C
:102F400000D0ADB7BEB712965C924E921197EEE4E8
:102F5000F2E01496FC93EE9313970E94882F0F9043
:102F60000F900F900F9083E063E00E945D1D10931F
:102F70002E0300D000D0ADB7BEB712965C924E9231
:102F80001197E7E4F2E01496FC93EE9313970E94F6
:102F9000882F0F900F900F900F9081E065E00E94B6
:102FA0005D1D00D000D0ADB7BEB712965C924E92B8
:102FB0001197E2E4F2E01496FC93EE9313970E94CB
:102FC000882F10922E030F900F900F900F900E9459
:102FD0006E1D00D000D0ADB7BEB712965C924E9277
:102FE0001197EEE3F2E01496FC93EE9313970E9490
:102FF000882F0F900F900F900F908AE066E00E944C
:103000005D1D00D000D0ADB7BEB712965C924E9257
:103010001197E8E3F2E01496FC93EE9313970E9465
:10302000882F80E090E0A0E0B0E08E8B9F8BA88F8F
:10303000B98F0F900F900F900F909BCC89E895E07F
:103040000E946904C5CB882309F49DCCAD85A130CD
:1030500009F099CCCE0104960E943C056090FE01D7
:103060007090FF018090000290900102E091E601D3
:10307000F091E701FB87EA87332433941D8683CCE4
:10308000CE0104960E943C056090FE017090FF0105
:103090008090000290900102A091E601B091E701BA
:1030A000BB87AA8780E090E0A0E0B0E08A8F9B8F8A
:1030B000AC8FBD8F8E8B9F8BA88FB98F1AA21BA24E
:1030C0001CA21DA28A8B9B8BAC8BBD8B33243394AB
:1030D0001D8659CC81E0FFCE30922D0300D000D068
:1030E000EDB7FEB75282418220E332E0348323837E
:1030F0000E94882F10922D030F900F900F900F9029
:1031000081E061E00E945D1D6A897B898C899D89CF
:1031100020E030E040E752E40E948E2941E252E094
:1031200022E232E003E212E00E9471068DB79EB700
:1031300008970FB6F8949EBF0FBE8DBFEDB7FEB7D0
:103140003196ADB7BEB712965C924E92119727E2B8
:1031500032E033832283809122028483158280911E
:103160002302868317820E94882F8DB79EB7089608
:103170000FB6F8949EBF0FBE8DBF81E065E00E9440
:103180005D1D30922E03ADB7BEB718970FB6F894F9
:10319000BEBF0FBEADBFEDB7FEB7319612965C92C3
:1031A0004E92119721E232E0338322832AA13BA180
:1031B0004CA15DA1C901DA0184839583A683B783FD
:1031C0000E94882F10922E038DB79EB708960FB6D7
:1031D000F8949EBF0FBE8DBF0E946E1D00D000D020
:1031E000ADB7BEB712965C924E921197EDE1F2E048
:1031F0001496FC93EE9313970E94882F8A899B89DB
:10320000AC89BD898A8F9B8FAC8FBD8F2AA13BA1D2
:103210004CA15DA1C901DA018E8B9F8BA88FB98F5C
:10322000640153010F900F900F900F90F1CA45E386
:10323000E42E42E0F42E00D000D0ADB7BEB7129617
:10324000FC92EE92119780E193E014969C938E93FA
:1032500013970E94D12F04E412E0EDB7FEB712835A
:1032600001838BE093E0948383830E94D12F10929B
:103270008002DD24D394D0928C020B5F1F4FADB738
:10328000BEB712961C930E93119786E093E01496A6
:103290009C938E9313970E94D12FD092810210920B
:1032A0008D020B5F1F4FEDB7FEB71283018381E0E4
:1032B00093E0948383830E94D12F32E0D32ED09267
:1032C000820210928E0285E090E0E80EF91EADB702
:1032D000BEB71296FC92EE9211978CEF92E0149684
:1032E0009C938E9313970E94D12F065F1F4FEDB7CB
:1032F000FEB71283018388EF92E0948383830E9458
:10330000D12F10928402D09290020B5F1F4FADB765
:10331000BEB712961C930E93119783EF92E014960A
:103320009C938E9313970E94D12F1092850223E0D5
:10333000D22ED09291020B5F1F4FEDB7FEB71283D2
:1033400001838EEE92E0948383830E94D12F1092AA
:10335000860294E0C92EC09292020B5F1F4FADB758
:10336000BEB712961C930E9311978BEE92E01496B3
:103370009C938E9313970E94D12F1092870283E61D
:10338000B82EB0929302E5E0F0E0EE0EFF1EADB76E
:10339000BEB71296FC92EE92119786EE92E01496CA
:1033A0009C938E9313970E94D12F0B5F1F4FEDB705
:1033B000FEB71283018381EE92E0948383830E949F
:1033C000D12F1092880285E0809394020B5F1F4FEB
:1033D000ADB7BEB712961C930E9311978CED92E089
:1033E00014969C938E9313970E94D12F109289026A
:1033F00086E0809395020B5F1F4FEDB7FEB71283F7
:10340000018389ED92E0948383830E94D12F1092EF
:103410008A02B0929602D0929802C0929902D092FB
:103420009A020F900F900F900F9089E895E040E07E
:1034300050E060E070E00E9416040E948C1E88E25A
:103440000E94DF1D0E94C71D89E895E00E94690463
:1034500060E971E080E090E00E942F04C4E8D1E0D0
:10346000BDE1AB2EB3E0BB2EA9E1EA2EA3E0FA2E1C
:10347000F5E1CF2EF3E0DF2E05E014E1E3E09E2E30
:1034800089E895E040E050E060E070E00E941604BA
:103490000E94C71D81E061E00E945D1D81E0809374
:1034A0002D0300D000D000D0EDB7FEB73196ADB7F8
:1034B000BEB71296DC93CE931197B382A28280910D
:1034C0002A02809FC00111248B5C9D4F95838483C9
:1034D0000E94882F10922D0360912C02E0912A0205
:1034E000F0E0E856FD4F8DB79EB706960FB6F894FC
:1034F0009EBF0FBE8DBF80816817A0F14FC000D066
:1035000000D000D0EDB7FEB73196ADB7BEB712967A
:10351000DC93CE931197D382C282809F90011124B5
:1035200080912A02819FC0011124280F391F2C5B32
:103530003D4F358324830E94882FEDB7FEB7369622
:103540000FB6F894FEBF0FBEEDBF60912C026F5F07
:1035500060932C02E0912A02F0E0E856FD4F808152
:103560006817E0F46E5F81E00E945D1D90912B0270
:1035700080912C02981719F600D000D000D0EDB73A
:10358000FEB73196ADB7BEB71296DC93CE931197C6
:10359000F382E282909F90011124C2CF89E895E0E6
:1035A0000E946904F89488E292E040E050E060E014
:1035B00070E00E94370478948091C601882369F4F2
:1035C000E0912A02F0E0E856FD4F908180912B02B5
:1035D000981709F444C010922C028091C6018130E2
:1035E00071F19091C601923009F04ACF20912A02E0
:1035F000A22FB0E080912B02AA0FBB1FAA0FBB1F06
:10360000A80FB11DFD01E457FD4FE081EE2369F1E4
:10361000E43009F467C0E53080F5E23009F44DC0CC
:10362000E33008F055C0E13039F4809119029091EF
:103630001A0261E00E94750310922C0221CF809142
:103640002B028F5F80932B02E0912A02F0E0E85674
:10365000FD4F9081891731F010922C02C2CF109249
:103660002B02B9CF10922B02F7CFA058BD4F8C91EF
:1036700080932A0210922B02DFCFE630B1F0E630C1
:1036800060F0E336C9F620932D02A058BD4F8C910F
:1036900080932A0220932B02CFCF80911D0290911C
:1036A0001E0261E00E947503C7CF80911F029091B6
:1036B000200261E00E947503BFCF81E08093040186
:1036C00080911B0290911C0261E00E947503B4CFAF
:1036D0009093040180911B0290911C0261E00E9472
:1036E0007503AACF9092040180911B0290911C0255
:1036F00061E00E947503A0CF8AB18F718AB98BB146
:10370000806E8BB91092B20092E09093B00087E087
:103710008093B1008FE48093B3009093700060E9D0
:1037200071E080E090E00E942F0411E0F8948EE2B6
:1037300092E040E050E060E070E00E94370478944E
:1037400080910001843009F43CC08530D0F4813090
:1037500009F461C0833051F7F8941093000110927E
:10376000C6016091C60188E292E070E00E94040305
:103770008091190290911A0262E00E947503789478
:10378000D5CF853069F1863089F6F8948091C601ED
:10379000813009F467C0809106018F5F8093060134
:1037A0009091060180910C01891710F41093060185
:1037B00080911F029091200264E00E94750378942A
:1037C000B5CFF8948091C601813009F45FC0809133
:1037D000C601823009F46EC08091C601833029F1A0
:1037E000F8948091C601813049F1809105018F5F85
:1037F000809305019091050180910B01891710F4C8
:103800001093050180911D0290911E0264E00E94B8
:10381000750378948BCFF8946091C60188E292E0AA
:1038200070E00E940403789481CF80911B029091F4
:103830001C0268E00E947503789478CF80930001A1
:103840001092C6016091C60188E292E070E00E9489
:10385000040380911D0290911E0262E00E94750394
:10386000789464CF809300011092C6016091C601E4
:1038700088E292E070E00E94040380911F02909120
:10388000200262E00E947503789450CF809300017B
:103890001092C6016091C60188E292E070E00E9439
:1038A000040380911B0290911C0262E00E94750348
:1038B00078943CCF80911B0290911C0264E00E949E
:1038C0007503789433CF1F920F920FB60F92112485
:1038D0002F933F934F935F936F937F938F939F9318
:1038E000AF93BF93EF93FF93E0913002E13009F47F
:1038F00067C029B189B149B130E036952795329535
:1039000022952F7023273F70232761E070E0262740
:10391000372790E00024880F991F001C880F991FFB
:10392000001C892F902D86279727822B817090E08D
:10393000552747FD5095409550954427550F441FF6
:103940005527842B952B20E030E0EE2311F421E065
:1039500030E082239323892B39F58091330286301E
:1039600080F01092330281E0809330024D9922C0A2
:103970008093C6016091C6018EE292E070E00E94E1
:1039800004030E944904FF91EF91BF91AF919F9171
:103990008F917F916F915F914F913F912F910F90F8
:1039A0000FBE0F901F901895809133028F5F809308
:1039B0003302D5CF4E9B19C04F99DCCF83E0D8CFCF
:1039C00080913102909132028832910530F4019653
:1039D00090933202809331028CCF10923202109277
:1039E000310210923002E0E084CF82E08093C60181
:1039F000C1CF1F920F920FB60F9211242F933F93B6
:103A00004F935F936F937F938F939F93AF93BF93E6
:103A1000EF93FF93809134028F5F8093340290E0A4
:103A200087709070892BB1F51092340280919B02BF
:103A300090919C0290939E0280939D0280918400BD
:103A40009091850090939C0280939B021092850038
:103A5000109284006091FE017091FF01809100023C
:103A6000909101022091CB013091CC014091CD0188
:103A70005091CE010E9426296093FE017093FF01B0
:103A8000809300029093010288EE91E065E570E07A
:103A90000E9404030E944904FF91EF91BF91AF91EE
:103AA0009F918F917F916F915F914F913F912F9156
:103AB0000F900FBE0F901F90189596E0899FC00140
:103AC00011248A55904024E5629FB0011124860F8D
:103AD000971F9093300380932F03089580912F03B5
:103AE00090913003845590409093300380932F033E
:103AF0000895982F87B18C6087B94198613049F15A
:103B00004298492F50E027E030E009C0439A449A98
:103B10004498215030408FEF2F3F380791F0CA0171
:103B2000022E02C0959587950A94E2F780FDEECFAC
:103B30004398449A4498215030408FEF2F3F3807E4
:103B400071F7419A87B1837F87B988B18C6088B952
:103B5000089580912D0381119095429AD2CF0F93B1
:103B60001F938C0164E570E00E94CB2C806860E0BC
:103B70000E94791DC80164E570E00E94CB2C862F5D
:103B8000806460E00E94791D1F910F910895CF938A
:103B9000DF931092300310922F0380E090E00E9498
:103BA000AF1DC0E0D0E080E061E00E94791D219669
:103BB00081E0C83FD807B9F7DF91CF9108951F93EF
:103BC000182F81E260E00E94791D812F806860E0FB
:103BD0000E94791D80E260E00E94791D1F91089586
:103BE000AF92BF92DF92EF92FF920F931F93CF930A
:103BF000DF93D82EE0902F03F0903003C7010E948E
:103C0000AF1D80912E03882341F52D2D30E0C90191
:103C1000880F991F880F991F820F931FEC01CF59AE
:103C2000D0408C010A591040CE010E946D30880F9F
:103C300061E00E94791D2196C017D107A9F780E0A5
:103C400061E00E94791D86E090E0E80EF91EF09296
:103C50003003E0922F0380912E03813051F0DF91E9
:103C6000CF911F910F91FF90EF90DF90BF90AF9099
:103C700008958BE0D89E500111248501085D1F4FE7
:103C8000C1E0D2E00DC0C8010E946D3061E00E9429
:103C9000791D21960F5F1F4F82E0CC30D80729F0A5
:103CA00090E2D91681F7CE01EFCFE0902F03F0908C
:103CB0003003C701845590409093300380932F03C5
:103CC0000E94AF1D850107521F4FC2EBD2E00DC00D
:103CD000C8010E946D3061E00E94791D21960F5F3E
:103CE0001F4F82E0CD3BD80729F090E2D91681F72B
:103CF000CE01EFCF80E061E00E94791D8CE090E082
:103D0000E80EF91EF0923003E0922F03A8CF0E9434
:103D1000F01D80E090E00895409A87B18F6187B9E7
:103D20006CE370E080E090E00E942F0440986CE328
:103D300070E080E090E00E942F04409A419A81E276
:103D400060E00E94791D88EC60E00E94791D86E0A9
:103D500060E00E94791D83E160E00E94791D80E2AD
:103D600060E00E94791D8CE060E00E94791D0E9455
:103D7000C71D08959093C5008093C40088E1809387
:103D8000C10086E08093C2000895982F8091C00002
:103D900085FFFCCF9093C60008958091C00087FFF7
:103DA000FCCF8091C6000895FC019081992351F0C9
:103DB0008091C00085FFFCCF9093C6003196908122
:103DC0009923B1F708958091C000881F8827881F24
:103DD0000895982F8091C00085FFFCCF9093C60076
:103DE00080E090E00895DC018617970788F48C91B5
:103DF000853571F4FD0103C08081853521F431964C
:103E0000E617F707C8F39F012A1B3B0BC90108956A
:103E100020E030E0FBCFFC018617970728F485E50A
:103E20008193E617F707E0F30895FC01F894808189
:103E3000789408959AE0899FF0011124EE5EFE4F78
:103E400062817381808191810E94F31E0895809127
:103E5000520890915308009729F06FEF78E00E9484
:103E6000F31E08958091B0019091B1016FEF78E059
:103E70000E94F31E0895DF93CF9300D0CDB7DEB735
:103E800082E191E09A838983609114017091150118
:103E90006115710579F0FC01808191810E940B1FF1
:103EA000E981FA813A96FA83E98362817381611527
:103EB000710591F78091520890915308009751F045
:103EC000BE016F5070400E940B1F0F900F90CF915A
:103ED000DF9108958091B0019091B101F1CF61150A
:103EE00071058105910509F40895FFCF20913503EF
:103EF0003091360340913703509138032617370726
:103F00004807590709F40895FFCF6F927F928F9267
:103F10009F92AF92BF92CF92DF92EF92FF920F9358
:103F20001F93CF93DF93182FC0911401D0911501E7
:103F3000209709F476C032E1E32E31E0F32E01E060
:103F400022E9A22E21E0B22E9AE3692E93E0792E87
:103F500088E4882E83E0982E10C0123009F440C007
:103F60002AE030E0E20EF31E0F5FD7011296CD91EA
:103F7000DC911397209709F455C0113071F7073081
:103F800078F781E0602F0E945D1DD701CD90DC9015
:103F9000C601BE010E94F31EEDB7FEB73A970FB6F9
:103FA000F894FEBF0FBEEDBF3196ADB7BEB7129607
:103FB000BC92AE921197938282820483158297837A
:103FC0008683CC19DD09D187C0870E94882FEDB781
:103FD000FEB73A960FB6F894FEBF0FBEEDBFC0CF46
:103FE000073008F4BDCF602F665081E00E945D1D50
:103FF000D701CD90DC90C601BE010E94F31EEDB743
:10400000FEB73A970FB6F894FEBF0FBEEDBF3196DC
:10401000ADB7BEB71296BC92AE9211977382628210
:10402000CCCF01E0113009F452C0123079F0DF91A9
:10403000CF911F910F91FF90EF90DF90CF90BF90A5
:10404000AF909F908F907F906F900895073078F396
:10405000065081E0602F0E945D1D80915208909172
:104060005308009709F458C06FEF78E00E94F31EE0
:104070002DB73EB7285030400FB6F8943EBF0FBE64
:104080002DBFEDB7FEB7319622E931E0ADB7BEB72F
:1040900012963C932E93119720E233E033832283D0
:1040A0009583848380E099E02091B0013091B10143
:1040B000821B930B978386830E94882FEDB7FEB7F0
:1040C00038960FB6F894FEBF0FBEEDBFB0CF0730E5
:1040D00008F0ADCF81E0602F0E945D1D80915208F5
:1040E000909153080097E9F06FEF78E00E94F31E7B
:1040F000EDB7FEB738970FB6F894FEBF0FBEEDBF11
:10410000319622E931E0ADB7BEB712963C932E93BB
:1041100011972DE233E0C2CF8091B0019091B101AF
:10412000A3CF8091B0019091B101DECFEF92FF92C9
:104130000F931F93CF93DF9300D000D000EA11E0DC
:10414000ADB7BEB712961C930E9311978FE593E00F
:1041500014969C938E9313970E94882F609114015C
:10416000709115010F900F900F900F9061157105D0
:1041700051F1C2E1D1E04BE5E42E43E0F42E888119
:1041800099810E94F31E00D000D000D0EDB7FEB799
:104190003196ADB7BEB712961C930E931197F3826A
:1041A000E282958384830E94882F2A966A817B818C
:1041B000EDB7FEB736960FB6F894FEBF0FBEEDBF53
:1041C00061157105E1F680915208909153080097AE
:1041D00039F16FEF78E00E94F31E00D000D000D0DC
:1041E000EDB7FEB73196ADB7BEB712961C930E93DE
:1041F000119726E533E033832283958384830E94DD
:10420000882FEDB7FEB736960FB6F894FEBF0FBEF7
:10421000EDBFDF91CF911F910F91FF90EF90089527
:104220008091B0019091B101D4CFEF92FF920F93A2
:104230001F93CF93DF9300D000D000EA11E0ADB719
:10424000BEB712961C930E93119787E793E01496CE
:104250009C938E9313970E94882F20911401309184
:1042600015010F900F900F900F902115310551F10E
:10427000C2E1D1E053E7E52E53E0F52E00D000D0A7
:1042800000D0EDB7FEB73196ADB7BEB712961C930E
:104290000E931197F382E28288819981281B390B52
:1042A000358324830E94882F2A962A813B81EDB78B
:1042B000FEB736960FB6F894FEBF0FBEEDBF2115C0
:1042C0003105E1F600D000D000D0EDB7FEB7319651
:1042D000ADB7BEB712961C930E9311978EE693E07E
:1042E0009383828380E099E02091B0013091B10105
:1042F000821B930B958384830E94882FEDB7FEB7B2
:1043000036960FB6F894FEBF0FBEEDBFDF91CF918A
:104310001F910F91FF90EF900895A1E1B0E0E3E9C4
:10432000F1E20C94012D3C017F876E876A01FC014C
:1043300017821682838181FD03C06FEF7FEF6FC309
:104340009E012F5F3F4F398B288BF3012381EE8530
:10435000FF8523FD859123FF8191FF87EE878823C9
:1043600009F45AC3853251F4EE85FF8523FD85910A
:1043700023FF8191FF87EE87853229F490E0B30116
:104380000E94A52FE2CF982F10E0882499241032A4
:10439000B0F49B3269F09C3228F4903251F09332A1
:1043A00071F40BC09D3239F0903349F4116028C08C
:1043B0001260146025C0186023C0106121C017FD71
:1043C0002AC0892F80538A3078F416FF06C0FAE09D
:1043D0009F9E902C1124980E13C03AE0839E802C4F
:1043E0001124880E10620CC09E3221F416FD14C3F5
:1043F000106406C09C3611F4106802C0983659F457
:10440000EE85FF8523FD959123FF9191FF87EE8730
:10441000992309F0BCCF892F8554833020F4812F54
:104420008061905E07C0892F8556833008F09FC158
:10443000812F8F7E86FD02C076E0972E6FE3F62EE9
:10444000F822953619F4F0E4FF2A07C0963619F4DD
:1044500020E8F22A02C091109A94F7FE0AC03BE3CA
:10446000391518F45CE3B52E02C0B92CB39427E0DB
:1044700009C047E0491520F4BB2447E0942EF7CF4C
:10448000292DBB24C60104969D878C87F601608187
:10449000718182819381AE014F5F5F4F0B2D0E942E
:1044A0003D2E6C010981202E332400FF04C003FD42
:1044B00002C01DE209C0F1FE02C01BE205C0F2FC11
:1044C00002C010E001C010E2C1018C709070892B15
:1044D000B9F1112311F483E001C084E0881510F0D4
:1044E00088240AC0881AF3FC07C080E290E0B30178
:1044F0000E94A52F8A94C9F7112329F0812F90E0FB
:10450000B3010E94A52F23FE03C005E813E00EC0EF
:1045100009E813E00BC0E114F10409F0805290E0C7
:10452000B3010E94A52F0F5F1F4F05C0EF2CFF2482
:10453000F0E1EF22FF24F8018491882361F714C190
:10454000F7FE12C0BC0C24FE04C08A81813309F43A
:10455000BA941B141CF0BB24B3942DC0F8E0FB15D7
:1045600050F538E0B32E27C0F6FC25C0892D90E029
:104570008C159D054CF02CEFC2162FEFD20624F0BF
:1045800030E8F32A01C09A94992049F0E2E0F0E083
:10459000EC0FFD1FE90DF11D80818033A1F3F7FEC3
:1045A0000AC0B92CB394892D90E0C816D90614F02E
:1045B000992401C09C18F7FC03C025E030E009C035
:1045C0001C141D041CF021E030E003C096012F5F95
:1045D0003F4F112311F02F5F3F4F992029F0892D74
:1045E00090E00196280F391F882D90E02817390791
:1045F00014F0882401C0821A4F2C5524C2018970FE
:104600009070892B39F008C080E290E0B3010E94DD
:10461000A52F8A948820C1F7112329F0812F90E0DB
:10462000B3010E94A52F43FE07C008C080E390E0BD
:10463000B3010E94A52F8A948820C1F7F7FE46C0D7
:104640008601D7FE02C000E010E076010894E11C6C
:10465000F11CE01AF10A41E050E04C0F5D1FE40E3E
:10466000F51E26014B185108892D90E0AA24BB2481
:10467000A81AB90A5FEF0F3F150729F48EE290E000
:10468000B3010E94A52FC016D10634F04016510682
:104690001CF4F701808101C080E3015010400894B0
:1046A000E11CF11C0A151B052CF090E0B3010E94DF
:1046B000A52FE0CF0C151D0539F49A81963318F417
:1046C000953311F424FE81E390E04BC08A8181335D
:1046D00009F00F7E90E0B3010E94A52F9920A1F070
:1046E0008EE290E0B3010E94A52F12E0E1E0F0E03D
:1046F000EC0FFD1FE10FF11D1F5F808190E0B30102
:104700000E94A52F9A9491F744FC03C085E690E09F
:1047100002C085E490E0B3010E94A52FD7FC05C03C
:10472000C114D10441F404FF06C0D094C194D1084F
:10473000D3948DE201C08BE290E0B3010E94A52FDB
:1047400080E305C08F5F26EF3FEFC20ED31E3AE035
:10475000C316D104BCF790E0B3010E94A52FC60197
:10476000C096B3010E94A52FCC84DD8452C193363C
:1047700031F0933799F0933509F059C023C0F60111
:10478000808189835E010894A11CB11C22E030E085
:10479000C20ED31E21E0E22EF12C12C0F601A08041
:1047A000B18016FD03C06FEF7FEF02C0692D70E08E
:1047B00022E030E0C20ED31EC5010E943B2F7C01D7
:1047C0001F7713C0F601A080B18016FD03C06FEF04
:1047D0007FEF02C0692D70E022E030E0C20ED31EF0
:1047E000C5010E94302F7C01106813FF07C01BC059
:1047F00080E290E0B3010E94A52F8A94882D90E07A
:10480000E816F906A8F30FC0F50117FD859117FF0B
:1048100081915F0190E0B3010E94A52F81108A94DD
:104820000894E108F108E114F10471F7F2C094363C
:1048300011F0993689F517FF08C0F6012081318102
:104840004281538184E090E00AC0F6018081918129
:104850009C01442737FD4095542F82E090E0C80E1C
:10486000D91E9FE6F92EF12257FF09C050954095B9
:10487000309521953F4F4F4F5F4F90E8F92ACA017D
:10488000B901AE014F5F5F4F2AE030E00E940F3068
:10489000E82EE889EE1A41C0953721F41F7E2AE000
:1048A00030E01CC0197F9F3661F0903720F49835B6
:1048B00009F0B2C00FC0903739F0983709F0ACC09A
:1048C00004C028E030E00AC0106114FD146020E14B
:1048D00030E004C014FD166020E132E017FF08C08C
:1048E000F601608171818281938144E050E008C0CB
:1048F000F60180819181BC0180E090E042E050E0CF
:10490000C40ED51EAE014F5F5F4F0E940F30E82EE0
:104910005889E51A8FE7F82EF122F6FE0BC08EEFCC
:10492000F822E91438F4F4FE07C0F2FC05C09FEE4B
:10493000F92202C01E2D01C0192DF4FE0DC0FE018A
:10494000EE0DF11D8081803319F4E9EEFE2208C0DE
:104950001F5FF2FE05C003C08F2D867809F01F5F30
:104960000F2DF3FC14C0F0FE0FC0181510F09E2C94
:104970000BC09E2C980C911A182D06C080E290E076
:10498000B3010E94A52F1F5F1815C0F304C01815AE
:1049900010F4811A01C0882404FF0FC080E390E066
:1049A000B3010E94A52F02FF1DC001FD03C088E7CF
:1049B00090E00EC088E590E00BC0802F867891F0E3
:1049C00001FF02C08BE201C080E2F7FC8DE290E0C3
:1049D000B3010E94A52F06C080E390E0B3010E94BE
:1049E000A52F9A94E914C0F3EA94E1E0F0E0EC0F0B
:1049F000FD1FEE0DF11D808190E0B3010E94A52FF7
:104A0000EE2091F706C080E290E0B3010E94A52F4E
:104A10008A948820C1F799CCF30166817781CB0114
:104A20006196E2E10C941D2DFC0120FD08C023FDE0
:104A300005C022FF02C073836283518340830895BF
:104A4000EF92FF920F931F9344FF02C033E011C017
:104A500046FF02C034E00DC0DB01FC01AA0FBB1F02
:104A6000EE1FFF1F1094D1F76A0F7B1F8E1F9F1F31
:104A700031E0660F771F881F991F3150D1F77B01F6
:104A80008C01E20EF11C011D111DA8019701B70157
:104A9000CA011F910F91FF90EF9008950F931F93FC
:104AA000CF93DF938C01C8010E94462FEC0197FD44
:104AB00008C00E94152F892BB1F7CE01B8010E94C2
:104AC000F52FCE01DF91CF911F910F9108958F9215
:104AD0009F92AF92BF92DF92EF92FF920F931F933C
:104AE000CF93DF935C01EB014A01122F0E94462F06
:104AF000AC018B3219F08D3251F41068219709F412
:104B00006DC0C5010E94462FAC0197FD67C06DEFD7
:104B1000D62ED1228D2D807301F54033F1F42197EB
:104B200009F447C0C5010E94462FAC0197FD41C062
:104B300082E0D82A483711F0483559F480E4D82A61
:104B40002197B9F1C5010E94462FAC0199232CF49D
:104B500030C0D6FC02C080E1D82AEE24FF248701B1
:104B6000242F2053283088F0D4FC09C02A3068F064
:104B7000D6FE05C02F7D822F8151863028F0CA01D4
:104B8000B5010E94F52F12C02750C801B7014D2D65
:104B90000E9420257B018C0182E0D82A219761F0B8
:104BA000C5010E94462FAC0197FFDACFD1FC04C0AB
:104BB00015C0EE24FF248701D7FE08C0109500958C
:104BC000F094E094E11CF11C011D111DC401B80119
:104BD000A7012D2D0E94142581E001C080E0DF9106
:104BE000CF911F910F91FF90EF90DF90BF90AF900A
:104BF0009F908F900895A0E2B0E0E1E0F6E20C947F
:104C0000052D5C016B018A017901FE01319680E27C
:104C1000DF011D928A95E9F770E030E060E040E046
:104C200050E03F01A1E0B0E0F5018381F70183FD91
:104C3000259183FF21917F01222309F481C02E3524
:104C400019F44115510569F1872F90E084179507F4
:104C500044F42D3551F12D3221F4332329F431E080
:104C600021C0332309F4622F322F832F8695869536
:104C70008695F301E80FF11D832F87704D0102C067
:104C8000880C991C8A95E2F7208128292083361701
:104C900011F430E007C0361710F43F5FE6CF315013
:104CA000E4CF71E04F5F5F4FBFCF332319F08E81A8
:104CB00080628E83772359F0FE0131969E012F5D2D
:104CC0003F4F808180958193E217F307D1F79924B4
:104CD00093943E010894611C711CC5010E94462FEB
:104CE000AC0197FD25C0869586958695F301E80F62
:104CF000F11D808190E09A012770307002C0959577
:104D000087952A95E2F780FD05C0CA01B5010E948A
:104D1000F52F0EC00115110519F0D8014D938D0125
:104D20000894C108D1089924C114D104B1F602C075
:104D3000992031F40115110529F0F801108202C003
:104D4000EE24FF24C701A096EEE00C94212D2F92B3
:104D50003F925F926F927F928F929F92AF92BF929B
:104D6000CF92DF92EF92FF920F931F93CF93DF9337
:104D70003C017B011A010E94462FEC018B3239F075
:104D80008D3211F0552411C0B0E85B2E01C05524BE
:104D90000894E108F108E114F10409F418C1C30111
:104DA0000E94462FEC0197FD12C1CE010E941D2FDB
:104DB0008936910521F08E36910599F51DC002EADC
:104DC00013E01CC00894E108F108E114F10471F04B
:104DD000C3010E94462FEC0197FD08C00E941D2FC1
:104DE000D81661F0CE01B3010E94F52F23E0053AF9
:104DF000120709F0ECC008C00FE913E0F8010F5FDB
:104E00001F4FD490DD20F1F6025A134029F080E0C4
:104E100090E0A0E8BFE7CFC080E090E0A0ECBFE763
:104E2000CAC0CC24DD24882499245401AE01405307
:104E3000242F4A3038F552E0552A852D90E0AC01F8
:104E40004870507052FE06C0452B11F50894C11CE5
:104E5000D11C1EC0452B19F00894C108D108C5010A
:104E6000B40140E20E9420254B015C0188E98816CC
:104E700089E9980689E9A80689E1B80648F094E02E
:104E8000592A06C04E3F81F453FC0EC0E8E05E2A6A
:104E90000894E108F108E114F10431F0C3010E9423
:104EA000462FEC0197FFC2CF51FE91C0C53619F0D5
:104EB000C53409F046C00894E108F108E114F10492
:104EC00009F485C0C3010E94462FEC0197FD7FC005
:104ED0008B3221F08D3269F4F0E15F2A0894E10809
:104EE000F108E114F10409F472C0C3010E94462FD5
:104EF000EC01CE01C0970A9708F069C000E010E00D
:104F0000B801882777FD8095982FAE014053242F54
:104F100040E20E9420258B010894E108F108E11489
:104F2000F10439F0C3010E94462FEC01C0970A97A3
:104F300038F3B80154FE03C0709561957F4FC60EDB
:104F4000D71EEF2831F0D7FD04C0CE01B3010E9477
:104F5000F52FC501B4010E94222AD7FE0DC0AEEB89
:104F6000EA2EA3E0FA2ED094C194D108D394C0E2E3
:104F7000D0E000E010E00EC0F6EDEF2EF3E0FF2EE3
:104F8000F6CFF70125913591459154910E94D82A89
:104F9000CC1ADD0ACC16DD06A0F7D695C7950F5FB3
:104FA0001F4F0630110529F0ECEFFFEFEE0EFF1E4C
:104FB000F1CFDC01CB0157FCB0582114310429F0AA
:104FC000F10180839183A283B38381E001C080E0FB
:104FD000DF91CF911F910F91FF90EF90DF90CF90D5
:104FE000BF90AF909F908F907F906F905F903F9019
:104FF0002F900895A0E0B0E0E0E0F8E20C94042DDA
:105000004C015B013A01FC0117821682552404C150
:10501000812F90E00E94152F892B21F0C4010E945E
:105020004E25FAC0153249F4F501F3FC6591F3FE03
:1050300061915F01653269F415E2C4010E94462F57
:1050400097FDF6C0181709F4E7C0B4010E94F52FC8
:10505000F4C06A3219F0162F00E006C0F3FC159177
:10506000F3FE11915F0101E0CC24DD240EC002604B
:10507000B60180E090E040E20E9420256B01F5013E
:10508000F3FC1591F3FE11915F01212F20532A307B
:1050900070F301FD04C0CC24CA94DC2C04C0C114FC
:1050A000D10409F4CAC0183621F01C3699F4F50170
:1050B0000BC0F501F3FC6591F3FE6191683619F0C0
:1050C0005F01162F07C008600460F3FC1591F3FE22
:1050D00011915F01112309F4B0C08DE893E0612FB5
:1050E00070E00E94252F892B09F4A7C0802F00FFB4
:1050F00003C0EE24FF2407C0F301E080F18022E02A
:1051000030E0620E731E1E3651F4F4014681578161
:1051100060E070E0C701202F0E9414257DC0133687
:10512000B9F481FD03C081E0C82ED12CC4010E94D6
:10513000462F97FD7DC0E114F10419F0F70181932A
:105140007F010894C108D108C114D10479F762C065
:105150001B3559F4C401B601A70195010E94FB2536
:105160005C01009709F056C050C0C4010E944E2552
:1051700097FD5EC01F36D1F1103738F41436A1F117
:105180001936A9F11835D1F52DC0133751F0143760
:1051900018F4103799F526C0153731F1183771F525
:1051A00021C0C4010E94462FEC0197FD15C00E944A
:1051B000152F892B29F0CE01B4010E94F52F0CC0C8
:1051C000E114F10419F0F701C1937F010894C108BB
:1051D000D108C114D10429F7E114F104D9F0F70181
:1051E000108218C0006403C0006201C00061C401E5
:1051F000B601A701202F0E94672505C0C401B60192
:10520000A7010E94A726882329F4F40183818073D3
:1052100079F413C000FF5394F401F380F501F3FC1B
:105220001591F3FE11915F01112309F0F1CE05C034
:10523000552019F42FEF3FEF02C0252D30E0C901B2
:10524000CDB7DEB7EFE00C94202D5058BB27AA272E
:105250000ED070C161D130F066D120F031F49F3FA3
:1052600011F41EF456C10EF4E095E7FB4CC1E92F92
:1052700072D180F3BA17620773078407950718F095
:1052800071F49EF58AC10EF4E0950B2EBA2FA02D75
:105290000B01B90190010C01CA01A0011124FF27E3
:1052A000591B99F0593F50F4503E68F11A16F040DE
:1052B000A22F232F342F4427585FF3CF46953795DD
:1052C0002795A795F0405395C9F77EF41F16BA0BA2
:1052D000620B730B840BBAF09150A1F0FF0FBB1F50
:1052E000661F771F881FC2F70EC0BA0F621F731F99
:1052F000841F48F4879577956795B795F7959E3FF6
:1053000008F0B3CF9395880F08F09927EE0F979583
:1053100087950895D4D008F481E008950CD00AC18F
:1053200002D140F0F9D030F021F45F3F19F0EBC02A
:10533000511134C1EEC00FD198F39923C9F355230D
:10534000B1F3951B550BBB27AA2762177307840778
:1053500038F09F5F5F4F220F331F441FAA1FA9F32E
:1053600033D00E2E3AF0E0E830D091505040E69520
:10537000001CCAF729D0FE2F27D0660F771F881F81
:10538000BB1F261737074807AB07B0E809F0BB0B70
:10539000802DBF01FF2793585F4F2AF09E3F510594
:1053A00068F0B1C0FBC05F3FECF3983EDCF386953C
:1053B00077956795B795F7959F5FC9F7880F911D0A
:1053C0009695879597F90895E1E0660F771F881FF6
:1053D000BB1F621773078407BA0720F0621B730BA9
:1053E000840BBA0BEE1F88F7E0950895BCD088F0C7
:1053F0009F5790F0B92F9927B751A0F0D1F0660FC1
:10540000771F881F991F1AF0BA95C9F712C0B130DB
:1054100081F0C3D0B1E00895C0C0672F782F8827EE
:10542000B85F39F0B93FCCF3869577956795B3951A
:10543000D9F73EF490958095709561957F4F8F4F89
:105440009F4F0895E89409C097FB3EF4909580958E
:10545000709561957F4F8F4F9F4F9923A9F0F92F3A
:1054600096E9BB279395F695879577956795B795B8
:10547000F111F8CFFAF4BB0F11F460FF1BC06F5F9E
:105480007F4F8F4F9F4F16C0882311F096E911C0B0
:10549000772321F09EE8872F762F05C0662371F0D1
:1054A00096E8862F70E060E02AF09A95660F771FE5
:1054B000881FDAF7880F9695879597F90895990FC1
:1054C0000008550FAA0BE0E8FEEF16161706E807CE
:1054D000F907C0F012161306E407F50798F0621BEF
:1054E000730B840B950B39F40A2661F0232B242BC4
:1054F000252B21F408950A2609F4A140A6958FEFE3
:10550000811D811D089597F99F6780E870E060E034
:1055100008959FEF80EC089500240A94161617064C
:1055200018060906089500240A9412161306140694
:1055300005060895092E0394000C11F4882352F0F7
:10554000BB0F40F4BF2B11F460FF04C06F5F7F4FAF
:105550008F4F9F4F089557FD9058440F551F59F096
:105560005F3F71F04795880F97FB991F61F09F3F50
:1055700079F087950895121613061406551FF2CF79
:105580004695F1DF08C0161617061806991FF1CFC9
:1055900086957105610508940895E894BB276627F0
:1055A0007727CB0197F908958ADF08F48FEF0895E4
:1055B0000BD0C0CFB1DF28F0B6DF18F0952309F08B
:1055C000A2CFA7CF1124EACFC6DFA0F3959FD1F3D6
:1055D000950F50E0551F629FF001729FBB27F00DA1
:1055E000B11D639FAA27F00DB11DAA1F649F6627F6
:1055F000B00DA11D661F829F2227B00DA11D621F45
:10560000739FB00DA11D621F839FA00D611D221FFE
:10561000749F3327A00D611D231F849F600D211DE2
:10562000822F762F6A2F11249F5750408AF0E1F085
:1056300088234AF0EE0FFF1FBB1F661F771F881FCE
:1056400091505040A9F79E3F510570F05CCFA6CF16
:105650005F3FECF3983EDCF3869577956795B795B9
:10566000F795E7959F5FC1F7FE2B880F911D9695E3
:10567000879597F90895FA01EE0FFF1F30962105DF
:10568000310599F16115710561F48038BFE39B071D
:1056900049F168949038810561F08038BFEF9B072D
:1056A00041F0992342F5FF3FE1053105210511F154
:1056B000E8940894E795D901AA2329F4AB2FBE2FCB
:1056C000F85FD0F310C0FF5F70F4A695E0F7F739EC
:1056D00050F019F0FF3A38F49F779F930CD00F9059
:1056E00007FC905808953EF014CF60E070E080E829
:1056F0009FE308954FE79F775F934F933F932F93D7
:105700009ED02F913F914F915F9152DF05C019F4C8
:105710000EF0F9CE42CFFDCE26DFC8F39638C0F7A3
:1057200007F80F92E8942BE33AEA48EB5FE74EDF85
:105730000F920F920F924DB75EB70F92C0D0E8E66E
:10574000F0E016D04F915F91EF91FF91E595EE1F3C
:10575000FF1F49F0FE57E0684427EE0F441FFA95FB
:10576000E1F74195550B32D00F9007FE26C0089502
:10577000DF93CF931F930F93FF92EF92DF927B0102
:105780008C01689405C0DA2EEF011EDFFE01E8945B
:10579000A5912591359145915591AEF3EF0167DDC6
:1057A000FE019701A801DA9479F7DF90EF90FF905E
:1057B0000F911F91CF91DF9108959B01AC0160E0A3
:1057C00070E080E89FE3AACD9ECEACC0CCDEE8F3CB
:1057D0009923D9F3940F511DBBF39150504094F08D
:1057E00059F0882332F0660F771F881F9150504080
:1057F000C1F79E3F510544F7880F911D96958795F7
:1058000097F908955F3FACF0983E9CF0BB278695D2
:1058100077956795B79508F4B1609395C1F7BB0F7D
:1058200058F711F460FFE8CF6F5F7F4F8F4F9F4FA6
:10583000E3CFB4CE0EF076C06CCE689464CE93DE27
:10584000C8F39923D1F3C6F3DF93CF931F930F933C
:10585000FF92C92FDD2788232AF02197660F771F33
:10586000881FDAF720E030E040E85FEB9FE38839FB
:1058700020F0803E30F021968F77E8DCE0E9F0E020
:1058800003C0E4DCEDEBF0E073DF8B01BE01EC0163
:10589000FB2E6F5771097595771F880B990BD4DD17
:1058A00028E132E741E35FE38FDEAF2D9801AE01DF
:1058B000FF900F911F91CF91DF91D9DC3BCEFA0180
:1058C000DC01AA0FBB1F9B01AC01BF5728F42227A4
:1058D0003327442750781FC0B75188F4AB2F0024DA
:1058E000469537952795011CA395D2F3002069F0C2
:1058F000220F331F441FB395DAF30DD0A6CC6130CD
:105900007105A0E88A07B94630F49B01AC0166270F
:10591000772788279078309621F02083318342833F
:10592000538308959F3F31F0915020F487957795E8
:105930006795B795880F911D9695879597F9089566
:10594000629FD001739FF001829FE00DF11D649F63
:10595000E00DF11D929FF00D839FF00D749FF00DEF
:10596000659FF00D9927729FB00DE11DF91F639F90
:10597000B00DE11DF91FBD01CF0111240895991B40
:1059800079E004C0991F961708F0961B881F7A9536
:10599000C9F780950895AA1BBB1B51E107C0AA1F38
:1059A000BB1FA617B70710F0A61BB70B881F991FC0
:1059B0005A95A9F780959095BC01CD010895A1E273
:1059C0001A2EAA1BBB1BFD010DC0AA1FBB1FEE1F79
:1059D000FF1FA217B307E407F50720F0A21BB30BC4
:1059E000E40BF50B661F771F881F991F1A9469F740
:1059F00060957095809590959B01AC01BD01CF019C
:105A000008952F923F924F925F926F927F928F9262
:105A10009F92AF92BF92CF92DF92EF92FF920F933D
:105A20001F93CF93DF93CDB7DEB7CA1BDB0B0FB647
:105A3000F894DEBF0FBECDBF09942A883988488804
:105A40005F846E847D848C849B84AA84B984C8849A
:105A5000DF80EE80FD800C811B81AA81B981CE0F91
:105A6000D11D0FB6F894DEBF0FBECDBFED01089576
:105A7000CF93DF93BC018230910510F462E070E0B7
:105A8000A0915408B0915508ED01E0E0F0E040E04D
:105A900050E021C0888199818617970769F48A812F
:105AA0009B81309719F09383828304C090935508AB
:105AB00080935408FE0134C06817790738F4411503
:105AC000510519F08417950708F4AC01FE018A818D
:105AD0009B819C01E9012097E9F641155105A9F147
