:100000000C9472020C943C1D0C948F020C948F0281
:100010000C948F020C948F020C948F020C94A61CEB
:100020000C948F020C948F020C948F020C948F020C
:100030000C948F020C948F020C9405050C948F0283
:100040000C948F020C948F020C948F020C948F02EC
:100050000C948F020C948F020C948F020C948F02DC
:100060000C948F020C948F0207634236B79BD8A77B
:100070001A39685618AEBAAB558C1D3CB7CC5763CD
:10008000BD6DEDFD753EF6177231BF000000803F7B
:1000900008000000BE922449123EABAAAA2ABECD97
:1000A000CCCC4C3E00000080BEABAAAAAA3E000009
:1000B0000000BF000000803F000000000008417801
:1000C000D3BB4387D1133D190E3CC3BD4282AD2B38
:1000D0003E68EC8276BED98FE1A93E4C80EFFFBE30
:1000E00001C4FF7F3F00000000004369616F210DE4
:1000F0000A004669726D776172652076302E330092
:1001000025312E30662057202020002D2D2D205700
:1001100000506F77657220457374696D6174650076
:1001200025312E30662057202020002D2D2D2057E0
:1001300000506F7765720025312E3366206B672A79
:100140006D5E32004D2D496E657274696120284ADA
:10015000290025312E3466002D2D2D2D2D2D004BFF
:100160005F44616D70204573742E0025312E346616
:10017000004B5F44616D700025312E326620732084
:10018000202020002D2D2D2D20730054696D652F0A
:100190005374726F6B650025312E3266206D2020FE
:1001A0002020002D2D2D2D206D00446973742F53B8
:1001B00074726F6B650025312E3366206D004469C3
:1001C00073742F52657600206B63616C7320002579
:1001D000332E3066002532643A25303264002D2DEE
:1001E0003A2D2D0020572020200025332E30660088
:1001F0002D2D2D002053504D20200025332E30660C
:10020000002D2D2D002532643A2530326400253230
:10021000643A253032640025332E306600206D208C
:100220000025342E3066002532643A2530326400D1
:10023000202A2000202020002D2D3A2D2D00206D79
:1002400020002D2D2D2D002D2D3A2D2D20002D2D72
:100250002D002D2D3A2D2D002532643A25303264A3
:10026000002D2D3A2D2D0025312E306620572020CF
:1002700020002D2D2D20570025312E326620200004
:10028000532320256420202020006176672025321A
:100290002E306600617667202D2D0053504D2025AD
:1002A000322E306620200053504D202D2D2020006E
:1002B00025312E3066206D657465727320202020F4
:1002C000002532643A25303264002053617261683F
:1002D0002773204572676F20002053617261682781
:1002E00073204572676F20002F2F004865617000F2
:1002F0004461746100496E666F002F2F0042757271
:100300006E005061636500442F540050726F6700A7
:10031000496E666F0050726F6700526F772100451B
:1003200072676F00202573003E2573002573004817
:100330006561703A2025642F25642000486561704E
:100340003A2025642F2564200054686425643A20EF
:1003500025642F2564200054686425643A202564B0
:100360002F2564200025640D0A0025642000556EA9
:100370007573656420537461636B3A200025640DC6
:100380000A0025642000537461636B2053697A6509
:10039000733A20006E616E00696E66006364696E78
:1003A0006F70737578585B65666745464700616E88
:1003B000006E66696E69747900CDCCCC3D0AD72396
:1003C0003C17B7D13877CC2B329595E6241FB14F27
:1003D0000A000020410000C84200401C4620BCBE6C
:1003E0004CCA1B0E5AAEC59D7400407A10F35A00D9
:1003F000A0724E18090010A5D4E80000E87648174E
:100400000000E40B54020000CA9A3B000000E1F532
:1004100005000080969800000040420F000000A0F8
:100420008601000000102700000000E80300000023
:10043000006400000000000A00000000000100004D
:100440000000002C76D888DC674F0823DFC1DFAEC0
:1004500059E1B1B796E5E3E453C63AE65199769689
:10046000E8E6C28426EB898C9B62ED407C6FFCEF52
:10047000BC9C9F40F2BAA56FA5F490055A2AF75C80
:10048000936B6CF9676DC11BFCE0E40D47FEF52032
:10049000E6B500D0ED902E030094357705008084FA
:1004A0001E080000204E0A000000C80C333333330E
:1004B0000F986E12831141EF8D2114893BE655167A
:1004C000CFFEE6DB18D1844B381BF77C1D901DA4B2
:1004D000BBE424203284725E228100C9F124ECA1A5
:1004E000E53D270011241FBECFEFD8E0DEBFCDBF12
:1004F00011E0A0E0B1E0ECE0F2E602C005900D9260
:10050000A43BB107D9F718E0A4EBB1E001C01D92FC
:10051000A935B107E1F70E94DA060C9404310C9476
:100520000000F894FFCFCF93DF9380913803909130
:100530003903A0913A03B0913B030196A11DB11D6F
:100540008093380390933903A0933A03B0933B030D
:10055000CCE3D3E02FEF3FEF8D819E81AF81B88553
:100560000097A105B10551F18D819E81AF81B885BC
:100570000197A109B1098D839E83AF83B8878D81CF
:100580009E81AF81B8850097A105B105B9F48A8134
:100590008330E1F0823001F13C832B831A821D828B
:1005A0001E821F8218868091360390913703C817E8
:1005B000D90720F4D0933703C09336032A9683E0FB
:1005C000C639D80749F6DF91CF910895EB81FC81B8
:1005D00080818F5F8083E0CFEB81FC81118210826C
:1005E000DBCF08957894089580E008950895FC0184
:1005F000748363831282158216821782108680911B
:10060000360390913703E817F90720F4F093370386
:10061000E0933603CF010895DC01ED91FC91119731
:100620003097A1F01D921C9274836383128215820D
:100630001682178210868091360390913703E8174F
:10064000F90720F4F0933703E09336030895DC01B3
:100650008C918F5F8C938C9118160CF40895809177
:100660003F03909140038A179B07D9F0ECE3F3E036
:100670003A96838194818A179B07D1F7148213825B
:10068000128215821682178210868091360390910D
:100690003703E817F90710F7F0933703E0933603B1
:1006A0000895ECE3F3E0EACFDC012C916C9327FF93
:1006B00023C04091360350913703ECE3F3E06EEF33
:1006C0007FEF03C027FF14C03A96838194818A1775
:1006D0009B07C1F72F5F7483638312821582168292
:1006E00017821086E417F50768F7AF0127FDECCFF6
:1006F00050933703409336030895FC018185682B9E
:1007000061878281843009F0089583816823E1F351
:1007100014821382128215821682178210868091AB
:10072000360390913703E817F90770F7F093370312
:10073000E09336030895A0913403B09135031296E7
:100740008C93129715964D935D936D937C931897A8
:1007500080913E038823C9F0ECE3F3E03A9682816E
:100760008823E1F7F0933703E0933603F0933503E2
:10077000E0933403CF01BD010E94C304E091340330
:10078000F0913503838194810895ECE3F3E0EACF9F
:100790000F931F93CF93DF93082FC0913403D09111
:1007A00035039985182F192389F44F3F8FEF580788
:1007B0008FEF68078FEF780799F00B8384E00E9432
:1007C0009B0397FD0DC09985102F1923812F8095CC
:1007D00089238987812FDF91CF911F910F910895F0
:1007E0007894812FDF91CF911F910F910895F89404
:1007F0000E94C80378940895DC018C91181634F493
:1008000081508C9320E030E0C90108954F3F9FEF65
:1008100059079FEF69079FEF790719F42FEF3FEF13
:10082000F3CF81508C93E0913403F0913503B4837E
:10083000A38383E00E949B039C01E6CFF8940E946F
:10084000FC0378940895AB01BC01F89480913803BF
:1008500090913903A0913A03B0913B03481B590B87
:100860006A0B7B0B81E00E949B0378940895AB0197
:10087000BC01F89481E00E949B0378940895DC0108
:10088000809134039091350311969C938E93E0915F
:100890003403F0913503B483A38382E00E949B0369
:1008A00008956091340370913503809136039091DF
:1008B00037036817790731F0909335038093340339
:1008C0000E94C3040895F8940E947D030E9451047D
:1008D00078940895F8940E9454030E9451047894E7
:1008E0000895F8940E9427030E9451047894089573
:1008F000CF93DF9322EF34E0832F992787FD9A95DA
:10090000482F6CE373E0DB01C1E1D1E0EA81FB81B8
:1009100075971196FC93EE938E81828BED91FC91ED
:1009200011978E819F81892F990F990B818BED9162
:10093000FC9111978885808BED91FC9111978885AA
:100940009985892F990F990B8787ED91FC911197C4
:10095000438BED91FC911197248B1A962A9683E094
:10096000A639B80799F670933703609336037093EE
:10097000350360933403CB01BD010E94C304789416
:10098000DF91CF9108952F923F924F925F926F9295
:100990007F928F929F92AF92BF92CF92DF92EF920F
:1009A000FF920F931F93CF93DF93FB010DB600824D
:1009B0000EB60182FC0100800DBE01800EBEDF91EB
:1009C000CF911F910F91FF90EF90DF90CF90BF904C
:1009D000AF909F908F907F906F905F904F903F90DF
:1009E0002F9008957894C201F101099580E090E07C
:1009F0000E949102089592E094BD95BD89EF87BD54
:100A000016BC95BB90936E0008951F920F920FB67F
:100A10000F9211242F933F934F935F936F937F9384
:100A20008F939F93AF93BF93EF93FF930E94930293
:100A30000E945104FF91EF91BF91AF919F918F91CF
:100A40007F916F915F914F913F912F910F900FBECA
:100A50000F901F9018951092BA011092BB0110923E
:100A6000BC011092BD018091380390913903A0918F
:100A70003A03B0913B038093BE019093BF01A093D2
:100A8000C001B093C1010895FC01F8948091B801B0
:100A90009091B901958384838091B4019091B501BF
:100AA000A091B601B091B70180839183A283B383F3
:100AB00078940895CF92DF92EF92FF920F931F9355
:100AC0006C01F894E090B801F090B9016091B40124
:100AD0007091B5018091B6019091B7017894F601BB
:100AE0002081318142815381621B730B840B950BF2
:100AF00028EE33E040E050E00E942C2D9B01AC0139
:100B0000F60184819581A0E0B0E0281B390B4A0BE7
:100B10005B0B00E010E02E0D3F1D401F511FB9017F
:100B2000CA011F910F91FF90EF90DF90CF90089531
:100B3000FC01F8948091B8019091B9012091B40121
:100B40003091B5014091B6015091B7017894808100
:100B50009181A281B381281B390B4A0B5B0BB90130
:100B6000CA010895F8942091B4013091B5014091E3
:100B7000B6015091B7017894B901CA010895F8946B
:100B80001092B4011092B5011092B6011092B70103
:100B9000789408951092BA011092BB011092BC0192
:100BA0001092BD018091380390913903A0913A03CE
:100BB000B0913B038093BE019093BF01A093C0010D
:100BC000B093C101F89420913803309139034091DA
:100BD0003A0350913B038091BE019091BF01A091D7
:100BE000C001B091C10179018A01E81AF90A0A0B22
:100BF0001B0BE092C201F092C3010093C401109359
:100C0000C5012093BE013093BF014093C0015093B2
:100C1000C10178946091C2017091C3018091C401B7
:100C20009091C5010091B8011091B90128EE33E00F
:100C300040E050E00E942C2D20EA3FE040E050E0F0
:100C40000E946B2D020F131F1093B9010093B8017E
:100C50008091B8019091B901875E934008F442C039
:100C60008091B4019091B501A091B601B091B70106
:100C70000196A11DB11D8093B4019093B501A0937D
:100C8000B601B093B7018091BA019091BB01A091D8
:100C9000BC01B091BD010196A11DB11D8093BA01A7
:100CA0009093BB01A093BC01B093BD011092B90118
:100CB0001092B8016091B4017091B5018091B601B4
:100CC0009091B7010E94AE2A20E030E040E752E464
:100CD0000E941A2A609376047093770480937804B4
:100CE0009093790460E570E080E090E00E94370422
:100CF00069CF6F927F928F929F92AF92BF92CF9265
:100D0000DF92EF92FF920F931F936B017C015A01C8
:100D10004901380120E030E040E752E40E941A2AFD
:100D20000E94822AF501608370E0882777FD809514
:100D3000982F0E94B02A20E030E040E752EC0E9459
:100D4000642BA70196010E94B2295B016C010E94ED
:100D5000822AE62EF4016083C601B50120E030E06E
:100D600040E752E40E94642B5B016C01FF2400E029
:100D700010E0C801B7010E94AE2A20E030E040E751
:100D800052EC0E94642B9B01AC01C601B5010E948C
:100D9000B2290E94822AF30160831F910F91FF9074
:100DA000EF90DF90CF90BF90AF909F908F907F900B
:100DB0006F9008950E94C71F81E080938C050E9468
:100DC000FB040E947804FFCF89E190E00E94461F57
:100DD000E0903803F090390300913A0310913B03FF
:100DE00000D000D085E791E0ADB7BEB712969C93D6
:100DF0008E9311978AEE90E014969C938E9313979E
:100E00000E9414300F900F900F900F900E94A1211C
:100E10000E94222180EA9FE0A0E0B0E0E80EF91EE7
:100E20000A1F1B1FC801B7010E942304EFCF4F9276
:100E30005F926F927F928F929F92AF92BF92CF926A
:100E4000DF92EF92FF920F931F93CF93DF932C01CA
:100E50000F2EF0E06F2EF0E07F2EF0E08F2EF0E00E
:100E60009F2EF02D64015301C4E0D0E0BE0188271D
:100E700077FD8095982F0E94B02A9B01AC0160E01D
:100E800070E080E090E40E94C72B7B018C01C401DC
:100E9000B301A80197010E94B2293B014C01C8018E
:100EA000B701F20121913191419151912F010E949D
:100EB000642B9B01AC01C601B5010E94B2295B0104
:100EC0006C012197FFEFCF3FDF0781F6A40193016B
:100ED0000E941A2ADF91CF911F910F91FF90EF90FE
:100EE000DF90CF90BF90AF909F908F907F906F904A
:100EF0005F904F900895DF93CF9300D000D0CDB78F
:100F0000DEB752985A9A1092800083E08093810055
:100F10008093690011E01DBB10928500109284003F
:100F20008FEF95E0A2E0BAE38093C8019093C901E6
:100F3000A093CA01B093CB018CE09CEAA4EBBEE382
:100F40008093CC019093CD01A093CE01B093CF01BB
:100F500060EE7EE280E090E00E94370410929F02F3
:100F600010929E021092A1021092A00280E090E0E6
:100F7000A0E0B0E08093120390931303A0931403B6
:100F8000B09315038093160390931703A09318034F
:100F9000B093190380931A0390931B03A0931C032F
:100FA000B0931D0380931E0390931F03A09320030F
:100FB000B093210310932203109223038093D00156
:100FC0009093D101A093D201B093D301E0E080E0EF
:100FD00020E030E040E050E0F0E0EE0FFF1FEE0FC9
:100FE000FF1FDF01A654BD4F2D933D934D935C939E
:100FF0001397DF01A250BD4F2D933D934D935C930A
:101000001397DF01AE52BD4F2D933D934D935C93EB
:101010001397DF01AA51BD4F2D933D934D935C93E0
:101020001397EE55FD4F2083318342835383E82F7E
:10103000EF5F8E2FE53080F2E093D4011092D5015E
:101040001092D6012093D7013093D8014093D90153
:101050005093DA012093DB013093DC014093DD01F2
:101060005093DE012093DF013093E0014093E101D2
:101070005093E2012093E3013093E4014093E501B2
:101080005093E60184E293E00E9444058AE293E0F3
:101090000E9444051092E8011092E701F89489EE4D
:1010A00091E040E050E060E070E00E943F047894FE
:1010B00060919E0270919F0280E090E00E94AE2AB3
:1010C0002DEB37E346E057E30E94642B1B012C0114
:1010D0006093EB017093EC018093ED019093EE012E
:1010E0008091120390911303A0911403B091150302
:1010F00089839A83AB83BC838093160390931703F1
:10110000A0931803B093190360919E0270919F02FF
:10111000E090A002F090A10280E090E00E94AE2A50
:101120005B016C0100E010E0C801B7010E94AE2A2B
:101130009B01AC01C601B5010E94B2292DEB37E33A
:1011400046E856E30E94642B9B01AC016AED7FE008
:1011500089EC90E40E941A2A7B018C0160931203AF
:1011600070931303809314039093150360901A03F4
:1011700070901B0380901C0390901D0360921E03CF
:1011800070921F038092200390922103C201B1014B
:1011900027E137EB41ED58E30E94B2295B016C0176
:1011A000C801B70129813A814B815C810E94B12934
:1011B000A60195010E941A2A1B012C0160931A03B3
:1011C00070931B0380931C0390931D03A401930150
:1011D0000E94B129A60195010E941A2A7B018C0167
:1011E0006093EF017093F0018093F1019093F2010D
:1011F00020E030E040E252EC0E94602B18160CF028
:1012000098C0C801B70120E030E040E252E40E94FB
:10121000162A88230CF08DC01092D601C201B101AC
:1012200020E030E040E751E40E94602B18160CF0FB
:1012300084C0A1E0A093D5019091D601913009F42A
:1012400083C08091D501813009F4B9C18091220316
:10125000809323031092220380912303813009F4A9
:10126000B8C180912203813009F435C1882309F087
:1012700015CF80912303882309F010CFA09012038B
:10128000B0901303C0901403D0901503C601B501AC
:1012900027E137EB41ED58E30E94B2299B01AC01F5
:1012A000E090EB01F090EC010091ED011091EE0166
:1012B0000E94642B9B01AC0160911A0370911B0387
:1012C00080911C0390911D030E941A2AA801970186
:1012D0000E94642B9B01AC016091F3017091F401B9
:1012E0008091F5019091F6010E94B2296093F3017B
:1012F0007093F4018093F5019093F601C601B50156
:10130000A80197010E94642B9B01AC016091F70139
:101310007091F8018091F9019091FA010E94B2292F
:101320006093F7017093F8018093F9019093FA01AB
:10133000B5CE91E09093D60171CF1092D5019091E6
:10134000D601913009F07DCF809122038093230351
:1013500090932203882309F084CF8AE293E00E94CD
:10136000440580E090E0A0E0B0E08093DB01909342
:10137000DC01A093DD01B093DE018093D70190934F
:10138000D801A093D901B093DA018091F202909133
:10139000F302A091F402B091F5028093F6029093CB
:1013A000F702A093F802B093F9028091EE029091B7
:1013B000EF02A091F002B091F1028093F2029093BB
:1013C000F302A093F402B093F5028091EA029091A7
:1013D000EB02A091EC02B091ED028093EE029093AB
:1013E000EF02A093F002B093F1028091E602909197
:1013F000E702A091E802B091E9028093EA0290939B
:10140000EB02A093EC02B093ED026091DF017091CA
:10141000E0018091E1019091E2012091E30130919E
:10142000E4014091E5015091E6010E94B1292DEBC4
:1014300037E346E855E30E94B2299B01AC01609175
:10144000F3017091F4018091F5019091F6010E94F1
:101450001A2A6093E6027093E7028093E802909361
:10146000E90286EE92E00E9417076093FA027093F9
:10147000FB028093FC029093FD0260911203709135
:10148000130380911403909115032091EB01309187
:10149000EC014091ED015091EE010E94642B9B0103
:1014A000AC016091F7017091F8018091F901909180
:1014B000FA010E94B2296093F7017093F8018093BA
:1014C000F9019093FA0180912203882309F4C4CE94
:1014D000813009F0CBCE80912303813009F0DECD3D
:1014E000E0901203F0901303009114031091150380
:1014F000A090EB01B090EC01C090ED01D090EE0116
:10150000C801B7012AE037ED43E25EE30E94642B95
:1015100020911A0330911B0340911C0350911D032D
:101520000E94642BA60195010E94642B9B01AC01D3
:101530006091DB017091DC018091DD019091DE0111
:101540000E94B2296093DB017093DC018093DD017E
:101550009093DE01C801B701A80197010E94642B96
:101560009B01AC01C801B7010E94642B2091C80106
:101570003091C9014091CA015091CB010E94642B66
:101580009B01AC01C601B5010E94642B9B01AC011B
:101590006091D7017091D8018091D9019091DA01C1
:1015A0000E94B2296093D7017093D8018093D9012A
:1015B0009093DA01C801B701A6019501A3CE8091ED
:1015C0002203813009F044CE8093230380932203C9
:1015D00048CE8091E7019091E80101969093E8014F
:1015E0008093E70180E090E0A0E0B0E08093F30119
:1015F0009093F401A093F501B093F6018AE293E091
:101600000E945A050E94AE2A20E030E04AE754E4E6
:101610000E941A2A6093E3017093E4018093E5012C
:101620009093E60184E293E00E945A050E94AE2A5C
:1016300020E030E04AE754E40E941A2A6093DF0178
:101640007093E0018093E1019093E20184E293E0E2
:101650000E9444056091DF017091E0018091E101F9
:101660009091E20127E137EB41ED58E30E94B22966
:101670007B018C016091F7017091F8018091F90173
:101680009091FA01A80197010E941A2A6093FB0128
:101690007093FC018093FD019093FE0180E090E047
:1016A000A0E0B0E08093F7019093F801A093F901D6
:1016B000B093FA016091FF017091000280910102E4
:1016C00090910202209103023091040240910502A0
:1016D000509106020E94B12960930702709308029C
:1016E0008093090290930A022091FF013091000239
:1016F00040910102509102022093030230930402B0
:10170000409305025093060220910A0330910B0387
:1017100040910C0350910D0320930E0330930F035F
:101720004093100350931103209106033091070357
:10173000409108035091090320930A0330930B034F
:1017400040930C0350930D03209102033091030347
:10175000409104035091050320930603309307033F
:1017600040930803509309032091FE023091FF0239
:10177000409100035091010320930203309303032F
:101780004093040350930503A80197010E941A2A6D
:101790006093FE027093FF02809300039093010315
:1017A0008EEF92E00E94170760930B0270930C0279
:1017B00080930D0290930E0227E137EB41ED58E341
:1017C0000E94B2299B01AC0160E070E08AEF93E4D3
:1017D0000E941A2A60930F027093100280931102E4
:1017E0009093120220E030E040E752E40E941A2A6F
:1017F00043E152E024E132E005E112E00E94790683
:101800008091DE029091DF02A091E002B091E102AE
:101810008093E2029093E302A093E402B093E50286
:101820008091DA029091DB02A091DC02B091DD029E
:101830008093DE029093DF02A093E002B093E10276
:101840008091D6029091D702A091D802B091D9028E
:101850008093DA029093DB02A093DC02B093DD0266
:101860008091D2029091D302A091D402B091D5027E
:101870008093D6029093D702A093D802B093D90256
:101880006091DF017091E0018091E1019091E201AE
:1018900027E137EB41ED58E30E94B2299B01AC01EF
:1018A0006091E3017091E4018091E5019091E6017E
:1018B0000E941A2A6093D2027093D3028093D402BA
:1018C0009093D50282ED92E00E9417076093160272
:1018D0007093170280931802909319028091C602A8
:1018E0009091C702A091C802B091C9028093CA0228
:1018F0009093CB02A093CC02B093CD028091C20210
:101900009091C302A091C402B091C5028093C60217
:101910009093C702A093C802B093C9028091BE02FF
:101920009091BF02A091C002B091C1028093C20207
:101930009093C302A093C402B093C5028091BA02EF
:101940009091BB02A091BC02B091BD028093BE02F7
:101950009093BF02A093C002B093C1026091DB01DB
:101960007091DC018091DD019091DE012091D70121
:101970003091D8014091D9015091DA010E94B229E9
:101980007B018C016091DF017091E0018091E101A8
:101990009091E20127E137EB41ED58E30E94B22933
:1019A0009B01AC01C801B7010E941A2A6093BA02D8
:1019B0007093BB028093BC029093BD028AEB92E0CD
:1019C0000E9417077B018C016093CE027093CF02B7
:1019D0008093D0029093D10220E030E040E251E4C5
:1019E0000E94602B181694F5C801B70120E030E082
:1019F00040E850E40E94642B20E030E04FEA53E4DA
:101A00000E94B2292091DF013091E0014091E10173
:101A10005091E2010E94642B26E636ED42E855E43F
:101A20000E941A2A9B01AC016091D0017091D101F2
:101A30008091D2019091D3010E94B2296093D0018C
:101A40007093D1018093D2019093D3018091AE0223
:101A50009091AF02A091B002B091B1028093B20216
:101A60009093B302A093B402B093B5028091AA02FE
:101A70009091AB02A091AC02B091AD028093AE0206
:101A80009093AF02A093B002B093B1028091A602EE
:101A90009091A702A091A802B091A9028093AA02F6
:101AA0009093AB02A093AC02B093AD028091A202DE
:101AB0009091A302A091A402B091A5028093A602E6
:101AC0009093A702A093A802B093A9028091DF018E
:101AD0009091E001A091E101B091E2018093A20216
:101AE0009093A302A093A402B093A50282EA92E08D
:101AF0000E9417076093B6027093B7028093B802F2
:101B00009093B902AECB80913403909135039093BA
:101B100021028093200210E006E01AC082E04FEF1D
:101B20005FEF6FEF7FEF0E94F703823081F184E077
:101B30004FEF5FEF6FEF7FEF0E94F703843021F1EB
:101B40001130E9F068EE73E080E090E00E94370425
:101B500081E04FEF5FEF6FEF7FEF0E94F70381307F
:101B6000E9F68CE895E040E050E060E070E00E942B
:101B70001E040093C6010E940A1E11E0CFCF80917F
:101B800005010E941120DECF0E940A1ED9CF8CE8E9
:101B900095E00E94710410E0CACF809134039091C7
:101BA000350390931F0280931E02C3E8D1E03AEA06
:101BB000432E31E0532E21E1222E21E0322ECE01A0
:101BC000FC2EE92E0F2EFFE5AF2EF9E2BF2EFBE42F
:101BD000CF2EFBE3DF2EF02D0F2EFAE06F2EF7ED68
:101BE0007F2EF3E28F2EFEE39F2EF02D81E040E06A
:101BF00050E060E070E00E94F7038CE895E040E080
:101C000050E060E070E00E941E0485E08093C60111
:101C10000E940A1E01E01AC084E04FEF5FEF6FEFF1
:101C20007FEF0E94F7038430E9F080910401823055
:101C3000F9F0833009F474C1813009F4C1C068EE51
:101C400073E080E090E00E94370400E082E04FEF14
:101C50005FEF6FEF7FEF0E94F703823009F4DCC281
:101C60000130D1F60E940A1E80910401823009F7EA
:101C700081E061E00E94A01D00D000D0EDB7FEB76A
:101C8000D283C18381E791E0948383830E941430DF
:101C90000F900F900F900F9081E062E00E94A01DC6
:101CA000ADB7BEB718970FB6F894BEBF0FBEADBFA5
:101CB000EDB7FEB731961296DC93CE9311978BE673
:101CC00091E093838283A482B582C682D7820E94E8
:101CD0001430ADB7BEB718960FB6F894BEBF0FBE9E
:101CE000ADBF81E063E00E94A01D00D000D0EDB741
:101CF000FEB7D283C1838FE591E0948383830E94F2
:101D000014300F900F900F900F9081E064E00E94CC
:101D1000A01D8091E7019091E801059708F04EC25F
:101D200000D000D0ADB7BEB71196FC9211971296B5
:101D3000EC921297E8E5F1E01496FC93EE9313977A
:101D40000E9414300F900F900F900F9081E065E08B
:101D50000E94A01D00D000D0EDB7FEB7D283C18392
:101D600084E491E0948383830E9414300F900F9059
:101D70000F900F9081E066E00E94A01DADB7BEB746
:101D800018970FB6F894BEBF0FBEADBFEDB7FEB744
:101D900031961296DC93CE93119787E391E093836B
:101DA000828364827582868297820E941430ADB7E6
:101DB000BEB718960FB6F894BEBF0FBEADBF3FCFEB
:101DC00081E061E00E94A01D00D000D0ADB7BEB799
:101DD0001296DC93CE931197EEEBF1E01496FC9300
:101DE000EE9313970E9414300F900F900F900F9066
:101DF00081E062E00E94A01D8DB79EB708970FB6E4
:101E0000F8949EBF0FBE8DBFEDB7FEB73196ADB74C
:101E1000BEB71296DC93CE93119786EB91E0938335
:101E200082838091CC019091CD01A091CE01B0919F
:101E3000CF0184839583A683B7830E941430ADB706
:101E4000BEB718960FB6F894BEBF0FBEADBF81E007
:101E500063E00E94A01D00D000D0EDB7FEB7D28392
:101E6000C183548243820E9414300F900F900F90D0
:101E70000F9081E064E00E94A01D8091E7019091A5
:101E8000E801059708F06DC100D000D0ADB7BEB72E
:101E90001196FC9211971296EC921297E3EAF1E0F8
:101EA0001496FC93EE9313970E9414300F900F90AA
:101EB0000F900F9081E065E00E94A01D00D000D03F
:101EC000EDB7FEB7D283C1838BE891E0948383831F
:101ED0000E9414300F900F900F900F9081E066E0F9
:101EE0000E94A01D8091E7019091E801059708F0FC
:101EF00098C000D000D0ADB7BEB71196FC92119734
:101F00001296EC921297E4E8F1E01496FC93EE93AB
:101F100013970E9414300F900F900F900F908FCE58
:101F200081E061E00E94A01D00D000D0EDB7FEB7B7
:101F3000D283C18381E391E0948383830E94143030
:101F40000F900F900F900F9081E062E00E94A01D13
:101F50008091E7019091E801059708F0D5C000D085
:101F600000D0ADB7BEB71196FC9211971296EC92C5
:101F70001297EBE2F1E01496FC93EE9313970E9414
:101F800014300F900F900F900F9081E063E00E944B
:101F9000A01D00D000D0EDB7FEB7D283C18334823C
:101FA00023820E9414300F900F900F900F9081E0C9
:101FB00064E00E94A01D8091E7019091E8010597DF
:101FC00008F05CC000D000D0ADB7BEB71196FC924F
:101FD00011971296EC921297EBE0F1E01496FC93B5
:101FE000EE9313970E9414300F900F900F900F9064
:101FF00081E065E00E94A01D00D000D0ADB7BEB763
:102000001296DC93CE931197E2EFF0E01496FC93D6
:10201000EE9313970E9414300F900F900F900F9033
:102020000ECE8DB79EB708970FB6F8949EBF0FBE21
:102030008DBFEDB7FEB73196ADB7BEB71196FC9226
:1020400011971296EC9288E791E0938382838091B6
:10205000B6029091B702A091B802B091B902848300
:102060009583A683B7830E941430ADB7BEB7189688
:102070000FB6F894BEBF0FBEADBFE1CD6091FB01BE
:102080007091FC018091FD019091FE0120E030E013
:1020900040E450E40E94C72B9B01AC018DB79EB772
:1020A00008970FB6F8949EBF0FBE8DBF0DB71EB731
:1020B0000F5F1F4FADB7BEB71196FC9211971296E6
:1020C000EC9280E091E0F80193838283CA01B90128
:1020D0002091C8013091C9014091CA015091CB01B2
:1020E0000E94642BD80114966D937D938D939C93DD
:1020F00017970E941430EDB7FEB738960FB6F894D4
:10210000FEBF0FBEEDBF74CF8DB79EB708970FB659
:10211000F8949EBF0FBE8DBFEDB7FEB73196ADB739
:10212000BEB71196FC9211971296EC9280E291E064
:10213000938382838091CE029091CF02A091D002AE
:10214000B091D10284839583A683B7830E94143013
:10215000ADB7BEB718960FB6F894BEBF0FBEADBFF1
:1021600014CF8DB79EB708970FB6F8949EBF0FBED9
:102170008DBFEDB7FEB73196ADB7BEB71196FC92E5
:1021800011971296EC9287E991E093838283809174
:10219000070290910802A0910902B0910A0284837B
:1021A0009583A683B7830E941430ADB7BEB7189647
:1021B0000FB6F894BEBF0FBEADBF7CCE8DB79EB735
:1021C00008970FB6F8949EBF0FBE8DBFEDB7FEB750
:1021D0003196ADB7BEB71196FC9211971296EC925C
:1021E00082E591E0938382838091E6029091E702F9
:1021F000A091E802B091E902B05884839583A68348
:10220000B7830E941430ADB7BEB718960FB6F894D6
:10221000BEBF0FBEADBF9ACD8CE895E00E947104A1
:10222000E5CC809134039091350390931B02809309
:102230001A02C3E8D1E050E8452E52E0552E48E797
:10224000242E42E0342E3E0181E040E050E060E088
:1022500070E00E94F7038CE895E040E050E060E019
:1022600070E00E941E0423E02093C6010E940A1E13
:1022700081E061E00E94A01D81E08093300300D0E6
:1022800000D0ADB7BEB71296DC93CE931197EAECAF
:10229000F2E01496FC93EE9313970E941430109280
:1022A00030030F900F900F900F902EC100D000D0F0
:1022B000ADB7BEB711966C92119712967C92129799
:1022C000E7EAF2E01496FC93EE9313970E94143021
:1022D0000F900F900F900F9089E062E00E94A01D78
:1022E0006091E7017091E8016230710508F420C245
:1022F00010912202112309F030C2909023029920FC
:1023000009F410C28090240280E090E00E94AE2A7E
:102310005B016C01612F70E080E090E00E94AE2ACA
:1023200020E030E040E752E40E94642B7B018C0106
:10233000692D70E080E090E00E94AE2A9B01AC0124
:10234000C801B7010E94B2297B018C01682D70E0A1
:1023500080E090E00E94AE2A20E030E040E752E4C6
:102360000E941A2A9B01AC01C801B7010E94B22940
:102370009B01AC01C601B5010E941A2A9B01AC0168
:10238000209325023093260240932702509328027F
:102390002DB73EB7285030400FB6F8943EBF0FBE61
:1023A0002DBFEDB7FEB73196ADB7BEB71296DC9331
:1023B000CE9311972AE832E033832283CB01DA01EE
:1023C00084839583A683B7830E9414308DB79EB70C
:1023D00008960FB6F8949EBF0FBE8DBF81E063E0F4
:1023E0000E94A01D00D000D000D0EDB7FEB73196FE
:1023F000ADB7BEB71296DC93CE931197538242824B
:102400008091E7019091E801958384830E941430C4
:10241000EDB7FEB736960FB6F894FEBF0FBEEDBF10
:102420008BE063E00E94A01D2DB73EB728503040DE
:102430000FB6F8943EBF0FBE2DBFEDB7FEB7319675
:10244000ADB7BEB71296DC93CE931197338222823A
:102450008091160290911702A0911802B091190272
:1024600084839583A683B7830E941430EDB7FEB7AB
:1024700038960FB6F894FEBF0FBEEDBF84E064E05F
:102480000E94A01D8091E7019091E801059708F056
:102490001BC100D000D0ADB7BEB711966C9211979A
:1024A00012967C921297E2E7F2E01496FC93EE9378
:1024B00013970E9414300F900F900F900F908AE0A6
:1024C00066E00E94A01D8091E7019091E8010A97C3
:1024D00008F0D1C000D000D0ADB7BEB71296DC93E3
:1024E000CE931197E1E6F2E01496FC93EE931397E6
:1024F0000E9414300F900F900F900F9068E775E0D6
:1025000080E090E00E94370482E04FEF5FEF6FEFD2
:102510007FEF0E94F703823009F424C183E066E074
:102520000E94A01D609176047091770480917804D8
:102530009091790442E252E023E232E004E212E0B8
:102540000E9479062DB73EB7285030400FB6F89458
:102550003EBF0FBE2DBFEDB7FEB73196ADB7BEB7CC
:102560001296DC93CE93119721EC32E033832283D1
:1025700080912302848315828091240286831782AE
:102580000E9414308DB79EB708960FB6F8949EBF80
:102590000FBE8DBF83E065E00E94A01D4091FF014A
:1025A000509100026091010270910202ADB7BEB776
:1025B00018970FB6F894BEBF0FBEADBFEDB7FEB70C
:1025C00031961296DC93CE93119720EB32E0338351
:1025D000228344835583668377830E9414308DB7AA
:1025E0009EB708960FB6F8949EBF0FBE8DBF81E0D0
:1025F00062E00E94A01D8091E7019091E80105979B
:1026000008F454CE2DB73EB7285030400FB6F8949A
:102610003EBF0FBE2DBF0DB71EB70F5F1F4FADB72B
:10262000BEB711966C92119712967C922BE932E00C
:10263000F8013383228360E070E080E792E4209128
:10264000B6023091B7024091B8025091B9020E948F
:102650001A2AD80114966D937D938D939C931797A6
:102660000E941430EDB7FEB738960FB6F894FEBF4F
:102670000FBEEDBF31CE2DB73EB7285030400FB65C
:10268000F8943EBF0FBE2DBFEDB7FEB73196ADB784
:10269000BEB71296DC93CE93119728E532E03383D0
:1026A000228380911402848315828091150286838F
:1026B00017820E9414308DB79EB708960FB6F89413
:1026C0009EBF0FBE8DBF1ACF2DB73EB728503040EA
:1026D0000FB6F8943EBF0FBE2DBFEDB7FEB73196D3
:1026E000ADB7BEB711966C92119712967C9227E601
:1026F00032E0338322838091CE029091CF02A09169
:10270000D002B091D10284839583A683B7830E94BF
:1027100014308DB79EB708960FB6F8949EBF0FBEC3
:102720008DBFCDCE80902402FDE1F81508F4ECCDEC
:1027300000D000D0ADB7BEB71296DC93CE93119700
:10274000E4E9F2E01496FC93EE9313970E941430A0
:102750000F900F900F900F9041CE90902302809099
:102760002402D2CD8CE895E00E9471046DCDDF93F8
:10277000CF93CDB7DEB7A5970FB6F894DEBF0FBEE7
:10278000CDBF19821A821B82809134039091350348
:1027900090931D0280931C0280E090E0A0E0B0E0E6
:1027A0008A8F9B8FAC8FBD8F8E8B9F8BA88FB98F9D
:1027B0003C014D011AA21BA21CA21DA28A8B9B8B5D
:1027C000AC8BBD8B8E879F87A88BB98B1C861B8695
:1027D0001A8663E8462E61E0562E72012224239465
:1027E00081E040E050E060E070E00E94F7038CE898
:1027F00095E040E050E060E070E00E941E0494E04C
:102800009093C6010E940A1E3324A1E0AD8710C038
:10281000133009F483C2113009F4B0C064015301CC
:1028200068EE73E080E090E00E94370435014601D5
:1028300082E04FEF5FEF6FEF7FEF0E94F703823090
:1028400009F404C410910301123011F783E062E02F
:102850000E94A01D209231038091E7019091E80130
:10286000059708F0FDC200D000D0EDB7FEB7528248
:10287000418221E032E0348323830E9414300F90A0
:102880000F900F900F90109231030E94B11D00D055
:1028900000D0ADB7BEB712965C924E921197E4EF9E
:1028A000F1E01496FC93EE9313970E9414300F906E
:1028B0000F900F900F9083E064E00E94A01D209283
:1028C00031038091E7019091E801059708F09AC2E1
:1028D00000D000D0ADB7BEB71196EC92119712960A
:1028E000FC921297E0EFF1E01496FC93EE931397AD
:1028F0000E9414300F900F900F900F9010923103A0
:102900000E94B11D00D000D0ADB7BEB712965C9248
:102910004E921197E4EEF1E01496FC93EE93139728
:102920000E9414300F900F900F900F9081E066E09E
:102930000E94A01D209231038091E7019091E8014F
:102940000A9708F035C200D000D0ADB7BEB71196D7
:10295000EC9211971296FC921297EEEDF1E014961C
:10296000FC93EE9313970E9414300F900F900F90EA
:102970000F90109231036401530152CF332009F4B8
:10298000CEC284E04FEF5FEF6FEF7FEF0E94F7035F
:10299000843009F4A0C288E04FEF5FEF6FEF7FEF64
:1029A0000E94F703883009F492C2F1E03F1609F063
:1029B00035CF81E066E00E94A01D2D85222309F01D
:1029C00093C300D000D0ADB7BEB712965C924E92C2
:1029D0001197E4E3F2E01496FC93EE9313970E94B0
:1029E00014300F900F900F900F9081E061E00E94E3
:1029F000A01DCE0104960E9498050E94AE2A2A8945
:102A00003B894C895D890E94B2296A8F7B8F8C8FAC
:102A10009D8F20E030E040E752E40E941A2A42E213
:102A200052E023E232E004E212E00E9479062DB780
:102A30003EB7285030400FB6F8943EBF0FBE2DBFB2
:102A4000EDB7FEB73196ADB7BEB712965C924E9217
:102A5000119727E232E0338322838091230284831B
:102A6000158280912402868317820E941430A090E0
:102A7000FF01B0900002C0900102D0900202C60196
:102A8000B501A40193010E94B1299B01AC016E899B
:102A90007F89888D998D0E94B2296E8B7F8B888F5C
:102AA000998F8DB79EB708960FB6F8949EBF0FBE4C
:102AB0008DBF81E065E00E94A01D30923103ADB76B
:102AC000BEB718970FB6F894BEBF0FBEADBFEDB737
:102AD000FEB7319612965C924E92119721E232E047
:102AE000338322838E899F89A88DB98D84839583B2
:102AF000A683B7830E94143010923103ADB7BEB7DE
:102B000018960FB6F894BEBF0FBEADBF0E94B11DA0
:102B100000D000D0EDB7FEB7528241822DE132E005
:102B2000348323830E9414308091E7019091E8015F
:102B3000AA85BB858A1B9B0B0F900F900F900F905F
:102B4000079708F46DCE8BE061E00E94A01DADB741
:102B5000BEB718970FB6F894BEBF0FBEADBF0DB786
:102B60001EB70F5F1F4F1196EC9211971296FC92B1
:102B700027E132E0F8013383228360E070E080E7F0
:102B800092E42091B6023091B7024091B802509180
:102B9000B9020E941A2AD80114966D937D938D93E1
:102BA0009C9317970E941430EDB7FEB738960FB676
:102BB000F894FEBF0FBEEDBF83E063E00E94A01D4E
:102BC000309231032DB73EB7285030400FB6F894FD
:102BD0003EBF0FBE2DBFEDB7FEB73196ADB7BEB746
:102BE00012965C924E9211972EE032E0338322834C
:102BF0008091140284831582809115028683178246
:102C00000E941430109231033C853F5F3C876A8DEF
:102C10007B8D8C8D9D8D20E030E04AEF53E40E9447
:102C2000642B6E8F7F8F88A399A36E897F89888D8F
:102C3000998D27E137EB41ED58E30E94B2299B01C2
:102C4000AC016E8D7F8D88A199A10E941A2A9B01EB
:102C5000AC016E857F85888999890E94B2296E872B
:102C60007F87888B998B8C8562E30E944B2DADB753
:102C7000BEB718960FB6F894BEBF0FBEADBF99236E
:102C800009F0CECD8AE066E00E94A01D6E857F85AA
:102C90008889998920E030E048E452E40E941A2AA9
:102CA00020E030E040E752E40E941A2AAE014F5F74
:102CB0005F4F9E012E5F3F4F8E010D5F1F4F0E94A1
:102CC0007906EDB7FEB738970FB6F894FEBF0FBE82
:102CD000EDBF3196ADB7BEB712965C924E9211978A
:102CE00025E032E0338322838A81848315828B81BD
:102CF000868317820E94143080E090E0A0E0B0E06C
:102D00008E879F87A88BB98B1C86ADB7BEB71896E8
:102D10000FB6F894BEBF0FBEADBF82CD2092310377
:102D200081E062E00E94A01DADB7BEB718970FB654
:102D3000F894BEBF0FBEADBFEDB7FEB73196129689
:102D40005C924E9211972FEC31E033832283809175
:102D5000D0019091D101A091D201B091D30184838F
:102D60009583A683B7830E941430109231038DB7E8
:102D70009EB708960FB6F8949EBF0FBE8DBF0E94F7
:102D8000B11D00D000D0ADB7BEB712965C924E9286
:102D90001197E7ECF1E01496FC93EE9313970E94E1
:102DA0001430640153010F900F900F900F9038CDA5
:102DB0002DB73EB7285030400FB6F8943EBF0FBE37
:102DC0002DBFEDB7FEB73196ADB7BEB71196EC92F9
:102DD00011971296FC9225ED31E033832283809186
:102DE00014028483158280911502868317820E94C3
:102DF00014308DB79EB708960FB6F8949EBF0FBEDD
:102E00008DBFB7CD2DB73EB7285030400FB6F894E0
:102E10003EBF0FBE2DBFEDB7FEB73196ADB7BEB703
:102E20001196EC9211971296FC922AEE31E03383C0
:102E300022838091CE029091CF02A091D002B091D6
:102E4000D10284839583A683B7830E9414308DB703
:102E50009EB708960FB6F8949EBF0FBE8DBF4ECD9D
:102E60008DB79EB708970FB6F8949EBF0FBE8DBF63
:102E70000DB71EB70F5F1F4FADB7BEB712965C926E
:102E80004E9211972BEF31E0F8013383228360E0FB
:102E900070E080E792E42091B6023091B702409151
:102EA000B8025091B9020E941A2AD80114966D9363
:102EB0007D938D939C9317970E941430EDB7FEB7C6
:102EC00038960FB6F894FEBF0FBEEDBFDCCC6401A0
:102ED00053013324A5CC332009F4DAC080E091E01B
:102EE000391609F4FFC0AD85AA2309F0B4C08823C0
:102EF00009F4B1C0BE89BAA3EF89EBA3F88DFCA396
:102F0000298D2DA38A8D9B8DAC8DBD8D8A8B9B8B3E
:102F1000AC8BBD8B3324339491E09D873CCD81E015
:102F200061E00E94A01D00D000D0EDB7FEB7528234
:102F3000418222E532E0348323830E9414300F90D3
:102F40000F900F900F908BE061E00E94A01D00D0C9
:102F500000D0ADB7BEB712965C924E921197EEE4D8
:102F6000F2E01496FC93EE9313970E9414300F90A6
:102F70000F900F900F9083E063E00E94A01D1093CC
:102F8000310300D000D0ADB7BEB712965C924E921E
:102F90001197E7E4F2E01496FC93EE9313970E94E6
:102FA00014300F900F900F900F9081E065E00E9419
:102FB000A01D00D000D0ADB7BEB712965C924E9265
:102FC0001197E2E4F2E01496FC93EE9313970E94BB
:102FD0001430109231030F900F900F900F900E94B9
:102FE000B11D00D000D0ADB7BEB712965C924E9224
:102FF0001197EEE3F2E01496FC93EE9313970E9480
:1030000014300F900F900F900F908AE066E00E94AE
:10301000A01D00D000D0ADB7BEB712965C924E9204
:103020001197E8E3F2E01496FC93EE9313970E9455
:10303000143080E090E0A0E0B0E08E8B9F8BA88FF2
:10304000B98F0F900F900F900F909BCC8CE895E06C
:103050000E947104C5CB882309F49DCCAD85A130B5
:1030600009F099CCCE0104960E9444056090FF01BE
:10307000709000028090010290900202E091E701BE
:10308000F091E801FB87EA87332433941D8683CCD3
:10309000CE0104960E9444056090FF0170900002EA
:1030A0008090010290900202A091E701B091E801A6
:1030B000BB87AA8780E090E0A0E0B0E08A8F9B8F7A
:1030C000AC8FBD8F8E8B9F8BA88FB98F1AA21BA23E
:1030D0001CA21DA28A8B9B8BAC8BBD8B332433949B
:1030E0001D8659CC81E0FFCE3092300300D000D055
:1030F000EDB7FEB75282418220E332E0348323836E
:103100000E941430109230030F900F900F900F9088
:1031100081E061E00E94A01D6A897B898C899D897C
:1031200020E030E040E752E40E941A2A42E252E0F6
:1031300023E232E004E212E00E9479068DB79EB7E6
:1031400008970FB6F8949EBF0FBE8DBFEDB7FEB7C0
:103150003196ADB7BEB712965C924E92119727E2A8
:1031600032E033832283809123028483158280910D
:103170002402868317820E9414308DB79EB708966A
:103180000FB6F8949EBF0FBE8DBF81E065E00E9430
:10319000A01D30923103ADB7BEB718970FB6F894A3
:1031A000BEBF0FBEADBFEDB7FEB7319612965C92B3
:1031B0004E92119721E232E0338322832AA13BA170
:1031C0004CA15DA1C901DA0184839583A683B783ED
:1031D0000E941430109231038DB79EB708960FB637
:1031E000F8949EBF0FBE8DBF0E94B11D00D000D0CD
:1031F000ADB7BEB712965C924E921197EDE1F2E038
:103200001496FC93EE9313970E9414308A899B893D
:10321000AC89BD898A8F9B8FAC8FBD8F2AA13BA1C2
:103220004CA15DA1C901DA018E8B9F8BA88FB98F4C
:10323000640153010F900F900F900F90F1CA48E373
:10324000E42E42E0F42E00D000D0ADB7BEB7129607
:10325000FC92EE9211978FE193E014969C938E93DB
:1032600013970E945D3007E412E0EDB7FEB71283BA
:1032700001838AE193E0948383830E945D301092FE
:103280008302DD24D394D0928F020B5F1F4FADB722
:10329000BEB712961C930E93119785E193E0149696
:1032A0009C938E9313970E945D30D092840210926B
:1032B00090020B5F1F4FEDB7FEB71283018380E1D1
:1032C00093E0948383830E945D3032E0D32ED092CA
:1032D00085021092910285E090E0E80EF91EADB7EC
:1032E000BEB71296FC92EE9211978BE093E0149683
:1032F0009C938E9313970E945D30065F1F4FEDB72E
:10330000FEB71283018387E093E0948383830E9456
:103310005D3010928702D09293020B5F1F4FADB7C2
:10332000BEB712961C930E93119782E093E0149609
:103330009C938E9313970E945D301092880223E035
:10334000D22ED09294020B5F1F4FEDB7FEB71283BF
:1033500001838DEF92E0948383830E945D3010920D
:10336000890294E0C92EC09295020B5F1F4FADB742
:10337000BEB712961C930E9311978AEF92E01496A3
:103380009C938E9313970E945D3010928A0283E67D
:10339000B82EB0929602E5E0F0E0EE0EFF1EADB75B
:1033A000BEB71296FC92EE92119785EF92E01496BA
:1033B0009C938E9313970E945D300B5F1F4FEDB768
:1033C000FEB71283018380EF92E0948383830E948F
:1033D0005D3010928B0285E0809397020B5F1F4F48
:1033E000ADB7BEB712961C930E9311978BEE92E079
:1033F00014969C938E9313970E945D3010928C02CA
:1034000086E0809398020B5F1F4FEDB7FEB71283E3
:10341000018388EE92E0948383830E945D30109252
:103420008D02B0929902D0929B02C0929C02D092DF
:103430009D020F900F900F900F908CE895E040E068
:1034400050E060E070E00E941E040E94181F88E2B5
:103450000E94221E0E940A1E81E061E00E94A01DBF
:1034600000D000D0C3E8D1E0ADB7BEB71296DC9370
:10347000CE93119789ED92E014969C938E931397B7
:103480000E9414300F900F900F900F9083E065E032
:103490000E94A01D0E94331E8CE895E00E947104DA
:1034A00060E971E080E090E00E943704F89489E2DE
:1034B00092E040E050E060E070E00E943F047894C9
:1034C000BCE2AB2EB3E0BB2EA8E2EA2EA3E0FA2EBC
:1034D000F4E2CF2EF3E0DF2E05E014E1E3E09E2ED0
:1034E0008CE895E040E050E060E070E00E941E044F
:1034F0000E940A1E81E061E00E94A01D81E080938D
:10350000300300D000D000D0EDB7FEB73196ADB794
:10351000BEB71296DC93CE931197B382A2828091AC
:103520002D02809FC0011124885C9D4F9583848368
:103530000E9414301092300360912F02E0912D020E
:10354000F0E0E556FD4F8DB79EB706960FB6F8949E
:103550009EBF0FBE8DBF80816817A0F14FC000D005
:1035600000D000D0EDB7FEB73196ADB7BEB712961A
:10357000DC93CE931197D382C282809F9001112455
:1035800080912D02819FC0011124280F391F295BD2
:103590003D4F358324830E941430EDB7FEB7369635
:1035A0000FB6F894FEBF0FBEEDBF60912F026F5FA4
:1035B00060932F02E0912D02F0E0E556FD4F8081EF
:1035C0006817E0F46E5F81E00E94A01D90912E02CA
:1035D00080912F02981719F600D000D000D0EDB7D7
:1035E000FEB73196ADB7BEB71296DC93CE93119766
:1035F000F382E282909F90011124C2CF8CE895E083
:103600000E947104F8948BE292E040E050E060E0A8
:1036100070E00E943F0478948091C701882369F488
:10362000E0912D02F0E0E556FD4F908180912E0251
:10363000981709F444C010922F028091C70181307D
:1036400071F19091C701923009F04ACF20912D027B
:10365000A22FB0E080912E02AA0FBB1FAA0FBB1FA2
:10366000A80FB11DFD01E157FD4FE081EE2369F187
:10367000E43009F467C0E53080F5E23009F44DC06C
:10368000E33008F055C0E13039F480911A0290918E
:103690001B0261E00E947D0310922F0221CF8091D6
:1036A0002E028F5F80932E02E0912D02F0E0E5560E
:1036B000FD4F9081891731F010922F02C2CF1092E6
:1036C0002E02B9CF10922E02F7CFAD57BD4F8C917D
:1036D00080932D0210922E02DFCFE630B1F0E6305B
:1036E00060F0E336C9F620933002AD57BD4F8C91A0
:1036F00080932D0220932E02CFCF80911E029091B5
:103700001F0261E00E947D03C7CF8091200290914B
:10371000210261E00E947D03BFCF81E0809303011D
:1037200080911C0290911D0261E00E947D03B4CF44
:103730009093030180911C0290911D0261E00E9410
:103740007D03AACF9092030180911C0290911D02EB
:1037500061E00E947D03A0CF8AB18F718AB98BB1DD
:10376000806E8BB91092B20092E09093B00087E027
:103770008093B1008FE48093B3009093700060E970
:1037800071E080E090E00E94370411E0F89481E35A
:1037900092E040E050E060E070E00E943F047894E6
:1037A0008091C601833009F46EC0843088F4882388
:1037B00009F05CC0F8941092C7011093C6016091A3
:1037C000C70189E292E070E00E940C037894DECF9A
:1037D000853081F18530F0F08630C1F6F894809123
:1037E000C701813009F481C0809105018F5F80930A
:1037F00005019091050180910B01891710F4109338
:103800000501809120029091210264E00E947D03D5
:103810007894BCCFF8948091C701813009F479C0C5
:103820008091C701823009F488C08091C70183303C
:1038300009F43EC0F8948091C701813009F441C079
:10384000809104018F5F8093040190910401809125
:103850000A01891710F41093040180911E029091BF
:103860001F0264E00E947D03789490CF813009F0BC
:103870008DCFF8946091C7018BE292E070E00E94D6
:103880000C03789483CFF8941093C6011092C7016B
:103890006091C7018BE292E070E00E940C0380917E
:1038A0001A0290911B0262E00E947D0378946ECF11
:1038B00080911C0290911D0268E00E947D03789423
:1038C00065CF8093C6011092C7016091C7018BE25A
:1038D00092E070E00E940C0380911E0290911F0202
:1038E00062E00E947D03789451CF8093C6011092CC
:1038F000C7016091C7018BE292E070E00E940C0367
:10390000809120029091210262E00E947D037894D0
:103910003DCF8093C6011092C7016091C7018BE231
:1039200092E070E00E940C0380911C0290911D02B5
:1039300062E00E947D03789429CF80911C029091CF
:103940001D0264E00E947D03789420CF1F920F92A5
:103950000FB60F9211242F933F934F935F936F9362
:103960007F938F939F93AF93BF93EF93FF93E091D8
:103970003302E13009F467C029B189B149B130E0BF
:1039800036952795329522952F7023273F70232750
:1039900061E070E02627372790E00024880F991F08
:1039A000001C880F991F001C892F902D86279727B0
:1039B000822B817090E0552747FD5095409550959A
:1039C0004427550F441F5527842B952B20E030E0CA
:1039D000EE2311F421E030E082239323892B39F583
:1039E00080913602863080F01092360281E080931A
:1039F00033024D9922C08093C7016091C70181E3D2
:103A000092E070E00E940C030E945104FF91EF913C
:103A1000BF91AF919F918F917F916F915F914F91E6
:103A20003F912F910F900FBE0F901F90189580918E
:103A300036028F5F80933602D5CF4E9B19C04F99C7
:103A4000DCCF83E0D8CF8091340290913502883268
:103A5000910530F4019690933502809334028CCF17
:103A6000109235021092340210923302E0E084CFBB
:103A700082E08093C701C1CF1F920F920FB60F92C1
:103A800011242F933F934F935F936F937F938F9363
:103A90009F93AF93BF93EF93FF93809137028F5F14
:103AA0008093370290E087709070892BB1F5109267
:103AB000370280919E0290919F029093A102809381
:103AC000A002809184009091850090939F02809342
:103AD0009E0210928500109284006091FF01709107
:103AE000000280910102909102022091CC0130915C
:103AF000CD014091CE015091CF010E94B229609337
:103B0000FF0170930002809301029093020289EEFC
:103B100091E065E570E00E940C030E945104FF9162
:103B2000EF91BF91AF919F918F917F916F915F9135
:103B30004F913F912F910F900FBE0F901F901895AE
:103B400096E0899FC00111248A55904024E5629F28
:103B5000B0011124860F971F909333038093320393
:103B6000089580913203909133038455904090934F
:103B70003303809332030895982F87B18C6087B9FF
:103B80004198613049F14298492F50E027E030E0F8
:103B900009C0439A449A4498215030408FEF2F3FF8
:103BA000380791F0CA01022E02C0959587950A94B4
:103BB000E2F780FDEECF4398449A4498215030407C
:103BC0008FEF2F3F380771F7419A87B1837F87B90D
:103BD00088B18C6088B908958091300381119095E7
:103BE000429AD2CF0F931F938C0164E570E00E943C
:103BF000572D806860E00E94BC1DC80164E570E03C
:103C00000E94572D862F806460E00E94BC1D1F918A
:103C10000F910895CF93DF931092330310923203E4
:103C200080E090E00E94F21DC0E0D0E080E061E022
:103C30000E94BC1D219681E0C83FD807B9F7DF91EB
:103C4000CF9108951F93182F81E260E00E94BC1D60
:103C5000812F806860E00E94BC1D80E260E00E94CD
:103C6000BC1D1F9108950F931F93CF93DF93009175
:103C7000320310913303C8010E94F21DC0EAD3E061
:103C8000CE010E94F93061E00E94BC1D219683E0C4
:103C9000CC3DD807A9F70455104010933303009387
:103CA0003203C8010E94F21DC4E6D3E0CE010E9497
:103CB000F93061E00E94BC1D219683E0C03AD8072C
:103CC000A9F7C80184559040909333038093320341
:103CD0000E94F21DC8E2D3E0CE010E94F93061E0FB
:103CE0000E94BC1D219683E0C436D807A9F7DF9156
:103CF000CF911F910F910895AF92BF92DF92EF92F3
:103D0000FF920F931F93CF93DF93D82EE09032034F
:103D1000F0903303C7010E94F21D80913103882384
:103D200041F52D2D30E0C901880F991F880F991F8B
:103D3000820F931FEC01CF59D0408C010A591040DB
:103D4000CE010E94F930880F61E00E94BC1D2196CF
:103D5000C017D107A9F780E061E00E94BC1D86E092
:103D600090E0E80EF91EF0923303E0923203809166
:103D70003103813051F0DF91CF911F910F91FF906E
:103D8000EF90DF90BF90AF9008958BE0D89E5001E8
:103D90001124850101511040C8ECD1E00DC0C801CB
:103DA0000E94F93061E00E94BC1D21960F5F1F4FF9
:103DB00081E0C33DD80729F090E2D91681F7CE0102
:103DC000EFCFE0903203F0903303C7018455904069
:103DD00090933303809332030E94F21D85010156B4
:103DE0001F4FC8E7D2E00DC0C8010E94F93061E062
:103DF0000E94BC1D21960F5F1F4F82E0C338D80779
:103E000029F090E2D91681F7CE01EFCF80E061E092
:103E10000E94BC1D8CE090E0E80EF91EF092330386
:103E2000E0923203A8CF0E947C1E80E090E00895CB
:103E3000409A87B18F6187B96CE370E080E090E0D1
:103E40000E94370440986CE370E080E090E00E94AC
:103E50003704409A419A81E260E00E94BC1D88ECE0
:103E600060E00E94BC1D86E060E00E94BC1D83E112
:103E700060E00E94BC1D80E260E00E94BC1D8CE0FE
:103E800060E00E94BC1D0E940A1E08959093C50028
:103E90008093C40088E18093C10086E08093C200D3
:103EA0000895982F8091C00085FFFCCF9093C600A5
:103EB00008958091C00087FFFCCF8091C6000895CF
:103EC000FC019081992351F08091C00085FFFCCFC7
:103ED0009093C600319690819923B1F7089580910F
:103EE000C000881F8827881F0895982F8091C000E0
:103EF00085FFFCCF9093C60080E090E00895DC0140
:103F00008617970788F48C91853571F4FD0103C0FD
:103F10008081853521F43196E617F707C8F39F01B4
:103F20002A1B3B0BC901089520E030E0FBCFFC01C8
:103F30008617970728F485E58193E617F707E0F3DE
:103F40000895FC01F8948081789408959AE0899FFF
:103F5000F0011124EF5EFE4F6281738180819181B7
:103F60000E947F1F089580915508909156080097F0
:103F700029F06FEF78E00E947F1F08958091AF01D4
:103F80009091B0016FEF78E00E947F1F0895DF935A
:103F9000CF9300D0CDB7DEB781E191E09A838983DA
:103FA00060911301709114016115710579F0FC01A4
:103FB000808191810E94971FE981FA813A96FA8364
:103FC000E983628173816115710591F780915508CC
:103FD00090915608009751F0BE016F5070400E94BA
:103FE000971F0F900F90CF91DF9108958091AF01AF
:103FF0009091B001F1CF611571058105910509F42A
:104000000895FFCF209138033091390340913A034E
:1040100050913B03261737074807590709F40895BD
:10402000FFCF6F927F928F929F92AF92BF92CF926B
:10403000DF92EF92FF920F931F93CF93DF93182F8E
:10404000C0911301D0911401209709F476C031E199
:10405000E32E31E0F32E01E021E9A22E21E0B22E81
:1040600099E4692E93E0792E87E5882E83E0982ED7
:1040700010C0123009F440C02AE030E0E20EF31E16
:104080000F5FD7011296CD91DC911397209709F419
:1040900055C0113071F7073078F781E0602F0E942A
:1040A000A01DD701CD90DC90C601BE010E947F1FEC
:1040B000EDB7FEB73A970FB6F894FEBF0FBEEDBF4F
:1040C0003196ADB7BEB71296BC92AE92119793825D
:1040D00082820483158297838683CC19DD09D18778
:1040E000C0870E941430EDB7FEB73A960FB6F89429
:1040F000FEBF0FBEEDBFC0CF073008F4BDCF602FAD
:10410000665081E00E94A01DD701CD90DC90C601D1
:10411000BE010E947F1FEDB7FEB73A970FB6F89425
:10412000FEBF0FBEEDBF3196ADB7BEB71296BC92C3
:10413000AE92119773826282CCCF01E0113009F404
:1041400052C0123079F0DF91CF911F910F91FF9003
:10415000EF90DF90CF90BF90AF909F908F907F9027
:104160006F900895073078F3065081E0602F0E9429
:10417000A01D8091550890915608009709F458C0E9
:104180006FEF78E00E947F1F2DB73EB72850304078
:104190000FB6F8943EBF0FBE2DBFEDB7FEB73196F8
:1041A00021E931E0ADB7BEB712963C932E9311973B
:1041B0002FE233E0338322839583848380E099E088
:1041C0002091AF013091B001821B930B97838683BE
:1041D0000E941430EDB7FEB738960FB6F894FEBFC4
:1041E0000FBEEDBFB0CF073008F0ADCF81E0602F3C
:1041F0000E94A01D80915508909156080097E9F003
:104200006FEF78E00E947F1FEDB7FEB738970FB6CB
:10421000F894FEBF0FBEEDBF319621E931E0ADB796
:10422000BEB712963C932E9311972CE333E0C2CF86
:104230008091AF019091B001A3CF8091AF01909197
:10424000B001DECFEF92FF920F931F93CF93DF93D6
:1042500000D000D00FE911E0ADB7BEB712961C93A5
:104260000E9311978EE693E014969C938E9313977A
:104270000E94143060911301709114010F900F90FF
:104280000F900F906115710551F1C1E1D1E04AE63F
:10429000E42E43E0F42E888199810E947F1F00D094
:1042A00000D000D0EDB7FEB73196ADB7BEB71296CD
:1042B0001C930E931197F382E282958384830E946C
:1042C00014302A966A817B81EDB7FEB736960FB619
:1042D000F894FEBF0FBEEDBF61157105E1F6809148
:1042E000550890915608009739F16FEF78E00E94D9
:1042F0007F1F00D000D000D0EDB7FEB73196ADB72C
:10430000BEB712961C930E93119725E633E03383C4
:104310002283958384830E941430EDB7FEB73696CE
:104320000FB6F894FEBF0FBEEDBFDF91CF911F9186
:104330000F91FF90EF9008958091AF019091B0019F
:10434000D4CFEF92FF920F931F93CF93DF9300D0C0
:1043500000D00FE911E0ADB7BEB712961C930E93D3
:10436000119786E893E014969C938E9313970E947E
:10437000143020911301309114010F900F900F9081
:104380000F902115310551F1C1E1D1E052E8E52E40
:1043900053E0F52E00D000D000D0EDB7FEB7319637
:1043A000ADB7BEB712961C930E931197F382E282BB
:1043B00088819981281B390B358324830E9414300E
:1043C0002A962A813B81EDB7FEB736960FB6F89450
:1043D000FEBF0FBEEDBF21153105E1F600D000D0C4
:1043E00000D0EDB7FEB73196ADB7BEB712961C93AD
:1043F0000E9311978DE793E09383828380E099E099
:104400002091AF013091B001821B930B958384837F
:104410000E941430EDB7FEB736960FB6F894FEBF83
:104420000FBEEDBFDF91CF911F910F91FF90EF90E5
:104430000895A1E1B0E0EFE1F2E20C948D2D3C0192
:104440007F876E876A01FC0117821682838181FD56
:1044500003C06FEF7FEF6FC39E012F5F3F4F398B1C
:10446000288BF3012381EE85FF8523FD859123FFB2
:104470008191FF87EE87882309F45AC3853251F46E
:10448000EE85FF8523FD859123FF8191FF87EE87D0
:10449000853229F490E0B3010E943130E2CF982FA9
:1044A00010E0882499241032B0F49B3269F09C32D9
:1044B00028F4903251F0933271F40BC09D3239F0F0
:1044C000903349F4116028C01260146025C0186050
:1044D00023C0106121C017FD2AC0892F80538A3064
:1044E00078F416FF06C0FAE09F9E902C1124980ED7
:1044F00013C03AE0839E802C1124880E10620CC0F9
:104500009E3221F416FD14C3106406C09C3611F4CB
:10451000106802C0983659F4EE85FF8523FD959109
:1045200023FF9191FF87EE87992309F0BCCF892F54
:104530008554833020F4812F8061905E07C0892FDD
:104540008556833008F09FC1812F8F7E86FD02C083
:1045500076E0972E6FE3F62EF822953619F4F0E404
:10456000FF2A07C0963619F420E8F22A02C09110FB
:104570009A94F7FE0AC03BE3391518F45CE3B52EB4
:1045800002C0B92CB39427E009C047E0491520F4D4
:10459000BB2447E0942EF7CF292DBB24C6010496F7
:1045A0009D878C87F6016081718182819381AE0144
:1045B0004F5F5F4F0B2D0E94C92E6C010981202E89
:1045C000332400FF04C003FD02C01DE209C0F1FE58
:1045D00002C01BE205C0F2FC02C010E001C010E204
:1045E000C1018C709070892BB9F1112311F483E013
:1045F00001C084E0881510F088240AC0881AF3FCF2
:1046000007C080E290E0B3010E9431308A94C9F77C
:10461000112329F0812F90E0B3010E94313023FE55
:1046200003C004E913E00EC008E913E00BC0E11475
:10463000F10409F0805290E0B3010E9431300F5F25
:104640001F4F05C0EF2CFF24F0E1EF22FF24F801FB
:104650008491882361F714C1F7FE12C0BC0C24FEBC
:1046600004C08A81813309F4BA941B141CF0BB2462
:10467000B3942DC0F8E0FB1550F538E0B32E27C0F9
:10468000F6FC25C0892D90E08C159D054CF02CEF93
:10469000C2162FEFD20624F030E8F32A01C09A9414
:1046A000992049F0E2E0F0E0EC0FFD1FE90DF11D6B
:1046B00080818033A1F3F7FE0AC0B92CB394892D11
:1046C00090E0C816D90614F0992401C09C18F7FC94
:1046D00003C025E030E009C01C141D041CF021E0DB
:1046E00030E003C096012F5F3F4F112311F02F5F81
:1046F0003F4F992029F0892D90E00196280F391F0E
:10470000882D90E02817390714F0882401C0821AF8
:104710004F2C5524C20189709070892B39F008C044
:1047200080E290E0B3010E9431308A948820C1F782
:10473000112329F0812F90E0B3010E94313043FE14
:1047400007C008C080E390E0B3010E9431308A9432
:104750008820C1F7F7FE46C08601D7FE02C000E000
:1047600010E076010894E11CF11CE01AF10A41E026
:1047700050E04C0F5D1FE40EF51E26014B1851084A
:10478000892D90E0AA24BB24A81AB90A5FEF0F3F35
:10479000150729F48EE290E0B3010E943130C01673
:1047A000D10634F0401651061CF4F701808101C097
:1047B00080E3015010400894E11CF11C0A151B0510
:1047C0002CF090E0B3010E943130E0CF0C151D05B4
:1047D00039F49A81963318F4953311F424FE81E369
:1047E00090E04BC08A81813309F00F7E90E0B301E5
:1047F0000E9431309920A1F08EE290E0B3010E9436
:10480000313012E0E1E0F0E0EC0FFD1FE10FF11DAF
:104810001F5F808190E0B3010E9431309A9491F73C
:1048200044FC03C085E690E002C085E490E0B3015B
:104830000E943130D7FC05C0C114D10441F404FFFB
:1048400006C0D094C194D108D3948DE201C08BE20C
:1048500090E0B3010E94313080E305C08F5F26EF06
:104860003FEFC20ED31E3AE0C316D104BCF790E06E
:10487000B3010E943130C601C096B3010E943130AD
:10488000CC84DD8452C1933631F0933799F093355F
:1048900009F059C023C0F601808189835E01089424
:1048A000A11CB11C22E030E0C20ED31E21E0E22E9A
:1048B000F12C12C0F601A080B18016FD03C06FEF8D
:1048C0007FEF02C0692D70E022E030E0C20ED31EFF
:1048D000C5010E94C72F7C011F7713C0F601A0807D
:1048E000B18016FD03C06FEF7FEF02C0692D70E04D
:1048F00022E030E0C20ED31EC5010E94BC2F7C0115
:10490000106813FF07C01BC080E290E0B3010E9453
:1049100031308A94882D90E0E816F906A8F30FC08C
:10492000F50117FD859117FF81915F0190E0B301BB
:104930000E94313081108A940894E108F108E11452
:10494000F10471F7F2C0943611F0993689F517FF2A
:1049500008C0F601208131814281538184E090E0DA
:104960000AC0F601808191819C01442737FD409562
:10497000542F82E090E0C80ED91E9FE6F92EF12256
:1049800057FF09C050954095309521953F4F4F4FA7
:104990005F4F90E8F92ACA01B901AE014F5F5F4F3E
:1049A0002AE030E00E949B30E82EE889EE1A41C0F0
:1049B000953721F41F7E2AE030E01CC0197F9F3616
:1049C00061F0903720F4983509F0B2C00FC09037ED
:1049D00039F0983709F0ACC004C028E030E00AC0D4
:1049E000106114FD146020E130E004C014FD166075
:1049F00020E132E017FF08C0F601608171818281F9
:104A0000938144E050E008C0F60180819181BC01AF
:104A100080E090E042E050E0C40ED51EAE014F5F52
:104A20005F4F0E949B30E82E5889E51A8FE7F82ED9
:104A3000F122F6FE0BC08EEFF822E91438F4F4FEF2
:104A400007C0F2FC05C09FEEF92202C01E2D01C076
:104A5000192DF4FE0DC0FE01EE0DF11D8081803395
:104A600019F4E9EEFE2208C01F5FF2FE05C003C084
:104A70008F2D867809F01F5F0F2DF3FC14C0F0FE18
:104A80000FC0181510F09E2C0BC09E2C980C911A7C
:104A9000182D06C080E290E0B3010E9431301F5F04
:104AA0001815C0F304C0181510F4811A01C0882429
:104AB00004FF0FC080E390E0B3010E94313002FF99
:104AC0001DC001FD03C088E790E00EC088E590E0BE
:104AD0000BC0802F867891F001FF02C08BE201C0ED
:104AE00080E2F7FC8DE290E0B3010E94313006C015
:104AF00080E390E0B3010E9431309A94E914C0F34E
:104B0000EA94E1E0F0E0EC0FFD1FEE0DF11D808175
:104B100090E0B3010E943130EE2091F706C080E2B0
:104B200090E0B3010E9431308A948820C1F799CC7B
:104B3000F30166817781CB016196E2E10C94A92DA6
:104B4000FC0120FD08C023FD05C022FF02C07383C5
:104B50006283518340830895EF92FF920F931F93D6
:104B600044FF02C033E011C046FF02C034E00DC074
:104B7000DB01FC01AA0FBB1FEE1FFF1F1094D1F732
:104B80006A0F7B1F8E1F9F1F31E0660F771F881FE4
:104B9000991F3150D1F77B018C01E20EF11C011DF0
:104BA000111DA8019701B701CA011F910F91FF9034
:104BB000EF9008950F931F93CF93DF938C01C8015B
:104BC0000E94D22FEC0197FD08C00E94A12F892BD3
:104BD000B1F7CE01B8010E948130CE01DF91CF91B3
:104BE0001F910F9108958F929F92AF92BF92DF9283
:104BF000EF92FF920F931F93CF93DF935C01EB0132
:104C00004A01122F0E94D22FAC018B3219F08D3243
:104C100051F41068219709F46DC0C5010E94D22F8C
:104C2000AC0197FD67C06DEFD62ED1228D2D80731C
:104C300001F54033F1F4219709F447C0C5010E9402
:104C4000D22FAC0197FD41C082E0D82A483711F03D
:104C5000483559F480E4D82A2197B9F1C5010E945A
:104C6000D22FAC0199232CF430C0D6FC02C080E1D5
:104C7000D82AEE24FF248701242F2053283088F0DF
:104C8000D4FC09C02A3068F0D6FE05C02F7D822FE3
:104C90008151863028F0CA01B5010E94813012C0CE
:104CA0002750C801B7014D2D0E94AC257B018C0116
:104CB00082E0D82A219761F0C5010E94D22FAC0171
:104CC00097FFDACFD1FC04C015C0EE24FF24870182
:104CD000D7FE08C010950095F094E094E11CF11CFB
:104CE000011D111DC401B801A7012D2D0E94A02591
:104CF00081E001C080E0DF91CF911F910F91FF9083
:104D0000EF90DF90BF90AF909F908F900895A0E2BA
:104D1000B0E0EDE8F6E20C94912D5C016B018A01A4
:104D20007901FE01319680E2DF011D928A95E9F753
:104D300070E030E060E040E050E03F01A1E0B0E032
:104D4000F5018381F70183FD259183FF21917F0187
:104D5000222309F481C02E3519F44115510569F15A
:104D6000872F90E08417950744F42D3551F12D32AB
:104D700021F4332329F431E021C0332309F4622FD5
:104D8000322F832F869586958695F301E80FF11DC6
:104D9000832F87704D0102C0880C991C8A95E2F719
:104DA000208128292083361711F430E007C03617F8
:104DB00010F43F5FE6CF3150E4CF71E04F5F5F4FBB
:104DC000BFCF332319F08E8180628E83772359F011
:104DD000FE0131969E012F5D3F4F8081809581932A
:104DE000E217F307D1F7992493943E010894611CCC
:104DF000711CC5010E94D22FAC0197FD25C086957C
:104E000086958695F301E80FF11D808190E09A0167
:104E10002770307002C0959587952A95E2F780FD3E
:104E200005C0CA01B5010E9481300EC001151105EF
:104E300019F0D8014D938D010894C108D108992427
:104E4000C114D104B1F602C0992031F40115110545
:104E500029F0F801108202C0EE24FF24C701A096B9
:104E6000EEE00C94AD2D2F923F925F926F927F9265
:104E70008F929F92AF92BF92CF92DF92EF92FF926A
:104E80000F931F93CF93DF933C017B011A010E9484
:104E9000D22FEC018B3239F08D3211F0552411C034
:104EA000B0E85B2E01C055240894E108F108E11434
:104EB000F10409F418C1C3010E94D22FEC0197FD3F
:104EC00012C1CE010E94A92F8936910521F08E369C
:104ED000910599F51DC001EB13E01CC00894E10891
:104EE000F108E114F10471F0C3010E94D22FEC012A
:104EF00097FD08C00E94A92FD81661F0CE01B3011A
:104F00000E94813023E0043B120709F0ECC008C086
:104F10000EEA13E0F8010F5F1F4FD490DD20F1F689
:104F2000015B134029F080E090E0A0E8BFE7CFC02C
:104F300080E090E0A0ECBFE7CAC0CC24DD24882448
:104F400099245401AE014053242F4A3038F552E0E1
:104F5000552A852D90E0AC014870507052FE06C075
:104F6000452B11F50894C11CD11C1EC0452B19F00E
:104F70000894C108D108C501B40140E20E94AC25E3
:104F80004B015C0188E9881689E9980689E9A80639
:104F900089E1B80648F094E0592A06C04E3F81F4F2
:104FA00053FC0EC0E8E05E2A0894E108F108E11421
:104FB000F10431F0C3010E94D22FEC0197FFC2CF60
:104FC00051FE91C0C53619F0C53409F046C00894A9
:104FD000E108F108E114F10409F485C0C3010E945D
:104FE000D22FEC0197FD7FC08B3221F08D3269F416
:104FF000F0E15F2A0894E108F108E114F10409F4F2
:1050000072C0C3010E94D22FEC01CE01C0970A9753
:1050100008F069C000E010E0B801882777FD8095AE
:10502000982FAE014053242F40E20E94AC258B0103
:105030000894E108F108E114F10439F0C3010E9479
:10504000D22FEC01C0970A9738F3B80154FE03C081
:10505000709561957F4FC60ED71EEF2831F0D7FDB2
:1050600004C0CE01B3010E948130C501B4010E9489
:10507000AE2AD7FE0DC0ADECEA2EA3E0FA2ED094F6
:10508000C194D108D394C0E2D0E000E010E00EC09B
:10509000F5EEEF2EF3E0FF2EF6CFF70125913591D7
:1050A000459154910E94642BCC1ADD0ACC16DD0682
:1050B000A0F7D695C7950F5F1F4F0630110529F051
:1050C000ECEFFFEFEE0EFF1EF1CFDC01CB0157FC42
:1050D000B0582114310429F0F10180839183A28317
:1050E000B38381E001C080E0DF91CF911F910F91E8
:1050F000FF90EF90DF90CF90BF90AF909F908F90F8
:105100007F906F905F903F902F900895A0E0B0E067
:10511000ECE8F8E20C94902D4C015B013A01FC01A3
:1051200017821682552404C1812F90E00E94A12F7E
:10513000892B21F0C4010E94DA25FAC0153249F406
:10514000F501F3FC6591F3FE61915F01653269F44D
:1051500015E2C4010E94D22F97FDF6C0181709F47A
:10516000E7C0B4010E948130F4C06A3219F0162FF2
:1051700000E006C0F3FC1591F3FE11915F0101E020
:10518000CC24DD240EC00260B60180E090E040E255
:105190000E94AC256B01F501F3FC1591F3FE119112
:1051A0005F01212F20532A3070F301FD04C0CC246D
:1051B000CA94DC2C04C0C114D10409F4CAC0183646
:1051C00021F01C3699F4F5010BC0F501F3FC659153
:1051D000F3FE6191683619F05F01162F07C0086071
:1051E0000460F3FC1591F3FE11915F01112309F4A2
:1051F000B0C08CE993E0612F70E00E94B12F892B41
:1052000009F4A7C0802F00FF03C0EE24FF2407C0CD
:10521000F301E080F18022E030E0620E731E1E3662
:1052200051F4F4014681578160E070E0C701202FFE
:105230000E94A0257DC01336B9F481FD03C081E032
:10524000C82ED12CC4010E94D22F97FD7DC0E1143D
:10525000F10419F0F70181937F010894C108D10886
:10526000C114D10479F762C01B3559F4C401B601E9
:10527000A70195010E9487265C01009709F056C09E
:1052800050C0C4010E94DA2597FD5EC01F36D1F1DF
:10529000103738F41436A1F11936A9F11835D1F5C3
:1052A0002DC0133751F0143718F4103799F526C074
:1052B000153731F1183771F521C0C4010E94D22F82
:1052C000EC0197FD15C00E94A12F892B29F0CE017A
:1052D000B4010E9481300CC0E114F10419F0F7010F
:1052E000C1937F010894C108D108C114D10429F7E2
:1052F000E114F104D9F0F701108218C0006403C072
:10530000006201C00061C401B601A701202F0E9404
:10531000F32505C0C401B601A7010E9433278823E5
:1053200029F4F4018381807379F413C000FF53944E
:10533000F401F380F501F3FC1591F3FE11915F0187
:10534000112309F0F1CE05C0552019F42FEF3FEFDE
:1053500002C0252D30E0C901CDB7DEB7EFE00C94D7
:10536000AC2D5058BB27AA270ED070C161D130F0A8
:1053700066D120F031F49F3F11F41EF456C10EF4B3
:10538000E095E7FB4CC1E92F72D180F3BA176207B1
:1053900073078407950718F071F49EF58AC10EF41F
:1053A000E0950B2EBA2FA02D0B01B90190010C0135
:1053B000CA01A0011124FF27591B99F0593F50F44D
:1053C000503E68F11A16F040A22F232F342F4427A5
:1053D000585FF3CF469537952795A795F04053959D
:1053E000C9F77EF41F16BA0B620B730B840BBAF06D
:1053F0009150A1F0FF0FBB1F661F771F881FC2F7D8
:105400000EC0BA0F621F731F841F48F487957795EB
:105410006795B795F7959E3F08F0B3CF9395880FA2
:1054200008F09927EE0F979587950895D4D008F442
:1054300081E008950CD00AC102D140F0F9D030F0DB
:1054400021F45F3F19F0EBC0511134C1EEC00FD110
:1054500098F39923C9F35523B1F3951B550BBB273B
:10546000AA2762177307840738F09F5F5F4F220FE8
:10547000331F441FAA1FA9F333D00E2E3AF0E0E8E1
:1054800030D091505040E695001CCAF729D0FE2F2D
:1054900027D0660F771F881FBB1F261737074807BF
:1054A000AB07B0E809F0BB0B802DBF01FF27935875
:1054B0005F4F2AF09E3F510568F0B1C0FBC05F3FCF
:1054C000ECF3983EDCF3869577956795B795F7955D
:1054D0009F5FC9F7880F911D9695879597F9089555
:1054E000E1E0660F771F881FBB1F621773078407F1
:1054F000BA0720F0621B730B840BBA0BEE1F88F700
:10550000E0950895BCD088F09F5790F0B92F992767
:10551000B751A0F0D1F0660F771F881F991F1AF0BE
:10552000BA95C9F712C0B13081F0C3D0B1E0089587
:10553000C0C0672F782F8827B85F39F0B93FCCF308
:10554000869577956795B395D9F73EF490958095B4
:10555000709561957F4F8F4F9F4F0895E89409C0D4
:1055600097FB3EF490958095709561957F4F8F4F96
:105570009F4F9923A9F0F92F96E9BB279395F695AC
:10558000879577956795B795F111F8CFFAF4BB0F2A
:1055900011F460FF1BC06F5F7F4F8F4F9F4F16C08E
:1055A000882311F096E911C0772321F09EE8872F18
:1055B000762F05C0662371F096E8862F70E060E0D4
:1055C0002AF09A95660F771F881FDAF7880F96954D
:1055D000879597F90895990F0008550FAA0BE0E8F1
:1055E000FEEF16161706E807F907C0F012161306A5
:1055F000E407F50798F0621B730B840B950B39F4E5
:105600000A2661F0232B242B252B21F408950A264A
:1056100009F4A140A6958FEF811D811D089597F98A
:105620009F6780E870E060E008959FEF80EC089548
:1056300000240A9416161706180609060895002471
:105640000A9412161306140605060895092E0394EB
:10565000000C11F4882352F0BB0F40F4BF2B11F45F
:1056600060FF04C06F5F7F4F8F4F9F4F089557FDBE
:105670009058440F551F59F05F3F71F04795880FC0
:1056800097FB991F61F09F3F79F087950895121657
:1056900013061406551FF2CF4695F1DF08C0161603
:1056A00017061806991FF1CF8695710561050894B4
:1056B0000895E894BB2766277727CB0197F90895CB
:1056C0008ADF08F48FEF08950BD0C0CFB1DF28F048
:1056D000B6DF18F0952309F0A2CFA7CF1124EACFA7
:1056E000C6DFA0F3959FD1F3950F50E0551F629F41
:1056F000F001729FBB27F00DB11D639FAA27F00D2B
:10570000B11DAA1F649F6627B00DA11D661F829F51
:105710002227B00DA11D621F739FB00DA11D621F36
:10572000839FA00D611D221F749F3327A00D611D53
:10573000231F849F600D211D822F762F6A2F112435
:105740009F5750408AF0E1F088234AF0EE0FFF1F88
:10575000BB1F661F771F881F91505040A9F79E3FBF
:10576000510570F05CCFA6CF5F3FECF3983EDCF3C1
:10577000869577956795B795F795E7959F5FC1F7FC
:10578000FE2B880F911D9695879597F90895FA013C
:10579000EE0FFF1F30962105310599F16115710556
:1057A00061F48038BFE39B0749F168949038810524
:1057B00061F08038BFEF9B0741F0992342F5FF3F2E
:1057C000E1053105210511F1E8940894E795D90127
:1057D000AA2329F4AB2FBE2FF85FD0F310C0FF5FD0
:1057E00070F4A695E0F7F73950F019F0FF3A38F465
:1057F0009F779F930CD00F9007FC905808953EF030
:1058000014CF60E070E080E89FE308954FE79F7752
:105810005F934F933F932F939ED02F913F914F9142
:105820005F9152DF05C019F40EF0F9CE42CFFDCEE4
:1058300026DFC8F39638C0F707F80F92E8942BE3F9
:105840003AEA48EB5FE74EDF0F920F920F924DB7A7
:105850005EB70F92C0D0E8E6F0E016D04F915F91AE
:10586000EF91FF91E595EE1FFF1F49F0FE57E068AD
:105870004427EE0F441FFA95E1F74195550B32D0BE
:105880000F9007FE26C00895DF93CF931F930F93C9
:10589000FF92EF92DF927B018C01689405C0DA2EB3
:1058A000EF011EDFFE01E894A59125913591459108
:1058B0005591AEF3EF0167DDFE019701A801DA947F
:1058C00079F7DF90EF90FF900F911F91CF91DF91CB
:1058D00008959B01AC0160E070E080E89FE3AACDF1
:1058E0009ECEACC0CCDEE8F39923D9F3940F511DC2
:1058F000BBF39150504094F059F0882332F0660F7A
:10590000771F881F91505040C1F79E3F510544F7C3
:10591000880F911D9695879597F908955F3FACF094
:10592000983E9CF0BB27869577956795B79508F4C8
:10593000B1609395C1F7BB0F58F711F460FFE8CF42
:105940006F5F7F4F8F4F9F4FE3CFB4CE0EF076C087
:105950006CCE689464CE93DEC8F39923D1F3C6F37A
:10596000DF93CF931F930F93FF92C92FDD278823D7
:105970002AF02197660F771F881FDAF720E030E0C2
:1059800040E85FEB9FE3883920F0803E30F02196BD
:105990008F77E8DCE0E9F0E003C0E4DCEDEBF0E079
:1059A00073DF8B01BE01EC01FB2E6F5771097595FA
:1059B000771F880B990BD4DD28E132E741E35FE3E1
:1059C0008FDEAF2D9801AE01FF900F911F91CF9107
:1059D000DF91D9DC3BCEFA01DC01AA0FBB1F9B0192
:1059E000AC01BF5728F422273327442750781FC023
:1059F000B75188F4AB2F0024469537952795011CA5
:105A0000A395D2F3002069F0220F331F441FB395F2
:105A1000DAF30DD0A6CC61307105A0E88A07B9464B
:105A200030F49B01AC016627772788279078309661
:105A300021F0208331834283538308959F3F31F0C7
:105A4000915020F4879577956795B795880F911DAC
:105A50009695879597F90895629FD001739FF001FD
:105A6000829FE00DF11D649FE00DF11D929FF00DEE
:105A7000839FF00D749FF00D659FF00D9927729F25
:105A8000B00DE11DF91F639FB00DE11DF91FBD01B0
:105A9000CF0111240895991B79E004C0991F96172E
:105AA00008F0961B881F7A95C9F780950895AA1B60
:105AB000BB1B51E107C0AA1FBB1FA617B70710F0F9
:105AC000A61BB70B881F991F5A95A9F7809590952B
:105AD000BC01CD010895A1E21A2EAA1BBB1BFD013A
