:100000000C9466020C94A0210C9483020C9483023D
:100010000C9483020C9483020C9483020C9472213E
:100020000C9483020C9483020C9483020C9483023C
:100030000C9483020C9483020C94C3090C948302E5
:100040000C9483020C9483020C945D090C942B098C
:100050000C9483020C9483020C9483020C9483020C
:100060000C9483020C94830207634236B79BD8A793
:100070001A39685618AEBAAB558C1D3CB7CC5763CD
:10008000BD6DEDFD753EF6177231BF000000803F7B
:1000900008000000BE922449123EABAAAA2ABECD97
:1000A000CCCC4C3E00000080BEABAAAAAA3E000009
:1000B0000000BF000000803F000000000008417801
:1000C000D3BB4387D1133D190E3CC3BD4282AD2B38
:1000D0003E68EC8276BED98FE1A93E4C80EFFFBE30
:1000E00001C4FF7F3F00000000004669726D776128
:1000F00072652076302E330025312E306620572051
:100100002020002D2D2D205700506F77657220453F
:100110007374696D6174650025312E306620572037
:100120002020002D2D2D205700506F77657200255F
:10013000312E3366206B672A6D5E32004D2D496E7D
:10014000657274696120284A290025312E346600C1
:100150002D2D2D2D2D2D004B5F44616D702045738D
:10016000742E0025312E3466004B5F44616D7000A3
:1001700025312E3266207320202020002D2D2D2D9C
:1001800020730054696D652F5374726F6B65002581
:10019000312E3266206D20202020002D2D2D2D2087
:1001A0006D00446973742F5374726F6B6500253151
:1001B0002E3366206D00446973742F5265760020DB
:1001C0006B63616C73200025332E3066002532642A
:1001D0003A25303264002D2D3A2D2D002057202055
:1001E000200025332E3066002D2D2D002053504D3C
:1001F00020200025332E3066002D2D2D0025326461
:100200003A25303264002532643A253032640025C4
:10021000332E306600206D200025342E30660025F8
:1002200032643A2530326400202A20002020200049
:100230002D2D3A2D2D00206D20002D2D2D2D002D42
:100240002D3A2D2D20002D2D2D002D2D3A2D2D0058
:100250002532643A25303264002D2D3A2D2D0025AB
:10026000312E30662057202020002D2D2D205700C4
:1002700025312E32662020005323202564202020A3
:1002800020006176672025322E3066006176672077
:100290002D2D0053504D2025322E30662020005346
:1002A000504D202D2D20200025312E3066206D65EB
:1002B0007465727320202020002532643A25303284
:1002C00064002053617261682773204572676F2054
:1002D000002F2F0048656170004461746100496E11
:1002E000666F002F2F004275726E005061636500CB
:1002F000442F540050726F6700496E666F00507251
:100300006F6700526F7721004572676F0020257379
:10031000003E257300257300486561703A2025640E
:100320002F25642000486561703A2025642F2564DC
:10033000200054686425643A2025642F2564200039
:1003400054686425643A2025642F256420002564C0
:100350000D0A0025642000556E7573656420537482
:1003600061636B3A200025640D0A00256420005368
:100370007461636B2053697A65733A20006E616E15
:1003800000696E66006364696E6F70737578585BA0
:1003900065666745464700616E006E66696E697402
:1003A0007900CDCCCC3D0AD7233C17B7D13877CCD8
:1003B0002B329595E6241FB14F0A00002041000022
:1003C000C84200401C4620BCBE4CCA1B0E5AAEC5DB
:1003D0009D7400407A10F35A00A0724E1809001064
:1003E000A5D4E80000E87648170000E40B540200AA
:1003F00000CA9A3B000000E1F505000080969800D5
:10040000000040420F000000A086010000001027FD
:1004100000000000E803000000006400000000008D
:100420000A00000000000100000000002C76D888BF
:10043000DC674F0823DFC1DFAE59E1B1B796E5E3D2
:10044000E453C63AE651997696E8E6C28426EB89EB
:100450008C9B62ED407C6FFCEFBC9C9F40F2BAA588
:100460006FA5F490055A2AF75C936B6CF9676DC120
:100470001BFCE0E40D47FEF520E6B500D0ED902E24
:100480000300943577050080841E080000204E0A82
:10049000000000C80C333333330F986E12831141C0
:1004A000EF8D2114893BE65516CFFEE6DB18D1848B
:1004B0004B381BF77C1D901DA4BBE42420328472B2
:1004C0005E228100C9F124ECA1E53D2711241FBE65
:1004D000CFEFD8E0DEBFCDBF11E0A0E0B1E0E2E4B5
:1004E000FAE602C005900D92A03CB107D9F718E0DA
:1004F000A0ECB1E001C01D92AC37B107E1F70E945A
:100500009D0B0C941F350C9400002F923F924F923C
:100510005F926F927F928F929F92AF92BF92CF9293
:10052000DF92EF92FF920F931F93CF93DF93FB0124
:100530000DB600820EB60182FC0100800DBE018066
:100540000EBEDF91CF911F910F91FF90EF90DF9042
:10055000CF90BF90AF909F908F907F906F905F9063
:100560004F903F902F9008957894C201F101099522
:1005700080E090E00E94BD020895F894FFCFCF93F1
:10058000DF938091440390914503A0914603B0917D
:1005900047030196A11DB11D809344039093450329
:1005A000A0934603B0934703C8E4D3E02FEF3FEF97
:1005B0008D819E81AF81B8850097A105B10551F16C
:1005C0008D819E81AF81B8850197A109B1098D8385
:1005D0009E83AF83B8878D819E81AF81B885009758
:1005E000A105B105B9F48A818330E1F0823001F1CF
:1005F0003C832B831A821D821E821F821886809163
:10060000420390914303C817D90720F4D0934303C2
:10061000C09342032A9683E0C23AD80749F6DF9195
:10062000CF910895EB81FC8180818F5F8083E0CF43
:10063000EB81FC8111821082DBCF089578940895BC
:1006400080E008950895FC0174836383128215820B
:100650001682178210868091420390914303E81717
:10066000F90720F4F0934303E0934203CF01089588
:10067000DC01ED91FC9111973097A1F01D921C9235
:10068000748363831282158216821782108680918A
:10069000420390914303E817F90720F4F0934303D2
:1006A000E09342030895DC018C918F5F8C938C91D1
:1006B00018160CF4089580914B0390914C038A17FF
:1006C0009B07D9F0E8E4F3E03A96838194818A1796
:1006D0009B07D1F714821382128215821682178229
:1006E00010868091420390914303E817F90710F7B1
:1006F000F0934303E09342030895E8E4F3E0EACF84
:10070000DC012C916C9327FF23C040914203509150
:100710004303E8E4F3E06EEF7FEF03C027FF14C06C
:100720003A96838194818A179B07C1F72F5F748360
:10073000638312821582168217821086E417F507EA
:1007400068F7AF0127FDECCF50934303409342037A
:100750000895FC018185682B61878281843009F0CE
:10076000089583816823E1F3148213821282158233
:100770001682178210868091420390914303E817F6
:10078000F90770F7F0934303E09342030895A091B3
:100790004003B091410312968C93129715964D9396
:1007A0005D936D937C93189780914A038823C9F0D9
:1007B000E8E4F3E03A9682818823E1F7F09343037B
:1007C000E0934203F0934103E0934003CF01BD0166
:1007D0000E948502E0914003F0914103838194815E
:1007E0000895E8E4F3E0EACF0F931F93CF93DF93EC
:1007F000082FC0914003D09141039985182F1923E8
:1008000089F44F3F8FEF58078FEF68078FEF780716
:1008100099F00B8384E00E94C70397FD0DC0998572
:10082000102F1923812F809589238987812FDF91AC
:10083000CF911F910F9108957894812FDF91CF91DF
:100840001F910F910895F8940E94F40378940895ED
:10085000DC018C91181634F481508C9320E030E048
:10086000C90108954F3F9FEF59079FEF69079FEF19
:10087000790719F42FEF3FEFF3CF81508C93E0917C
:100880004003F0914103B483A38383E00E94C70334
:100890009C01E6CFF8940E94280478940895AB0157
:1008A000BC01F8948091440390914503A0914603C4
:1008B000B0914703481B590B6A0B7B0B81E00E94E8
:1008C000C70378940895AB01BC01F89481E00E94BD
:1008D000C70378940895DC0180914003909141030F
:1008E00011969C938E93E0914003F0914103B48361
:1008F000A38382E00E94C703089560914003709132
:10090000410380914203909143036817790731F0C6
:1009100090934103809340030E9485020895F894C8
:100920000E94A9030E947D0478940895F8940E947F
:1009300080030E947D0478940895F8940E945303E4
:100940000E947D0478940895CF93DF9324EB32E0E6
:10095000832F992787FD9A95482F68E473E0DB0180
:10096000CBE2D1E0EA81FB8175971196FC93EE937F
:100970008E81828BED91FC9111978E819F81892FC1
:10098000990F990B818BED91FC9111978885808B44
:10099000ED91FC91119788859985892F990F990B75
:1009A0008787ED91FC911197438BED91FC91119705
:1009B000248B1A962A9683E0A23AB80799F6709388
:1009C0004303609342037093410360934003CB0160
:1009D000BD010E9485027894DF91CF9108950E9415
:1009E000A50883E191E00E94A6080E9442080E94A7
:1009F000E9090E945E0808950F931F93FC0110827D
:100A00001282118270876783728761877483638320
:100A1000640F751F76836583348723871687058760
:100A20001F910F9108950F931F93FC011082528321
:100A30004183708767837287618774836383640FE0
:100A4000751F7683658334872387168705871F91F3
:100A50000F9108954F925F926F927F928F929F9223
:100A6000AF92BF92CF92DF92EF92FF920F931F93BC
:100A7000CF93DF93EC016B017A0138014901AB841C
:100A8000BC84F8942C0100E010E089819A810097E1
:100A900051F101979A838983F6018081EF81F8856E
:100AA0008193F887EF838D819E81E817F90720F005
:100AB0008B819C8198878F83A114B10419F0CE019A
:100AC000F501099578940F5F1F4F0894E108F1082C
:100AD000E114F10481F00894C11CD11CF8948981BF
:100AE0009A810097B1F6C201B401A3010E944A04A1
:100AF000892B59F27894C801DF91CF911F910F9102
:100B0000FF90EF90DF90CF90BF90AF909F908F902D
:100B10007F906F905F904F900895BF92CF92DF9239
:100B2000EF92FF920F931F93CF93DF93EC01B62EBA
:100B300079018A01F8946C0189819A810097A1F466
:100B4000C601B801A7010E944A049C0197FFF4CF97
:100B50007894C901DF91CF911F910F91FF90EF9091
:100B6000DF90CF90BF90089501979A838983EF819A
:100B7000F885B192F887EF838D819E81E817F90798
:100B800020F08B819C8198878F83EB85FC85309743
:100B900011F0CE010995789420E030E0DACF4F9241
:100BA0005F926F927F928F929F92AF92BF92CF92FD
:100BB000DF92EF92FF920F931F93CF93DF93EC019D
:100BC0004B012A01780189016B847C84F8945C01D3
:100BD000CC24DD246114710419F0CE01F3010995D0
:100BE00089819A810097D1F4C501B801A7010E94BB
:100BF0004A04892BA9F37894C601DF91CF911F9104
:100C00000F91FF90EF90DF90CF90BF90AF909F90AB
:100C10008F907F906F905F904F90089501979A8387
:100C20008983E985FA858191D4018C93FA87E987D4
:100C30008D819E81E817F90760F478940894C11CAF
:100C4000D11C4C145D04C1F20894811C911CF894D1
:100C5000C1CF8B819C819A878987EFCFCF92DF921A
:100C6000EF92FF920F931F93CF93DF93EC017A01E2
:100C70008B01F894EB85FC85309709F009956E019E
:100C800089819A81009799F4C601B801A7010E9451
:100C90004A049C0197FFF4CF7894C901DF91CF916A
:100CA0001F910F91FF90EF90DF90CF9008950197E3
:100CB0009A838983E985FA852191FA87E9878D816D
:100CC0009E81E817F90720F08B819C819A8789879C
:100CD000789430E0E2CF1F93DC0117968D919C91C0
:100CE00018971996ED91FC911A978E179F0741F16D
:100CF00011968D919C911297019612969C938E93CA
:100D0000119711911A96FC93EE93199715968D9160
:100D10009C911697E817F90750F4CD0160E070E058
:100D20000E948808212F30E0C9011F910895139671
:100D30008D919C9114971A969C938E931997EDCF51
:100D400011968D919C911297892B19F480E090E077
:100D5000D3CF2DEF3FEFE8CFDC011796ED91FC915B
:100D6000189719968D919C911A97E817F90739F100
:100D700011968D919C911297019612969C938E9349
:100D8000119761931896FC93EE93179715968D9192
:100D90009C911697E817F90748F4CD0160E070E0E0
:100DA0000E94880820E030E0C901089513968D91D3
:100DB0009C91149718969C938E931797EECF11964B
:100DC0008D919C911297892B19F480E090E0D4CFFB
:100DD0002CEF3FEFE9CFFC0123813481308727835B
:100DE0003287218785819681821B930B9283818331
:100DF000CF016EEF7FEF0E9461080895FC018381AF
:100E00009481908787839287818712821182CF0194
:100E10006EEF7FEF0E9461080895DC01ED91FC9177
:100E20001197208130E013960C90139702C03595EE
:100E300027950A94E2F712968C9182230895FC017B
:100E4000A081B18112963C911297828123816823FF
:100E500070E0022E02C0660F771F0A94E2F790E05E
:100E600002C0880F991F2A95E2F780958323862B6D
:100E700012968C930895FC01462F628170E00380E6
:100E800002C0660F771F0A94E2F7808191810E9469
:100E9000B40808950F931F93CF93DF938C014A9664
:100EA0000E946B06EC0197FD06C0CE01DF91CF9149
:100EB0001F910F910895F80182819381A481B581DA
:100EC000886082839383A483B5830680F781E02DB5
:100ED000309759F3C80102960995CE01DF91CF9161
:100EE0001F910F9108951F93CF93DF93EC01162F5D
:100EF0008C859D85892B81F48A819B81AC81BD8104
:100F000084608A839B83AC83BD83EE81FF813097AD
:100F100019F0CE0102960995CE010B96612F0E9421
:100F2000AC0697FD04C0DF91CF911F9108958A818F
:100F30009B81AC81BD8180688A839B83AC83BD83A8
:100F4000EE81FF81309779F3CE0102960995DF910A
:100F5000CF911F9108950F931F938C01F8940E94D5
:100F6000170981E0F8018287C8014A960E94EB06C2
:100F7000C8010B960E94FE060E947D0478941F9182
:100F80000F9108950F931F938C01F8940E94E0082D
:100F900082E0F801828778941F910F910895CF9293
:100FA000DF92EF92FF920F931F937C019B016A01E6
:100FB00080E091E0F7019183808312821382148292
:100FC0001582178216821186108681E08287B7010A
:100FD000675D7F4FC7010B9640E150E087010E949B
:100FE000FC04B701675C7F4FC7014A9640E150E0BF
:100FF00096010E9413051F910F91FF90EF90DF90D3
:10100000CF9008950F931F930B960E94CF051F91C9
:101010000F9108950F931F930B9600E010E020E0CE
:1010200030E00E94CF051F910F9108950F931F93F9
:101030004A960E942A051F910F9108950F931F93BE
:101040004A9600E010E020E030E00E942A051F915F
:101050000F9108950B960E942E0608950B9640E07E
:1010600050E060E070E00E942E0608954A960E94CB
:101070008D0508954A9620E030E040E050E00E945F
:101080008D0508950E942209089570938900609348
:10109000880082E086BB80936F00089510926F00F5
:1010A0000895709389006093880008958091880066
:1010B00090918900BC0180E090E008950E94B809F9
:1010C0000895CF92DF92FF920F931F93CF93DF93F8
:1010D0008C016B01FC01F0801082F7FE0BC0C8E4AC
:1010E000D3E001C02A968B819C818017910751F033
:1010F000F7FCF8CFDF91CF911F910F91FF90DF9018
:10110000CF900895F394CE01B6010E942303F0CF4F
:10111000DC018C9187FF089580914B0390914C03E3
:101120008A179B0779F0E8E4F3E03A96838194818B
:101130008A179B07D1F78C918F5F8C93CF010E9408
:1011400023030895E8E4F3E0F6CF0895FC018081DD
:1011500085B9818184B9828188B9838187B9848185
:101160008BB985818AB90895FC01423099F04330EA
:1011700078F0453079F04630B1F04330B9F48181F0
:10118000962F9095982391838281862B8283089550
:10119000442369F48181962F9095892381838281EC
:1011A0009823928308958181862B8183089541300D
:1011B00031F30895E1ECF0E080818062808308954E
:1011C000FB0161157105B9F08C5A934009F008953F
:1011D000808191818093C4009093C5001092C000DB
:1011E00088E98093C10062816130A1F0613030F400
:1011F0001092C2000895E0E1F1E0E6CF623031F0F4
:10120000643061F086E08093C200089584E08093AA
:10121000C200089582E08093C20008958091C100C9
:1012200084608093C10086E08093C20008958C5A48
:10123000934009F008951092C0001092C1001092DE
:10124000C20008958CEA93E060E070E04AED58E057
:101250000E94CF0708951F920F920FB60F9211248C
:101260002F933F934F935F936F937F938F939F93AE
:10127000AF93BF93EF93FF938CEA93E00E944A07EA
:1012800097FD15C08093C6000E947D04FF91EF91E9
:10129000BF91AF919F918F917F916F915F914F918E
:1012A0003F912F910F900FBE0F901F901895809136
:1012B000C1008F7D8093C100E7CF1F920F920FB6C0
:1012C0000F9211242F933F934F935F936F937F93CC
:1012D0008F939F93AF93BF93EF93FF939091C00031
:1012E000892F8C7139F193FD3EC020E030E040E061
:1012F00050E092FD206294FD20648091AE039091B5
:10130000AF03A091B003B091B103282B392B4A2B26
:101310005B2B2093AE033093AF034093B003509305
:10132000B103E091B203F091B303309719F08EEA64
:1013300093E009956091C6008CEA93E00E947307E0
:101340000E947D04FF91EF91BF91AF919F918F918A
:101350007F916F915F914F913F912F910F900FBEB1
:101360000F901F90189520E830E040E050E0C1CF8A
:1013700082E084BD93E095BD9FE197BD16BC85BB1F
:1013800080936E0008951F920F920FB60F92112452
:101390002F933F934F935F936F937F938F939F937D
:1013A000AF93BF93EF93FF930E94BF020E947D040F
:1013B000FF91EF91BF91AF919F918F917F916F912D
:1013C0005F914F913F912F910F900FBE0F901F9003
:1013D000189587E08093690081E08DBB0895109295
:1013E000C6011092C7011092C8011092C9018091E4
:1013F000440390914503A0914603B0914703809325
:10140000CA019093CB01A093CC01B093CD01089574
:10141000FC01F8948091C4019091C5019583848367
:101420008091C0019091C101A091C201B091C3010E
:1014300080839183A283B38378940895CF92DF92BF
:10144000EF92FF920F931F936C01F894E090C40108
:10145000F090C5016091C0017091C1018091C201FD
:101460009091C3017894F6012081318142815381AA
:10147000621B730B840B950B28EE33E040E050E0C9
:101480000E9447319B01AC01F60184819581A0E067
:10149000B0E0281B390B4A0B5B0B00E010E02E0D6F
:1014A0003F1D401F511FB901CA011F910F91FF90AD
:1014B000EF90DF90CF900895FC01F8948091C401E3
:1014C0009091C5012091C0013091C1014091C201AC
:1014D0005091C301789480819181A281B381281BAE
:1014E000390B4A0B5B0BB901CA010895F89420919E
:1014F000C0013091C1014091C2015091C301789463
:10150000B901CA010895F8941092C0011092C10166
:101510001092C2011092C301789408951092C601EE
:101520001092C7011092C8011092C9018091440322
:1015300090914503A0914603B09147038093CA015F
:101540009093CB01A093CC01B093CD01F89420915E
:1015500044033091450340914603509147038091E5
:10156000CA019091CB01A091CC01B091CD0179013C
:101570008A01E81AF90A0A0B1B0BE092CE01F092DD
:10158000CF010093D0011093D1012093CA01309371
:10159000CB014093CC015093CD0178946091CE0162
:1015A0007091CF018091D0019091D1010091C4013F
:1015B0001091C50128EE33E040E050E00E94473131
:1015C00022E43FE040E050E00E948631020F131F0A
:1015D0001093C5010093C4018091C4019091C5018D
:1015E000885E934050F18091C0019091C101A0911B
:1015F000C201B091C3010196A11DB11D8093C0012C
:101600009093C101A093C201B093C3018091C60120
:101610009091C701A091C801B091C9010196A11D87
:10162000B11D8093C6019093C701A093C801B093E8
:10163000C9011092C5011092C4016091C00170915E
:10164000C1018091C2019091C3010E94C92E20E086
:1016500030E040E752E40E94352E6093CB04709353
:10166000CC048093CD049093CE0464EC70E080E0D1
:1016700090E00E9463046ACF6F927F928F929F9254
:10168000AF92BF92CF92DF92EF92FF920F931F9390
:101690006B017C015A014901380120E030E040E74C
:1016A00052E40E94352E0E949D2EF501608370E069
:1016B000882777FD8095982F0E94CB2E20E030E080
:1016C00040E752EC0E947F2FA70196010E94CD2D8A
:1016D0005B016C010E949D2EE62EF4016083C60121
:1016E000B50120E030E040E752E40E947F2F5B012B
:1016F0006C01FF2400E010E0C801B7010E94C92E70
:1017000020E030E040E752EC0E947F2F9B01AC01CB
:10171000C601B5010E94CD2D0E949D2EF30160836C
:101720001F910F91FF90EF90DF90CF90BF90AF90FF
:101730009F908F907F906F9008950E94E22381E0A8
:101740008093E1050E94EF040E94A404FFCF4F9212
:101750005F926F927F928F929F92AF92BF92CF9241
:10176000DF92EF92FF920F931F93CF93DF932C01A1
:101770000F2EF0E0AF2EF0E0BF2EF0E0CF2EF0E025
:10178000DF2EF02D35014601C4E0D0E0BE018827F0
:1017900077FD8095982F0E94CB2E9B01AC0160E0D5
:1017A00070E080E090E40E94E22F7B018C01C40194
:1017B000B301A80197010E94CD2D3B014C01C80146
:1017C000B701F20121913191419151912F010E9474
:1017D0007F2F9B01AC01C601B5010E94CD2D5B019D
:1017E0006C012197FFEFCF3FDF0781F6A401930142
:1017F0000E94352EDF91CF911F910F91FF90EF90B6
:10180000DF90CF90BF90AF909F908F907F906F9020
:101810005F904F900895DF93CF9300D000D0CDB765
:10182000DEB71092800083E08093810087E0809390
:10183000690011E01DBB10928500109284008FEFAB
:1018400095E0A2E0BAE38093D3019093D401A093F2
:10185000D501B093D6018CE09CEAA4EBBEE3809363
:10186000D7019093D801A093D901B093DA0166EC27
:101870007DE280E090E00E9463041092AB0210923F
:10188000AA021092AD021092AC0280E090E0A0E0BB
:10189000B0E080931E0390931F03A0932003B093A6
:1018A00021038093220390932303A0932403B093F6
:1018B00025038093260390932703A0932803B093D6
:1018C000290380932A0390932B03A0932C03B093B6
:1018D0002D0310932E0310922F038093DB0190931E
:1018E000DC01A093DD01B093DE01E0E080E020E0C8
:1018F00030E040E050E0F0E0EE0FFF1FEE0FFF1F82
:10190000DF01AA53BD4F2D933D934D935C931397E5
:10191000DF01A65FBC4F2D933D934D935C931397CE
:10192000DF01A252BD4F2D933D934D935C931397CE
:10193000DF01AE50BD4F2D933D934D935C931397B4
:10194000E255FD4F2083318342835383E82FEF5FBD
:101950008E2FE53080F2E093DF011092E0011092CB
:10196000E1012093E2013093E3014093E4015093BD
:10197000E5012093E6013093E7014093E80150939D
:10198000E9012093EA013093EB014093EC0150937D
:10199000ED012093EE013093EF014093F00150935D
:1019A000F10180E393E00E94080A86E393E00E943D
:1019B000080A1092F3011092F201F89484EF91E07A
:1019C00040E050E060E070E00E946B047894609129
:1019D000AA027091AB0280E090E00E94C92E2DEB2C
:1019E00037E346E057E30E947F2F1B012C016093F1
:1019F000F6017093F7018093F8019093F9018091BB
:101A00001E0390911F03A0912003B09121038983AD
:101A10009A83AB83BC838093220390932303A09388
:101A20002403B09325036091AA027091AB02E09069
:101A3000AC02F090AD0280E090E00E94C92E5B0104
:101A40006C0100E010E0C801B7010E94C92E9B01A3
:101A5000AC01C601B5010E94CD2D2DEB37E346E860
:101A600056E30E947F2F9B01AC016AED7FE089EC79
:101A700090E40E94352E7B018C0160931E037093CD
:101A80001F0380932003909321036090260370909E
:101A90002703809028039090290360922A03709274
:101AA0002B0380922C0390922D03C201B10127E1F8
:101AB00037EB41ED58E30E94CD2D5B016C01C8016D
:101AC000B70129813A814B815C810E94CC2DA6010E
:101AD00095010E94352E1B012C0160932603709303
:101AE00027038093280390932903A40193010E9464
:101AF000CC2DA60195010E94352E7B018C016093AF
:101B0000FA017093FB018093FC019093FD0120E0AA
:101B100030E040E252EC0E947B2F18160CF098C087
:101B2000C801B70120E030E040E252E40E94312ECB
:101B300088230CF08DC01092E101C201B10120E0B8
:101B400030E040E751E40E947B2F18160CF084C06F
:101B5000A1E0A093E0019091E101913009F483C0EC
:101B60008091E001813009F4B9C180912E03809306
:101B70002F0310922E0380912F03813009F4B8C1F6
:101B800080912E03813009F435C1882309F015CFE7
:101B900080912F03882309F010CFA0901E03B090EE
:101BA0001F03C0902003D0902103C601B50127E197
:101BB00037EB41ED58E30E94CD2D9B01AC01E09045
:101BC000F601F090F7010091F8011091F9010E94DF
:101BD0007F2F9B01AC0160912603709127038091B8
:101BE0002803909129030E94352EA80197010E9495
:101BF0007F2F9B01AC016091FE017091FF018091EC
:101C00000002909101020E94CD2D6093FE0170931D
:101C1000FF018093000290930102C601B501A80163
:101C200097010E947F2F9B01AC016091020270918D
:101C3000030280910402909105020E94CD2D6093D1
:101C40000202709303028093040290930502B5CEC2
:101C500091E09093E10171CF1092E0019091E10148
:101C6000913009F07DCF80912E0380932F039093C4
:101C70002E03882309F084CF86E393E00E94080AAC
:101C800080E090E0A0E0B0E08093E6019093E7016F
:101C9000A093E801B093E9018093E2019093E301FE
:101CA000A093E401B093E5018091FE029091FF02C0
:101CB000A0910003B091010380930203909303036A
:101CC000A0930403B09305038091FA029091FB0264
:101CD000A091FC02B091FD028093FE029093FF025E
:101CE000A0930003B09301038091F6029091F70254
:101CF000A091F802B091F9028093FA029093FB024E
:101D0000A093FC02B093FD028091F2029091F30245
:101D1000A091F402B091F5028093F6029093F7023D
:101D2000A093F802B093F9026091EA017091EB017F
:101D30008091EC019091ED012091EE013091EF0145
:101D40004091F0015091F1010E94CC2D2DEB37E331
:101D500046E855E30E94CD2D9B01AC016091FE0148
:101D60007091FF0180910002909101020E94352E36
:101D70006093F2027093F3028093F4029093F50261
:101D800082EF92E00E94A70B609306037093070313
:101D9000809308039093090360911E0370911F03C1
:101DA00080912003909121032091F6013091F70159
:101DB0004091F8015091F9010E947F2F9B01AC01E5
:101DC00060910202709103028091040290910502D9
:101DD0000E94CD2D6093020270930302809304024F
:101DE0009093050280912E03882309F4C4CE81309C
:101DF00009F0CBCE80912F03813009F0DECDE09049
:101E00001E03F0901F030091200310912103A09066
:101E1000F601B090F701C090F801D090F901C80127
:101E2000B7012AE037ED43E25EE30E947F2F209165
:101E300026033091270340912803509129030E94E3
:101E40007F2FA60195010E947F2F9B01AC0160911D
:101E5000E6017091E7018091E8019091E9010E940B
:101E6000CD2D6093E6017093E7018093E801909394
:101E7000E901C801B701A80197010E947F2F9B01CA
:101E8000AC01C801B7010E947F2F2091D30130918E
:101E9000D4014091D5015091D6010E947F2F9B0122
:101EA000AC01C601B5010E947F2F9B01AC0160917E
:101EB000E2017091E3018091E4019091E5010E94BB
:101EC000CD2D6093E2017093E3018093E401909340
:101ED000E501C801B701A6019501A3CE80912E03AB
:101EE000813009F044CE80932F0380932E0348CE97
:101EF0008091F2019091F30101969093F301809308
:101F0000F20180E090E0A0E0B0E08093FE019093C9
:101F1000FF01A0930002B093010286E393E00E94C8
:101F20001E0A0E94C92E20E030E04AE754E40E94D5
:101F3000352E6093EE017093EF018093F001909342
:101F4000F10180E393E00E941E0A0E94C92E20E066
:101F500030E04AE754E40E94352E6093EA01709322
:101F6000EB018093EC019093ED0180E393E00E94FC
:101F7000080A6091EA017091EB018091EC01909167
:101F8000ED0127E137EB41ED58E30E94CD2D7B01B8
:101F90008C01609102027091030280910402909181
:101FA0000502A80197010E94352E609306027093E6
:101FB0000702809308029093090280E090E0A0E07D
:101FC000B0E08093020290930302A0930402B093C6
:101FD000050260910A0270910B0280910C029091AF
:101FE0000D0220910E0230910F024091100250918B
:101FF00011020E94CC2D6093120270931302809301
:1020000014029093150220910A0230910B02409124
:102010000C0250910D0220930E0230930F02409358
:102020001002509311022091160330911703409132
:1020300018035091190320931A0330931B03409304
:102040001C0350931D032091120330911303409100
:1020500014035091150320931603309317034093F4
:1020600018035093190320910E0330910F034091F0
:1020700010035091110320931203309313034093E4
:1020800014035093150320910A0330910B034091E0
:102090000C0350910D0320930E0330930F034093D4
:1020A000100350931103A80197010E94352E6093ED
:1020B0000A0370930B0380930C0390930D038AE043
:1020C00093E00E94A70B609316027093170280930F
:1020D00018029093190227E137EB41ED58E30E9473
:1020E000CD2D9B01AC0160E070E08AEF93E40E948B
:1020F000352E60931A0270931B0280931C029093FA
:102100001D0220E030E040E752E40E94352E4EE10F
:1021100052E02FE132E000E212E00E943C0B80919D
:10212000EA029091EB02A091EC02B091ED02809353
:10213000EE029093EF02A093F002B093F10280912F
:10214000E6029091E702A091E802B091E902809343
:10215000EA029093EB02A093EC02B093ED0280911F
:10216000E2029091E302A091E402B091E502809333
:10217000E6029093E702A093E802B093E90280910F
:10218000DE029091DF02A091E002B091E102809323
:10219000E2029093E302A093E402B093E50260911F
:1021A000EA017091EB018091EC019091ED0127E142
:1021B00037EB41ED58E30E94CD2D9B01AC016091BE
:1021C000EE017091EF018091F0019091F1010E9478
:1021D000352E6093DE027093DF028093E0029093CD
:1021E000E1028EED92E00E94A70B609321027093B2
:1021F000220280932302909324028091D202909134
:10220000D302A091D402B091D5028093D6029093CC
:10221000D702A093D802B093D9028091CE029091B8
:10222000CF02A091D002B091D1028093D2029093BC
:10223000D302A093D402B093D5028091CA029091A8
:10224000CB02A091CC02B091CD028093CE029093AC
:10225000CF02A093D002B093D1028091C602909198
:10226000C702A091C802B091C9028093CA0290939C
:10227000CB02A093CC02B093CD026091E6017091A5
:10228000E7018091E8019091E9012091E20130910C
:10229000E3014091E4015091E5010E94CD2D7B01C5
:1022A0008C016091EA017091EB018091EC019091B9
:1022B000ED0127E137EB41ED58E30E94CD2D9B0165
:1022C000AC01C801B7010E94352E6093C60270931D
:1022D000C7028093C8029093C90286EC92E00E94E4
:1022E000A70B7B018C016093DA027093DB02809371
:1022F000DC029093DD0220E030E040E251E40E94F5
:102300007B2F181694F5C801B70120E030E040E8B3
:1023100050E40E947F2F20E030E04FEA53E40E9417
:10232000CD2D2091EA013091EB014091EC015091CB
:10233000ED010E947F2F26E636ED42E855E40E942B
:10234000352E9B01AC016091DB017091DC01809125
:10235000DD019091DE010E94CD2D6093DB01709331
:10236000DC018093DD019093DE018091BA029091AF
:10237000BB02A091BC02B091BD028093BE029093BB
:10238000BF02A093C002B093C1028091B6029091A7
:10239000B702A091B802B091B9028093BA029093AB
:1023A000BB02A093BC02B093BD028091B202909197
:1023B000B302A091B402B091B5028093B60290939B
:1023C000B702A093B802B093B9028091AE02909187
:1023D000AF02A091B002B091B1028093B20290938B
:1023E000B302A093B402B093B5028091EA01909138
:1023F000EB01A091EC01B091ED018093AE029093BE
:10240000AF02A093B002B093B1028EEA92E00E94B4
:10241000A70B6093C2027093C3028093C40290938F
:10242000C502AECB809140039091410390932C0262
:1024300080932B0210E006E01AC082E04FEF5FEFBE
:102440006FEF7FEF0E942304823081F184E04FEF31
:102450005FEF6FEF7FEF0E942304843021F1113092
:10246000E9F061ED73E080E090E00E94630481E0B8
:102470004FEF5FEF6FEF7FEF0E9423048130E9F6AB
:1024800081EE95E040E050E060E070E00E944A0498
:10249000009319010E946E2211E0CFCF80911F019D
:1024A0000E942C24DECF0E946E22D9CF81EE95E0CF
:1024B0000E949D0410E0CACF809140039091410397
:1024C00090932A0280932902CFE8D1E039E6232EA7
:1024D00031E0332E2AEE422E20E0522ECE01FC2E89
:1024E000E92E0F2EFFE5AF2EF9E2BF2EFBE4CF2E33
:1024F000FBE3DF2EF02D0F2EFAE06F2EF7ED7F2E8F
:10250000F3E28F2EFEE39F2EF02D81E040E050E0BD
:1025100060E070E00E94230481EE95E040E050E02E
:1025200060E070E00E944A0485E0809319010E94F7
:102530006E2201E01AC084E04FEF5FEF6FEF7FEF94
:102540000E9423048430E9F080911E018230F9F06A
:10255000833009F476C1813009F4C1C061ED73E0C4
:1025600080E090E00E94630400E082E04FEF5FEFC4
:102570006FEF7FEF0E942304823009F4DEC2013046
:10258000D1F60E946E2280911E01823009F781E00F
:1025900061E00E94042200D000D0EDB7FEB7D283E4
:1025A000C183348223820E942F340F900F900F90AA
:1025B0000F9081E062E00E9404228DB79EB70897D9
:1025C0000FB6F8949EBF0FBE8DBFEDB7FEB7319624
:1025D000ADB7BEB71296DC93CE93119783E691E028
:1025E00093838283A482B582C682D7820E942F34CD
:1025F000ADB7BEB718960FB6F894BEBF0FBEADBF4D
:1026000081E063E00E94042200D000D0EDB7FEB765
:10261000D283C18387E591E0948383830E942F3422
:102620000F900F900F900F9081E064E00E940422C1
:102630008091F2019091F301059708F050C200D00B
:1026400000D0ADB7BEB71196FC9211971296EC92DE
:102650001297E0E5F1E01496FC93EE9313970E9435
:102660002F340F900F900F900F9081E065E00E9443
:10267000042200D000D0EDB7FEB7D283C1838CE333
:1026800091E0948383830E942F340F900F900F90DA
:102690000F9081E066E00E940422ADB7BEB71897A4
:1026A0000FB6F894BEBF0FBEADBFEDB7FEB7319603
:1026B0001296DC93CE9311978FE291E093838283FD
:1026C00064827582868297820E942F34ADB7BEB72E
:1026D00018960FB6F894BEBF0FBEADBF3FCF81E0D6
:1026E00061E00E94042200D000D0ADB7BEB71296C0
:1026F000DC93CE931197E6EBF1E01496FC93EE9306
:1027000013970E942F340F900F900F900F9081E03D
:1027100062E00E9404228DB79EB708970FB6F89426
:102720009EBF0FBE8DBFEDB7FEB73196ADB7BEB73A
:102730001296DC93CE9311978EEA91E09383828375
:102740008091D7019091D801A091D901B091DA017F
:1027500084839583A683B7830E942F34ADB7BEB719
:1027600018960FB6F894BEBF0FBEADBF81E063E010
:102770000E94042200D000D0EDB7FEB7D283C183FF
:1027800082EA91E0948383830E942F340F900F900C
:102790000F900F9081E064E00E9404228091F2018A
:1027A0009091F301059708F06DC100D000D0ADB74E
:1027B000BEB71196FC9211971296EC921297EBE924
:1027C000F1E01496FC93EE9313970E942F340F9030
:1027D0000F900F900F9081E065E00E94042200D0DE
:1027E00000D0EDB7FEB7D283C18383E891E0948334
:1027F00083830E942F340F900F900F900F9081E0F1
:1028000066E00E9404228091F2019091F301059705
:1028100008F098C000D000D0ADB7BEB71196FC92BA
:1028200011971296EC921297ECE7F1E01496FC9354
:10283000EE9313970E942F340F900F900F900F90EC
:102840008DCE81E061E00E94042200D000D0EDB77F
:10285000FEB7D283C18389E291E0948383830E948F
:102860002F340F900F900F900F9081E062E00E9444
:1028700004228091F2019091F301059708F0D5C0F0
:1028800000D000D0ADB7BEB71196FC92119712964A
:10289000EC921297E3E2F1E01496FC93EE93139717
:1028A0000E942F340F900F900F900F9081E063E003
:1028B0000E94042200D000D0EDB7FEB7D283C183BE
:1028C00089E091E0948383830E942F340F900F90CE
:1028D0000F900F9081E064E00E9404228091F20149
:1028E0009091F301059708F05AC000D000D0ADB721
:1028F000BEB71196FC9211971296EC921297E3E0F4
:10290000F1E01496FC93EE9313970E942F340F90EE
:102910000F900F900F9081E065E00E94042200D09C
:1029200000D0ADB7BEB71296DC93CE931197149634
:102930005C924E9213970E942F340F900F900F903D
:102940000F900CCE8DB79EB708970FB6F8949EBF28
:102950000FBE8DBFEDB7FEB73196ADB7BEB71196BE
:10296000FC9211971296EC9280E791E09383828318
:102970008091C2029091C302A091C402B091C5029D
:1029800084839583A683B7830E942F34ADB7BEB7E7
:1029900018960FB6F894BEBF0FBEADBFDFCD6091E5
:1029A000060270910702809108029091090220E0CE
:1029B00030E040E450E40E94E22F9B01AC018DB76F
:1029C0009EB708970FB6F8949EBF0FBE8DBF0DB788
:1029D0001EB70F5F1F4FADB7BEB71196FC92119790
:1029E0001296EC9288EF90E0F80193838283CA01FB
:1029F000B9012091D3013091D4014091D50150917A
:102A0000D6010E947F2FD80114966D937D938D93EC
:102A10009C9317970E942F34EDB7FEB738960FB6E8
:102A2000F894FEBF0FBEEDBF76CF8DB79EB7089767
:102A30000FB6F8949EBF0FBE8DBFEDB7FEB73196AF
:102A4000ADB7BEB71196FC9211971296EC9288E141
:102A500091E0938382838091DA029091DB02A091CE
:102A6000DC02B091DD0284839583A683B7830E9444
:102A70002F34ADB7BEB718960FB6F894BEBF0FBED1
:102A8000ADBF14CF8DB79EB708970FB6F8949EBF11
:102A90000FBE8DBFEDB7FEB73196ADB7BEB711967D
:102AA000FC9211971296EC928FE891E093838283C7
:102AB0008091120290911302A0911402B09115021C
:102AC00084839583A683B7830E942F34ADB7BEB7A6
:102AD00018960FB6F894BEBF0FBEADBF7CCE8DB7B3
:102AE0009EB708970FB6F8949EBF0FBE8DBFEDB787
:102AF000FEB73196ADB7BEB71196FC9211971296FC
:102B0000EC928AE491E0938382838091F202909127
:102B1000F302A091F402B091F502B058848395833A
:102B2000A683B7830E942F34ADB7BEB718960FB6F1
:102B3000F894BEBF0FBEADBF98CD81EE95E00E9468
:102B40009D04E3CC80914003909141039093260231
:102B500080932502CFE8D1E058E7452E52E0552E6C
:102B600040E7242E42E0342E3E0181E040E050E078
:102B700060E070E00E94230481EE95E040E050E0C8
:102B800060E070E00E944A0423E0209319010E9453
:102B90006E2281E061E00E94042281E080933C0388
:102BA00000D000D0ADB7BEB71296DC93CE9311978C
:102BB000E2ECF2E01496FC93EE9313970E942F340C
:102BC00010923C030F900F900F900F902EC100D0E9
:102BD00000D0ADB7BEB711966C92119712967C9249
:102BE0001297EFE9F2E01496FC93EE9313970E948C
:102BF0002F340F900F900F900F9089E062E00E94A9
:102C000004226091F2017091F3016230710508F4C1
:102C100020C210912D02112309F030C290902E0293
:102C2000992009F410C280902F0280E090E00E9469
:102C3000C92E5B016C01612F70E080E090E00E9482
:102C4000C92E20E030E040E752E40E947F2F7B0154
:102C50008C01692D70E080E090E00E94C92E9B01FC
:102C6000AC01C801B7010E94CD2D7B018C01682DFC
:102C700070E080E090E00E94C92E20E030E040E764
:102C800052E40E94352E9B01AC01C801B7010E949D
:102C9000CD2D9B01AC01C601B5010E94352E9B01D3
:102CA000AC012093300230933102409332025093B2
:102CB00033022DB73EB7285030400FB6F8943EBFD0
:102CC0000FBE2DBFEDB7FEB73196ADB7BEB71296AA
:102CD000DC93CE93119722E832E033832283CB0139
:102CE000DA0184839583A683B7830E942F348DB73E
:102CF0009EB708960FB6F8949EBF0FBE8DBF81E0B9
:102D000063E00E94042200D000D000D0EDB7FEB7EF
:102D10003196ADB7BEB71296DC93CE93119753821E
:102D200042828091F2019091F301958384830E9405
:102D30002F34EDB7FEB736960FB6F894FEBF0FBE30
:102D4000EDBF8BE063E00E9404222DB73EB7285010
:102D500030400FB6F8943EBF0FBE2DBFEDB7FEB7A3
:102D60003196ADB7BEB71296DC93CE9311973382EE
:102D700022828091210290912202A0912302B0919F
:102D8000240284839583A683B7830E942F34EDB7F2
:102D9000FEB738960FB6F894FEBF0FBEEDBF84E0C5
:102DA00064E00E9404228091F2019091F301059762
:102DB00008F01BC100D000D0ADB7BEB711966C9221
:102DC000119712967C921297EAE6F2E01496FC9321
:102DD000EE9313970E942F340F900F900F900F9047
:102DE0008AE066E00E9404228091F2019091F30152
:102DF0000A9708F0D1C000D000D0ADB7BEB7129688
:102E0000DC93CE931197E9E5F2E01496FC93EE93F0
:102E100013970E942F340F900F900F900F9068E53A
:102E200075E080E090E00E94630482E04FEF5FEF86
:102E30006FEF7FEF0E942304823009F424C183E006
:102E400066E00E9404226091CB047091CC048091D2
:102E5000CD049091CE044DE252E02EE232E00FE23A
:102E600012E00E943C0B2DB73EB7285030400FB601
:102E7000F8943EBF0FBE2DBFEDB7FEB73196ADB78C
:102E8000BEB71296DC93CE93119729EB32E03383D1
:102E9000228380912E028483158280912F02868363
:102EA00017820E942F348DB79EB708960FB6F894FC
:102EB0009EBF0FBE8DBF83E065E00E94042240915B
:102EC0000A0250910B0260910C0270910D02ADB795
:102ED000BEB718970FB6F894BEBF0FBEADBFEDB723
:102EE000FEB731961296DC93CE93119728EA32E022
:102EF0003383228344835583668377830E942F34F0
:102F00008DB79EB708960FB6F8949EBF0FBE8DBFC3
:102F100081E062E00E9404228091F2019091F3012D
:102F2000059708F454CE2DB73EB7285030400FB661
:102F3000F8943EBF0FBE2DBF0DB71EB70F5F1F4FDA
:102F4000ADB7BEB711966C92119712967C9223E999
:102F500032E0F8013383228360E070E080E792E49E
:102F60002091C2023091C3024091C4025091C50227
:102F70000E94352ED80114966D937D938D939C936A
:102F800017970E942F34EDB7FEB738960FB6F89416
:102F9000FEBF0FBEEDBF31CE2DB73EB7285030403B
:102FA0000FB6F8943EBF0FBE2DBFEDB7FEB73196FA
:102FB000ADB7BEB71296DC93CE93119720E532E001
:102FC0003383228380911F028483158280912002A3
:102FD000868317820E942F348DB79EB708960FB64E
:102FE000F8949EBF0FBE8DBF1ACF2DB73EB72850A5
:102FF00030400FB6F8943EBF0FBE2DBFEDB7FEB701
:103000003196ADB7BEB711966C92119712967C921D
:103010002FE532E0338322838091DA029091DB0244
:10302000A091DC02B091DD0284839583A683B783EF
:103030000E942F348DB79EB708960FB6F8949EBFA6
:103040000FBE8DBFCDCE80902F02FDE1F81508F4A4
:10305000ECCD00D000D0ADB7BEB71296DC93CE93C6
:103060001197ECE8F2E01496FC93EE9313970E940C
:103070002F340F900F900F900F9041CE90902E0212
:1030800080902F02D2CD81EE95E00E949D046DCDFF
:10309000DF93CF93CDB7DEB7A5970FB6F894DEBF19
:1030A0000FBECDBF19821A821B828091400390917E
:1030B0004103909328028093270280E090E0A0E0F3
:1030C000B0E08A8F9B8FAC8FBD8F8E8B9F8BA88F2C
:1030D000B98F3C014D011AA21BA21CA21DA28A8B12
:1030E0009B8BAC8BBD8B8E879F87A88BB98B1C86E7
:1030F0001B861A866FE8462E61E0562E7201222446
:10310000239481E040E050E060E070E00E942304FE
:1031100081EE95E040E050E060E070E00E944A04FB
:1031200094E0909319010E946E223324A1E0AD87B0
:1031300010C0133009F483C2113009F4B0C0640127
:10314000530161ED73E080E090E00E94630435017B
:10315000460182E04FEF5FEF6FEF7FEF0E942304A5
:10316000823009F404C410911D01123011F783E07C
:1031700062E00E94042220923D038091F20190912E
:10318000F301059708F0FDC200D000D0EDB7FEB7FF
:103190005282418229EF31E0348323830E942F340D
:1031A0000F900F900F900F9010923D030E941522E8
:1031B00000D000D0ADB7BEB712965C924E92119778
:1031C000ECEEF1E01496FC93EE9313970E942F34EB
:1031D0000F900F900F900F9083E064E00E94042204
:1031E00020923D038091F2019091F301059708F040
:1031F0009AC200D000D0ADB7BEB71196EC9211972D
:103200001296FC921297E8EEF1E01496FC93EE937E
:1032100013970E942F340F900F900F900F901092E1
:103220003D030E94152200D000D0ADB7BEB7129664
:103230005C924E921197ECEDF1E01496FC93EE93B4
:1032400013970E942F340F900F900F900F9081E0F2
:1032500066E00E94042220923D038091F201909149
:10326000F3010A9708F035C200D000D0ADB7BEB761
:103270001196EC9211971296FC921297E6EDF1E0FE
:103280001496FC93EE9313970E942F340F900F9097
:103290000F900F9010923D036401530152CF3320E1
:1032A00009F4CEC284E04FEF5FEF6FEF7FEF0E9433
:1032B0002304843009F4A0C288E04FEF5FEF6FEF82
:1032C0007FEF0E942304883009F492C2F1E03F1698
:1032D00009F035CF81E066E00E9404222D8522238B
:1032E00009F093C300D000D0ADB7BEB712965C9280
:1032F0004E921197ECE2F2E01496FC93EE93139742
:103300000E942F340F900F900F900F9081E061E09A
:103310000E940422CE0104960E945C0A0E94C92EDB
:103320002A893B894C895D890E94CD2D6A8F7B8FCC
:103330008C8F9D8F20E030E040E752E40E94352ED4
:103340004DE252E02EE232E00FE212E00E943C0B2E
:103350002DB73EB7285030400FB6F8943EBF0FBE91
:103360002DBFEDB7FEB73196ADB7BEB712965C92E2
:103370004E9211972FE132E03383228380912E0207
:103380008483158280912F02868317820E942F34B6
:10339000A0900A02B0900B02C0900C02D0900D02D7
:1033A000C601B501A40193010E94CC2D9B01AC0183
:1033B0006E897F89888D998D0E94CD2D6E8B7F8B34
:1033C000888F998F8DB79EB708960FB6F8949EBFD9
:1033D0000FBE8DBF81E065E00E94042230923D0364
:1033E000ADB7BEB718970FB6F894BEBF0FBEADBF4E
:1033F000EDB7FEB7319612965C924E92119729E185
:1034000032E0338322838E899F89A88DB98D84838E
:103410009583A683B7830E942F3410923D03ADB7E6
:10342000BEB718960FB6F894BEBF0FBEADBF0E94D0
:10343000152200D000D0EDB7FEB75282418225E1BF
:1034400032E0348323830E942F348091F2019091E3
:10345000F301AA85BB858A1B9B0B0F900F900F90E1
:103460000F90079708F46DCE8BE061E00E94042274
:10347000ADB7BEB718970FB6F894BEBF0FBEADBFBD
:103480000DB71EB70F5F1F4F1196EC921197129652
:10349000FC922FE032E0F8013383228360E070E099
:1034A00080E792E42091C2023091C3024091C402AD
:1034B0005091C5020E94352ED80114966D937D93CC
:1034C0008D939C9317970E942F34EDB7FEB73896D3
:1034D0000FB6F894FEBF0FBEEDBF83E063E00E941D
:1034E000042230923D032DB73EB7285030400FB62E
:1034F000F8943EBF0FBE2DBFEDB7FEB73196ADB706
:10350000BEB712965C924E92119726E032E033835A
:10351000228380911F0284831582809120028683FA
:1035200017820E942F3410923D033C853F5F3C87F9
:103530006A8D7B8D8C8D9D8D20E030E04AEF53E4C9
:103540000E947F2F6E8F7F8F88A399A36E897F89BA
:10355000888D998D27E137EB41ED58E30E94CD2D01
:103560009B01AC016E8D7F8D88A199A10E94352EA3
:103570009B01AC016E857F85888999890E94CD2D3C
:103580006E877F87888B998B8C8562E30E9466317A
:10359000ADB7BEB718960FB6F894BEBF0FBEADBF9D
:1035A000992309F0CECD8AE066E00E9404226E8560
:1035B0007F858889998920E030E048E452E40E94C0
:1035C000352E20E030E040E752E40E94352EAE0177
:1035D0004F5F5F4F9E012E5F3F4F8E010D5F1F4F6C
:1035E0000E943C0BEDB7FEB738970FB6F894FEBFBC
:1035F0000FBEEDBF3196ADB7BEB712965C924E923C
:1036000011972DEF31E0338322838A8184831582E1
:103610008B81868317820E942F3480E090E0A0E0A7
:10362000B0E08E879F87A88BB98B1C86ADB7BEB7DD
:1036300018960FB6F894BEBF0FBEADBF82CD2092D4
:103640003D0381E062E00E940422ADB7BEB7189747
:103650000FB6F894BEBF0FBEADBFEDB7FEB7319643
:1036600012965C924E92119727EC31E033832283BD
:103670008091DB019091DC01A091DD01B091DE0130
:1036800084839583A683B7830E942F3410923D03D1
:103690008DB79EB708960FB6F8949EBF0FBE8DBF2C
:1036A0000E94152200D000D0ADB7BEB712965C9232
:1036B0004E921197EFEBF1E01496FC93EE93139773
:1036C0000E942F34640153010F900F900F900F90C0
:1036D00038CD2DB73EB7285030400FB6F8943EBFD6
:1036E0000FBE2DBFEDB7FEB73196ADB7BEB7119681
:1036F000EC9211971296FC922DEC31E033832283E9
:1037000080911F0284831582809120028683178214
:103710000E942F348DB79EB708960FB6F8949EBFBF
:103720000FBE8DBFB7CD2DB73EB7285030400FB676
:10373000F8943EBF0FBE2DBFEDB7FEB73196ADB7C3
:10374000BEB71196EC9211971296FC9222EE31E0E0
:10375000338322838091DA029091DB02A091DC0214
:10376000B091DD0284839583A683B7830E942F34B2
:103770008DB79EB708960FB6F8949EBF0FBE8DBF4B
:103780004ECD8DB79EB708970FB6F8949EBF0FBE6B
:103790008DBF0DB71EB70F5F1F4FADB7BEB71296E7
:1037A0005C924E92119723EF31E0F801338322832C
:1037B00060E070E080E792E42091C2023091C302A1
:1037C0004091C4025091C5020E94352ED801149632
:1037D0006D937D938D939C9317970E942F34EDB733
:1037E000FEB738960FB6F894FEBF0FBEEDBFDCCC27
:1037F000640153013324A5CC332009F4DAC080E0FE
:1038000091E0391609F4FFC0AD85AA2309F0B4C0D0
:10381000882309F4B1C0BE89BAA3EF89EBA3F88D60
:10382000FCA3298D2DA38A8D9B8DAC8DBD8D8A8B9C
:103830009B8BAC8BBD8B3324339491E09D873CCD27
:1038400081E061E00E94042200D000D0EDB7FEB715
:10385000528241822AE432E0348323830E942F344F
:103860000F900F900F900F908BE061E00E94042268
:1038700000D000D0ADB7BEB712965C924E921197B1
:10388000E6E4F2E01496FC93EE9313970E942F3433
:103890000F900F900F900F9083E063E00E9404223E
:1038A00010933D0300D000D0ADB7BEB712965C9226
:1038B0004E921197EFE3F2E01496FC93EE93139778
:1038C0000E942F340F900F900F900F9081E065E0D1
:1038D0000E94042200D000D0ADB7BEB712965C9211
:1038E0004E921197EAE3F2E01496FC93EE9313974D
:1038F0000E942F3410923D030F900F900F900F9065
:103900000E94152200D000D0ADB7BEB712965C92CF
:103910004E921197E6E3F2E01496FC93EE93139720
:103920000E942F340F900F900F900F908AE066E066
:103930000E94042200D000D0ADB7BEB712965C92B0
:103940004E921197E0E3F2E01496FC93EE931397F6
:103950000E942F3480E090E0A0E0B0E08E8B9F8B3F
:10396000A88FB98F0F900F900F900F909BCC81EE86
:1039700095E00E949D04C5CB882309F49DCCAD85BC
:10398000A13009F099CCCE0104960E94080A6090FB
:103990000A0270900B0280900C0290900D02E09150
:1039A000F201F091F301FB87EA87332433941D86FB
:1039B00083CCCE0104960E94080A60900A0270909F
:1039C0000B0280900C0290900D02A091F201B09138
:1039D000F301BB87AA8780E090E0A0E0B0E08A8F87
:1039E0009B8FAC8FBD8F8E8B9F8BA88FB98F1AA2A8
:1039F0001BA21CA21DA28A8B9B8BAC8BBD8B33247C
:103A000033941D8659CC81E0FFCE30923C0300D028
:103A100000D0EDB7FEB75282418228E232E0348313
:103A200023830E942F3410923C030F900F900F902D
:103A30000F9081E061E00E9404226A897B898C8971
:103A40009D8920E030E040E752E40E94352E4DE2AF
:103A500052E02EE232E00FE212E00E943C0B8DB702
:103A60009EB708970FB6F8949EBF0FBE8DBFEDB7F7
:103A7000FEB73196ADB7BEB712965C924E921197D3
:103A80002FE132E03383228380912E0284831582DA
:103A900080912F02868317820E942F348DB79EB7A4
:103AA00008960FB6F8949EBF0FBE8DBF81E065E00B
:103AB0000E94042230923D03ADB7BEB718970FB6EF
:103AC000F894BEBF0FBEADBFEDB7FEB731961296EC
:103AD0005C924E92119729E132E0338322832AA12E
:103AE0003BA14CA15DA1C901DA0184839583A68322
:103AF000B7830E942F3410923D038DB79EB708966E
:103B00000FB6F8949EBF0FBE8DBF0E94152200D045
:103B100000D0ADB7BEB712965C924E921197E5E118
:103B2000F2E01496FC93EE9313970E942F348A8947
:103B30009B89AC89BD898A8F9B8FAC8FBD8F2AA151
:103B40003BA14CA15DA1C901DA018E8B9F8BA88F8F
:103B5000B98F640153010F900F900F900F90F1CA2D
:103B600044E4E42E42E0F42E00D000D0ADB7BEB75E
:103B70001296FC92EE92119788E093E014969C9333
:103B80008E9313970E94783403E512E0EDB7FEB7E9
:103B90001283018383E093E0948383830E947834CB
:103BA00010928F02DD24D394D0929B020B5F1F4FA3
:103BB000ADB7BEB712961C930E9311978EEF92E09D
:103BC00014969C938E9313970E947834D09290020F
:103BD00010929C020B5F1F4FEDB7FEB7128301835B
:103BE00089EF92E0948383830E94783432E0D32E6D
:103BF000D092910210929D0285E090E0E80EF91EAD
:103C0000ADB7BEB71296FC92EE92119784EF92E098
:103C100014969C938E9313970E947834065F1F4FDF
:103C2000EDB7FEB71283018380EF92E09483838324
:103C30000E94783410929302D0929F020B5F1F4F24
:103C4000ADB7BEB712961C930E9311978BEE92E010
:103C500014969C938E9313970E947834109294023A
:103C600023E0D22ED092A0020B5F1F4FEDB7FEB71C
:103C70001283018386EE92E0948383830E947834DA
:103C80001092950294E0C92EC092A1020B5F1F4FC3
:103C9000ADB7BEB712961C930E93119783EE92E0C8
:103CA00014969C938E9313970E94783410929602E8
:103CB00083E6B82EB092A202E5E0F0E0EE0EFF1E21
:103CC000ADB7BEB71296FC92EE9211978EED92E0D0
:103CD00014969C938E9313970E9478340B5F1F4F1A
:103CE000EDB7FEB71283018389ED92E0948383835D
:103CF0000E9478341092970285E08093A3020B5FB4
:103D00001F4FADB7BEB712961C930E93119784ED5B
:103D100092E014969C938E9313970E94783410929D
:103D2000980286E08093A4020B5F1F4FEDB7FEB7A9
:103D30001283018381ED92E0948383830E9478341F
:103D400010929902B092A502D092A702C092A80246
:103D5000D092A9020F900F900F900F9081EE95E0F6
:103D600040E050E060E070E00E944A040E9433238B
:103D700088E20E9486220E946E2281EE95E00E94D7
:103D80009D0467E871E080E090E00E946304CFE862
:103D9000D1E0B5E1AB2EB3E0BB2EA1E1EA2EA3E06A
:103DA000FA2EFDE0CF2EF3E0DF2E05E014E1E3E094
:103DB0009E2E81EE95E040E050E060E070E00E94D1
:103DC0004A040E946E2281E061E00E94042281E0A8
:103DD00080933C0300D000D000D0EDB7FEB7319601
:103DE000ADB7BEB71296DC93CE931197B382A28281
:103DF00080913702809FC00111248C5B9D4F958379
:103E000084830E942F3410923C0360913902E09128
:103E10003702F0E0E955FD4F8DB79EB706960FB615
:103E2000F8949EBF0FBE8DBF80816817A0F14FC070
:103E300000D000D000D0EDB7FEB73196ADB7BEB719
:103E40001296DC93CE931197D382C282809F900109
:103E5000112480913702819FC0011124280F391F3E
:103E60002D5A3D4F358324830E942F34EDB7FEB782
:103E700036960FB6F894FEBF0FBEEDBF60913902C3
:103E80006F5F60933902E0913702F0E0E955FD4F32
:103E900080816817E0F46E5F81E00E9404229091B7
:103EA000380280913902981719F600D000D000D05E
:103EB000EDB7FEB73196ADB7BEB71296DC93CE9391
:103EC0001197F382E282909F90011124C2CF81EE7C
:103ED00095E00E949D04F89484E392E040E050E075
:103EE00060E070E00E946B04789490913602992310
:103EF00069F4E0913702F0E0E955FD4F908180913F
:103F00003802981791F01092390253CF913081F412
:103F1000809138028F5F80933802E0913702F0E0A1
:103F2000E955FD4F9081891771F710923802EBCF58
:103F3000923009F03ECF20913702A22FB0E080915D
:103F40003802AA0FBB1FAA0FBB1FA80FB11DFD018E
:103F5000E556FD4FE081EE2399F0E43009F44EC0C0
:103F6000E530B0F4E230A9F1E330F0F5E13059F694
:103F7000809125029091260261E00E94A903C3CF9F
:103F8000A157BD4F8C918093370210923802BBCF5E
:103F9000E630B9F0E63068F0E33609F0B4CF2093AC
:103FA0003A02A157BD4F8C9180933702209338027B
:103FB000AACF8091290290912A0261E00E94A90370
:103FC000A2CF80912B0290912C0261E00E94A90364
:103FD0009ACF81E080931D01809127029091280261
:103FE00061E00E94A9038FCF90931D018091270269
:103FF0009091280261E00E94A90385CF90921D0153
:10400000809127029091280261E00E94A9037BCF52
:1040100067E871E080E090E00E94630411E0F894AA
:104020008BE392E040E050E060E070E00E946B04BF
:10403000789480911901843009F43DC08530D0F422
:10404000813009F460C0833051F7F894DA9A109304
:1040500019011092360284E392E060E070E00E9461
:104060003803809125029091260262E00E94A90304
:104070007894D5CF853059F1863089F6F894DA9A5C
:1040800080913602813009F465C080911F018F5FF5
:1040900080931F0190911F0180912501891710F4D1
:1040A00010931F0180912B0290912C0264E00E94DA
:1040B000A9037894B4CFF894DA9A809136028130CB
:1040C00009F45BC0823009F46BC0833039F1F89495
:1040D000DA9A80913602813051F180911E018F5F12
:1040E00080931E0190911E0180912401891710F484
:1040F00010931E018091290290912A0264E00E948F
:10410000A90378948CCFF894DA9A6091360284E30C
:1041100092E070E00E943803789481CF809127026A
:104120009091280268E00E94A903789478CF809348
:1041300019011092360284E392E060E070E00E9480
:1041400038038091290290912A0262E00E94A9031B
:10415000789465CF809319011092360284E392E03F
:1041600060E070E00E94380380912B0290912C0255
:1041700062E00E94A903789452CF809319011092B3
:10418000360284E392E060E070E00E9438038091A0
:1041900027029091280262E00E94A90378943FCF01
:1041A000809127029091280264E00E94A9037894EC
:1041B00036CF1092B20082E08093B00097E09093E7
:1041C000B1009FE49093B3008093700067E871E0C2
:1041D00080E090E00E946304C1E0D0E011E0A3E041
:1041E000FA2E02E0F8948DE392E040E050E060E0C7
:1041F00070E00E946B0478948091D201813091F735
:1042000060913F02613009F44EC089B129B149B1D2
:1042100090E096958795929582958F7089279F70EB
:1042200089278C279D2730E00024220F331F001C94
:10423000220F331F001C232F302D2C273D27282B26
:10424000217030E0552747FD509540955095442703
:10425000550F441F5527242B352B80E090E0662313
:1042600011F481E090E028233923232BB1F48091CD
:104270004202863078F01092420210933F024D992C
:104280001FC010933602609136028BE392E070E01B
:104290000E9438031092D201A5CF809142028F5F15
:1042A00080934202E6CF8091400290914102883291
:1042B000910558F401969093410280934002A5CF56
:1042C0004E990BC000933602DECF1092410210923D
:1042D000400210923F0260E098CF4F99D4CFF09205
:1042E0003602D1CF1F920F920FB60F9211242F9347
:1042F0003F934F935F936F937F938F939F93AF936E
:10430000BF93EF93FF9381E08093D2016091D2013C
:104310008DE392E070E00E9438030E947D04FF91DB
:10432000EF91BF91AF919F918F917F916F915F912D
:104330004F913F912F910F900FBE0F901F901895A6
:104340001F920F920FB60F9211242F933F934F930A
:104350005F936F937F938F939F93AF93BF93EF93ED
:10436000FF93809143028F5F8093430290E08770B8
:104370009070892BB1F5109243028091AA0290911E
:10438000AB029093AD028093AC0280918400909137
:1043900085009093AB028093AA0210928500109240
:1043A000840060910A0270910B0280910C0290913E
:1043B0000D022091D7013091D8014091D90150913F
:1043C000DA010E94CD2D60930A0270930B02809354
:1043D0000C0290930D0284EF91E065E570E00E947D
:1043E00038030E947D04FF91EF91BF91AF919F919F
:1043F0008F917F916F915F914F913F912F910F908E
:104400000FBE0F901F90189596E0899FC001112450
:104410008A55904024E5629FB0011124860F971FB2
:1044200090933F0380933E03089580913E039091C3
:104430003F038455904090933F0380933E0308953B
:10444000982F87B18C6087B94198613049F14298C3
:10445000492F50E027E030E009C0439A449A44983D
:10446000215030408FEF2F3F380791F0CA01022EC4
:1044700002C0959587950A94E2F780FDEECF4398A8
:10448000449A4498215030408FEF2F3F380771F7FE
:10449000419A87B1837F87B988B18C6088B90895C4
:1044A00080913C0381119095429AD2CF0F931F9334
:1044B0008C0164E570E00E947231806860E00E94C7
:1044C0002022C80164E570E00E947231862F80646A
:1044D00060E00E9420221F910F910895CF93DF93F7
:1044E00010923F0310923E0380E090E00E9456221B
:1044F000C0E0D0E080E061E00E942022219681E0CF
:10450000C83FD807B9F7DF91CF9108951F93182FAF
:1045100081E260E00E942022812F806860E00E949A
:10452000202280E260E00E9420221F910895AF9235
:10453000BF92DF92EF92FF920F931F93CF93DF937F
:10454000D82EE0903E03F0903F03C7010E94562210
:1045500080913D03882341F52D2D30E0C901880F5E
:10456000991F880F991F820F931FEC01CF59D040DC
:104570008C010A591040CE010E941435880F61E069
:104580000E9420222196C017D107A9F780E061E0A0
:104590000E94202286E090E0E80EF91EF0923F0390
:1045A000E0923E0380913D03813051F0DF91CF9145
:1045B0001F910F91FF90EF90DF90BF90AF90089503
:1045C0008BE0D89E500111248501085D1F4FC1E08A
:1045D000D2E00DC0C8010E94143561E00E94202283
:1045E00021960F5F1F4F82E0CC30D80729F090E270
:1045F000D91681F7CE01EFCFE0903E03F0903F0354
:10460000C7018455904090933F0380933E030E94DE
:104610005622850107521F4FC2EBD2E00DC0C801E0
:104620000E94143561E00E94202221960F5F1F4FE7
:1046300082E0CD3BD80729F090E2D91681F7CE0170
:10464000EFCF80E061E00E9420228CE090E0E80E55
:10465000F91EF0923F03E0923E03A8CF0E949722FA
:1046600080E090E00895409A87B18F6187B96BE34D
:1046700070E080E090E00E94630440986BE370E09B
:1046800080E090E00E946304409A419A81E260E0F9
:104690000E94202288EC60E00E94202286E060E0F8
:1046A0000E94202283E160E00E94202280E260E0FC
:1046B0000E9420228CE060E00E9420220E946E2254
:1046C00008959093C5008093C40088E18093C10051
:1046D00086E08093C2000895982F8091C00085FFE6
:1046E000FCCF9093C60008958091C00087FFFCCF57
:1046F0008091C6000895FC019081992351F080912A
:10470000C00085FFFCCF9093C6003196908199231D
:10471000B1F708958091C000881F8827881F0895E9
:10472000982F8091C00085FFFCCF9093C60080E059
:1047300090E00895DC018617970788F48C91853501
:1047400071F4FD0103C08081853521F43196E617AF
:10475000F707C8F39F012A1B3B0BC901089520E00E
:1047600030E0FBCFFC018617970728F485E581939D
:10477000E617F707E0F30895FC01F8948081789438
:1047800008959AE0899FF0011124E55DFE4F628152
:104790007381808191810E949A2308958091780885
:1047A00090917908009729F06FEF78E00E949A23A2
:1047B00008958091BB019091BC016FEF78E00E9459
:1047C0009A230895DF93CF9300D0CDB7DEB78BE265
:1047D00091E09A83898360912D0170912E0161157A
:1047E000710579F0FC01808191810E94B223E981F9
:1047F000FA813A96FA83E9836281738161157105C2
:1048000091F78091780890917908009751F0BE0156
:104810006F5070400E94B2230F900F90CF91DF91A4
:1048200008958091BB019091BC01F1CF6115710594
:104830008105910509F40895FFCF2091440330913B
:104840004503409146035091470326173707480711
:10485000590709F40895FFCF6F927F928F929F922C
:10486000AF92BF92CF92DF92EF92FF920F931F937E
:10487000CF93DF93182FC0912D01D0912E01209757
:1048800009F476C03BE2E32E31E0F32E01E02DE99E
:10489000A22E21E0B22E92E3692E93E0792E80E4DD
:1048A000882E83E0982E10C0123009F440C02AE010
:1048B00030E0E20EF31E0F5FD7011296CD91DC912E
:1048C0001397209709F455C0113071F7073078F726
:1048D00081E0602F0E940422D701CD90DC90C601B8
:1048E000BE010E949A23EDB7FEB73A970FB6F8942F
:1048F000FEBF0FBEEDBF3196ADB7BEB71296BC92EC
:10490000AE92119793828282048315829783868365
:10491000CC19DD09D187C0870E942F34EDB7FEB7CF
:104920003A960FB6F894FEBF0FBEEDBFC0CF07306A
:1049300008F4BDCF602F665081E00E940422D701A9
:10494000CD90DC90C601BE010E949A23EDB7FEB760
:104950003A970FB6F894FEBF0FBEEDBF3196ADB7D4
:10496000BEB71296BC92AE92119773826282CCCF80
:1049700001E0113009F452C0123079F0DF91CF918B
:104980001F910F91FF90EF90DF90CF90BF90AF906D
:104990009F908F907F906F900895073078F3065026
:1049A00081E0602F0E94042280917808909179081C
:1049B000009709F458C06FEF78E00E949A232DB752
:1049C0003EB7285030400FB6F8943EBF0FBE2DBF03
:1049D000EDB7FEB731962DE931E0ADB7BEB712960F
:1049E0003C932E93119728E133E033832283958300
:1049F000848380E099E02091BB013091BC01821B4F
:104A0000930B978386830E942F34EDB7FEB73896B9
:104A10000FB6F894FEBF0FBEEDBFB0CF073008F061
:104A2000ADCF81E0602F0E940422809178089091A0
:104A300079080097E9F06FEF78E00E949A23EDB7CC
:104A4000FEB738970FB6F894FEBF0FBEEDBF319694
:104A50002DE931E0ADB7BEB712963C932E93119776
:104A600025E233E0C2CF8091BB019091BC01A3CF7E
:104A70008091BB019091BC01DECFEF92FF920F932A
:104A80001F93CF93DF9300D000D00BEA11E0ADB7B6
:104A9000BEB712961C930E93119787E593E0149678
:104AA0009C938E9313970E942F3460912D017091E7
:104AB0002E010F900F900F900F906115710551F11D
:104AC000CBE2D1E043E5E42E43E0F42E88819981E6
:104AD0000E949A2300D000D000D0EDB7FEB73196E7
:104AE000ADB7BEB712961C930E931197F382E28274
:104AF000958384830E942F342A966A817B81EDB747
:104B0000FEB736960FB6F894FEBF0FBEEDBF611527
:104B10007105E1F68091780890917908009739F154
:104B20006FEF78E00E949A2300D000D000D0EDB75C
:104B3000FEB73196ADB7BEB712961C930E93119780
:104B40002EE433E033832283958384830E942F34C1
:104B5000EDB7FEB736960FB6F894FEBF0FBEEDBFA9
:104B6000DF91CF911F910F91FF90EF900895809169
:104B7000BB019091BC01D4CFEF92FF920F931F9392
:104B8000CF93DF9300D000D00BEA11E0ADB7BEB7F2
:104B900012961C930E9311978FE693E014969C93B4
:104BA0008E9313970E942F3420912D0130912E0166
:104BB0000F900F900F900F902115310551F1CBE21E
:104BC000D1E05BE6E52E53E0F52E00D000D000D01A
:104BD000EDB7FEB73196ADB7BEB712961C930E93E4
:104BE0001197F382E28288819981281B390B3583E2
:104BF00024830E942F342A962A813B81EDB7FEB789
:104C000036960FB6F894FEBF0FBEEDBF21153105E5
:104C1000E1F600D000D000D0EDB7FEB73196ADB7C9
:104C2000BEB712961C930E93119786E693E093837A
:104C3000828380E099E02091BB013091BC01821B0E
:104C4000930B958384830E942F34EDB7FEB736967D
:104C50000FB6F894FEBF0FBEEDBFDF91CF911F914D
:104C60000F91FF90EF900895A1E1B0E0EAE3F6E242
:104C70000C94A8313C017F876E876A01FC01178282
:104C80001682838181FD03C06FEF7FEF6FC39E01AA
:104C90002F5F3F4F398B288BF3012381EE85FF85F2
:104CA00023FD859123FF8191FF87EE87882309F4F7
:104CB0005AC3853251F4EE85FF8523FD859123FF8C
:104CC0008191FF87EE87853229F490E0B3010E943D
:104CD0004C34E2CF982F10E0882499241032B0F49D
:104CE0009B3269F09C3228F4903251F0933271F487
:104CF0000BC09D3239F0903349F4116028C0126026
:104D0000146025C0186023C0106121C017FD2AC09F
:104D1000892F80538A3078F416FF06C0FAE09F9EF0
:104D2000902C1124980E13C03AE0839E802C1124FD
:104D3000880E10620CC09E3221F416FD14C310645C
:104D400006C09C3611F4106802C0983659F4EE85FE
:104D5000FF8523FD959123FF9191FF87EE8799238E
:104D600009F0BCCF892F8554833020F4812F8061D6
:104D7000905E07C0892F8556833008F09FC1812F30
:104D80008F7E86FD02C076E0972E6FE3F62EF82226
:104D9000953619F4F0E4FF2A07C0963619F420E896
:104DA000F22A02C091109A94F7FE0AC03BE339152B
:104DB00018F45CE3B52E02C0B92CB39427E009C007
:104DC00047E0491520F4BB2447E0942EF7CF292D66
:104DD000BB24C60104969D878C87F6016081718192
:104DE00082819381AE014F5F5F4F0B2D0E94E432B1
:104DF0006C010981202E332400FF04C003FD02C092
:104E00001DE209C0F1FE02C01BE205C0F2FC02C0B7
:104E100010E001C010E2C1018C709070892BB9F1D3
:104E2000112311F483E001C084E0881510F0882478
:104E30000AC0881AF3FC07C080E290E0B3010E9428
:104E40004C348A94C9F7112329F0812F90E0B301E3
:104E50000E944C3423FE03C00DE713E00EC001E8AE
:104E600013E00BC0E114F10409F0805290E0B301AB
:104E70000E944C340F5F1F4F05C0EF2CFF24F0E160
:104E8000EF22FF24F8018491882361F714C1F7FE13
:104E900012C0BC0C24FE04C08A81813309F4BA9488
:104EA0001B141CF0BB24B3942DC0F8E0FB1550F587
:104EB00038E0B32E27C0F6FC25C0892D90E08C1574
:104EC0009D054CF02CEFC2162FEFD20624F030E8EF
:104ED000F32A01C09A94992049F0E2E0F0E0EC0F47
:104EE000FD1FE90DF11D80818033A1F3F7FE0AC09B
:104EF000B92CB394892D90E0C816D90614F09924E2
:104F000001C09C18F7FC03C025E030E009C01C1468
:104F10001D041CF021E030E003C096012F5F3F4FDD
:104F2000112311F02F5F3F4F992029F0892D90E038
:104F30000196280F391F882D90E02817390714F0A3
:104F4000882401C0821A4F2C5524C20189709070A8
:104F5000892B39F008C080E290E0B3010E944C3404
:104F60008A948820C1F7112329F0812F90E0B301A2
:104F70000E944C3443FE07C008C080E390E0B301B8
:104F80000E944C348A948820C1F7F7FE46C08601FF
:104F9000D7FE02C000E010E076010894E11CF11C8D
:104FA000E01AF10A41E050E04C0F5D1FE40EF51EDF
:104FB00026014B185108892D90E0AA24BB24A81A79
:104FC000B90A5FEF0F3F150729F48EE290E0B301B5
:104FD0000E944C34C016D10634F0401651061CF421
:104FE000F701808101C080E3015010400894E11C6A
:104FF000F11C0A151B052CF090E0B3010E944C3403
:10500000E0CF0C151D0539F49A81963318F49533C9
:1050100011F424FE81E390E04BC08A81813309F0D2
:105020000F7E90E0B3010E944C349920A1F08EE2F3
:1050300090E0B3010E944C3412E0E1E0F0E0EC0FAC
:10504000FD1FE10FF11D1F5F808190E0B3010E9401
:105050004C349A9491F744FC03C085E690E002C07A
:1050600085E490E0B3010E944C34D7FC05C0C11424
:10507000D10441F404FF06C0D094C194D108D39464
:105080008DE201C08BE290E0B3010E944C3480E3DA
:1050900005C08F5F26EF3FEFC20ED31E3AE0C31666
:1050A000D104BCF790E0B3010E944C34C601C09615
:1050B000B3010E944C34CC84DD8452C1933631F06C
:1050C000933799F0933509F059C023C0F6018081D8
:1050D00089835E010894A11CB11C22E030E0C20E5D
:1050E000D31E21E0E22EF12C12C0F601A080B18087
:1050F00016FD03C06FEF7FEF02C0692D70E022E064
:1051000030E0C20ED31EC5010E94E2337C011F773E
:1051100013C0F601A080B18016FD03C06FEF7FEFD2
:1051200002C0692D70E022E030E0C20ED31EC5013E
:105130000E94D7337C01106813FF07C01BC080E2B8
:1051400090E0B3010E944C348A94882D90E0E816D8
:10515000F906A8F30FC0F50117FD859117FF81919E
:105160005F0190E0B3010E944C3481108A9408944E
:10517000E108F108E114F10471F7F2C0943611F07E
:10518000993689F517FF08C0F601208131814281E7
:10519000538184E090E00AC0F601808191819C01F6
:1051A000442737FD4095542F82E090E0C80ED91E69
:1051B0009FE6F92EF12257FF09C050954095309592
:1051C00021953F4F4F4F5F4F90E8F92ACA01B9012F
:1051D000AE014F5F5F4F2AE030E00E94B634E82E08
:1051E000E889EE1A41C0953721F41F7E2AE030E0AD
:1051F0001CC0197F9F3661F0903720F4983509F074
:10520000B2C00FC0903739F0983709F0ACC004C075
:1052100028E030E00AC0106114FD146020E130E0A5
:1052200004C014FD166020E132E017FF08C0F6014B
:10523000608171818281938144E050E008C0F60171
:1052400080819181BC0180E090E042E050E0C40E9A
:10525000D51EAE014F5F5F4F0E94B634E82E5889CD
:10526000E51A8FE7F82EF122F6FE0BC08EEFF8223A
:10527000E91438F4F4FE07C0F2FC05C09FEEF922F1
:1052800002C01E2D01C0192DF4FE0DC0FE01EE0D51
:10529000F11D8081803319F4E9EEFE2208C01F5F02
:1052A000F2FE05C003C08F2D867809F01F5F0F2D19
:1052B000F3FC14C0F0FE0FC0181510F09E2C0BC0AC
:1052C0009E2C980C911A182D06C080E290E0B30134
:1052D0000E944C341F5F1815C0F304C0181510F459
:1052E000811A01C0882404FF0FC080E390E0B3015D
:1052F0000E944C3402FF1DC001FD03C088E790E00E
:105300000EC088E590E00BC0802F867891F001FFF9
:1053100002C08BE201C080E2F7FC8DE290E0B301B5
:105320000E944C3406C080E390E0B3010E944C34EC
:105330009A94E914C0F3EA94E1E0F0E0EC0FFD1F69
:10534000EE0DF11D808190E0B3010E944C34EE20FF
:1053500091F706C080E290E0B3010E944C348A9439
:105360008820C1F799CCF30166817781CB016196E2
:10537000E2E10C94C431FC0120FD08C023FD05C00E
:1053800022FF02C073836283518340830895EF92AA
:10539000FF920F931F9344FF02C033E011C046FFFA
:1053A00002C034E00DC0DB01FC01AA0FBB1FEE1FE1
:1053B000FF1F1094D1F76A0F7B1F8E1F9F1F31E0D4
:1053C000660F771F881F991F3150D1F77B018C0121
:1053D000E20EF11C011D111DA8019701B701CA01C0
:1053E0001F910F91FF90EF9008950F931F93CF930C
:1053F000DF938C01C8010E94ED33EC0197FD08C0DA
:105400000E94BC33892BB1F7CE01B8010E949C34B5
:10541000CE01DF91CF911F910F9108958F929F92AE
:10542000AF92BF92DF92EF92FF920F931F93CF93B1
:10543000DF935C01EB014A01122F0E94ED33AC01B6
:105440008B3219F08D3251F41068219709F46DC038
:10545000C5010E94ED33AC0197FD67C06DEFD62EFC
:10546000D1228D2D807301F54033F1F4219709F499
:1054700047C0C5010E94ED33AC0197FD41C082E0F9
:10548000D82A483711F0483559F480E4D82A2197B2
:10549000B9F1C5010E94ED33AC0199232CF430C061
:1054A000D6FC02C080E1D82AEE24FF248701242FF5
:1054B0002053283088F0D4FC09C02A3068F0D6FE8A
:1054C00005C02F7D822F8151863028F0CA01B50199
:1054D0000E949C3412C02750C801B7014D2D0E9474
:1054E000C7297B018C0182E0D82A219761F0C50190
:1054F0000E94ED33AC0197FFDACFD1FC04C015C098
:10550000EE24FF248701D7FE08C010950095F09483
:10551000E094E11CF11C011D111DC401B801A7019B
:105520002D2D0E94BB2981E001C080E0DF91CF9149
:105530001F910F91FF90EF90DF90BF90AF909F90E1
:105540008F900895A0E2B0E0E8EAFAE20C94AC3162
:105550005C016B018A017901FE01319680E2DF0175
:105560001D928A95E9F770E030E060E040E050E09D
:105570003F01A1E0B0E0F5018381F70183FD2591B2
:1055800083FF21917F01222309F481C02E3519F474
:105590004115510569F1872F90E08417950744F470
:1055A0002D3551F12D3221F4332329F431E021C07E
:1055B000332309F4622F322F832F869586958695A3
:1055C000F301E80FF11D832F87704D0102C0880C95
:1055D000991C8A95E2F7208128292083361711F437
:1055E00030E007C0361710F43F5FE6CF3150E4CF0C
:1055F00071E04F5F5F4FBFCF332319F08E81806220
:105600008E83772359F0FE0131969E012F5D3F4F27
:10561000808180958193E217F307D1F799249394C1
:105620003E010894611C711CC5010E94ED33AC0160
:1056300097FD25C0869586958695F301E80FF11DA7
:10564000808190E09A012770307002C0959587950F
:105650002A95E2F780FD05C0CA01B5010E949C347D
:105660000EC00115110519F0D8014D938D01089454
:10567000C108D1089924C114D104B1F602C09920FF
:1056800031F40115110529F0F801108202C0EE2451
:10569000FF24C701A096EEE00C94C8312F923F92F0
:1056A0005F926F927F928F929F92AF92BF92CF92B2
:1056B000DF92EF92FF920F931F93CF93DF933C0102
:1056C0007B011A010E94ED33EC018B3239F08D32EF
:1056D00011F0552411C0B0E85B2E01C05524089488
:1056E000E108F108E114F10409F418C1C3010E94B2
:1056F000ED33EC0197FD12C1CE010E94C43389360F
:10570000910521F08E36910599F51DC00AE913E047
:105710001CC00894E108F108E114F10471F0C30120
:105720000E94ED33EC0197FD08C00E94C433D816E7
:1057300061F0CE01B3010E949C3423E00D391207C1
:1057400009F0ECC008C007E913E0F8010F5F1F4F34
:10575000D490DD20F1F60A59134029F080E090E062
:10576000A0E8BFE7CFC080E090E0A0ECBFE7CAC0F0
:10577000CC24DD24882499245401AE014053242FE5
:105780004A3038F552E0552A852D90E0AC0148703A
:10579000507052FE06C0452B11F50894C11CD11C57
:1057A0001EC0452B19F00894C108D108C501B401E9
:1057B00040E20E94C7294B015C0188E9881689E90B
:1057C000980689E9A80689E1B80648F094E0592AC4
:1057D00006C04E3F81F453FC0EC0E8E05E2A0894F8
:1057E000E108F108E114F10431F0C3010E94ED3346
:1057F000EC0197FFC2CF51FE91C0C53619F0C534F8
:1058000009F046C00894E108F108E114F10409F434
:1058100085C0C3010E94ED33EC0197FD7FC08B3240
:1058200021F08D3269F4F0E15F2A0894E108F10873
:10583000E114F10409F472C0C3010E94ED33EC01DC
:10584000CE01C0970A9708F069C000E010E0B801E7
:10585000882777FD8095982FAE014053242F40E292
:105860000E94C7298B010894E108F108E114F104B2
:1058700039F0C3010E94ED33EC01C0970A9738F369
:10588000B80154FE03C0709561957F4FC60ED71EB8
:10589000EF2831F0D7FD04C0CE01B3010E949C3443
:1058A000C501B4010E94C92ED7FE0DC0A6EBEA2E99
:1058B000A3E0FA2ED094C194D108D394C0E2D0E0F2
:1058C00000E010E00EC0FEECEF2EF3E0FF2EF6CF6E
:1058D000F70125913591459154910E947F2FCC1A63
:1058E000DD0ACC16DD06A0F7D695C7950F5F1F4FD2
:1058F0000630110529F0ECEFFFEFEE0EFF1EF1CFA1
:10590000DC01CB0157FCB0582114310429F0F1011E
:1059100080839183A283B38381E001C080E0DF9123
:10592000CF911F910F91FF90EF90DF90CF90BF909C
:10593000AF909F908F907F906F905F903F902F904F
:105940000895A0E0B0E0E7EAFCE20C94AB314C0132
:105950005B013A01FC0117821682552404C1812F94
:1059600090E00E94BC33892B21F0C4010E94F529EC
:10597000FAC0153249F4F501F3FC6591F3FE61912B
:105980005F01653269F415E2C4010E94ED3397FDB1
:10599000F6C0181709F4E7C0B4010E949C34F4C0A3
:1059A0006A3219F0162F00E006C0F3FC1591F3FEE1
:1059B00011915F0101E0CC24DD240EC00260B6012C
:1059C00080E090E040E20E94C7296B01F501F3FC02
:1059D0001591F3FE11915F01212F20532A3070F3AE
:1059E00001FD04C0CC24CA94DC2C04C0C114D10431
:1059F00009F4CAC0183621F01C3699F4F5010BC021
:105A0000F501F3FC6591F3FE6191683619F05F01D1
:105A1000162F07C008600460F3FC1591F3FE119186
:105A20005F01112309F4B0C085E893E0612F70E0B5
:105A30000E94CC33892B09F4A7C0802F00FF03C03C
:105A4000EE24FF2407C0F301E080F18022E030E083
:105A5000620E731E1E3651F4F4014681578160E0D8
:105A600070E0C701202F0E94BB297DC01336B9F416
:105A700081FD03C081E0C82ED12CC4010E94ED330A
:105A800097FD7DC0E114F10419F0F70181937F01C6
:105A90000894C108D108C114D10479F762C01B353C
:105AA00059F4C401B601A70195010E94A22A5C0124
:105AB000009709F056C050C0C4010E94F52997FD17
:105AC0005EC01F36D1F1103738F41436A1F1193603
:105AD000A9F11835D1F52DC0133751F0143718F44A
